:1000000039C1000054C1000052C1000050C10000BD
:100010004EC100004CC100004AC1000048C10000B0
:1000200046C1000044C100000C946D380C94A73800
:100030003EC100003CC100003AC1000038C10000D0
:1000400036C100000C94EE2732C1000030C1000020
:100050002EC100000C949D0B2AC1000028C1000095
:1000600026C100000C949F1B0C94581B20C100005B
:100070001EC100001CC100001AC1000018C1000010
:100080000C94EC2F14C1000012C1000010C100003C
:100090000EC100000CC100000AC1000008C1000030
:1000A00006C1000004C1000002C10000B40D340EFE
:1000B000CC0E550FDD0F5810E6106211E5116C12D1
:1000C000E6127313EE137614FF14301DB51D371EA0
:1000D000C61E4D1FD21F5220DC205C21DE21632270
:1000E000E3226D23ED237224F924A131D4312C3283
:1000F0006632813223321A332B334B336F332A3239
:1001000089331A341A34933390338D3353503A254C
:100110007800256420256420256420006C617365C7
:1001200072204F4646004C41534552204F4E2025E9
:1001300064005A3A256E20202020202020202020F4
:10014000202000593A256E20202020202020202029
:1001500020202000583A256E20202020202020201A
:10016000202020200025632051756575653A25649F
:1001700020256E2000554152545F52585F46554C21
:100180004C004552524F520A004F4B2025640A0042
:1001900030313233343536373839414243444546BD
:1001A0000001000057021200020000140243000385
:1001B000000010020401030904FE011002030904F7
:1001C000D4012803030904CA0108080331003300DD
:1001D00037000000280346007200650065004300F8
:1001E0004E00430020004C00610073006500720067
:1001F0006300750074007400650072000000100355
:1002000065002D00500075006E006B00740000004A
:100210000403090409024300020100C0320904007A
:100220000001020201000524001001052401010162
:10023000042402060524060001070582031000407D
:1002400009040100020A0000000705030240000043
:10025000070584024000001201000202000010C0E5
:10026000167A040001010203010001C11201803667
:100270000181360011241FBECFEFDAE0DEBFCDBF13
:1002800011E0A0E0B1E0E6E6F7E702C005900D92CC
:10029000A431B107D9F718E0A4E1B1E001C01D9283
:1002A000A736B107E1F70E94D6340C94F239A8CEF4
:1002B0008CE1E1E6F1E0DF011D928A95E9F708950E
:1002C0002F923F924F926F927F928F92CF92DF92B6
:1002D000EF920F931F93CF93DF9300D000D000D005
:1002E000CDB7DEB7E0914B012BE1E29F80011124F5
:1002F00000561D4F20906A0130906B0140906C01B8
:100300008091610190916201A091630189839A8338
:10031000AB83C101E981FA818E1B9F0B97FF03C05C
:10032000919581959109AA2797FDA095F801818360
:100330009283A383C0906D01D0906E01E0906F0115
:10034000609064017090650180906601C601861915
:10035000970997FF03C0919581959109AA2797FD69
:10036000A095F80184839583A68380917001909174
:100370007101A09172018C839D83AE8320916701EE
:100380003091680140916901BC01621B730B77FFDA
:1003900003C0719561957109CB01AA2797FDA095BE
:1003A000F80187839087A18751E089819A81AB8189
:1003B000281639064A060CF050E0C614D704E804A3
:1003C00014F462E001C060E0562B8C819D81AE8107
:1003D00082179307A40714F484E001C080E0852B02
:1003E000F801828783E080838FEF9FEF928B818B70
:1003F000828D837E828F0E940C1C80916A01909175
:100400006B01A0916C018093610190936201A093B4
:10041000630180916D0190916E01A0916F018093B5
:10042000640190936501A0936601809170019091A1
:100430007101A09172018093670190936801A0936C
:10044000690126960FB6F894DEBF0FBECDBFDF91CF
:10045000CF911F910F91EF90DF90CF908F907F9071
:100460006F904F903F902F9008952F923F924F9210
:100470005F926F927F928F929F92AF92BF92CF9234
:10048000DF92EF92FF920F931F93CF93DF93CDB73D
:10049000DEB766970FB6F894DEBF0FBECDBF6B8791
:1004A0007C878D879E878091640190916501A091E2
:1004B000660120916D0130916E0140916F01821BA8
:1004C000930BA40BBC018A2F0E9491189B01AC01D5
:1004D0008091610190916201A091630160906A0135
:1004E00070906B0180906C0186199709A809BC0176
:1004F0008A2F2F87388B498B5A8B0E9468182F853B
:10050000388949895A890E94E62D6F8378878987BF
:100510009A8780914B010BE1809F1001112491017A
:1005200020563D4F190180916A0190916B01A09175
:100530006C018B8B9C8BAD8B8090610190906201E4
:10054000A09063018B899C898819990997FF03C042
:10055000919581959109AA2797FDA095F101818335
:100560009283A38300916D0110916E0120916F0120
:1005700009831A832B832091640130916501409196
:1005800066012C833D834E83A801421B530B57FF0A
:1005900003C0519541955109662757FD6095F101BA
:1005A000448355836683C0907001D0907101E090C0
:1005B0007201409067015090680160906901960156
:1005C0002419350937FF03C0319521953109890177
:1005D000222717FD2095F10107831087218771E0FD
:1005E0000B891C892D89081519052A050CF070E066
:1005F0008C809D80AE8009811A812B810815190598
:100600002A0514F432E001C030E0372BC414D504BD
:10061000E60414F424E001C020E0232BF10122873A
:100620004A01A62E481759076A0710F44C01AA2E52
:100630006F81788589859A8520E034E244EF50E027
:100640000E94883A29013A016E8B7B8B89839C83B7
:100650004A2D940150E06B857C858D859E850E9496
:100660007B3A59016A017B018C019201A3016E89D9
:100670007B8989819C810E94703AF101218B328BA8
:1006800084E0808380916F0690917006A09171063E
:10069000B09172060097A105B105B9F48091610689
:1006A00090916206A0916306BC018A2F90E02F8191
:1006B000388549855A850E94FE3920E432E44FE0AE
:1006C00050E00E940D3AA42FC901F101838B948B55
:1006D000A58B8091640690916506A0916606868B35
:1006E000978BA08F90916C0680916D06918F828F71
:1006F0000E940C1C80916A0190916B01A0916C0189
:100700008093610190936201A093630180916D01D8
:1007100090916E01A0916F018093640190936501A7
:10072000A09366018091700190917101A091720176
:100730008093670190936801A093690166960FB654
:10074000F894DEBF0FBECDBFDF91CF911F910F9107
:10075000FF90EF90DF90CF90BF90AF909F908F90E1
:100760007F906F905F904F903F902F9008954F92A1
:100770005F926F928F929F92AF92BF92CF92DF92D1
:10078000EF92FF920F931F93CF93DF93CDB7DEB716
:100790002E970FB6F894DEBF0FBECDBF688779875E
:1007A0008A879B87D42E8091730190917401A091C8
:1007B0007501409061015090620160906301481A98
:1007C000590A6A0A80906A0190906B01A0906C01AE
:1007D000881A990AAA0A8091760190917701A091CE
:1007E0007801E0906401F090650100916601E81ADB
:1007F000F90A0A0BE982FA820B83E0906D01F0900E
:100800006E0100916F01E81AF90A0A0BEC86FD8669
:100810000E87E980FA800B81112707FD1095A8014A
:100820009701062D7201112707FD1095C801B70128
:100830000E94E62D6C837D838E839F83EC84FD84F0
:100840000E85112707FD1095A80197010A2D740147
:10085000112707FD1095C801B7010E94E62DEC8015
:10086000FD800E811F816E157F058007910710F4B2
:10087000C801B701DF92FE84FF920D850F931C859E
:100880001F93CA2C5401E980FA800B81462D9201F6
:100890000E94D6160F900F900F900F90209170012C
:1008A00030917101409172018091670190916801CE
:1008B000A0916901281739074A07D1F06885798521
:1008C0008A859B852E960FB6F894DEBF0FBECDBFEE
:1008D000DF91CF911F910F91FF90EF90DF90CF901C
:1008E000BF90AF909F908F906F905F904F90E8CCAB
:1008F0002E960FB6F894DEBF0FBECDBFDF91CF911D
:100900001F910F91FF90EF90DF90CF90BF90AF902D
:100910009F908F906F905F904F900895E0914B0162
:100920009BE1E99FF0011124E056FD4F20916A01FF
:1009300030916B0140916C0121833283438320917C
:100940006D0130916E0140916F01248335834683A0
:10095000209170013091710140917201278330879D
:100960004187882319F0828781E003C080E782876E
:1009700082E0808380E49FE1928B818B0E940C1C3B
:1009800080916A0190916B01A0916C01809361014B
:1009900090936201A093630180916D0190916E012B
:1009A000A0916F018093640190936501A09366010B
:1009B0008091700190917101A09172018093670103
:1009C00090936801A093690108950F931F938091FC
:1009D000B3069091B406A091B506B091B606A7FFF4
:1009E0002DC04091F3070091660710916707209191
:1009F000680730916907411104C04091F207442310
:100A0000A9F04091DA075091DB076091DC07709103
:100A1000DD07400F511F621F731F4093DA07509389
:100A2000DB076093DC077093DD0708C00093DA07EB
:100A30001093DB072093DC073093DD07B0FF2DC058
:100A40004091F40700916A0710916B0720916C07A1
:100A500030916D07411104C04091F2074423A9F081
:100A60004091DE075091DF076091E0077091E10748
:100A7000400F511F621F731F4093DE075093DF0723
:100A80006093E0077093E10708C00093DE071093BE
:100A9000DF072093E0073093E107B1FF2DC080917D
:100AA000F50740916E0750916F0760917007709144
:100AB0007107811104C08091F2078823A9F0809109
:100AC000E2079091E307A091E407B091E507840F56
:100AD000951FA61FB71F8093E2079093E307A0938B
:100AE000E407B093E50708C04093E2075093E3079B
:100AF0006093E4077093E5076091DA077091DB0774
:100B00008091DC079091DD070E94E21860936A01F2
:100B100070936B0180936C016091DE077091DF0729
:100B20008091E0079091E1070E94081960936D01A0
:100B300070936E0180936F016091E2077091E307FB
:100B40008091E4079091E5070E942E19609370014F
:100B500070937101809372011F910F9108952F92EC
:100B60003F924F925F926F927F928F929F92AF923D
:100B7000BF92CF92DF92EF92FF920F931F93CF938A
:100B8000DF93CDB7DEB761970FB6F894DEBF0FBE27
:100B9000CDBF8D878091DA079091DB07A091DC07AC
:100BA000B091DD078093E6079093E707A093E807ED
:100BB000B093E9078091DE079091DF07A091E007ED
:100BC000B091E1078093EA079093EB07A093EC07BD
:100BD000B093ED07FADE8091B3069091B406A09130
:100BE000B506B091B6068C019D01002713702270E6
:100BF0003327011511052105310511F480E08EC15F
:100C000090FF1CC04091E6075091E7076091E8070C
:100C10007091E907C0902A07D0902B07E0902C072D
:100C2000F0902D074C0D5D1D6E1D7F1D4093E60756
:100C30005093E7076093E8077093E90791FF1CC0A2
:100C40008091EA079091EB07A091EC07B091ED0736
:100C500040912E0750912F07609130077091310716
:100C6000840F951FA61FB71F8093EA079093EB0789
:100C7000A093EC07B093ED07011511052240310553
:100C800009F02BC180914E0790914F07A09150071A
:100C9000B09151078D839E83AF83B8872091DA0787
:100CA0003091DB074091DC075091DD078091E6072A
:100CB0009091E707A091E807B091E907281B390B4D
:100CC0004A0B5B0B29833A834B835C834090DE079E
:100CD0005090DF076090E0077090E1078091EA078D
:100CE0009091EB07A091EC07B091ED07481A590AD3
:100CF0006A0A7B0AA301920169817A818B819C81B6
:100D00000E94E62D69877A878B879C876D817E811B
:100D10008F8198859B01AC010E947B3A2E873F878B
:100D20001A014B01898B988B69857A858B859C8507
:100D30009B01AC010E947B3A02E00E94573B5901A3
:100D40006A017B018C012E853F85A101B40189894F
:100D500098890E947C3B0E94F32C6B017C0197FDDB
:100D60004DCFA30192010E94FE3929853A854B851A
:100D70005C850E942F3A49015A012093E60730937F
:100D8000E7074093E8075093E90729813A814B81AF
:100D90005C8150954095309521953F4F4F4F5F4F67
:100DA000C701B6010E94FE3929853A854B855C85CD
:100DB0000E942F3A2093EA073093EB074093EC0709
:100DC0005093ED078D85882351F08D819E81AF81F1
:100DD000B885181619061A061B063CF025C08D8129
:100DE0009E81AF81B885B7FF1FC0B094A094909446
:100DF0008094811C911CA11CB11C8092E6079092EA
:100E0000E707A092E807B092E90788279927DC0155
:100E1000821B930BA40BB50B8093EA079093EB070F
:100E2000A093EC07B093ED076091DA077091DB07B0
:100E30008091DC079091DD07660F771F881F991F4F
:100E400029813A814B815C81621B730B840B950B6A
:100E500032E0C32ED12CE12CF12CA70196010E9487
:100E60002F3A8091E6079091E707A091E807B091AB
:100E7000E907820F931FA41FB51F8093E607909385
:100E8000E707A093E807B093E9076091DE07709148
:100E9000DF078091E0079091E107660F771F881FB9
:100EA000991F6419750986099709A70196010E947F
:100EB0002F3A8091EA079091EB07A091EC07B0914F
:100EC000ED07820F931FA41FB51F8093EA0790932D
:100ED000EB07A093EC07B093ED076091E6077091E4
:100EE000E7078091E8079091E9070E94E218609374
:100EF000730170937401809375016091EA0770919A
:100F0000EB078091EC079091ED070E940819609320
:100F10007601709377018093780181E061960FB636
:100F2000F894DEBF0FBECDBFDF91CF911F910F911F
:100F3000FF90EF90DF90CF90BF90AF909F908F90F9
:100F40007F906F905F904F903F902F900895809189
:100F5000B3069091B406A091B506B091B606A2FF73
:100F600023C060915207709153078091540790916C
:100F7000550724E630E040E050E00E942F3A57FF4A
:100F800003C020E030E0A901293E83E03807410595
:100F9000510524F028EE33E040E050E0C9010E9402
:100FA000943081E00E946E308091B3069091B40637
:100FB000A091B506B091B60693FF16C060913607B2
:100FC00070913707809138079091390797FF07C0D4
:100FD00090958095709561957F4F8F4F9F4F0E94A0
:100FE0008D3082E00E946E308091B3069091B406FD
:100FF000A091B506B091B60697FF0DC06091460767
:101000007091470780914807909149070E94863068
:1010100082E00E946E308091B30682FF3EC08091D4
:101020006D0686958695877084600E946E308091EB
:101030007A0790917B07A0917C07B0917D07833060
:101040009105A105B105F1F05CF481309105A10590
:10105000B105B1F00297A105B105E1F481E013C03B
:1010600086309105A105B10589F088309105A1056B
:10107000B10571F00497A105B10561F483E003C0E7
:1010800080E001C082E00E947A3007C085E0FBCF9B
:1010900087E0F9CF80E00E946E308091B30681FF37
:1010A00004C0809176070E946E308091B3069091C3
:1010B000B406A091B506B091B606A0FF09C0809114
:1010C000B2079091B307A091B407B091B50703C0E0
:1010D00080E090E0DC0180936F0690937006A0930F
:1010E0007106B093720608958F929F92AF92BF924D
:1010F000CF92DF92EF92FF92CF93C090B306D09041
:10110000B406E090B506F090B606C5FE2BC08091FF
:101110001E0790911F07A0912007B0912107181674
:1011200019061A061B06F4F4BC01CD01625E7F4F5E
:101130008F4F9F4F2CE330E040E050E00E942F3A69
:10114000283883E138074105510524F428E833E1C4
:1011500040E050E02093EE073093EF074093F00714
:101160005093F107C6FE13C280918A0790918B07B6
:10117000A0918C07B0918D07AC01BD014427452B90
:10118000462B472B09F089C2843009F449C040F44A
:101190008130D1F0B8F08230D1F0833041F17DC29E
:1011A0008A3509F47CC138F4873009F469C08C3180
:1011B00009F4D6C072C28B3509F474C18C3509F4B8
:1011C00075C16BC202DC41C200DCC1DEB7C080E089
:1011D000C6DC882309F439C2BADE6091EE0770914B
:1011E000EF078091F0079091F10740E00FC081E098
:1011F000B6DC882309F429C2AADE6091EE0770915B
:10120000EF078091F0079091F10741E0CF91FF90B7
:10121000EF90DF90CF90BF90AF909F908F90A7CA34
:10122000D7FE09C08090AE079090AF07A090B0079E
:10123000B090B10703C0812C912C5401E2FE0CC088
:101240008091520790915307A0915407B091550790
:10125000880E991EAA1EBB1E0E94862C28D26B01E6
:101260007C01C80CD91CEA1CFB1C21D2C616D7066F
:10127000E806F90609F411C284E40E947A34F5CF35
:101280008091530181111BC08091B3069091B406E7
:10129000A091B506B091B606A0FF2EC08091B2070E
:1012A0009091B307A091B407B091B50780936F06F2
:1012B00090937006A0937106B09372061DC0482FDC
:1012C00050E060E070E040936F06509370066093CA
:1012D00071067093720690E00E94A230C0E0809187
:1012E0005301C81788F6EC2FF0E0E954F94F8081DC
:1012F0000E946F2ECF5FF3CF2091EE073091EF0762
:101300004091F0075091F10760E472E48FE090E0C3
:101310000E942F3AC0906106D0906206E09063066A
:10132000F12CCA01B901A70196010E942F3ACA0106
:10133000B9010E948D3085E00E946E306091EE0709
:101340007091EF078091F0079091F107CF91FF9096
:10135000EF90DF90CF90BF90AF909F908F9085C817
:1013600088E40E947A348091F6069091F706A09165
:10137000F806B091F906AC01BD0144275527607805
:101380007370452B462B472B89F0AC01BD0127E13B
:1013900076956795579547952A95D1F7242F217013
:1013A000B0FD2260B1FF03C0246001C027E0C22F5E
:1013B000CB7F09F472C120FF1FC04091B30650914A
:1013C000B4066091B5067091B60667FF09C04091FA
:1013D000660750916707609168077091690704C0BC
:1013E00048ED5CED6FEF7FEF4093DA075093DB073A
:1013F0006093DC077093DD0721FF1FC04091B306A7
:101400005091B4066091B5067091B60670FF09C0A0
:1014100040916A0750916B0760916C0770916D075E
:1014200004C048E65DEA63E070E04093DE07509355
:10143000DF076093E0077093E1076091DA0770912E
:10144000DB078091DC079091DD070E94E218609332
:101450006A0170936B0180936C016091DE0770915B
:10146000DF078091E0079091E1070E9408196093DF
:101470006D0170936E0180936F016091E20770912E
:10148000E3078091E4079091E5070E942E1960938D
:10149000700170937101809372018C2F6EC0109255
:1014A000F207FBC081E08093F207F7C0E7FE10C0AF
:1014B0008091660790916707A0916807B0916907CE
:1014C0008093DA079093DB07A093DC07B093DD07E6
:1014D000F0FE10C080916A0790916B07A0916C0795
:1014E000B0916D078093DE079093DF07A093E0072C
:1014F000B093E107F1FE10C080916E0790916F07E5
:10150000A0917007B09171078093E2079093E30771
:10151000A093E407B093E5076091DA077091DB07C9
:101520008091DC079091DD070E94E21860936A01C8
:1015300070936B0180936C016091DE077091DF07FF
:101540008091E0079091E1070E94081960936D0176
:1015500070936E0180936F016091E2077091E307D1
:101560008091E4079091E5070E942E196093700125
:10157000709371018093720180E0CF91FF90EF90A2
:10158000DF90CF90BF90AF909F908F90C7C9D4FE4F
:1015900084C08091A2079091A307A091A407B09165
:1015A000A507AC01BD0144275527452B462B472BEA
:1015B00009F073C08330910509F43FC028F4009707
:1015C00071F1029761F169C0803921E0920709F455
:1015D0004FC0893822E0920709F455C0059709F0F9
:1015E0005CC0C0916D06C695C695C77080E00E942C
:1015F0006E306091EE077091EF078091F007909147
:10160000F1070E9460018C2FCF91FF90EF90DF9047
:10161000CF90BF90AF909F908F900C946E3080E0F1
:101620000E946E306091EE077091EF078091F00795
:101630009091F1070E9460011BC089DC80916D06CA
:101640008C7119F481E00E946E306091EE07709108
:10165000EF078091F0079091F107CF91FF90EF9005
:10166000DF90CF90BF90AF909F908F900C946001CF
:10167000CF91FF90EF90DF90CF90BF90AF909F9071
:101680008F900C94862CCF91FF90EF90DF90CF90AD
:10169000BF90AF909F908F905ACCCF91FF90EF90DA
:1016A000DF90CF90BF90AF909F908F900895609102
:1016B0001B0170911C0180911D0190911E010895E4
:1016C0003FB7F89426B526956091200170912101CD
:1016D00080912201909123013FBF620F711D811DF6
:1016E000911D089510922001109221011092220163
:1016F0001092230110921F0110921B0110921C01E5
:1017000010921D0110921E0182E084BD85BD99EFEB
:1017100097BD16BC80936E008AE080931A01809377
:101720001901809318018093170196E09093160198
:10173000809315019093140108951F920F920FB694
:101740000F9211242F933F938F939F93AF93BF9347
:101750002DB73EB7809100019091010128173907FC
:1017600030F48DB79EB79093010180930001809172
:10177000200190912101A0912201B0912301835871
:101780009F4FAF4FBF4F8093200190932101A093B3
:101790002201B093230180911F018F5F80931F016D
:1017A000883008F481C080911F01885080931F0108
:1017B00080911B0190911C01A0911D01B0911E010F
:1017C0000196A11DB11D80931B0190931C01A09354
:1017D0001D01B0931E0180917D01816080937D0188
:1017E00080911A01815080931A0181115DC080910E
:1017F0007D01826080937D018AE080931A0190913F
:10180000190191509093190191114EC090917D0151
:10181000946090937D0180931901909118019150EB
:1018200090931801911140C090917D019860909320
:101830007D018093180190911701915090931701A9
:10184000911132C090917D01906190937D018093C0
:10185000170190911601915090931601911124C097
:1018600090917D01906290937D0126E02093160176
:1018700090911501915090931501911115C090917F
:101880007D01906490937D018093150180911401F6
:10189000815080931401811107C080917D0180687F
:1018A00080937D0120931401BF91AF919F918F91FF
:1018B0003F912F910F900FBE0F901F901895EF92B0
:1018C000FF920F931F930023E9F1161617061806CF
:1018D00019065CF457FD22C0E1E0261737074807D8
:1018E00059070CF07FC0E0E07DC012161306140605
:1018F000150684F47B018C0188279927DC018E1959
:101900009F09A00BB10B82179307A407B507B4F486
:10191000E2E068C097FD53C057FF5AC07B018C01BD
:1019200088279927DC018E199F09A00BB10B281776
:1019300039074A075B0724F4E6E054C0E3E052C0ED
:10194000E7E050C016161706180619064CF457FDA6
:1019500020C026173707480759075CF5E8E042C062
:10196000121613061406150684F47B018C018827D1
:101970009927DC018E199F09A00BB10B82179307E1
:10198000A407B507C4F4EAE02DC097FD23C057FFB4
:101990001FC07B018C0188279927DC018E199F09C4
:1019A000A00BB10B281739074A075B0734F4EEE0A8
:1019B00019C0E9E017C0EBE015C0EFE013C06217F3
:1019C00073078407950714F4E4E00CC0E5E00AC04F
:1019D000EFEF08C0621773078407950714F4ECE073
:1019E00001C0EDE08E2F1F910F91FF90EF900895B1
:1019F0004F925F926F927F928F929F92AF92BF921F
:101A0000CF92DF92EF92FF920F931F93CF93C091EB
:101A10003C018C2F8F7090E0FC0131978091380150
:101A200090913901A0913A01B0913B01009141019F
:101A300010914201209143013091440140913D01B8
:101A400050913E0160913F0170914001EF30F105EE
:101A500020F4EA5AFF4F0C944F3BC0903001D090D5
:101A60003101E0903201F090330146015701801AB4
:101A7000910AA20AB30A88169906AA06BB06A4F11F
:101A800040903401509035016090360170903701DC
:101A900053014201E1E08E1A9108A108B108880EB5
:101AA000991EAA1EBB1E8092380190923901A09205
:101AB0003A01B0923B0182E0481A5108610871086E
:101AC0004092340150923501609236017092370194
:101AD000015011092109310900934101109342017C
:101AE00020934301309344014F5F5F4F6F4F7F4F0F
:101AF00040933D0150933E0160933F01709340013C
:101B0000D701C6010296A11DB11D809330019093AB
:101B10003101A0933201B0933301C094D094E0948A
:101B2000F0948091380190913901A0913A01B091DF
:101B30003B018C0D9D1DAE1DBF1D80933801909300
:101B40003901A0933A01B0933B01809141019091FA
:101B50004201A0914301B0914401481759076A0717
:101B60007B070CF4E5C730C3C0903401D090350139
:101B7000E0903601F09037014A015B018C189D0816
:101B8000AE08BF0888169906AA06BB069CF54F5FEB
:101B90005F4F6F4F7F4F40933D0150933E016093E5
:101BA0003F017093400140913001509131016091AB
:101BB0003201709133014A015B01E2E08E0E911C0B
:101BC000A11CB11C8092300190923101A09232018F
:101BD000B09233014095509560957095480F591F0C
:101BE0006A1F7B1F409338015093390160933A017B
:101BF00070933B01B701A601415051096109710978
:101C00008091380190913901A0913A01B0913B0146
:101C1000840F951FA61FB71F809338019093390139
:101C2000A0933A01B0933B0182E0C81AD108E108C1
:101C3000F108C0923401D0923501E0923601F09261
:101C40003701015011092109310900934101109315
:101C500042012093430130934401101611061206ED
:101C600013060CF465C7B0C2C0903401D0903501A2
:101C7000E0903601F090370146015701840E951E21
:101C8000A61EB71EB094A09490948094811C911CC1
:101C9000A11CB11C88169906AA06BB06A4F14090A7
:101CA0003001509031016090320170903301530146
:101CB0004201E1E08E1A9108A108B108880E991E30
:101CC000AA1EBB1E8092380190923901A0923A015F
:101CD000B0923B0182E0481A5108610871084092B5
:101CE00030015092310160923201709233014150C3
:101CF00051096109710940933D0150933E01609380
:101D00003F0170934001B701A6014150510961099B
:101D100071098091380190913901A0913A01B091F7
:101D20003B01840F951FA61FB71F80933801909326
:101D30003901A0933A01B0933B01E2E0CE1AD108F9
:101D4000E108F108C0923401D0923501E0923601E9
:101D5000F092370101501109210931090093410125
:101D600010934201209343013093440180913D013F
:101D700090913E01A0913F01B0914001B095A09596
:101D8000909581959F4FAF4FBF4F80179107A20746
:101D9000B3070CF4CDC618C2C0903001D090310109
:101DA000E0903201F090330146015701800E911E00
:101DB000A21EB31EB094A09490948094811C911C98
:101DC000A11CB11C88169906AA06BB06A4F5409072
:101DD0003401509035016090360170903701530105
:101DE0004201E1E08E1A9108A108B108880E991EFF
:101DF000AA1EBB1E8092380190923901A0923A012E
:101E0000B0923B0182E0481A510861087108409283
:101E100034015092350160923601709237010150C1
:101E200011092109310900934101109342012093C6
:101E300043013093440197018601015011092109A2
:101E400031098091380190913901A0913A01B09106
:101E50003B01800F911FA21FB31F80933801909305
:101E60003901A0933A01B0933B01E2E0CE1AD108C8
:101E7000E108F108C0923001D0923101E0923201C4
:101E8000F0923301415051096109710940933D01BC
:101E900050933E0160933F01709340011416150664
:101EA000160617060CF444C68FC1C0903001D090BE
:101EB0003101E0903201F0903301480159018C1852
:101EC0009D08AE08BF0888169906AA06BB069CF1B5
:101ED0000F5F1F4F2F4F3F4F00934101109342015F
:101EE0002093430130934401009134011091350156
:101EF000209136013091370148015901E2E08E0E00
:101F0000911CA11CB11C8092340190923501A092C9
:101F10003601B09237010095109520953095080F45
:101F2000191F2A1F3B1F009338011093390120937A
:101F30003A0130933B0197018601015011092109B3
:101F400031098091380190913901A0913A01B09105
:101F50003B01800F911FA21FB31F80933801909304
:101F60003901A0933A01B0933B0182E0C81AD1082D
:101F7000E108F108C0923001D0923101E0923201C3
:101F8000F0923301415051096109710940933D01BB
:101F900050933E0160933F01709340018091410155
:101FA00090914201A0914301B0914401841795079B
:101FB000A607B7070CF4BCC507C1C0903401D09088
:101FC0003501E0903601F090370146015701841A3F
:101FD000950AA60AB70A88169906AA06BB06A4F5AA
:101FE0004090300150903101609032017090330187
:101FF00053014201E1E08E1A9108A108B108880E50
:10200000991EAA1EBB1E8092380190923901A0929F
:102010003A01B0923B0182E0481A51086108710808
:10202000409230015092310160923201709233013E
:10203000415051096109710940933D0150933E019E
:1020400060933F01709340010F5F1F4F2F4F3F4F31
:1020500000934101109342012093430130934401C6
:10206000D701C6010296A11DB11D80933401909342
:102070003501A0933601B0933701C094D094E09419
:10208000F0948091380190913901A0913A01B0917A
:102090003B018C0D9D1DAE1DBF1D8093380190939B
:1020A0003901A0933A01B0933B0137FD41C58CC083
:1020B000C0903401D0903501E0903601F0903701A6
:1020C00046015701840E951EA61EB71E8816990656
:1020D000AA06BB069CF14F5F5F4F6F4F7F4F409347
:1020E0003D0150933E0160933F0170934001409148
:1020F00030015091310160913201709133014A01F8
:102100005B01E2E08E0E911CA11CB11C809230019B
:1021100090923101A0923201B092330140955095D6
:1021200060957095480F591F6A1F7B1F40933801B7
:102130005093390160933A0170933B010F5F1F4F39
:102140002F4F3F4F009341011093420120934301D1
:1021500030934401D701C6010296A11DB11D8093A1
:10216000340190933501A0933601B0933701C094A8
:10217000D094E094F0948091380190913901A0912D
:102180003A01B0913B018C0D9D1DAE1DBF1D80938A
:10219000380190933901A0933A01B0933B018091AB
:1021A0003D0190913E01A0913F01B0914001B09559
:1021B000A095909581959F4FAF4FBF4F0817190776
:1021C0002A073B070CF4B4C4CF5FB0C4C090300101
:1021D000D0903101E0903201F09033014801590173
:1021E0008C0C9D1CAE1CBF1C88169906AA06BB064B
:1021F0009CF50F5F1F4F2F4F3F4F009341011093EE
:102200004201209343013093440100913401109125
:102210003501209136013091370148015901E2E042
:102220008E0E911CA11CB11C80923401909235013C
:10223000A0923601B0923701009510952095309507
:10224000080F191F2A1F3B1F0093380110933901F3
:1022500020933A0130933B014F5F5F4F6F4F7F4FA9
:1022600040933D0150933E0160933F0170934001C4
:10227000D701C6010296A11DB11D80933001909334
:102280003101A0933201B0933301C094D094E09413
:10229000F0948091380190913901A0913A01B09168
:1022A0003B018C0D9D1DAE1DBF1D80933801909389
:1022B0003901A0933A01B0933B0177FD39C41092E4
:1022C0003C0136C4C0903001D0903101E090320121
:1022D000F0903301480159018C189D08AE08BF08E1
:1022E00088169906AA06BB069CF50F5F1F4F2F4F55
:1022F0003F4F0093410110934201209343013093DB
:102300004401009134011091350120913601309142
:10231000370148015901E2E08E0E911CA11CB11C4D
:102320008092340190923501A0923601B09237012B
:102330000095109520953095080F191F2A1F3B1FF7
:10234000009338011093390120933A0130933B01F7
:102350009701860101501109210931098091380145
:1023600090913901A0913A01B0913B01800F911FEA
:10237000A21FB31F8093380190933901A0933A01B3
:10238000B0933B0182E0C81AD108E108F108C0927D
:102390003001D0923101E0923201F092330141508C
:1023A00051096109710940933D0150933E016093C9
:1023B0003F017093400114161506160617060CF41B
:1023C000B7C38FE080933C01B3C3C0903401D09079
:1023D0003501E0903601F090370146015701841A2B
:1023E000950AA60AB70A88169906AA06BB06A4F19A
:1023F0004090300150903101609032017090330173
:1024000053014201E1E08E1A9108A108B108880E3B
:10241000991EAA1EBB1E8092380190923901A0928B
:102420003A01B0923B0182E0481A510861087108F4
:10243000409230015092310160923201709233012A
:10244000415051096109710940933D0150933E018A
:1024500060933F01709340010F5F1F4F2F4F3F4F1D
:1024600000934101109342012093430130934401B2
:10247000D701C6010296A11DB11D8093340190932E
:102480003501A0933601B0933701C094D094E09405
:10249000F0948091380190913901A0913A01B09166
:1024A0003B018C0D9D1DAE1DBF1D80933801909387
:1024B0003901A0933A01B0933B0180913D01909185
:1024C0003E01A0913F01B091400180179107A20702
:1024D000B3070CF02DC329C3C0903401D09035014F
:1024E000E0903601F090370146015701840E951EA9
:1024F000A61EB71E88169906AA06BB069CF54F5F56
:102500005F4F6F4F7F4F40933D0150933E0160936B
:102510003F01709340014091300150913101609131
:102520003201709133014A015B01E2E08E0E911C91
:10253000A11CB11C8092300190923101A092320115
:10254000B09233014095509560957095480F591F92
:102550006A1F7B1F409338015093390160933A0101
:1025600070933B010F5F1F4F2F4F3F4F009341016F
:10257000109342012093430130934401D701C601D7
:102580000296A11DB11D8093340190933501A09353
:102590003601B0933701C094D094E094F0948091C8
:1025A000380190913901A0913A01B0913B018C0D15
:1025B0009D1DAE1DBF1D8093380190933901A093DE
:1025C0003A01B0933B0137FDB3C2AFC2C0903001B6
:1025D000D0903101E0903201F09033014601570173
:1025E000800E911EA21EB31E88169906AA06BB066F
:1025F0009CF10F5F1F4F2F4F3F4F009341011093EE
:102600004201209343013093440100913401109121
:102610003501209136013091370148015901E2E03E
:102620008E0E911CA11CB11C809234019092350138
:10263000A0923601B0923701009510952095309503
:10264000080F191F2A1F3B1F0093380110933901EF
:1026500020933A0130933B014F5F5F4F6F4F7F4FA5
:1026600040933D0150933E0160933F0170934001C0
:10267000D701C6010296A11DB11D80933001909330
:102680003101A0933201B0933301C094D094E0940F
:10269000F0948091380190913901A0913A01B09164
:1026A0003B018C0D9D1DAE1DBF1D80933801909385
:1026B0003901A0933A01B0933B0170956095509514
:1026C00041955F4F6F4F7F4F809141019091420143
:1026D000A0914301B0914401481759076A077B074D
:1026E0000CF026C222C2C0903001D0903101E0909F
:1026F0003201F090330146015701801A910AA20A73
:10270000B30A88169906AA06BB06A4F540903401C0
:1027100050903501609036017090370153014201AD
:10272000E1E08E1A9108A108B108880E991EAA1E30
:10273000BB1E8092380190923901A0923A01B0926A
:102740003B0182E0481A5108610871084092340147
:102750005092350160923601709237010150110993
:102760002109310900934101109342012093430153
:10277000309344014F5F5F4F6F4F7F4F40933D0158
:1027800050933E0160933F0170934001D701C60111
:102790000296A11DB11D8093300190933101A09349
:1027A0003201B0933301C094D094E094F0948091BE
:1027B000380190913901A0913A01B0913B018C0D03
:1027C0009D1DAE1DBF1D8093380190933901A093CC
:1027D0003A01B0933B0177FDABC1A7C1C090340172
:1027E000D0903501E0903601F09037014A015B014D
:1027F0008C189D08AE08BF0888169906AA06BB0665
:102800009CF14F5F5F4F6F4F7F4F40933D0150935F
:102810003E0160933F01709340014091300150911F
:10282000310160913201709133014A015B01E2E0B4
:102830008E0E911CA11CB11C80923001909231012E
:10284000A0923201B09233014095509560957095F9
:10285000480F591F6A1F7B1F40933801509339015D
:1028600060933A0170933B01B701A60141505109B1
:10287000610971098091380190913901A0913A0163
:10288000B0913B01840F951FA61FB71F809338019D
:1028900090933901A0933A01B0933B0182E0C81AAA
:1028A000D108E108F108C0923401D0923501E092DC
:1028B0003601F092370101501109210931090093C5
:1028C00041011093420120934301309344018091D0
:1028D0003D0190913E01A0913F01B0914001081748
:1028E00019072A073B070CF023C11FC1C090340110
:1028F000D0903501E0903601F09037014601570144
:10290000840E951EA61EB71EB094A0949094809439
:10291000811C911CA11CB11C88169906AA06BB0635
:10292000A4F54090300150903101609032017090D8
:10293000330153014201E1E08E1A9108A108B10868
:10294000880E991EAA1EBB1E8092380190923901F2
:10295000A0923A01B0923B0182E0481A5108610806
:1029600071084092300150923101609232017092B0
:102970003301415051096109710940933D01509360
:102980003E0160933F0170934001B701A6014150A1
:102990005109610971098091380190913901A09123
:1029A0003A01B0913B01840F951FA61FB71F80937A
:1029B000380190933901A0933A01B0933B01E2E0D2
:1029C000CE1AD108E108F108C0923401D092350145
:1029D000E0923601F09237010150110921093109C5
:1029E000009341011093420120934301309344012D
:1029F00010161106120613060CF49AC096C0C09069
:102A00003001D0903101E0903201F0903301480163
:102A100059018C0C9D1CAE1CBF1CB094A0949094CA
:102A20008094811C911CA11CB11C88169906AA06D1
:102A3000BB06A4F1409034015090350160903601FE
:102A40007090370153014201E1E08E1A9108A1080C
:102A5000B108880E991EAA1EBB1E80923801909262
:102A60003901A0923A01B0923B0182E0481A510824
:102A7000610871084092340150923501609236012C
:102A80007092370101501109210931090093410168
:102A90001093420120934301309344019701860132
:102AA00001501109210931098091380190913901B2
:102AB000A0913A01B0913B01800F911FA21FB31F5B
:102AC0008093380190933901A0933A01B0933B0170
:102AD000E2E0CE1AD108E108F108C0923001D092AC
:102AE0003101E0923201F092330141505109610904
:102AF000710940933D0150933E0160933F017093F3
:102B0000400170956095509541955F4F6F4F7F4F95
:102B10008091410190914201A0914301B091440103
:102B200084179507A607B7071CF4C150C0933C0152
:102B300040914101509142016091430170914401E3
:102B400080913D0190913E01A0913F01B0914001E3
:102B5000FA0157FF04C0EE27FF27E41BF50B9C0189
:102B600097FF04C022273327281B390B2E173F0756
:102B7000C4F5009128011091290120912A0130917A
:102B80002B01081719072A073B0709F065C0809138
:102B90002C0190912D01A0912E01B0912F0184174D
:102BA0009507A607B70709F472C077FD0BC0F1E0DF
:102BB000E0E014161506160617060CF0F0E02F2FAD
:102BC0003E2F02C02FEF3FEFB7FD41C051E040E084
:102BD000181619061A061B060CF050E0852F942FC4
:102BE00038C000912C0110912D0120912E013091BF
:102BF0002F01041715072607370771F540912801A3
:102C00005091290160912A0170912B0148175907B1
:102C10006A077B07E1F1B7FD0BC0F1E0E0E01816B1
:102C200019061A061B060CF0F0E02F2F3E2F02C0EB
:102C30002FEF3FEF77FD0BC0F1E0E0E01416150633
:102C4000160617060CF0F0E08F2F9E2F02C08FEFB4
:102C50009FEF28173907E9F0409124015091250191
:102C60006091260170912701415051096109710954
:102C7000409324015093250160932601709327010E
:102C800081E0452B462B472B29F080E003C083E0F1
:102C900001C082E0CF911F910F91FF90EF90DF90E4
:102CA000CF90BF90AF909F908F907F906F905F90EC
:102CB0004F9008954F925F926F927F928F929F9262
:102CC000AF92BF92CF92DF92EF92FF920F93CF938A
:102CD000DF9300D000D0CDB7DEB769837A838B83D2
:102CE0009C83A02FC7010C2D6C01EA2EFF24E7FC6A
:102CF000F09446015701A42FC901BB27A7FDB09549
:102D00002C013D01A7019601BC01CD010E945F0C81
:102D100080933C01409241015092420160924301F4
:102D200070924401C0923D01D0923E01E0923F0179
:102D3000F0924001440C551C661C771C40923401F3
:102D4000509235016092360170923701880C991CBF
:102D5000AA1CBB1C8092300190923101A0923201DA
:102D6000B0923301A6E0B0E029813A814B815C81C9
:102D70000E94F43960932401709325018093260109
:102D8000909327010F900F900F900F90DF91CF91AC
:102D90000F91FF90EF90DF90CF90BF90AF909F90FA
:102DA0008F907F906F905F904F9008952F923F92F9
:102DB0004F925F926F928F929F92AF92BF92CF92FB
:102DC000DF92EF92FF920F931F93CF93DF93CDB7D4
:102DD000DEB769970FB6F894DEBF0FBECDBF6C8724
:102DE0007D878E879F8729833A834B832701602EB7
:102DF000AC8ABD8ACE8A2DA53EA54FA52F8B388FD4
:102E0000498F18A9AC2DC501BB27A7FDB095888BAC
:102E1000998BAA8BBB8B80932C0190932D01A0934F
:102E20002E01B0932F01A42FC901BB27A7FDB09598
:102E30004C015D018093280190932901A0932A0100
:102E4000B0932B01C12E29813A814B816C857D8500
:102E50008E859F852FDF89819A81AB81BB27A7FD56
:102E6000B0958C839D83AE83BF83A62DC201BB2703
:102E7000A7FDB09588879987AA87BB87A50194018C
:102E8000C501B4010E94FE394B015C0128853985DA
:102E90004A855B85CA01B9010E94FE396B017C013C
:102EA0002C813D814E815F81CA01B9010E94FE39AA
:102EB000C60ED71EE81EF91E8C189D08AE08BF0866
:102EC000288939894A895B89CA01B9010E94FE397A
:102ED000860E971EA81EB91E809238019092390165
:102EE000A0923A01B0923B010E94F80C8823E1F3D2
:102EF0008091730190917401A09175012C893D8995
:102F00004E89820F931FA41F8093610190936201E9
:102F1000A09363018091760190917701A09178014F
:102F20002F89388D498D820F931FA41F80936401D0
:102F300090936501A093660120904B013BE1239E95
:102F400010011124C10180569D4F1C018091240164
:102F500090912501A0912601A095909581959F4F74
:102F6000AF4FF10181839283A383C12E062D72019D
:102F700029813A814B816C857D858E859F859ADE7E
:102F80008092380190923901A0923A01B0923B01AF
:102F9000D1011196CD90DD90EC90BFEFCB1ADB0AFA
:102FA000EB0A8091240190912501A0912601C80E81
:102FB000D91EEA1EF101C182D282E38229813A81BF
:102FC0004B8124833583468347825086618682867F
:102FD0009386A486B5862C853D854E8526873787C2
:102FE000408B84ED9DE9928B818B112319F0B0E128
:102FF000FB2E02C0A8E1FA2E012F288539854A85CB
:103000005B856C817D818E819F810E945F0C8F2901
:10301000F101808380916F0690917006A0917106F6
:10302000B09172060097A105B10521F0382F292F24
:103030008A2F1DC02091610630916206409163067F
:103040008E2DB60190E050E00E94883AEBE9AE2E5A
:10305000F6E1BF2ECC24C394D12CE12CF12C00E05E
:1030600010E00E94703A932F842F322F292FD10124
:1030700053963C93539754962C93549755968C9310
:103080008091640690916506A0916606F101868B99
:10309000978BA08F90916C0680916D06918F828F97
:1030A00069960FB6F894DEBF0FBECDBFDF91CF910A
:1030B0001F910F91FF90EF90DF90CF90BF90AF9056
:1030C0009F908F906F905F904F903F902F90A4C3F0
:1030D000AF92BF92CF92DF92EF92FF920F931F9326
:1030E000992787FD909520E432E44FE050E00E945C
:1030F0007B3AE4E7AE2EF5E3BF2ECC24C394D12C6B
:10310000E12CF12C00E010E00E94453AB901CA011F
:103110001F910F91FF90EF90DF90CF90BF90AF90F5
:103120000895AF92BF92CF92DF92EF92FF920F93EA
:103130001F93992787FD909520E432E44FE050E0FB
:103140000E947B3AE4E7AE2EF5E3BF2ECC24C39475
:10315000D12CE12CF12C00E010E00E94453AB9019D
:10316000CA011F910F91FF90EF90DF90CF90BF9019
:10317000AF900895AF92BF92CF92DF92EF92FF92FD
:103180000F931F93992787FD909520E432E44FE039
:1031900050E00E947B3AA12CE5E3BE2EFCE0CF2E4E
:1031A000D12CE12CF12C00E010E00E94453AB9014D
:1031B000CA011F910F91FF90EF90DF90CF90BF90C9
:1031C000AF900895AF92BF92CF92DF92EF92FF92AD
:1031D0000F931F9324E735E341E050E00E947B3AD0
:1031E000E0E4AE2EF2E4BF2EAFE0CA2ED12CE12CEB
:1031F000F12C00E010E00E94453AB901842F1F91A4
:103200000F91FF90EF90DF90CF90BF90AF90089517
:10321000AF92BF92CF92DF92EF92FF920F931F93E4
:1032200024E735E341E050E00E947B3AE0E4AE2E33
:10323000F2E4BF2EAFE0CA2ED12CE12CF12C00E03D
:1032400010E00E94453AB901842F1F910F91FF9021
:10325000EF90DF90CF90BF90AF900895AF92BF9264
:10326000CF92DF92EF92FF920F931F9320E035E30E
:103270004CE050E00E947B3AE0E4AE2EF2E4BF2E38
:10328000AFE0CA2ED12CE12CF12C00E010E00E941E
:10329000453AB901842F1F910F91FF90EF90DF9075
:1032A000CF90BF90AF90089581E00E94DA308FE513
:1032B0009DE60197F1F700C0000008950F931F935A
:1032C000CF93DF9300D01F92CDB7DEB7182F60E009
:1032D00080E00E9421350E94570B082F69837A8372
:1032E0009B83AFD29B819F930F937A817F93698158
:1032F0006F931F928F931F921F9385E691E09F9388
:103300008F930E94403880E00E94952CE1DE162FBA
:10331000082F60E081E07A839B830E9421359B81A6
:103320009F930F937A817F931F9384E591E09F93FE
:103330008F930E94403881E00E94952CF2DE162F78
:10334000082F60E082E07A839B830E9421359B8175
:103350009F930F937A817F931F9383E491E09F93D0
:103360008F930E94403882E00E94952C03DF162F35
:10337000082F60E083E07A839B830E9421359B8144
:103380009F930F937A817F931F9382E391E09F93A2
:103390008F930E944038809151068C710FB6F8943B
:1033A000DEBF0FBECDBF6AE0A9F081E00E942135EB
:1033B000809151068695869587701F928F9386E23D
:1033C00091E09F938F930E9440380F900F900F9041
:1033D0000F900BC081E00E9421358CE191E09F931A
:1033E0008F930E9440380F900F906AE082E00E9415
:1033F0002135909150068091510683708F939F9351
:1034000080915206877090E001969F938F938091F0
:1034100051068695869587701F928F9382E191E081
:103420009F938F930E9440382DB73EB70FB6F89404
:10343000DEBF0FBECDBF8091000190910101281722
:10344000390730F48DB79EB7909301018093000146
:103450006AE083E00E942135809101018F93809181
:1034600000018F938CE091E09F938F930E944038EE
:103470000F900F900F900F900F900F900F90DF9183
:10348000CF911F910F9108952FEF83EC99E0215078
:1034900080409040E1F700C0000084E00E94F434D6
:1034A00084E00E94F43400DF89E408CF10924701E1
:1034B000109248010895209148019091470181E0C0
:1034C000291380E0089540914801209147014F5F02
:1034D00050E030E081E04217530709F080E00895A2
:1034E000F2DF91E0811190E0892F0895ECDF8823CD
:1034F00021F082E40E947A34F9CF809148018F5FF5
:10350000809348010895809147018F5F8093470120
:1035100008958091480190914701891B0895CF93A8
:10352000DF931F92CDB7DEB7C6DF882321F082E498
:103530000E947A34F9CFE0914701F0E0E256FE4F65
:1035400080818983E0DF89810F90DF91CF91089599
:10355000E0914801F0E0E256FE4F8083C7CF109221
:103560004501109246010895209146019091450130
:1035700081E0291380E008952091460140914501A2
:1035800030E02F5F3F4F2F71332750E081E0241749
:10359000350709F080E00895EFDF882321F082E409
:1035A0000E947A34F9CF809146018F5F8F718093AA
:1035B00046010895809145018F5F8F718093450189
:1035C0000895E0914601F0E0E258FE4F8083E4CF99
:1035D000CF93DF93C82FD0DF882321F085E50E94A9
:1035E0007A34F9CFDFB7F8948C2FEBDF88EB809338
:1035F000C900DFBFDF91CF9108950F931F93CF9341
:103600008B019C01CFB7F894775F824C9F4F42E0CB
:10361000660F771F881F991F4A95D1F7A901980156
:10362000E3E0220F331F441F551FEA95D1F70E9494
:103630000D3A215031093093CD002093CC0082E027
:103640008093C80088E98093C90086E08093CA000F
:103650002DDF85DF84E080934901CFBF81E1CF91E9
:103660001F910F91B5CF8091490181FF0BC023DFDE
:10367000882341F08091490184608093490188EB5F
:103680008093C9004CCFCF93CFB7F8948091490174
:1036900081FF0BC010DF882341F0809149018460D5
:1036A0008093490188EB8093C900CFBFCF9131CF80
:1036B0001F920F920FB60F9211242F933F934F93A7
:1036C0005F936F937F938F939F93AF93BF93EF938A
:1036D000FF938091490180FF07C083E18093CE0072
:1036E00082E0809349011AC08091490182FF06C09F
:1036F00083E18093CE001092490110C035DF88230A
:1037000021F088E98093C90009C0E0914501F0E00B
:10371000E258FE4F80818093CE004CDFFF91EF9105
:10372000BF91AF919F918F917F916F915F914F91D9
:103730003F912F910F900FBE0F901F9018951F92E1
:103740000F920FB60F9211242F933F934F935F93D5
:103750006F937F938F939F93AF93BF93EF93FF9359
:10376000D8DE813460F08091490181FD08C08091EC
:10377000490181608093490188EB8093C900B0DEE4
:1037800081110DC063E00E94213585E791E09F9390
:103790008F930E9440380E94D9340F900F908091EF
:1037A000CE00D6DEFF91EF91BF91AF919F918F91A7
:1037B0007F916F915F914F913F912F910F900FBE2D
:1037C0000F901F90189528E288E190E00FB6F894CA
:1037D000A895809360000FBE20936000089510921A
:1037E0004A0110924B01089520914B0190914A019A
:1037F00081E0291380E0089520914B0140914A0116
:1038000030E02F5F3F4F2F71332750E081E02417C6
:10381000350709F080E00895EFDF882321F082E486
:103820000E947A34F9CF80914B018F5F8F71809322
:103830004B01089580914A018F5F8F7180934A01F7
:10384000089580914B0190914A01891B8F710895D1
:10385000CF92DF92EF92CF93DF93E0919E02F091AF
:103860009F02EF01858580FF2BC08181813011F49B
:103870002F9A01C02F982F89388D498DC8A0D9A0C3
:10388000EAA08E859F85A8895527820F931FA41FC4
:1038900020F453958C199D09AE098E879F87A88BBC
:1038A000552371F02E9A29818C819D81AE81022E43
:1038B0000594820F901DA01D8C839D83AE832E984E
:1038C0008D8581FF2BC08A81813011F42D9801C034
:1038D0002D9A2A8D3B8D4C8DC8A0D9A0EAA089894C
:1038E0009A89AB895527820F931FA41F20F4539503
:1038F0008C199D09AE09898B9A8BAB8B552371F07E
:103900002C9A2A818F819885A985022E0594820F91
:10391000901DA01D8F839887A9872C988D8582FF85
:103920002BC08B81813011F4469A01C046982D8DB1
:103930003E8D4F8DC8A0D9A0EAA08C899D89AE8903
:103940005527820F931FA41F20F453958C199D09AE
:10395000AE098C8B9D8BAE8B552371F0479A2B81D2
:103960008A859B85AC85022E0594820F901DA01D33
:103970008A879B87AC874798FE018D85877009F4FD
:1039800048C02BA13CA14DA188A199A1AAA1019653
:10399000A11D821B930BA40B281739074A0710F4AB
:1039A000A42FC901813C52E0950728F460EC72E035
:1039B000681B790B02C060E070E0CB0156E0969581
:1039C00087955A95E1F7582F882319F060645FEFC7
:1039D000580F6F777727552341F077FD04C0660FA6
:1039E000771F5150F8CF6FEF7FEF603D87E078078A
:1039F00010F460ED77E070938900609388002150A7
:103A00003109410923A334A345A381E0232B242BAF
:103A100009F480E0DF91CF91EF90DF90CF9008958F
:103A2000CF92DF92EF92FF920F931F93CF93DF938A
:103A300060919E0270919F02EB01888190E09C0151
:103A4000205131092031310510F00C9487252B5974
:103A50003F4F8EA19FA1A8A5B9A5F9010C944F3B9A
:103A60002A8D3B8D4C8DCE84DF84E8882C193D094E
:103A70004E097901042F112707FD1095E816F90664
:103A80000A071B0794F12F98CF88D88CE98CAE2DAC
:103A9000C6010197A1098C012A2F332727FD3095F4
:103AA0008EA19FA1A8A5B9A5800F911FA21FB31F2A
:103AB0008EA39FA3A8A7B9A712E0C11AD108E10855
:103AC000CF8AD88EE98E8E859F85A8890197A10916
:103AD0008E879F87A88B2E9A8C819D81AE810197BE
:103AE000A1098C839D83AE832E982D98FE01898930
:103AF0009A89AB890196A11D898B9A8BAB8B2A8DF4
:103B00003B8D4C8DA42FC9010296A11D8A8F9B8FDE
:103B1000AC8FA42FC9010196A11D7C010A2F11278A
:103B200007FD10958EA19FA1A8A5B9A58E199F0983
:103B3000A00BB10B8EA39FA3A8A7B9A72C9A8F8126
:103B40009885A9850196A11D8F839887A9872C98B0
:103B500029893A894B898E859F85A8892817390735
:103B60004A070CF4D4C781E1D1C729893A894B8926
:103B7000CF88D88CE98C2C193D094E097901042F86
:103B8000112707FD1095E816F9060A071B0794F59B
:103B90002D9889899A89AB890196A11D898B9A8B69
:103BA000AB8B2A8D3B8D4C8DA42FC9010296A11D94
:103BB0008A8F9B8FAC8FA42FC9010196A11D8C0108
:103BC0002A2F332727FD30958EA19FA1A8A5B9A53F
:103BD000801B910BA20BB30B8EA39FA3A8A7B9A721
:103BE0002C9A8F819885A9850196A11D8F8398872E
:103BF000A9872C982F98FE01CF88D88CE98CAE2D00
:103C0000C6010197A1098C012A2F332727FD309582
:103C10008EA19FA1A8A5B9A5800F911FA21FB31FB8
:103C20008EA39FA3A8A7B9A712E0C11AD108E108E3
:103C3000CF8AD88EE98E8E859F85A8890197A109A4
:103C40008E879F87A88B2E9A8C819D81AE8101974C
:103C5000A1098C839D83AE832E988E859F85A8892C
:103C6000181619061A060CF452C782E14FC72F899D
:103C7000388D498DC988DA88EB882C0D3D1D4E1D85
:103C80004095309521953F4F4F4F7901042F1127D3
:103C900007FD1095E816F9060A071B0794F12D9AFF
:103CA000CA8CDB8CEC8CAE2DC6010197A1098C016E
:103CB0002A2F332727FD30958EA19FA1A8A5B9A54E
:103CC000800F911FA21FB31F8EA39FA3A8A7B9A700
:103CD00012E0C11AD108E108CA8EDB8EEC8E898908
:103CE0009A89AB890197A109898B9A8BAB8B2C9A06
:103CF0008F819885A9850197A1098F839887A987C6
:103D00002C982F98FE01CF88D88CE98CAE2DC60157
:103D10000197A1098C012A2F332727FD30958EA109
:103D20009FA1A8A5B9A5800F911FA21FB31F8EA3A5
:103D30009FA3A8A7B9A712E0C11AD108E108CF8AAA
:103D4000D88EE98E8E859F85A8890197A1098E87D7
:103D50009F87A88B2E9A8C819D81AE810197A109A6
:103D60008C839D83AE832E9889899A89AB89A0958F
:103D7000909581959F4FAF4F2E853F85488982173B
:103D80009307A4070CF4C3C683E1C0C62A8D3B8DFC
:103D90004C8DCE84DF84E8882C0D3D1D4E1D409552
:103DA000309521953F4F4F4F7901042F112707FD83
:103DB0001095E816F9060A071B0794F52F98CF8887
:103DC000D88CE98CAE2DC6010197A1098C012A2F50
:103DD000332727FD30958EA19FA1A8A5B9A5800FF7
:103DE000911FA21FB31F8EA39FA3A8A7B9A712E07C
:103DF000C11AD108E108CF8AD88EE98E8E859F85B9
:103E0000A8890197A1098E879F87A88B2E9A8C81FC
:103E10009D81AE810197A1098C839D83AE832E98ED
:103E20002D9AFE01CA8CDB8CEC8CAE2DC60101975D
:103E3000A1098C012A2F332727FD30958EA19FA140
:103E4000A8A5B9A5800F911FA21FB31F8EA39FA382
:103E5000A8A7B9A712E0C11AD108E108CA8EDB8E63
:103E6000EC8E89899A89AB890197A109898B9A8BF4
:103E7000AB8B2C9A8F819885A9850197A1098F8397
:103E80009887A9872C9889899A89AB891816190669
:103E90001A060CF43CC684E139C62E853F85488954
:103EA000CA8CDB8CEC8C2C193D094E097901042F4E
:103EB000112707FD1095E816F9060A071B0794F16C
:103EC0002F9A8E859F85A8890196A11D8E879F8731
:103ED000A88B2F89388D498DA42FC9010296A11D69
:103EE0008F8B988FA98FA42FC9010196A11D8C01DA
:103EF0002A2F332727FD30958EA19FA1A8A5B9A50C
:103F0000801B910BA20BB30B8EA39FA3A8A7B9A7ED
:103F10002E9A8C819D81AE810196A11D8C839D83FB
:103F2000AE832E982D9AFE01CA8CDB8CEC8CAE2DC4
:103F3000C6010197A1098C012A2F332727FD30954F
:103F40008EA19FA1A8A5B9A5800F911FA21FB31F85
:103F50008EA39FA3A8A7B9A712E0C11AD108E108B0
:103F6000CA8EDB8EEC8E89899A89AB890197A1096B
:103F7000898B9A8BAB8B2C9A8F819885A985019719
:103F8000A1098F839887A9872C982E853F8548891A
:103F900089899A89AB89281739074A070CF4B7C56C
:103FA00085E1B4C52F89388D498DC988DA88EB88B9
:103FB0002C193D094E097901042F112707FD109591
:103FC000E816F9060A071B0794F52D9ACA8CDB8CB4
:103FD000EC8CAE2DC6010197A1098C012A2F332745
:103FE00027FD30958EA19FA1A8A5B9A5800F911F8F
:103FF000A21FB31F8EA39FA3A8A7B9A712E0C11A3F
:10400000D108E108CA8EDB8EEC8E89899A89AB894A
:104010000197A109898B9A8BAB8B2C9A8F819885FC
:10402000A9850197A1098F839887A9872C982F9A32
:10403000FE018E859F85A8890196A11D8E879F8789
:10404000A88B2F89388D498DA42FC9010296A11DF7
:104050008F8B988FA98FA42FC9010196A11D7C0178
:104060000A2F112707FD10958EA19FA1A8A5B9A51C
:104070008E199F09A00BB10B8EA39FA3A8A7B9A768
:104080002E9A8C819D81AE810196A11D8C839D838A
:10409000AE832E988E859F85A889AA230CF437C5F8
:1040A00086E134C52F89388D498DC988DA88EB8837
:1040B0002C0D3D1D4E1D7901042F112707FD109574
:1040C000E816F9060A071B0794F12D9889899A8941
:1040D000AB890196A11D898B9A8BAB8B2A8D3B8D69
:1040E0004C8DA42FC9010296A11D8A8F9B8FAC8F86
:1040F000A42FC9010196A11D8C012A2F332727FD6A
:1041000030958EA19FA1A8A5B9A5801B910BA20BEC
:10411000B30B8EA39FA3A8A7B9A72C9A8F819885CC
:10412000A9850196A11D8F839887A9872C982F9A1E
:10413000FE018E859F85A8890196A11D8E879F8788
:10414000A88B2F89388D498DA42FC9010296A11DF6
:104150008F8B988FA98FA42FC9010196A11D7C0177
:104160000A2F112707FD10958EA19FA1A8A5B9A51B
:104170008E199F09A00BB10B8EA39FA3A8A7B9A767
:104180002E9A8C819D81AE810196A11D8C839D8389
:10419000AE832E9889899A89AB89A095909581954F
:1041A0009F4FAF4F2E853F854889281739074A070B
:1041B0000CF4ADC487E1AAC42E853F854889CA8C1A
:1041C000DB8CEC8C2C0D3D1D4E1D7901042F11272D
:1041D00007FD1095E816F9060A071B0794F52F9AB4
:1041E0008E859F85A8890196A11D8E879F87A88BA4
:1041F0002F89388D498DA42FC9010296A11D8F8B5F
:10420000988FA98FA42FC9010196A11D8C012A2F77
:10421000332727FD30958EA19FA1A8A5B9A5801BA6
:10422000910BA20BB30B8EA39FA3A8A7B9A72E9A9D
:104230008C819D81AE810196A11D8C839D83AE836F
:104240002E982D98FE0189899A89AB890196A11D26
:10425000898B9A8BAB8B2A8D3B8D4C8DA42FC901FA
:104260000296A11D8A8F9B8FAC8FA42FC901019646
:10427000A11D7C010A2F112707FD10958EA19FA17A
:10428000A8A5B9A58E199F09A00BB10B8EA39FA35A
:10429000A8A7B9A72C9A8F819885A9850196A11DF9
:1042A0008F839887A9872C9889899A89AB89AA23B3
:1042B0000CF42DC480E12AC42E853F854889CA8C20
:1042C000DB8CEC8C2C193D094E097901042F112748
:1042D00007FD1095E816F9060A071B0794F52F9AB3
:1042E0008E859F85A8890196A11D8E879F87A88BA3
:1042F0002F89388D498DA42FC9010296A11D8F8B5E
:10430000988FA98FA42FC9010196A11D8C012A2F76
:10431000332727FD30958EA19FA1A8A5B9A5801BA5
:10432000910BA20BB30B8EA39FA3A8A7B9A72E9A9C
:104330008C819D81AE810196A11D8C839D83AE836E
:104340002E982D9AFE01CA8CDB8CEC8CAE2DC6010A
:104350000197A1098C012A2F332727FD30958EA1C3
:104360009FA1A8A5B9A5800F911FA21FB31F8EA35F
:104370009FA3A8A7B9A712E0C11AD108E108CA8E65
:10438000DB8EEC8E89899A89AB890197A109898B8B
:104390009A8BAB8B2C9A8F819885A9850197A1095F
:1043A0008F839887A9872C9889899A89AB89181651
:1043B00019061A060CF4ABC38FE1A8C32F89388DF8
:1043C000498DC988DA88EB882C193D094E09790195
:1043D000042F112707FD1095E816F9060A071B0799
:1043E00094F12D9ACA8CDB8CEC8CAE2DC601019712
:1043F000A1098C012A2F332727FD30958EA19FA17B
:10440000A8A5B9A5800F911FA21FB31F8EA39FA3BC
:10441000A8A7B9A712E0C11AD108E108CA8EDB8E9D
:10442000EC8E89899A89AB890197A109898B9A8B2E
:10443000AB8B2C9A8F819885A9850197A1098F83D1
:104440009887A9872C982F9AFE018E859F85A88929
:104450000196A11D8E879F87A88B2F89388D498D46
:10446000A42FC9010296A11D8F8B988FA98FA42F0D
:10447000C9010196A11D7C010A2F112707FD109586
:104480008EA19FA1A8A5B9A58E199F09A00BB10B5C
:104490008EA39FA3A8A7B9A72E9A8C819D81AE81D8
:1044A0000196A11D8C839D83AE832E9829893A891C
:1044B0004B898E859F85A889281739074A070CF0F4
:1044C00026C388E123C32F89388D498DC988DA88AE
:1044D000EB882C0D3D1D4E1D7901042F112707FD82
:1044E0001095E816F9060A071B0794F52D98898997
:1044F0009A89AB890196A11D898B9A8BAB8B2A8DEA
:104500003B8D4C8DA42FC9010296A11D8A8F9B8FD4
:10451000AC8FA42FC9010196A11D8C012A2F33272E
:1045200027FD30958EA19FA1A8A5B9A5801B910B51
:10453000A20BB30B8EA39FA3A8A7B9A72C9A8F8118
:104540009885A9850196A11D8F839887A9872C98A6
:104550002F9AFE018E859F85A8890196A11D8E87C1
:104560009F87A88B2F89388D498DA42FC90102966A
:10457000A11D8F8B988FA98FA42FC9010196A11D12
:104580007C010A2F112707FD10958EA19FA1A8A5D8
:10459000B9A58E199F09A00BB10B8EA39FA3A8A745
:1045A000B9A72E9A8C819D81AE810196A11D8C8325
:1045B0009D83AE832E988E859F85A889AA230CF4AF
:1045C000A6C289E1A3C22A8D3B8D4C8DCE84DF84A7
:1045D000E8882C0D3D1D4E1D7901042F112707FD84
:1045E0001095E816F9060A071B0794F12F9A8E8595
:1045F0009F85A8890196A11D8E879F87A88B2F89EB
:10460000388D498DA42FC9010296A11D8F8B988FDB
:10461000A98FA42FC9010196A11D8C012A2F332730
:1046200027FD30958EA19FA1A8A5B9A5801B910B50
:10463000A20BB30B8EA39FA3A8A7B9A72E9A8C8118
:104640009D81AE810196A11D8C839D83AE832E98A2
:104650002D98FE0189899A89AB890196A11D898BC4
:104660009A8BAB8B2A8D3B8D4C8DA42FC901029662
:10467000A11D8A8F9B8FAC8FA42FC9010196A11D0C
:104680007C010A2F112707FD10958EA19FA1A8A5D7
:10469000B9A58E199F09A00BB10B8EA39FA3A8A744
:1046A000B9A72C9A8F819885A9850196A11D8F8322
:1046B0009887A9872C9889899A89AB89A095909524
:1046C00081959F4FAF4F2E853F854889821793076D
:1046D000A4070CF01CC28AE119C22A8D3B8D4C8DB7
:1046E000CE84DF84E8882C193D094E097901042F16
:1046F000112707FD1095E816F9060A071B0794F520
:104700002F98CF88D88CE98CAE2DC6010197A109CE
:104710008C012A2F332727FD30958EA19FA1A8A5B4
:10472000B9A5800F911FA21FB31F8EA39FA3A8A797
:10473000B9A712E0C11AD108E108CF8AD88EE98E54
:104740008E859F85A8890197A1098E879F87A88B51
:104750002E9A8C819D81AE810197A1098C839D83C6
:10476000AE832E982D98FE0189899A89AB8901968E
:10477000A11D898B9A8BAB8B2A8D3B8D4C8DA42FE1
:10478000C9010296A11D8A8F9B8FAC8FA42FC901EE
:104790000196A11D7C010A2F112707FD10958EA1FE
:1047A0009FA1A8A5B9A58E199F09A00BB10B8EA337
:1047B0009FA3A8A7B9A72C9A8F819885A985019650
:1047C000A11D8F839887A9872C9889899A89AB899D
:1047D000AA230CF49CC18BE199C129893A894B89A0
:1047E000CF88D88CE98C2C193D094E097901042F0A
:1047F000112707FD1095E816F9060A071B0794F123
:104800002D9889899A89AB890196A11D898B9A8BEC
:10481000AB8B2A8D3B8D4C8DA42FC9010296A11D17
:104820008A8F9B8FAC8FA42FC9010196A11D8C018B
:104830002A2F332727FD30958EA19FA1A8A5B9A5C2
:10484000801B910BA20BB30B8EA39FA3A8A7B9A7A4
:104850002C9A8F819885A9850196A11D8F839887B1
:10486000A9872C982F98FE01CF88D88CE98CAE2D83
:10487000C6010197A1098C012A2F332727FD309506
:104880008EA19FA1A8A5B9A5800F911FA21FB31F3C
:104890008EA39FA3A8A7B9A712E0C11AD108E10867
:1048A000CF8AD88EE98E8E859F85A8890197A10928
:1048B0008E879F87A88B2E9A8C819D81AE810197D0
:1048C000A1098C839D83AE832E982E853F854889D0
:1048D00089899A89AB89281739074A070CF017C1CB
:1048E0008CE114C12F89388D498DC988DA88EB880D
:1048F0002C0D3D1D4E1D4095309521953F4F4F4F3E
:104900007901042F112707FD1095E816F9060A070B
:104910001B0794F52D9ACA8CDB8CEC8CAE2DC6014E
:104920000197A1098C012A2F332727FD30958EA1ED
:104930009FA1A8A5B9A5800F911FA21FB31F8EA389
:104940009FA3A8A7B9A712E0C11AD108E108CA8E8F
:10495000DB8EEC8E89899A89AB890197A109898BB5
:104960009A8BAB8B2C9A8F819885A9850197A10989
:104970008F839887A9872C982F98FE01CF88D88C91
:10498000E98CAE2DC6010197A1098C012A2F33278E
:1049900027FD30958EA19FA1A8A5B9A5800F911FD5
:1049A000A21FB31F8EA39FA3A8A7B9A712E0C11A85
:1049B000D108E108CF8AD88EE98E8E859F85A88997
:1049C0000197A1098E879F87A88B2E9A8C819D8144
:1049D000AE810197A1098C839D83AE832E988E852D
:1049E0009F85A889181619061A060CF490C08DE147
:1049F0008DC02E853F854889CA8CDB8CEC8C2C0DB4
:104A00003D1D4E1D4095309521953F4F4F4F7901EB
:104A1000042F112707FD1095E816F9060A071B0752
:104A200094F12F98CF88D88CE98CAE2DC6010197D0
:104A3000A1098C012A2F332727FD30958EA19FA134
:104A4000A8A5B9A5800F911FA21FB31F8EA39FA376
:104A5000A8A7B9A712E0C11AD108E108CF8AD88E59
:104A6000E98E8E859F85A8890197A1098E879F87EA
:104A7000A88B2E9A8C819D81AE810197A1098C8390
:104A80009D83AE832E982D9AFE01CA8CDB8CEC8C14
:104A9000AE2DC6010197A1098C012A2F332727FDCE
:104AA00030958EA19FA1A8A5B9A5800F911FA21F27
:104AB000B31F8EA39FA3A8A7B9A712E0C11AD1085C
:104AC000E108CA8EDB8EEC8E89899A89AB890197C1
:104AD000A109898B9A8BAB8B2C9A8F819885A9859C
:104AE0000197A1098F839887A9872C9889899A892A
:104AF000AB89A095909581959F4FAF4F2E853F85AF
:104B00004889281739074A0714F48EE180838D8578
:104B100082FF2BC08B81813011F4469A01C04698E8
:104B20002D8D3E8D4F8DC8A0D9A0EAA08C899D897E
:104B3000AE895527820F931FA41F20F453958C191B
:104B40009D09AE098C8B9D8BAE8B552371F0479AD6
:104B50002B818A859B85AC85022E0594820F901D42
:104B6000A01D8A879B87AC8747988E012AA53BA505
:104B70004CA550E0ADA5BEA50E94F43929893A891B
:104B800037FF03C0319521953109F80146855785D6
:104B900057FF03C0519541955109241735070CF46F
:104BA0009A01442737FD4095542F0E940D3A3093C7
:104BB000890020938800F80123A134A145A1215048
:104BC0003109410923A334A345A381E0232B242BDE
:104BD00009F480E0DF91CF911F910F91FF90EF904A
:104BE000DF90CF900895CF92DF92EF92CF93DF9333
:104BF000E0919E02F0919F02EF01858580FF2BC01E
:104C00008181813011F42F9A01C02F982F89388D1E
:104C1000498DC8A0D9A0EAA08E859F85A88955276F
:104C2000820F931FA41F20F453958C199D09AE0980
:104C30008E879F87A88B552371F02E9A29818C81AE
:104C40009D81AE81022E0594820F901DA01D8C8344
:104C50009D83AE832E988D8581FF2BC08A81813004
:104C600011F42D9801C02D9A2A8D3B8D4C8DC8A032
:104C7000D9A0EAA089899A89AB895527820F931F09
:104C8000A41F20F453958C199D09AE09898B9A8B2A
:104C9000AB8B552371F02C9A2A818F819885A98539
:104CA000022E0594820F901DA01D8F839887A987DF
:104CB0002C988D8582FF2BC08B81813011F4469A10
:104CC00001C046982D8D3E8D4F8DC8A0D9A0EAA079
:104CD0008C899D89AE895527820F931FA41F20F4CC
:104CE00053958C199D09AE098C8B9D8BAE8B5523EA
:104CF00071F0479A2B818A859B85AC85022E05949D
:104D0000820F901DA01D8A879B87AC8747988FEFE5
:104D10009FEF90938900809388008D85877069F05C
:104D20002BA13CA14DA12150310941092BA33CA34A
:104D30004DA381E0232B242B09F480E0DF91CF9158
:104D4000EF90DF90CF900895EF92FF920F931F9313
:104D5000CF93DF93E0919E02F0919F02EF0190814B
:104D60008585913009F06AC080FF04C0789902C03F
:104D70008E7F8587858581FF04C0799902C08D7FEC
:104D800085878585982F9B7F958780FF0EC02E9AFB
:104D900029818C819D81AE81022E0594820F901D08
:104DA000A01D8C839D83AE832E988D8581FF0EC0C0
:104DB0002C9A2A818F819885A985022E0594820FCD
:104DC000901DA01D8F839887A9872C988D8582FFC1
:104DD0000EC0479A2B818A859B85AC85022E05944F
:104DE000820F901DA01D8A879B87AC8747988D8571
:104DF000982F977009F582958F7091E1899F802D8A
:104E000011248D8781E089838FEF8A831B822F9AFB
:104E10008A81813011F42D9801C02D9A8B818130C7
:104E200011F4469A01C0469882E088838FEF9FEF85
:104E3000909389008093880081E0C9C080FF04C0FE
:104E4000789B02C08E7F8587858581FF04C0799B12
:104E500002C08D7F85878585982F9B7F958780FFF2
:104E60000EC02E9A29818C819D81AE81022E0594DF
:104E7000820F901DA01D8C839D83AE832E988D85FF
:104E800081FF0EC02C9A2A818F819885A985022ED8
:104E90000594820F901DA01D8F839887A9872C9859
:104EA0008D8582FF0EC0479A2B818A859B85AC85B4
:104EB000022E0594820F901DA01D8A879B87AC87C8
:104EC0004798FE012D85822F877009F0B5CF229576
:104ED0002F702D8720FF25C08C819D81AE817C01A4
:104EE0000A2F112707FD1095E0920006F0920106A7
:104EF00000930206109303068F89988DA98D8C83E9
:104F00009D83AE83BB27A7FDB0958E199F09A00B8B
:104F1000B10B80930C0690930D06A0930E06B093F0
:104F20000F0621FF25C087819085A1857C010A2F6E
:104F3000112707FD1095E0920406F09205060093F4
:104F4000060610930706828D938DA48D8783908724
:104F5000A187BB27A7FDB0958E199F09A00BB10BA8
:104F60008093100690931106A0931206B093130637
:104F700022FF25C082859385A4858C012A2F3327A3
:104F800027FD3095009308061093090620930A0622
:104F900030930B06858D968DA78D82879387A48786
:104FA000BB27A7FDB095801B910BA20BB30B809381
:104FB000140690931506A0931606B0931706108258
:104FC0008FEF9FEF909389008093880080E0DF91BE
:104FD000CF911F910F91FF90EF9008951F920F9224
:104FE0000FB60F921124CF92DF92EF92FF920F93A0
:104FF0001F932F933F934F935F936F937F938F9361
:105000009F93AF93BF93CF93DF93EF93FF93009161
:105010009E0210919F02E80180914A012DB73EB790
:1050200080910001909101012817390730F48DB764
:105030009EB79093010180930001D801D9968C917D
:10504000982F929596959770869586958770981764
:1050500009F190FF04C081FF02C080E062D7F8012F
:1050600081AD86FF06C082FF04C060E070E0CB0126
:105070006CD6D801D9968C918C7109F452D7F8016D
:1050800081AD982F969596959295990F907E8F71F8
:10509000892B81AFD8011D968C911D9783FF09C183
:1050A000D2962D913D914C91D4979096CD90DD90D4
:1050B000EC9092979F968D919D91AC915527820F80
:1050C000931FA41F20F453958C199D09AE09F80174
:1050D00087A790ABA1AB552309F4EBC08E0129AD96
:1050E000822F869586958770982F947009F4BAC0A0
:1050F0008AAD282F2695269526952F7030E087704B
:1051000090E0821793079CF1A8D5CAAC2BAD3CADBB
:10511000882381F08C2D8695869586958F70690100
:1051200002C0CC0CDD1C8A95E2F7C1D5C82ADCAEE2
:10513000CBAE0FC08C2D8695869586958F7002C05C
:10514000220F331F8A95E2F7D801DC963C932E9309
:10515000DB97F80192AD892F869586958695885FB5
:105160008F70880F880F880F9778982B92AF8E01D9
:105170006AAD762F7770472F50E0669566956695F5
:105180006F709A012F5F3F4F862F90E0089797FF2F
:1051900002C080E090E0D901A81BB90BF80123AD53
:1051A00034AD0A2E02C0220F331F0A94E2F78FEFAC
:1051B000860F871B8F70880F880F880F92AD9778A6
:1051C000982B92AFE32EB901772774AF63AF4230CB
:1051D0005105B9F044F44115510561F041305105D4
:1051E00009F585E51CC043305105C1F04530510536
:1051F00061F018C081E0311101C080E0E82EE19437
:1052000011C089E0839FE02C1124F4E0EF9E90010F
:105210001124E2945FE0E522E22A04C081E1839F49
:10522000E02C1124D801D9968C9182FF02C08E2DDA
:1052300078D6F80181AD83FF3CC0EE2009F439C077
:105240008FEF6FD6D801D5962D913D914C9150E0BE
:10525000AE2DB0E00E94F439672F782F892F99275F
:1052600074D527C081FF11C0F80180AD922F9370D3
:10527000959587959595879554D6F80185A996A912
:10528000A7A9BC018A2F90E060D5D801D9962C91AE
:10529000D99722FF09C0D8968C91922F937095953B
:1052A0008795959587953DD6F80181AD8C7109F468
:1052B00038D68E018881833079F020F4813080F0F7
:1052C00043DD0CC0843031F08051803148F40E94BD
:1052D000101D04C088DC02C00E94281C8111FDC280
:1052E000D8011C92D9968C91D997837ED9968C93AC
:1052F0000E94F41B8111F1C2E0914A01BBE1EB9FD6
:10530000F0011124E056FD4F8081D8019C9198173F
:1053100031F0DA969C91DA979778DA969C93D801D7
:10532000D9966C91D997562F569556955770952FBB
:105330009295990F907E6F71692BD9966C93D9973E
:105340008C93833009F4A0C060F4607E813009F44E
:1053500030C208F46EC28285D8011D968C931D97C9
:105360003CC2843009F433C18051803108F07CC2E2
:10537000218132814381D80190962D933D934C93A6
:10538000929793962D933D934C939597C480D58097
:10539000E6801E96CD92DD92EC925097CC0CDD1CEF
:1053A000EE1C5796CD92DD92EC925997C780D0842F
:1053B000E1845196CD92DD92EC925397CC0CDD1C9A
:1053C000EE1C5A96CD92DD92EC925C97C284D38407
:1053D000E484F5849696CD92DD92ED92FC929997B5
:1053E000C684D784E0889A96CD92DD92EC929C9701
:1053F000818992899E969C938E939D97828D8C71C4
:1054000071F4F80117A610AA11AAD2961D921D9246
:105410001C9215AA16AA17AA10AE607E08C2D8015F
:105420001D968C911D9788601D968C93557049F43C
:105430004695379527954095309521953F4F4F4F8D
:1054400003C02FEF3FEF4FEFD8019F962D933D9371
:105450004C93D197238934894589D2962D933D93D6
:105460004C93D49726893789408DD5962D933D93BB
:105470004C93D797818D928D9370D8968C93D897B3
:10548000D9968C91D9977DC1D8011D961C921D97F4
:1054900021813281438157962D933D934C935997A7
:1054A000232B242B19F081E01D968C9324813581C8
:1054B0004681D8015A962D933D934C935C97232BAC
:1054C000242B31F01D968C911D9782601D968C9334
:1054D000278130854185D8015D962D933D934C936E
:1054E0005F97232B242B31F01D968C911D978460A0
:1054F0001D968C9321813281438184819581A6817F
:1055000082179307A40710F4A42FC90127813085BF
:1055100041856C01EA2E82179307A40710F46901F4
:10552000E42ED8019096CD92DD92EC9292979396CC
:10553000CD92DD92EC92AE2DC601A69597958795FA
:10554000222733274427281B390B4A0BD8011E96E4
:105550002D933D934C93509751962D933D934C939F
:10556000539754962D933D934C93828580FF02C0B0
:105570008FEF01C081E0D80111968C93828581FF65
:1055800002C08FEF01C081E0D80112968C93828512
:1055900082FF02C08FEF01C081E0D80113968C9387
:1055A0001397818992899E969C938E939D97F8017B
:1055B00017A610AA11AAD2961D921D921C9215AA86
:1055C00016AA17AA10AE81AD807E81AF4DC1D80159
:1055D0001D961C921D9721813281438157962D93F0
:1055E0003D934C935997232B242B19F081E01D9662
:1055F0008C93248135814681D8015A962D933D9311
:105600004C935C97232B242B31F01D968C911D9786
:1056100082601D968C93278130854185D8015D96E7
:105620002D933D934C935F97232B242B31F01D96A4
:105630008C911D9784601D968C93218132814381CA
:1056400084819581A68182179307A40710F4A42F63
:10565000C9012781308541856C01EA2E82179307A5
:10566000A40710F46901E42ED8019096CD92DD9242
:10567000EC9292979396CD92DD92EC92AE2DC6016C
:10568000A69597958795CC24DD24EE24C81AD90ACF
:10569000EA0AD8011E96CD92DD92EC92509751966F
:1056A000CD92DD92EC9253975496CD92DD92EC928E
:1056B000228520FF02C02FEF01C021E0D801119602
:1056C0002C93228521FF02C02FEF01C021E0D801D9
:1056D00012962C93228522FF02C02FEF01C021E0F9
:1056E000D80113962C931397218932899E963C9367
:1056F0002E939D97228D2C71D9963C91D99721118B
:105700000FC0F80117A610AA11AAD2961D921D92D9
:105710001C9215AA16AA17AA10AE307E31AFA4C0EB
:10572000D8011D962C911D9728601D962C935570BD
:1057300021F44C2D2D2D8E2D03C04FEF2FEF8FEF29
:10574000D8019F964C939F97D0962C93D097D19643
:105750008C93D197C388D488E588D296CD92DD9278
:10576000EC92D497C688D788E08CD596CD92DD92FE
:10577000EC92D797818D928D9370D8968C93D89711
:10578000832F8C7F892BD9968C93D997928D9C717E
:10579000837E892BD9968C93D997928D92959695E5
:1057A0009770DA968C91DA97887F892BDA968C93AA
:1057B0005BC0228591E1299F902D11249777D80114
:1057C0001D969C931D979FEF11969C93119712968F
:1057D0008C93129713961C921397218132814381E7
:1057E00057962D933D934C9359972481358146814B
:1057F0005A962D933D934C935C9727813085418534
:105800005D962D933D934C935F97818992899E96E7
:105810009C938E939D97F80117A610AA11AAD29671
:105820001D921D921C9215AA16AA17AA10AE61AF5E
:105830001BC0D8019F961D921D921C92D197F80112
:1058400012AA13AA14AAD5961D921D921C92D7973C
:10585000D8961C92D897D9966C93D9978FEF9FEFD3
:105860009E969C938E939D970E941A1CF8018181AD
:10587000813011F42F9A01C02F988A81813011F460
:105880002D9801C02D9A8B81813011F4469A01C068
:1058900046988E0129AD23FF0CC088A199A1AAA129
:1058A000A69597958795A095909581959F4FAF4F19
:1058B00003C08FEF9FEFAFEFF80187A790ABA1ABCD
:1058C0002C7111F480E02DD3D8019D968D919C917F
:1058D0009E979093890080938800FF91EF91DF91CC
:1058E000CF91BF91AF919F918F917F916F915F9178
:1058F0004F913F912F911F910F91FF90EF90DF906B
:10590000CF900F900FBE0F901F9018950E94F41B20
:10591000811103C083E5EED7F9CF80911806882363
:1059200019F083E7E7D7F9CF0895EF92FF920F932D
:105930001F932FB7F89490E0FC01EE0FFF1FE80FC4
:10594000F91FE85EF94F84819581A6817C010A2FB9
:10595000112707FD1095C801B7012FBF1F910F91A7
:10596000FF90EF9008950E94EF1B269A2E98279A99
:105970002F9880988898249A2C98259A2D9A819807
:1059800089983F9A47983E9A469888E196E0909386
:105990009F0280939E021092800089E08093810094
:1059A0008FEF9FEF9093890080938800109285007D
:1059B00010928400EFE6F0E0808182608083089599
:1059C000AC01222788279927469F312D479F300D0C
:1059D000811D921F569F300D811D921F579F800D74
:1059E000911D112408952F923F924F925F926F92D2
:1059F0007F928F929F92AF92BF92CF92DF92EF925F
:105A0000FF920F931F93CF93DF93CDB7DEB76697C7
:105A10000FB6F894DEBF0FBECDBF2C833D834E83FF
:105A20005F83688779878A879B87712C812C912C6B
:105A30001E8A1B8A1C8AF0E0E0E4272D382D492DB0
:105A40005E896B897C898F2F9E2FAC80BD80CE8034
:105A5000DF80E884F9840A851B850E94853BA9F0D4
:105A6000A0F0272D382D492D5E896B897C898F2FD9
:105A70009E2F02E00E94573B722E832E942E5E8B47
:105A80006B8B7C8BF82FE92FD8CF612C512C212CDC
:105A9000312CB0E01A821B82412C272D382D492D44
:105AA0005E896B897C898F2F9E2FA0E00E948E3BA0
:105AB00009F470C0272D382D492D5E896B897C89AA
:105AC0008F2F9E2FA62CB52C6101EB2EFA800B8117
:105AD000142D0E94733B2D8BA32F4D875E876F87FC
