:10000000F3C200000EC300000CC300000AC30000CE
:1000100008C3000006C3000004C3000002C30000C0
:1000200000C30000FEC200000C94E33B0C941D3C96
:10003000F8C20000F6C20000F4C20000F2C20000E4
:10004000F0C200000C94162FECC20000EAC20000BF
:10005000E8C200000C94AE1EE4C20000E2C2000040
:10006000E0C200000C94B2220C946B22DAC20000B1
:10007000D8C20000D6C20000D4C20000D2C2000024
:100080000C942912CEC20000CCC20000CAC20000EB
:10009000C8C20000C6C20000C4C20000C2C2000044
:1000A000C0C20000BEC20000BCC200006704E7047A
:1000B0007F05080690060B079907150898081F0981
:1000C0009909260AA10A290BB20B8813BB1308143D
:1000D00043146014BF14051518153C156415EB1571
:1000E000C21580154416C215AD15AA15A7155824BA
:1000F000DD245F25EE257526FA267A270428842834
:1001000006298B290B2A952A152B9A2B212C46334D
:1001100030300A4732380A004552524F523A204E88
:10012000756D626572206F766572666C6F772109F6
:10013000004552524F523A20556E6B6E6F776E20CB
:100140006F7220756E646566696E656420537461B4
:10015000746509004552524F523A20455850454364
:10016000545F4241534536345F343A20546F6F2018
:100170006D616E7920426173653634204279746511
:100180007320284275666665722066756C6C290955
:10019000004552524F523A204558504543545F4211
:1001A00041534536345F343A204578706563746551
:1001B0006420612042415345363420636861726196
:1001C0006374657209004552524F523A20455850A7
:1001D0004543545F4241534536345F333A20546FB0
:1001E0006F206D616E7920426173653634204279EB
:1001F00074657320284275666665722066756C6C3E
:100200002909004552524F523A204558504543540F
:100210005F4241534536345F333A20457870656319
:10022000746564206120424153453634206368611F
:1002300072616374657209004552524F523A20450B
:1002400058504543545F4241534536345F323A205B
:10025000546F6F206D616E79204261736536342072
:1002600042797465732028427566666572206675EA
:100270006C6C2909004552524F523A20455850455E
:1002800043545F4241534536345F323A20457870DB
:1002900065637465642061204241534536342063B0
:1002A000686172616374657209004552524F523A37
:1002B000204558504543545F4241534536345F31E1
:1002C0003A2045787065637465642061204241532B
:1002D0004536342063686172616374657209004554
:1002E00052524F523A204558504543545F5355425D
:1002F0004449474954533A204578706563746564AE
:10030000205B302D395C775D09004552524F523ADF
:10031000204558504543545F414E4F544845524440
:10032000494749543A204578706563746564205B99
:10033000302D392E5C775D09004552524F523A20DC
:100340004558504543545F414E4F544845524449E7
:100350004749543A20546F6F206D616E79206C6567
:100360006164696E67206469676974732109004577
:1003700052524F523A2046495253545F44494749DA
:10038000543A204578706563746564205B302D397C
:100390005C775D09004552524F523A20455850450E
:1003A00043545F4E554D4245525F4F525F5349474C
:1003B0004E3A2066696C656E616D6520616C726590
:1003C000616479207365743A20756E657870656331
:1003D0007465642063686172616374657220666F1E
:1003E000756E6409004552524F523A2045585045A7
:1003F00043545F4C45545445523A20756E657870AD
:1004000065637465642063686172616374657220FA
:10041000616E642066696C656E616D6520616C72E9
:100420006561647920736574210900464F524D411E
:1004300054204552524F520A00726573656E642112
:100440000A004F4B2025640A0056302E302E312DE5
:10045000352D673361313032656420284E65772051
:10046000546F6B656E3A202750272050756C73656A
:1004700020746865206C6173657220666F722061FC
:100480002073696E676C652070756C736529005305
:10049000503A257800256420256420256420006CCE
:1004A00061736572204F4646004C41534552204FC0
:1004B0004E202564005A3A256E202020202020203E
:1004C000202020202000593A256E202020202020A6
:1004D00020202020202000583A256E202020202097
:1004E000202020202020200025632051756575657F
:1004F0003A256420256E2000554152545F52585FC2
:1005000046554C4C0030313233343536373839416A
:10051000424344454600010000CC051200020000A1
:1005200089054300030000850504010309047305E0
:100530001002030904490528030309043F050808BC
:1005400003310033003700000028034600720065C5
:1005500000650043004E00430020004C0061007322
:10056000006500720063007500740074006500721D
:10057000000000100365002D00500075006E006B38
:100580000074000000040309040902430002010092
:10059000C03209040000010202010005240010011C
:1005A00005240101010424020605240600010705B3
:1005B000820310004009040100020A000000070540
:1005C00003024000000705840240000012010002FF
:1005D00002000010C0167A040001010203010001AC
:1005E000C11201803601813611241FBECFEFDAE03F
:1005F000DEBFCDBF11E0A0E0B1E0E2E5FEE702C062
:1006000005900D92A431B107D9F718E0A4E1B1E04B
:1006100001C01D92AA36B107E1F70E940B170C9496
:10062000683DEECCEF92FF920F931F930023E9F108
:1006300016161706180619065CF457FD22C0E1E0ED
:1006400026173707480759070CF07FC0E0E07DC048
:10065000121613061406150684F47B018C018827F4
:100660009927DC018E199F09A00BB10B8217930704
:10067000A407B507B4F4E2E068C097FD53C057FF84
:100680005AC07B018C0188279927DC018E199F09AC
:10069000A00BB10B281739074A075B0724F4E6E0E3
:1006A00054C0E3E052C0E7E050C016161706180623
:1006B00019064CF457FD20C026173707480759077D
:1006C0005CF5E8E042C0121613061406150684F421
:1006D0007B018C0188279927DC018E199F09A00BCB
:1006E000B10B82179307A407B507C4F4EAE02DC045
:1006F00097FD23C057FF1FC07B018C0188279927D6
:10070000DC018E199F09A00BB10B281739074A0786
:100710005B0734F4EEE019C0E9E017C0EBE015C068
:10072000EFE013C0621773078407950714F4E4E041
:100730000CC0E5E00AC0EFEF08C06217730784073A
:10074000950714F4ECE001C0EDE08E2F1F910F919E
:10075000FF90EF9008954F925F926F927F928F92E9
:100760009F92AF92BF92CF92DF92EF92FF920F9340
:100770001F93CF93C0912C018C2F8F7090E0FC01C0
:1007800031978091280190912901A0912A01B0917F
:100790002B010091310110913201209133013091F0
:1007A000340140912D0150912E0160912F017091E3
:1007B0003001EF30F10520F4EA5AFF4F0C94C53EAA
:1007C000C0902001D0902101E0902201F0902301FF
:1007D00046015701801A910AA20AB30A881699069F
:1007E000AA06BB06A4F14090240150902501609018
:1007F00026017090270153014201E1E08E1A910811
:10080000A108B108880E991EAA1EBB1E809228015D
:1008100090922901A0922A01B0922B0182E0481AFD
:10082000510861087108409224015092250160929C
:100830002601709227010150110921093109009305
:1008400031011093320120933301309334014F5F13
:100850005F4F6F4F7F4F40932D0150932E01609358
:100860002F0170933001D701C6010296A11DB11D61
:100870008093200190932101A0932201B093230142
:10088000C094D094E094F094809128019091290133
:10089000A0912A01B0912B018C0D9D1DAE1DBF1D95
:1008A0008093280190932901A0932A01B0932B01F2
:1008B0008091310190913201A0913301B0913401C6
:1008C000481759076A077B070CF4E5C730C3C09087
:1008D0002401D0902501E0902601F09027014A01E3
:1008E0005B018C189D08AE08BF0888169906AA06F9
:1008F000BB069CF54F5F5F4F6F4F7F4F40932D01BD
:1009000050932E0160932F0170933001409120018C
:100910005091210160912201709123014A015B01F4
:10092000E2E08E0E911CA11CB11C809220019092DD
:100930002101A0922201B09223014095509560952B
:100940007095480F591F6A1F7B1F409328015093D1
:10095000290160932A0170932B01B701A601415030
:100960005109610971098091280190912901A09193
:100970002A01B0912B01840F951FA61FB71F8093EA
:10098000280190932901A0932A01B0932B0182E0C2
:10099000C81AD108E108F108C0922401D0922501BB
:1009A000E0922601F0922701015011092109310935
:1009B00000933101109332012093330130933401BD
:1009C00010161106120613060CF465C7B0C2C090CB
:1009D0002401D0902501E0902601F09027014601E6
:1009E0005701840E951EA61EB71EB094A094909435
:1009F0008094811C911CA11CB11C88169906AA0622
:100A0000BB06A4F14090200150902101609022018A
:100A10007090230153014201E1E08E1A9108A10870
:100A2000B108880E991EAA1EBB1E809228019092C2
:100A30002901A0922A01B0922B0182E0481A5108A4
:100A400061087108409220015092210160922201B8
:100A500070922301415051096109710940932D01A0
:100A600050932E0160932F0170933001B701A601BE
:100A70004150510961097109809128019091290122
:100A8000A0912A01B0912B01840F951FA61FB71FBB
:100A90008093280190932901A0932A01B0932B0100
:100AA000E2E0CE1AD108E108F108C0922401D09208
:100AB0002501E0922601F092270101501109210938
:100AC00031090093310110933201209333013093A7
:100AD000340180912D0190912E01A0912F01B091B0
:100AE0003001B095A095909581959F4FAF4FBF4F26
:100AF00080179107A207B3070CF4CDC618C2C090A7
:100B00002001D0902101E0902201F09023014601C4
:100B10005701800E911EA21EB31EB094A094909413
:100B20008094811C911CA11CB11C88169906AA06F0
:100B3000BB06A4F540902401509025016090260149
:100B40007090270153014201E1E08E1A9108A1083B
:100B5000B108880E991EAA1EBB1E80922801909291
:100B60002901A0922A01B0922B0182E0481A510873
:100B7000610871084092240150922501609226017B
:100B800070922701015011092109310900933101A7
:100B90001093320120933301309334019701860181
:100BA00001501109210931098091280190912901F1
:100BB000A0912A01B0912B01800F911FA21FB31F9A
:100BC0008093280190932901A0932A01B0932B01CF
:100BD000E2E0CE1AD108E108F108C0922001D092DB
:100BE0002101E0922201F092230141505109610953
:100BF000710940932D0150932E0160932F01709342
:100C0000300114161506160617060CF444C68FC1DB
:100C1000C0902001D0902101E0902201F0902301AA
:100C2000480159018C189D08AE08BF08881699061E
:100C3000AA06BB069CF10F5F1F4F2F4F3F4F00933B
:100C4000310110933201209333013093340100912C
:100C5000240110912501209126013091270148019E
:100C60005901E2E08E0E911CA11CB11C809224015E
:100C700090922501A0922601B0922701009510952F
:100C800020953095080F191F2A1F3B1F009328013C
:100C90001093290120932A0130932B01970186019B
:100CA00001501109210931098091280190912901F0
:100CB000A0912A01B0912B01800F911FA21FB31F99
:100CC0008093280190932901A0932A01B0932B01CE
:100CD00082E0C81AD108E108F108C0922001D09240
:100CE0002101E0922201F092230141505109610952
:100CF000710940932D0150932E0160932F01709341
:100D000030018091310190913201A0913301B09175
:100D1000340184179507A607B7070CF4BCC507C1B3
:100D2000C0902401D0902501E0902601F090270189
:100D300046015701841A950AA60AB70A8816990629
:100D4000AA06BB06A4F540902001509021016090B6
:100D500022017090230153014201E1E08E1A9108B3
:100D6000A108B108880E991EAA1EBB1E80922801F8
:100D700090922901A0922A01B0922B0182E0481A98
:100D8000510861087108409220015092210160923F
:100D90002201709223014150510961097109409368
:100DA0002D0150932E0160932F01709330010F5F3E
:100DB0001F4F2F4F3F4F009331011093320120936B
:100DC000330130933401D701C6010296A11DB11D34
:100DD0008093240190932501A0932601B0932701CD
:100DE000C094D094E094F0948091280190912901CE
:100DF000A0912A01B0912B018C0D9D1DAE1DBF1D30
:100E00008093280190932901A0932A01B0932B018C
:100E100037FD41C58CC0C0902401D0902501E090E1
:100E20002601F090270146015701840E951EA61E4B
:100E3000B71E88169906AA06BB069CF14F5F5F4F46
:100E40006F4F7F4F40932D0150932E0160932F01E0
:100E50007093300140912001509121016091220155
:100E6000709123014A015B01E2E08E0E911CA11CEE
:100E7000B11C8092200190922101A0922201B09297
:100E800023014095509560957095480F591F6A1F32
:100E90007B1F409328015093290160932A0170938E
:100EA0002B010F5F1F4F2F4F3F4F009331011093C6
:100EB00032012093330130933401D701C6010296E9
:100EC000A11DB11D8093240190932501A0932601BB
:100ED000B0932701C094D094E094F09480912801BD
:100EE00090912901A0912A01B0912B018C0D9D1D9B
:100EF000AE1DBF1D8093280190932901A0932A0164
:100F0000B0932B0180912D0190912E01A0912F0182
:100F1000B0913001B095A095909581959F4FAF4FBE
:100F2000BF4F081719072A073B070CF4B4C4CF5F5B
:100F3000B0C4C0902001D0902101E0902201F09037
:100F40002301480159018C0C9D1CAE1CBF1C881646
:100F50009906AA06BB069CF50F5F1F4F2F4F3F4F08
:100F60000093310110933201209333013093340107
:100F70000091240110912501209126013091270133
:100F800048015901E2E08E0E911CA11CB11C809217
:100F9000240190922501A0922601B092270100958C
:100FA000109520953095080F191F2A1F3B1F00939D
:100FB00028011093290120932A0130932B014F5FC0
:100FC0005F4F6F4F7F4F40932D0150932E016093E1
:100FD0002F0170933001D701C6010296A11DB11DEA
:100FE0008093200190932101A0932201B0932301CB
:100FF000C094D094E094F0948091280190912901BC
:10100000A0912A01B0912B018C0D9D1DAE1DBF1D1D
:101010008093280190932901A0932A01B0932B017A
:1010200077FD39C410922C0136C4C0902001D090B5
:101030002101E0902201F0902301480159018C1810
:101040009D08AE08BF0888169906AA06BB069CF53F
:101050000F5F1F4F2F4F3F4F00933101109332010D
:101060002093330130933401009124011091250124
:10107000209126013091270148015901E2E08E0EAE
:10108000911CA11CB11C8092240190922501A09278
:101090002601B09227010095109520953095080FF4
:1010A000191F2A1F3B1F0093280110932901209329
:1010B0002A0130932B019701860101501109210962
:1010C00031098091280190912901A0912A01B091C4
:1010D0002B01800F911FA21FB31F809328019093B3
:1010E0002901A0932A01B0932B0182E0C81AD108EC
:1010F000E108F108C0922001D0922101E092220182
:10110000F0922301415051096109710940932D0169
:1011100050932E0160932F01709330011416150621
:10112000160617060CF4B7C38FE080932C01B3C3E7
:10113000C0902401D0902501E0902601F090270175
:1011400046015701841A950AA60AB70A8816990615
:10115000AA06BB06A4F140902001509021016090A6
:1011600022017090230153014201E1E08E1A91089F
:10117000A108B108880E991EAA1EBB1E80922801E4
:1011800090922901A0922A01B0922B0182E0481A84
:10119000510861087108409220015092210160922B
:1011A0002201709223014150510961097109409354
:1011B0002D0150932E0160932F01709330010F5F2A
:1011C0001F4F2F4F3F4F0093310110933201209357
:1011D000330130933401D701C6010296A11DB11D20
:1011E0008093240190932501A0932601B0932701B9
:1011F000C094D094E094F0948091280190912901BA
:10120000A0912A01B0912B018C0D9D1DAE1DBF1D1B
:101210008093280190932901A0932A01B0932B0178
:1012200080912D0190912E01A0912F01B09130015C
:1012300080179107A207B3070CF02DC329C3C090F4
:101240002401D0902501E0902601F090270146016D
:101250005701840E951EA61EB71E88169906AA066B
:10126000BB069CF54F5F5F4F6F4F7F4F40932D0143
:1012700050932E0160932F01709330014091200113
:101280005091210160912201709123014A015B017B
:10129000E2E08E0E911CA11CB11C80922001909264
:1012A0002101A0922201B0922301409550956095B2
:1012B0007095480F591F6A1F7B1F40932801509358
:1012C000290160932A0170932B010F5F1F4F2F4F4D
:1012D0003F4F00933101109332012093330130933B
:1012E0003401D701C6010296A11DB11D80932401CE
:1012F00090932501A0932601B0932701C094D09428
:10130000E094F0948091280190912901A0912A0104
:10131000B0912B018C0D9D1DAE1DBF1D809328012A
:1013200090932901A0932A01B0932B0137FDB3C2FA
:10133000AFC2C0902001D0902101E0902201F09036
:10134000230146015701800E911EA21EB31E88166E
:101350009906AA06BB069CF10F5F1F4F2F4F3F4F08
:101360000093310110933201209333013093340103
:10137000009124011091250120912601309127012F
:1013800048015901E2E08E0E911CA11CB11C809213
:10139000240190922501A0922601B0922701009588
:1013A000109520953095080F191F2A1F3B1F009399
:1013B00028011093290120932A0130932B014F5FBC
:1013C0005F4F6F4F7F4F40932D0150932E016093DD
:1013D0002F0170933001D701C6010296A11DB11DE6
:1013E0008093200190932101A0932201B0932301C7
:1013F000C094D094E094F0948091280190912901B8
:10140000A0912A01B0912B018C0D9D1DAE1DBF1D19
:101410008093280190932901A0932A01B0932B0176
:1014200070956095509541955F4F6F4F7F4F8091BC
:10143000310190913201A0913301B09134014817EC
:1014400059076A077B070CF026C222C2C090200110
:10145000D0902101E0902201F09023014601570134
:10146000801A910AA20AB30A88169906AA06BB0630
:10147000A4F54090240150902501609026017090C1
:10148000270153014201E1E08E1A9108A108B10839
:10149000880E991EAA1EBB1E8092280190922901D7
:1014A000A0922A01B0922B0182E0481A51086108EB
:1014B0007108409224015092250160922601709299
:1014C00027010150110921093109009331011093BD
:1014D000320120933301309334014F5F5F4F6F4FE0
:1014E0007F4F40932D0150932E0160932F017093F5
:1014F0003001D701C6010296A11DB11D80932001C4
:1015000090932101A0932201B0932301C094D09421
:10151000E094F0948091280190912901A0912A01F2
:10152000B0912B018C0D9D1DAE1DBF1D8093280118
:1015300090932901A0932A01B0932B0177FDABC1B1
:10154000A7C1C0902401D0902501E0902601F09021
:1015500027014A015B018C189D08AE08BF08881658
:101560009906AA06BB069CF14F5F5F4F6F4F7F4FF6
:1015700040932D0150932E0160932F017093300101
:10158000409120015091210160912201709123012D
:101590004A015B01E2E08E0E911CA11CB11C8092FD
:1015A000200190922101A0922201B0922301409546
:1015B000509560957095480F591F6A1F7B1F409387
:1015C00028015093290160932A0170932B01B701E0
:1015D000A60141505109610971098091280190913A
:1015E0002901A0912A01B0912B01840F951FA61FFC
:1015F000B71F8093280190932901A0932A01B093EB
:101600002B0182E0C81AD108E108F108C092240138
:10161000D0922501E0922601F09227010150110994
:1016200021093109009331011093320120933301D4
:101630003093340180912D0190912E01A0912F01C2
:10164000B0913001081719072A073B070CF023C196
:101650001FC1C0902401D0902501E0902601F09098
:10166000270146015701840E951EA61EB71EB09491
:10167000A09490948094811C911CA11CB11C88168C
:101680009906AA06BB06A4F54090200150902101BE
:10169000609022017090230153014201E1E08E1A13
:1016A0009108A108B108880E991EAA1EBB1E80923F
:1016B000280190922901A0922A01B0922B0182E088
:1016C000481A510861087108409220015092210186
:1016D0006092220170922301415051096109710900
:1016E00040932D0150932E0160932F017093300190
:1016F000B701A60141505109610971098091280182
:1017000090912901A0912A01B0912B01840F951F7E
:10171000A61FB71F8093280190932901A0932A0147
:10172000B0932B01E2E0CE1AD108E108F108C09293
:101730002401D0922501E0922601F0922701015068
:1017400011092109310900933101109332012093CD
:1017500033013093340110161106120613060CF4EF
:101760009AC096C0C0902001D0902101E090220143
:10177000F0902301480159018C0C9D1CAE1CBF1C2C
:10178000B094A09490948094811C911CA11CB11CD5
:1017900088169906AA06BB06A4F140902401509031
:1017A0002501609026017090270153014201E1E07C
:1017B0008E1A9108A108B108880E991EAA1EBB1E98
:1017C0008092280190922901A0922A01B0922B01C7
:1017D00082E0481A51086108710840922401509231
:1017E00025016092260170922701015011092109FB
:1017F000310900933101109332012093330130936A
:1018000034019701860101501109210931098091A4
:10181000280190912901A0912A01B0912B01800FFC
:10182000911FA21FB31F8093280190932901A093B9
:101830002A01B0932B01E2E0CE1AD108E108F108A9
:10184000C0922001D0922101E0922201F092230166
:10185000415051096109710940932D0150932E01A6
:1018600060932F017093300170956095509541956C
:101870005F4F6F4F7F4F8091310190913201A09166
:101880003301B091340184179507A607B7071CF4FC
:10189000C150C0932C0140913101509132016091AF
:1018A00033017091340180912D0190912E01A0910E
:1018B0002F01B0913001FA0157FF04C0EE27FF2736
:1018C000E41BF50B9C0197FF04C022273327281B3C
:1018D000390B2E173F07C4F500911801109119011B
:1018E00020911A0130911B01081719072A073B079D
:1018F00009F065C080911C0190911D01A0911E010D
:10190000B0911F0184179507A607B70709F472C0A5
:1019100077FD0BC0F1E0E0E0141615061606170679
:101920000CF0F0E02F2F3E2F02C02FEF3FEFB7FD5E
:1019300041C051E040E0181619061A061B060CF0CB
:1019400050E0852F942F38C000911C0110911D018B
:1019500020911E0130911F01041715072607370734
:1019600071F5409118015091190160911A0170911F
:101970001B01481759076A077B07E1F1B7FD0BC048
:10198000F1E0E0E0181619061A061B060CF0F0E06C
:101990002F2F3E2F02C02FEF3FEF77FD0BC0F1E05E
:1019A000E0E014161506160617060CF0F0E08F2F6F
:1019B0009E2F02C08FEF9FEF28173907E9F0409163
:1019C0001401509115016091160170911701415059
:1019D00051096109710940931401509315016093F5
:1019E00016017093170181E0452B462B472B29F0F8
:1019F00080E003C083E001C082E0CF911F910F918E
:101A0000FF90EF90DF90CF90BF90AF909F908F901E
:101A10007F906F905F904F9008954F925F926F927A
:101A20007F928F929F92AF92BF92CF92DF92EF926E
:101A3000FF920F93CF93DF9300D000D0CDB7DEB7E6
:101A400069837A838B839C83A02FC7010C2D6C0143
:101A5000EA2EFF24E7FCF09446015701A42FC901A8
:101A6000BB27A7FDB0952C013D01A7019601BC0144
:101A7000CD010E94120380932C01409231015092BB
:101A800032016092330170923401C0922D01D092E4
:101A90002E01E0922F01F0923001440C551C661C7F
:101AA000771C409224015092250160922601709289
:101AB0002701880C991CAA1CBB1C809220019092C3
:101AC0002101A0922201B0922301A6E0B0E0298179
:101AD0003A814B815C810E946A3D6093140170934E
:101AE000150180931601909317010F900F900F909E
:101AF0000F90DF91CF910F91FF90EF90DF90CF90FB
:101B0000BF90AF909F908F907F906F905F904F901D
:101B100008952F923F924F925F926F928F929F9271
:101B2000AF92BF92CF92DF92EF92FF920F931F93EB
:101B3000CF93DF93CDB7DEB769970FB6F894DEBFCA
:101B40000FBECDBF6C877D878E879F8729833A83A1
:101B50004B832701602EAC8ABD8ACE8A2DA53EA577
:101B60004FA52F8B388F498F18A9AC2DC501BB27E6
:101B7000A7FDB095888B998BAA8BBB8B80931C019A
:101B800090931D01A0931E01B0931F01A42FC901C2
:101B9000BB27A7FDB0954C015D0180931801909380
:101BA0001901A0931A01B0931B01C12E29813A811A
:101BB0004B816C857D858E859F852FDF89819A81FC
:101BC000AB81BB27A7FDB0958C839D83AE83BF837C
:101BD000A62DC201BB27A7FDB09588879987AA8744
:101BE000BB87A5019401C501B4010E94743D4B015E
:101BF0005C01288539854A855B85CA01B9010E9447
:101C0000743D6B017C012C813D814E815F81CA0155
:101C1000B9010E94743DC60ED71EE81EF91E8C182D
:101C20009D08AE08BF08288939894A895B89CA019D
:101C3000B9010E94743D860E971EA81EB91E80929F
:101C4000280190922901A0922A01B0922B010E94B2
:101C5000AB038823E1F38091D3079091D407A0913F
:101C6000D5072C893D894E89820F931FA41F80932D
:101C7000C1079093C207A093C3078091D6079091A4
:101C8000D707A091D8072F89388D498D820F931FD0
:101C9000A41F8093C4079093C507A093C607209004
:101CA0005C013BE1239E10011124C101845F9B4F25
:101CB0001C018091140190911501A0911601A0952D
:101CC000909581959F4FAF4FF10181839283A383BC
:101CD000C12E062D720129813A814B816C857D854B
:101CE0008E859F859ADE8092280190922901A0928C
:101CF0002A01B0922B01D1011196CD90DD90EC908C
:101D0000BFEFCB1ADB0AEB0A809114019091150109
:101D1000A0911601C80ED91EEA1EF101C182D2821D
:101D2000E38229813A814B8124833583468347822C
:101D30005086618682869386A486B5862C853D85ED
:101D40004E8526873787408B112319F0B0E1FB2E93
:101D500002C0A8E1FA2E012F288539854A855B85C6
:101D60006C817D818E819F810E9412038F29F101F8
:101D7000808380917B0190917C01A0917D01B09145
:101D80007E010097A105B10521F0382F292F8A2F58
:101D90001DC020916D0130916E0140916F018E2D1B
:101DA000B60190E050E00E94FE3DEBE9AE2EF6E178
:101DB000BF2ECC24C394D12CE12CF12C00E010E0F8
:101DC0000E94E63D932F842F322F292FD101539665
:101DD0003C93539754962C93549755968C9380919B
:101DE000700190917101A0917201F101868B978B26
:101DF000A08F9091780180917901918F828F69965F
:101E00000FB6F894DEBF0FBECDBFDF91CF911F910B
:101E10000F91FF90EF90DF90CF90BF90AF909F9089
:101E20008F906F905F904F903F902F900C94132362
:101E3000AC01222788279927469F312D479F300DD7
:101E4000811D921F569F300D811D921F579F800D3F
:101E5000911D112408952F923F924F925F926F929D
:101E60007F928F929F92AF92BF92CF92DF92EF922A
:101E7000FF920F931F93CF93DF93CDB7DEB7669793
:101E80000FB6F894DEBF0FBECDBF2C833D834E83CB
:101E90005F83688779878A879B87712C812C912C37
:101EA0001E8A1B8A1C8AF0E0E0E4272D382D492D7C
:101EB0005E896B897C898F2F9E2FAC80BD80CE8000
:101EC000DF80E884F9840A851B850E94FB3EA9F027
:101ED000A0F0272D382D492D5E896B897C898F2FA5
:101EE0009E2F02E00E94CD3E722E832E942E5E8B9A
:101EF0006B8B7C8BF82FE92FD8CF612C512C212CA8
:101F0000312CB0E01A821B82412C272D382D492D0F
:101F10005E896B897C898F2F9E2FA0E00E94043FF1
:101F200009F470C0272D382D492D5E896B897C8975
:101F30008F2F9E2FA62CB52C6101EB2EFA800B81E2
:101F4000142D0E94E93E2D8BA32F4D875E876F874E
:101F5000788B898B9A8B2C813D814E815F8168853E
:101F600079858A859B85AD88BA2ECD84DE84EF8401
:101F7000F88809891A890E94FB3EF8F00E94F23E17
:101F80002C833D834E835F83688779878A879B870D
:101F9000262D352DA1016B2F7A818B81942D01E0A7
:101FA0000E94CD3EA72CB82CC92CDE88EB88FC887B
:101FB0000F2F1E2F0E94E93E0AC0262D352DA101AC
:101FC0006B2F7A818B81942D01E00E94CD3E622E91
:101FD000532E1A01B62F7A838B83492E272D382D45
:101FE000492D5E896B897C898F2F9E2F02E00E948C
:101FF000CD3E722E832E942E5E8B6B8B7C8BF82FB6
:10200000E92F83CF662D752DC10166960FB6F89422
:10201000DEBF0FBECDBFDF91CF911F910F91FF901B
:10202000EF90DF90CF90BF90AF909F908F907F9078
:102030006F905F904F903F902F9008954F925F92D6
:102040006F927F928F929F92AF92BF92CF92DF92C8
:10205000EF92FF920F931F93CF93DF934B015C019D
:1020600069017A01A50194010E94F13D29013A011B
:10207000D62FC72F4C01C701B601A70196010E94B8
:10208000F13D59016A017B018C019201A3016D2F81
:102090007C2FC4010E94E93EDF91CF911F910F91E7
:1020A000FF90EF90DF90CF90BF90AF909F908F9078
:1020B0007F906F905F904F90CECE1092350110922E
:1020C00036010895209136019091350181E0291360
:1020D00080E00895F7DF91E0811190E0892F089565
:1020E000209136014091350130E02F5F3F4F2F7333
:1020F000332750E081E02417350709F080E0089588
:10210000EFDF882319F082E41ED6FACF80913601E2
:102110008F5F8F73809336010895809135018F5FB3
:102120008F73809335010895CF93DF931F92CDB7BE
:10213000DEB7C8DF882319F082E405D6FACFE09134
:102140003501F0E0E158FE4F80818983E6DF898127
:102150000F90DF91CF910895E0913601F0E0E158C2
:10216000FE4F8083CDCF82B7806182BFE1ECF0E08B
:10217000108282E08093C00098E09093C200809328
:10218000C30080E48093C40083E08093BF008FEBA2
:102190008093D100109272001092BF001092BE0086
:1021A00081E0808308951092900088E080939100F0
:1021B0001092950010929400E1E7F0E08081826037
:1021C00080830895611571058105910511F488E0FA
:1021D0005DC0611520E172078105910558F4E4E0C6
:1021E000660F771FEA95E1F7709399006093980066
:1021F00089E04CC0611520E872078105910540F423
:10220000660F771F70939900609398008AE03EC034
:102210006115710524E08207910578F4DC01CB019A
:1022200042E0B695A795979587954A95D1F79093F3
:102230009900809398008BE029C06115710520E119
:102240008207910578F4DC01CB0134E0B695A795BF
:10225000979587953A95D1F7909399008093980038
:102260008CE014C06115710520E482079105C8F463
:10227000DC01CB0126E0B695A795979587952A9521
:10228000D1F790939900809398008DE0809391000E
:1022900010923701109238011092390110923A01D0
:1022A000089560E070EA8FE090E0CDCFCF92DF92AA
:1022B000EF92FF920F931F932FB7F894C090610194
:1022C000D0906201E0906301F0906401109261018E
:1022D0001092620110926301109264012FBF20914D
:1022E000650130916601C20ED31EE11CF11CC60EC1
:1022F000D71EE81EF91E40E050E0BA0118EEC116E4
:1023000013E0D106E104F10458F008EEC01A03E02E
:10231000D00AE108F1084F5F5F4F6F4F7F4FEECF5C
:10232000D0926601C0926501809167019091680129
:102330008A019B01080F191F211D311DD901C801F8
:102340004091690150916A0160916B0170916C013B
:102350008A019B010F5F1F4F2F4F3F4F8036EAEEE0
:102360009E07A105B10538F080569A4EA109B10922
:10237000B901A801EDCF4093690150936A016093C0
:102380006B0170936C0190936801809367011F91BA
:102390000F91FF90EF90DF90CF9008950F931F93D0
:1023A000182F90917A01882379F191110AC00E9427
:1023B000711E609373017093740180937501909303
:1023C000760181E080937A015E9A1F3F21F480912B
:1023D000C4008F7E16C0812F90E0382F22276EE731
:1023E00077E0822B932B24DD803827E0920710F0D2
:1023F0008FE797E09093BF008093CF008091C40057
:1024000080618093C40022C05E988091C4008F7E5A
:102410008093C4009923D1F010927A010E94711E1A
:102420000091730110917401209175013091760132
:10243000601B710B820B930B39DF80919100887FB9
:102440008093910010929500109294001F910F912B
:1024500008951F920F920FB60F9211242F933F935E
:102460004F935F936F937F938F939F93AF93BF939C
:10247000EF93FF932DB73EB780910001909101013A
:102480002817390730F48DB79EB7909301018093D8
:10249000000180917A01882379F060913701709171
:1024A00038018091390190913A01611571058105DA
:1024B000910511F087DE07C080919100887F80939D
:1024C000910080E06BDFFF91EF91BF91AF919F9101
:1024D0008F917F916F915F914F913F912F910F90CD
:1024E0000FBE0F901F9018955E98569A3CDE5BDEEB
:1024F000E8E7F1E084E68083218181E090E0A0E0DC
:1025000080936D0190936E01A0936F0188EE93E02C
:10251000A0E08093700190937101A09372011092DA
:102520007A01207E2183109273011092740110921F
:1025300075011092760110927B0110927C0110922D
:102540007D0110927E0186E59AEE9093680180935A
:10255000670180E023CF883048F48770880F880FA8
:1025600090917901937E982B90937901089588300A
:1025700048F48295880F807E909179019F71982B05
:1025800090937901089560936D0170936E0180932B
:102590006F010895609370017093710180937201CF
:1025A0000895893E23E0920748F480937801937060
:1025B000809179018C7F892B809379010895809394
:1025C000770108959FEB980F9A31C0F09FE9980F1B
:1025D0009A3110F48754089590ED980F9A3010F4C2
:1025E0008C5F08958B3261F08D3251F08F3211F093
:1025F0008F3511F48FE308958FEF0895892F089593
:102600008EE30895CF92DF92EF92FF92CF93DF9304
:10261000282F81E0203209F45DC0293009F45AC026
:1026200080E0223709F430C32A3009F04AC0809193
:102630003C01882399F00E94FB22882379F0C0E0B6
:1026400080913C01C81740F4EC2FF0E0EA53FE4FB4
:10265000808182DDCF5FF4CF10923C0180914001F8
:102660008A508230E0F410923C01109205021092E0
:10267000060210920702109208021092C0011092F6
:10268000C1011092C2011092C3011092C4011092B4
:10269000C5011092BF011092400181E0F6C2D2D76D
:1026A00080913C018823F9F2C0E080913C01C81779
:1026B000D0F6EC2FF0E0EA53FE4F80814DDDCF5F86
:1026C000F4CF2A3239F4809140018A3011F08EE043
:1026D00022C280E030ED320F91E03A3008F090E015
:1026E000409140014E3009F40FC25091BF01511189
:1026F00005C05091C40152275093C40150E04231AB
:10270000510508F03FC2FA01EB59FF4F0C94C53E4A
:10271000109205021092060210920702109208020F
:102720001092C0011092C1011092C2011092C30117
:1027300098E6E9E1F2E0DF01392F1D923A95E9F7D9
:10274000E1E8F2E0DF011D929A95E9F79FE3E6ECFC
:10275000F1E0DF011D929A95E9F790E1E9E0F2E0FE
:10276000DF011D929A95E9F710923B0110923C010E
:1027700091E0909340019FEB920F9A3118F590935E
:10278000450141E050E060E070E004C0440F551F97
:10279000661F771F9A95D2F78091050290910602E5
:1027A000A0910702B0910802842B952BA62BB72B82
:1027B0008093050290930602A0930702B09308024B
:1027C00082E0A9C1811160C22B3309F49FC1283274
:1027D00009F4A0C1243211F486E09DC1273211F41E
:1027E00080E199C1223211F481E195C180913B01D0
:1027F00081110BC08FE08093400181E080933B0109
:102800002093090210920A023FC285EE93E0DAC1DA
:10281000882311F081E07FC191111BC02B32C9F0D8
:102820002D32B9F080913B01882319F085E993E0BE
:10283000C9C18FE080934001809145018F5B8093F7
:10284000090282E080933B0120930A0210920B025E
:102850001BC283E08093400110924101109242011B
:10286000109243011092440110923E0110923D01DA
:102870002D3221F481E080933F0106C210923F0186
:102880002B3219F401C28111C5CF911103C08FE61B
:1028900093E098C1822F90E0C097AA2797FDA0955A
:1028A000BA2F8093410190934201A0934301B093CA
:1028B000440180913E018F5F80933E0184E059C0C6
:1028C000992309F437C020913E012A3018F089E39A
:1028D00093E078C18091410190914201A091430120
:1028E000B0914401880F991FAA1FBB1FBF93AF93DC
:1028F0009F938F93880F991FAA1FBB1F880F991F43
:10290000AA1FBB1F0F90800D0F90901D0F90A01D50
:102910000F90B01D830F911DA11DB11D809341012A
:1029200090934201A0934301B09344012F5F209301
:102930003E012BC12E3211F485E01BC0882311F01B
:1029400081E017C02A3211F48EE013C02B3311F44A
:102950008DE00FC0283211F48CE00BC0243211F44A
:1029600086E007C0273211F480E103C0223221F44F
:1029700081E18093400109C18AE093E023C199235A
:1029800009F43EC020913D01233008F07DC1409103
:102990003E01822F90E0840F911D0A970CF074C1C4
:1029A0008091410190914201A0914301B091440175
:1029B000880F991FAA1FBB1FBF93AF939F938F933D
:1029C000880F991FAA1FBB1F880F991FAA1FBB1F23
:1029D0000F90800D0F90901D0F90A01D0F90B01DB7
:1029E000830F911DA11DB11D809341019093420160
:1029F000A0934301B09344012F5F20933D01C5C0D4
:102A0000811108CF8FED92E0DDC0811103CF822FBD
:102A1000D9DD803418F08AEA92E0D4C0E0913C011C
:102A2000F0E0EA53FE4F880F880F808387E073C081
:102A3000822FC8DD803418F085E792E0C3C0E091B2
:102A40003C0191E09E0F90933C01F0E0EA53FE4F71
:102A5000282F22952F703081232B20839F3318F04D
:102A600088E392E0AFC0E92FF0E0EA53FE4F829591
:102A7000807F808388E04FC02D3321F1822FA2DD3B
:102A8000803418F083E092E09DC0E0913C0191E039
:102A90009E0F90933C01F0E0EA53FE4F282F2695BD
:102AA00026953081232B20839F3318F086EC91E00C
:102AB00089C0E92FF0E0EA53FE4F8295880F880F16
:102AC000807C808389E027C02D3309F485CE822F56
:102AD00079DD803418F081E991E074C0E0913C0127
:102AE00021E02E0F20933C01F0E0EA53FE4F90814D
:102AF000982B90832F3308F46FCE84E591E062C069
:102B0000293209F0C1C086CE2B3311F48DE003C009
:102B1000283221F48CE080934001B6C0992321F043
:102B20009091C5019A3120F08AE08093400153C012
:102B30008091BF018F5F8093BF01990F892F880F0C
:102B4000880F890F8053820F8093C5019DC0223268
:102B500031F460CE273219F45DCE81115BCE8091C5
:102B60003B0131E0380FE82FF0E0E75FFD4F2083B5
:102B7000E32FF0E0E75FFD4F108230933B013031EF
:102B800050F582C081E391E01DC0609141017091D8
:102B900042018091430190914401C0913D0107C0E1
:102BA000AAE0B0E09B01AC010E946A3DCF5FC33058
:102BB000A0F46A39B9E97B078B07B9E19B0784F375
:102BC00088E191E09F938F930E94A73B8AE08093D6
:102BD00040010F900F9083E058C02AE0C22ED12C04
:102BE000E12CF12CC33061F06B5F7F4F8F4F9F4F13
:102BF000A70196010E94A53DCA01B901C150F2CFBB
:102C000020913F01222339F0909580957095619530
:102C10007F4F8F4F9F4FF090450144E0F49E90010D
:102C20001124F901E75EFD4F6083718382839383F2
:102C3000E901CF57DD4F28EE33E040E050E00E943D
:102C4000A53D288339834A835B8341E050E060E0FF
:102C500070E004C0440F551F661F771FFA94D2F727
:102C60008091C0019091C101A091C201B091C301B6
:102C7000842B952BA62BB72B8093C0019093C10179
:102C8000A093C201B093C30180E0DF91CF91FF9088
:102C9000EF90DF90CF900895CF93DF931092400193
:102CA000EEE0F1E08491EF012196882319F0AADC8F
:102CB000FE01F8CFDF91CF910895E1E6F0E080E8E2
:102CC00080831082559A209A5D9A289A269A2E9887
:102CD000279A2F9880988898249A2C98259A2D9A2C
:102CE000819889983F9A47983E9A4698569A5E9856
:102CF000539A52985A9A0E94831E0E94CA3B60E0DF
:102D000071EE80E090E00E941022EEDB0E945721DD
:102D10000E945E340E94EB330E94701F0E94701F5D
:102D20007894BACF8091610190916201A091630182
:102D3000B0916401892B8A2B8B2B21F060E070E02D
:102D4000CB01B4CA0895CF93DF931F92CDB7DEB7FE
:102D50004DB75EB720910001309101014217530732
:102D600030F42DB73EB73093010120930001A895B0
:102D70009091E90293FF08C09091E902977F9093A8
:102D8000E9028983CFDF89819091E90292FF0BC02C
:102D90009091E9029B7F9093E9024D9A0F90DF9109
:102DA000CF910C9472200F90DF91CF910895A89548
:102DB0000E945622882369F10E944622289822DC2C
:102DC0008230B1F08330E1F0813011F50E94282388
:102DD0002FE130E0281B31093F932F9382E494E0E8
:102DE0009F938F930E94A73B0F900F900F900F908F
:102DF00089E394E09F938F930E94A73B0F900F90DD
:102E00008BE294E09F938F930E94A73B0F900F90CB
:102E1000289A8CE498CF51DFCADFFECF60E082E0D1
:102E20000E944D3489E091E09F938F930E94B63BBE
:102E3000F89480E0B3DA80E08EDB2FEF83E294EF4A
:102E4000215080409040E1F700C000000C94000049
:102E50000F900F90089559982F70611120644111BF
:102E600020628111206188E05C9820FF02C0589A9E
:102E700001C058985C9A26958150B1F7599A5C9890
:102E800059980895CF93C82FCF702C2F40E060E061
:102E900080E0E1DF2C2F40E060E081E0DCDF2C2FE0
:102EA00040E060E080E0CF91D6CF5998519A589891
:102EB000509A5C98549A20E040E060E080E0CBCFEC
:102EC000CF93C82F82958F70DDDF8C2FDBDF87ECEF
:102ED00090E00197F1F700C00000CF910895CF93E3
:102EE000DF93C82FD82FD295DF702D2F40E061E0FF
:102EF00080E0B1DF2D2F40E061E081E0ACDF2D2FDD
:102F000040E061E080E0A7DFCF702C2F40E061E07F
:102F100080E0A1DF2C2F40E061E081E09CDF2C2FDE
:102F200040E061E080E097DF87EC90E00197F1F707
:102F300000C00000DF91CF9108950F931F938091FF
:102F4000C0019091C101A091C201B091C301A7FF3E
:102F50002DC04091F60700917502109176022091E4
:102F6000770230917802411104C04091F507442363
:102F7000A9F04091DD075091DE076091DF07709165
:102F8000E007400F511F621F731F4093DD075093EE
:102F9000DE076093DF077093E00708C00093DD074A
:102FA0001093DE072093DF073093E007B0FF2DC0BA
:102FB0004091F7070091790210917A0220917B02EB
:102FC00030917C02411104C04091F5074423A9F0DF
:102FD0004091E1075091E2076091E3077091E407A7
:102FE000400F511F621F731F4093E1075093E20788
:102FF0006093E3077093E40708C00093E107109320
:10300000E2072093E3073093E407B1FF2DC08091DE
:10301000F80740917D0250917E0260917F0270918D
:103020008002811104C08091F5078823A9F0809166
:10303000E5079091E607A091E707B091E807840FB4
:10304000951FA61FB71F8093E5079093E607A093EF
:10305000E707B093E80708C04093E5075093E607F9
:103060006093E7077093E8076091DD077091DE07D2
:103070008091DF079091E007B9D76093CA077093FA
:10308000CB078093CC076091E1077091E2078091B4
:10309000E3079091E407D0D76093CD077093CE07F4
:1030A0008093CF076091E5077091E6078091E7076D
:1030B0009091E807E7D76093D0077093D10780938A
:1030C000D2071F910F9108952F923F924F925F92D6
:1030D0006F927F928F929F92AF92BF92CF92DF9228
:1030E000EF92FF920F931F93CF93DF93CDB7DEB78D
:1030F00061970FB6F894DEBF0FBECDBF8D8780916C
:10310000DD079091DE07A091DF07B091E007809383
:10311000E9079093EA07A093EB07B093EC0780913F
:10312000E1079091E207A091E307B091E407809353
:10313000ED079093EE07A093EF07B093F007FDDE45
:103140008091C0019091C101A091C201B091C301D1
:103150008C019D0100271370227033270115110582
:103160002105310511F480E08CC190FF1CC0409115
:10317000E9075091EA076091EB077091EC07C09066
:103180003902D0903A02E0903B02F0903C024C0DA4
:103190005D1D6E1D7F1D4093E9075093EA07609304
:1031A000EB077093EC0791FF1CC08091ED079091A5
:1031B000EE07A091EF07B091F00740913D025091CA
:1031C0003E0260913F0270914002840F951FA61F3E
:1031D000B71F8093ED079093EE07A093EF07B0938E
:1031E000F007011511052240310509F02BC180912E
:1031F0005D0290915E02A0915F02B09160028D83AA
:103200009E83AF83B8872091DD073091DE07409120
:10321000DF075091E0078091E9079091EA07A091BC
:10322000EB07B091EC07281B390B4A0B5B0B29838A
:103230003A834B835C834090E1075090E2076090B3
:10324000E3077090E4078091ED079091EE07A0915D
:10325000EF07B091F007481A590A6A0A7B0AA301DE
:10326000920169817A818B819C810E941E106987FD
:103270007A878B879C876D817E818F8198859B0162
:10328000AC010E94F13D2E873F871A014B01898BCB
:10329000988B69857A858B859C859B01AC010E9402
:1032A000F13D02E00E94CD3E59016A017B018C0193
:1032B0002E853F85A101B401898998890E94F23E3B
:1032C0000E942B0F6B017C0197FD4DCFA301920152
:1032D0000E94743D29853A854B855C850E94A53DF9
:1032E00049015A012093E9073093EA074093EB071D
:1032F0005093EC0729813A814B815C815095409530
:10330000309521953F4F4F4F5F4FC701B6010E9447
:10331000743D29853A854B855C850E94A53D2093A7
:10332000ED073093EE074093EF075093F0078D853C
:10333000882351F08D819E81AF81B88518161906BA
:103340001A061B063CF025C08D819E81AF81B88591
:10335000B7FF1FC0B094A09490948094811C911CDE
:10336000A11CB11C8092E9079092EA07A092EB079A
:10337000B092EC0788279927DC01821B930BA40BE2
:10338000B50B8093ED079093EE07A093EF07B093F2
:10339000F0076091DD077091DE078091DF07909163
:1033A000E007660F771F881F991F29813A814B819B
:1033B0005C81621B730B840B950B32E0C32ED12C06
:1033C000E12CF12CA70196010E94A53D8091E9070F
:1033D0009091EA07A091EB07B091EC07820F931F41
:1033E000A41FB51F8093E9079093EA07A093EB070A
:1033F000B093EC076091E1077091E2078091E307D9
:103400009091E407660F771F881F991F641975094B
:1034100086099709A70196010E94A53D8091ED07B5
:103420009091EE07A091EF07B091F007820F931FE4
:10343000A41FB51F8093ED079093EE07A093EF07AD
:10344000B093F0076091E9077091EA078091EB076C
:103450009091EC07CBD56093D3077093D4078093FA
:10346000D5076091ED077091EE078091EF0790917D
:10347000F007E2D56093D6077093D7078093D807FB
:1034800081E061960FB6F894DEBF0FBECDBFDF912D
:10349000CF911F910F91FF90EF90DF90CF90BF9051
:1034A000AF909F908F907F906F905F904F903F90E4
:1034B0002F9008958091C0019091C101A091C20107
:1034C000B091C301A2FF21C06091610270916202BC
:1034D000809163029091640224E630E040E050E085
:1034E0000E94A53D57FF03C020E030E0A901293E1E
:1034F00083E038074105510524F028EE33E040E031
:1035000050E0C9014ED881E026D88091C001909149
:10351000C101A091C201B091C30193FF14C0609199
:10352000450270914602809147029091480297FFB0
:1035300007C090958095709561957F4F8F4F9F4FF5
:1035400029D882E008D88091C0019091C101A09152
:10355000C201B091C30197FF0CC0609155027091F8
:10356000560280915702909158020DD882E00E9435
:10357000AB128091C00182FF3EC080917901869597
:103580008695877084600E94AB1280918902909129
:103590008A02A0918B02B0918C0283309105A10523
:1035A000B105F1F05CF481309105A105B105B1F0F0
:1035B0000297A105B105E1F481E013C086309105C1
:1035C000A105B10589F088309105A105B10571F01B
:1035D0000497A105B10561F483E003C080E001C058
:1035E00082E00E94B71207C085E0FBCF87E0F9CFE9
:1035F00080E00E94AB128091C00181FF04C08091E5
:1036000085020E94AB128091C0019091C101A091EE
:10361000C201B091C301A0FF09C08091C102909185
:10362000C202A091C302B091C40203C080E090E046
:10363000DC0180937B0190937C01A0937D01B0938A
:103640007E0108958F929F92AF92BF92CF92DF92A8
:10365000EF92FF92CF93DF93C090C001D090C10151
:10366000E090C201F090C301C5FE4EC080912D02D2
:1036700090912E02A0912F02B091300218161906D7
:103680001A061B060CF040C0BC01CD01625E7F4FE4
:103690008F4F9F4F2CE330E040E050E00E94A53D6B
:1036A000DA01C901883823E19207A105B10524F4A4
:1036B00088E893E1A0E0B0E0D82FC92FFA2FEB2FD4
:1036C0004C015D01BB0C8808982C54019C01AD0194
:1036D000682D782D882D982D28373A48414051057E
:1036E000610571058105910529F024F0D8E7CAE844
:1036F000F1E0E0E09E01CF013093F107C093F207C3
:103700009093F307E093F407C6FE14C280919902E8
:1037100090919A02A0919B02B0919C02AC01BD01D4
:103720004427452B462B472B09F0C7C2843009F4A8
:103730004BC040F48130D1F0B8F08230D1F083300A
:1037400041F1BBC28A3509F47EC138F4873009F4EF
:103750006AC08C3109F4D9C0B0C28B3509F476C186
:103760008C3509F477C1A9C2E8DB43C2E6DBA2DEEF
:10377000B8C080E0A9DC882309F43BC29BDE6091DD
:10378000F1077091F2078091F3079091F40740E000
:103790000FC081E099DC882309F42BC28BDE609195
:1037A000F1077091F2078091F3079091F40741E0DF
:1037B000DF91CF91FF90EF90DF90CF90BF90AF90CF
:1037C0009F908F900C944137D7FE09C08090BD0226
:1037D0009090BE02A090BF02B090C00203C0812CA6
:1037E000912C5401E2FE0CC0809161029091620222
:1037F000A0916302B0916402880E991EAA1EBB1E9E
:103800000E94BB3365D26B017C01C80CD91CEA1C39
:10381000FB1C5ED2C616D706E806F90609F44DC2AF
:1038200084E491DAF6CF80913C0181111BC0809134
:10383000C0019091C101A091C201B091C301A0FF4C
:103840002EC08091C1029091C202A091C302B0919A
:10385000C40280937B0190937C01A0937D01B0937F
:103860007E011DC0482F50E060E070E040937B0176
:1038700050937C0160937D0170937E0190E00E94E3
:10388000DF12C0E080913C01C81788F6EC2FF0E011
:10389000EA53FE4F80810E94AC10CF5FF3CF20919E
:1038A000F1073091F2074091F3075091F40760E47B
:1038B00072E48FE090E00E94A53DC0906D01D09031
:1038C0006E01E0906F01F12CCA01B901A7019601C8
:1038D0000E94A53DCA01B9010E94CA1285E00E945A
:1038E000AB126091F1077091F2078091F30790910C
:1038F000F407DF91CF91FF90EF90DF90CF90BF90D2
:10390000AF909F908F900C94C43588E41CDA80911E
:10391000050290910602A0910702B0910802AC0145
:10392000BD014427552760787370452B462B472BE4
:1039300089F0AC01BD0127E17695679557954795CC
:103940002A95D1F7242F2170B0FD2260B1FF03C06A
:10395000246001C027E0C22FCB7F09F472C020FF92
:103960001FC04091C0015091C1016091C20170918E
:10397000C30167FF09C040917502509176026091C2
:1039800077027091780204C048ED5CED6FEF7FEF35
:103990004093DD075093DE076093DF077093E007E5
:1039A00021FF1FC04091C0015091C1016091C2012F
:1039B0007091C30170FF09C04091790250917A0261
:1039C00060917B0270917C0204C048E65DEA63E08E
:1039D00070E04093E1075093E2076093E307709330
:1039E000E4076091DD077091DE078091DF07909119
:1039F000E007FCD26093CA077093CB078093CC0793
:103A00006091E1077091E2078091E3079091E407EC
:103A100013D36093CD077093CE078093CF07609147
:103A2000E5077091E6078091E7079091E8072AD3B0
:103A30006093D0077093D1078093D2078C2F0E9498
:103A400050380E94BB331092F50737C181E0809354
:103A5000F50733C1E7FE10C08091750290917602A0
:103A6000A0917702B09178028093DD079093DE07F2
:103A7000A093DF07B093E007F0FE10C080917902B9
:103A800090917A02A0917B02B0917C028093E10731
:103A90009093E207A093E307B093E407F1FE10C010
:103AA00080917D0290917E02A0917F02B091800270
:103AB0008093E5079093E607A093E707B093E807A4
:103AC0006091DD077091DE078091DF079091E0073C
:103AD0008DD26093CA077093CB078093CC07609117
:103AE000E1077091E2078091E3079091E407A4D287
:103AF0006093CD077093CE078093CF076091E50761
:103B00007091E6078091E7079091E807BBD2609338
:103B1000D0077093D1078093D20780E0DF91CF91D7
:103B2000FF90EF90DF90CF90BF90AF909F908F90DD
:103B30000C945038D4FE88C08091B1029091B202AA
:103B4000A091B302B091B402AC01BD014427552746
:103B5000452B462B472B09F077C08330910509F49C
:103B600040C028F4009779F1029769F1A6C0803926
:103B700021E0920709F451C0893822E0920709F444
:103B800058C0059709F099C0C0917901C695C695AE
:103B9000C77080E00E94AB126091F1077091F2074C
:103BA0008091F3079091F4070E9466348C2FDF9187
:103BB000CF91FF90EF90DF90CF90BF90AF909F900C
:103BC0008F900C94AB1280E00E94AB126091F107D1
:103BD0007091F2078091F3079091F4070E94663488
:103BE0001CC068DC809179018C7119F481E00E941D
:103BF000AB126091F1077091F2078091F3079091F9
:103C0000F407DF91CF91FF90EF90DF90CF90BF90BE
:103C1000AF909F908F900C946634DF91CF91FF907E
:103C2000EF90DF90CF90BF90AF909F908F900C94CB
:103C3000BB33DF91CF91FF90EF90DF90CF90BF909B
:103C4000AF909F908F9036CCE3FC37C080910502F7
:103C500090910602A0910702B0910802009720E21D
:103C6000A207B10569F4CD28CE28CF2831F589E423
:103C700094E09F938F930E94A73B0F900F901DC0DD
:103C800081159048A105B105C1F4CD28CE28CF28D3
:103C9000A1F40E94BB338FEF0E94CE11809170017E
:103CA00090917101A0917201BC018A2F90E00E9455
:103CB000E21080917A018111FFCFDF91CF91FF90C7
:103CC000EF90DF90CF90BF90AF909F908F9008952E
:103CD00060914D0170914E0180914F019091500182
:103CE00008953FB7F89426B52695609152017091DA
:103CF000530180915401909155013FBF620F711D96
:103D0000811D911D0895109252011092530110923D
:103D10005401109255011092510110924D011092D0
:103D20004E0110924F011092500182E084BD85BD7A
:103D300099EF97BD16BC80936E008AE080934C018A
:103D400080934B0180934A018093490196E09093C0
:103D50004801809347019093460108951F920F9266
:103D60000FB60F9211242F933F938F939F93AF938E
:103D7000BF932DB73EB780910001909101012817A4
:103D8000390730F48DB79EB79093010180930001FD
:103D90008091520190915301A0915401B09155012D
:103DA00083589F4FAF4FBF4F809352019093530161
:103DB000A0935401B0935501809151018F5F80937E
:103DC0005101883008F481C080915101885080935E
:103DD000510180914D0190914E01A0914F01B09100
:103DE00050010196A11DB11D80934D0190934E018C
:103DF000A0934F01B09350018091E90281608093BC
:103E0000E90280914C01815080934C0181115DC089
:103E10008091E90282608093E9028AE080934C01FC
:103E200090914B01915090934B0191114EC0909104
:103E3000E90294609093E90280934B0190914A01CA
:103E4000915090934A01911140C09091E90298607D
:103E50009093E90280934A01909149019150909387
:103E60004901911132C09091E90290619093E90269
:103E7000809349019091480191509093480191118C
:103E800024C09091E90290629093E90226E0209389
:103E9000480190914701915090934701911115C0AD
:103EA0009091E90290649093E90280934701809198
:103EB0004601815080934601811107C08091E9023B
:103EC00080688093E90220934601BF91AF919F9152
:103ED0008F913F912F910F900FBE0F901F901895CB
:103EE00028E288E190E00FB6F894A89580936000EE
:103EF0000FBE209360000895AF92BF92CF92DF92E1
:103F0000EF92FF920F931F93992787FD909520E4DE
:103F100032E44FE050E00E94F13DE4E7AE2EF5E3DD
:103F2000BF2ECC24C394D12CE12CF12C00E010E066
:103F30000E94BB3DB901CA011F910F91FF90EF9004
:103F4000DF90CF90BF90AF900895AF92BF92CF9285
:103F5000DF92EF92FF920F931F93992787FD909521
:103F600020E432E44FE050E00E94F13DE4E7AE2E61
:103F7000F5E3BF2ECC24C394D12CE12CF12C00E02E
:103F800010E00E94BB3DB901CA011F910F91FF9043
:103F9000EF90DF90CF90BF90AF900895AF92BF9217
:103FA000CF92DF92EF92FF920F931F93992787FD95
:103FB000909520E432E44FE050E00E94F13DA12CC6
:103FC000E5E3BE2EFCE0CF2ED12CE12CF12C00E05D
:103FD00010E00E94BB3DB901CA011F910F91FF90F3
:103FE000EF90DF90CF90BF90AF900895AF92BF92C7
:103FF000CF92DF92EF92FF920F931F9324E735E366
:1040000041E050E00E94F13DE0E4AE2EF2E4BF2E2C
:10401000AFE0CA2ED12CE12CF12C00E010E00E9480
:10402000BB3DB901842F1F910F91FF90EF90DF905E
:10403000CF90BF90AF900895AF92BF92CF92DF9292
:10404000EF92FF920F931F9324E735E341E050E096
:104050000E94F13DE0E4AE2EF2E4BF2EAFE0CA2EA6
:10406000D12CE12CF12C00E010E00E94BB3DB90105
:10407000842F1F910F91FF90EF90DF90CF90BF9012
:10408000AF900895AF92BF92CF92DF92EF92FF92DE
:104090000F931F9320E035E34CE050E00E94F13D88
:1040A000E0E4AE2EF2E4BF2EAFE0CA2ED12CE12C1C
:1040B000F12C00E010E00E94BB3DB901842F1F915C
:1040C0000F91FF90EF90DF90CF90BF90AF90089549
:1040D00081E00E9460178FE59DE60197F1F700C02F
:1040E000000008950F931F93CF93DF9300D01F928A
:1040F000CDB7DEB7182F60E080E00E944D34E8DDD8
:10410000082F69837A839B83A3D29B819F930F930C
:104110007A817F9369816F931F928F931F921F9370
:1041200088EE94E09F938F930E94B63B80E00E94BC
:10413000CD33E2DE162F082F60E081E07A839B8387
:104140000E944D349B819F930F937A817F931F939D
:1041500087ED94E09F938F930E94B63B81E00E948D
:10416000CD33F3DE162F082F60E082E07A839B8345
:104170000E944D349B819F930F937A817F931F936D
:1041800086EC94E09F938F930E94B63B82E00E945E
:10419000CD3304DF162F082F60E083E07A839B8302
:1041A0000E944D349B819F930F937A817F931F933D
:1041B00085EB94E09F938F930E94B63B8091BD075F
:1041C0008C710FB6F894DEBF0FBECDBF6AE0A9F0C8
:1041D00081E00E944D348091BD0786958695877059
:1041E0001F928F9389EA94E09F938F930E94B63B2E
:1041F0000F900F900F900F900BC081E00E944D34F4
:104200008FE994E09F938F930E94B63B0F900F909D
:104210006AE082E00E944D349091BC078091BD0716
:1042200083708F939F938091BE07877090E0019673
:104230009F938F938091BD078695869587701F9277
:104240008F9385E994E09F938F930E94B63B2DB79F
:104250003EB70FB6F894DEBF0FBECDBF8091000110
:10426000909101012817390730F48DB79EB79093CC
:104270000101809300016AE083E00E944D34809147
:1042800001018F93809100018F938FE894E09F93B9
:104290008F930E94B63B0F900F900F900F900F904E
:1042A0000F900F90DF91CF911F910F9108952FEFF5
:1042B00083EC99E0215080409040E1F700C000007D
:1042C00084E00E94183484E00E94183401DF89E4FD
:1042D00009CF109258011092590108952091590167
:1042E0009091580181E0291380E00895409159018F
:1042F000209158014F5F50E030E081E042175307B2
:1043000009F080E00895F2DF91E0811190E0892FBB
:104310000895ECDF882321F082E40E94A316F9CFF0
:10432000809159018F5F80935901089580915801C0
:104330008F5F8093580108958091590190915801A1
:10434000891B0895CF93DF931F92CDB7DEB7C6DFE9
:10435000882321F082E40E94A316F9CFE09158014E
:10436000F0E0E65FFC4F80818983E0DF89810F9078
:10437000DF91CF910895E0915901F0E0E65FFC4FA5
:104380008083C7CF10925601109257010895209153
:1043900057019091560181E0291380E00895209102
:1043A00057014091560130E02F5F3F4F2F71332767
:1043B00050E081E02417350709F080E00895EFDF31
:1043C000882321F082E40E94A316F9CF809157013F
:1043D0008F5F8F71809357010895809156018F5F91
:1043E0008F71809356010895E0915701F0E0E651F6
:1043F000FD4F8083E4CFCF93DF93C82FD0DF882396
:1044000021F085E50E94A316F9CFDFB7F8948C2F31
:10441000EBDF88EB8093C900DFBFDF91CF91089578
:104420000F931F93CF938B019C01CFB7F894775FC5
:10443000824C9F4F42E0660F771F881F991F4A9555
:10444000D1F7A9019801E3E0220F331F441F551F44
:10445000EA95D1F70E94833D215031093093CD0078
:104460002093CC0082E08093C80088E98093C90043
:1044700086E08093CA002DDF85DF84E080935A01B7
:10448000CFBF81E1CF911F910F91B5CF80915A019C
:1044900081FF0BC023DF882341F080915A018460A3
:1044A00080935A0188EB8093C9004CCFCF93CFB74C
:1044B000F89480915A0181FF0BC010DF882341F0EE
:1044C00080915A01846080935A0188EB8093C900DF
:1044D000CFBFCF9131CF1F920F920FB60F92112401
:1044E0002F933F934F935F936F937F938F939F93FC
:1044F000AF93BF93EF93FF9380915A0180FF07C062
:1045000083E18093CE0082E080935A011AC08091AB
:104510005A0182FF06C083E18093CE0010925A01B7
:1045200010C035DF882321F088E98093C90009C0D5
:10453000E0915601F0E0E651FD4F80818093CE007E
:104540004CDFFF91EF91BF91AF919F918F917F9140
:104550006F915F914F913F912F910F900FBE0F90F0
:104560001F9018951F920F920FB60F9211242F9340
:104570003F934F935F936F937F938F939F93AF93EB
:10458000BF93EF93FF93D8DE813460F080915A019E
:1045900081FD08C080915A01816080935A0188EBA7
:1045A0008093C900B0DE81110DC063E00E944D34DC
:1045B00088EF94E09F938F930E94B63B0E940E1762
:1045C0000F900F908091CE00D6DEFF91EF91BF91BA
:1045D000AF919F918F917F916F915F914F913F919B
:1045E0002F910F900FBE0F901F90189510925B01A6
:1045F00010925C01089520915C0190915B0181E033
:10460000291380E0089520915C0140915B0130E026
:104610002F5F3F4F2F71332750E081E0241735077C
:1046200009F080E00895EFDF882321F082E40E9402
:10463000A316F9CF80915C018F5F8F7180935C012D
:10464000089580915B018F5F8F7180935B01089566
:1046500080915C0190915B01891B8F710895CF92CD
:10466000DF92EF92FF920F931F93CF93DF93E0912E
:104670000A04F0910B04EF01858580FF2BC0818136
:10468000813011F42F9A01C02F982F89388D498DD0
:10469000C8A0D9A0EAA08E859F85A8895527820F3A
:1046A000931FA41F20F453958C199D09AE098E8782
:1046B0009F87A88B552371F02E9A29818C819D812B
:1046C000AE81022E0594820F901DA01D8C839D83C8
:1046D000AE832E988D8581FF2BC08A81813011F4A5
:1046E0002D9801C02D9A2A8D3B8D4C8DC8A0D9A044
:1046F000EAA089899A89AB895527820F931FA41F45
:1047000020F453958C199D09AE09898B9A8BAB8B3C
:10471000552371F02C9A2A818F819885A985022EC4
:104720000594820F901DA01D8F839887A9872C98D0
:104730008D8582FF2BC08B81813011F4469A01C098
:1047400046982D8D3E8D4F8DC8A0D9A0EAA08C89AA
:104750009D89AE895527820F931FA41F20F453957E
:104760008C199D09AE098C8B9D8BAE8B552371F0F6
:10477000479A2B818A859B85AC85022E0594820FF2
:10478000901DA01D8A879B87AC874798FE018D8569
:10479000877009F463C06DA57EA56034710590F043
:1047A0009B0101E02038310520F00F5F36952795F9
:1047B000F9CF2F73332750E4059F80011124022B7A
:1047C000132B01C08B01C3A0D4A0E5A04E2D9601F0
:1047D00021503109410980A191A1A2A18C199D0903
:1047E000AE09281739074A0710F4A42FC901081782
:1047F000190728F07801E81AF90AC70102C080E019
:1048000090E0DC01C6E0B695A795CA95E1F75A2F6E
:10481000AA2319F080645FEF5A0F8F7799275523E9
:1048200041F097FD04C0880F991F5150F8CF8FEFCA
:104830009FEF6817790708F4CB01803D57E0950793
:1048400010F480ED97E0909389008093880023A373
:1048500034A345A381E0232B242B09F480E0DF91CE
:10486000CF911F910F91FF90EF90DF90CF9008951F
:10487000CF92DF92EF92FF920F931F93CF93DF932C
:1048800060910A0470910B04EB01888190E09C0117
:10489000205131092031310510F00C94AF2C2958EA
:1048A0003F4F8EA19FA1A8A5B9A5F9010C94C53EC3
:1048B0002A8D3B8D4C8DCE84DF84E8882C193D09F0
:1048C0004E097901042F112707FD1095E816F90606
:1048D0000A071B0794F12F98CF88D88CE98CAE2D4E
:1048E000C6010197A1098C012A2F332727FD309596
:1048F0008EA19FA1A8A5B9A5800F911FA21FB31FCC
:104900008EA39FA3A8A7B9A712E0C11AD108E108F6
:10491000CF8AD88EE98E8E859F85A8890197A109B7
:104920008E879F87A88B2E9A8C819D81AE8101975F
:10493000A1098C839D83AE832E982D98FE018989D1
:104940009A89AB890196A11D898B9A8BAB8B2A8D95
:104950003B8D4C8DA42FC9010296A11D8A8F9B8F80
:10496000AC8FA42FC9010196A11D7C010A2F11272C
:1049700007FD10958EA19FA1A8A5B9A58E199F0925
:10498000A00BB10B8EA39FA3A8A7B9A72C9A8F81C8
:104990009885A9850196A11D8F839887A9872C9852
:1049A00029893A894B898E859F85A88928173907D7
:1049B0004A070CF4D4C781E1D1C729893A894B89C8
:1049C000CF88D88CE98C2C193D094E097901042F28
:1049D000112707FD1095E816F9060A071B0794F53D
:1049E0002D9889899A89AB890196A11D898B9A8B0B
:1049F000AB8B2A8D3B8D4C8DA42FC9010296A11D36
:104A00008A8F9B8FAC8FA42FC9010196A11D8C01A9
:104A10002A2F332727FD30958EA19FA1A8A5B9A5E0
:104A2000801B910BA20BB30B8EA39FA3A8A7B9A7C2
:104A30002C9A8F819885A9850196A11D8F839887CF
:104A4000A9872C982F98FE01CF88D88CE98CAE2DA1
:104A5000C6010197A1098C012A2F332727FD309524
:104A60008EA19FA1A8A5B9A5800F911FA21FB31F5A
:104A70008EA39FA3A8A7B9A712E0C11AD108E10885
:104A8000CF8AD88EE98E8E859F85A8890197A10946
:104A90008E879F87A88B2E9A8C819D81AE810197EE
:104AA000A1098C839D83AE832E988E859F85A889CE
:104AB000181619061A060CF452C782E14FC72F893F
:104AC000388D498DC988DA88EB882C0D3D1D4E1D27
:104AD0004095309521953F4F4F4F7901042F112775
:104AE00007FD1095E816F9060A071B0794F12D9AA1
:104AF000CA8CDB8CEC8CAE2DC6010197A1098C0110
:104B00002A2F332727FD30958EA19FA1A8A5B9A5EF
:104B1000800F911FA21FB31F8EA39FA3A8A7B9A7A1
:104B200012E0C11AD108E108CA8EDB8EEC8E8989A9
:104B30009A89AB890197A109898B9A8BAB8B2C9AA7
:104B40008F819885A9850197A1098F839887A98767
:104B50002C982F98FE01CF88D88CE98CAE2DC601F9
:104B60000197A1098C012A2F332727FD30958EA1AB
:104B70009FA1A8A5B9A5800F911FA21FB31F8EA347
:104B80009FA3A8A7B9A712E0C11AD108E108CF8A4C
:104B9000D88EE98E8E859F85A8890197A1098E8779
:104BA0009F87A88B2E9A8C819D81AE810197A10948
:104BB0008C839D83AE832E9889899A89AB89A09531
:104BC000909581959F4FAF4F2E853F8548898217DD
:104BD0009307A4070CF4C3C683E1C0C62A8D3B8D9E
:104BE0004C8DCE84DF84E8882C0D3D1D4E1D4095F4
:104BF000309521953F4F4F4F7901042F112707FD25
:104C00001095E816F9060A071B0794F52F98CF8828
:104C1000D88CE98CAE2DC6010197A1098C012A2FF1
:104C2000332727FD30958EA19FA1A8A5B9A5800F98
:104C3000911FA21FB31F8EA39FA3A8A7B9A712E01D
:104C4000C11AD108E108CF8AD88EE98E8E859F855A
:104C5000A8890197A1098E879F87A88B2E9A8C819E
:104C60009D81AE810197A1098C839D83AE832E988F
:104C70002D9AFE01CA8CDB8CEC8CAE2DC6010197FF
:104C8000A1098C012A2F332727FD30958EA19FA1E2
:104C9000A8A5B9A5800F911FA21FB31F8EA39FA324
:104CA000A8A7B9A712E0C11AD108E108CA8EDB8E05
:104CB000EC8E89899A89AB890197A109898B9A8B96
:104CC000AB8B2C9A8F819885A9850197A1098F8339
:104CD0009887A9872C9889899A89AB89181619060B
:104CE0001A060CF43CC684E139C62E853F854889F6
:104CF000CA8CDB8CEC8C2C193D094E097901042FF0
:104D0000112707FD1095E816F9060A071B0794F10D
:104D10002F9A8E859F85A8890196A11D8E879F87D2
:104D2000A88B2F89388D498DA42FC9010296A11D0A
:104D30008F8B988FA98FA42FC9010196A11D8C017B
:104D40002A2F332727FD30958EA19FA1A8A5B9A5AD
:104D5000801B910BA20BB30B8EA39FA3A8A7B9A78F
:104D60002E9A8C819D81AE810196A11D8C839D839D
:104D7000AE832E982D9AFE01CA8CDB8CEC8CAE2D66
:104D8000C6010197A1098C012A2F332727FD3095F1
:104D90008EA19FA1A8A5B9A5800F911FA21FB31F27
:104DA0008EA39FA3A8A7B9A712E0C11AD108E10852
:104DB000CA8EDB8EEC8E89899A89AB890197A1090D
:104DC000898B9A8BAB8B2C9A8F819885A9850197BB
:104DD000A1098F839887A9872C982E853F854889BC
:104DE00089899A89AB89281739074A070CF4B7C50E
:104DF00085E1B4C52F89388D498DC988DA88EB885B
:104E00002C193D094E097901042F112707FD109532
:104E1000E816F9060A071B0794F52D9ACA8CDB8C55
:104E2000EC8CAE2DC6010197A1098C012A2F3327E6
:104E300027FD30958EA19FA1A8A5B9A5800F911F30
:104E4000A21FB31F8EA39FA3A8A7B9A712E0C11AE0
:104E5000D108E108CA8EDB8EEC8E89899A89AB89EC
:104E60000197A109898B9A8BAB8B2C9A8F8198859E
:104E7000A9850197A1098F839887A9872C982F9AD4
:104E8000FE018E859F85A8890196A11D8E879F872B
:104E9000A88B2F89388D498DA42FC9010296A11D99
:104EA0008F8B988FA98FA42FC9010196A11D7C011A
:104EB0000A2F112707FD10958EA19FA1A8A5B9A5BE
:104EC0008E199F09A00BB10B8EA39FA3A8A7B9A70A
:104ED0002E9A8C819D81AE810196A11D8C839D832C
:104EE000AE832E988E859F85A889AA230CF437C59A
:104EF00086E134C52F89388D498DC988DA88EB88D9
:104F00002C0D3D1D4E1D7901042F112707FD109515
:104F1000E816F9060A071B0794F12D9889899A89E2
:104F2000AB890196A11D898B9A8BAB8B2A8D3B8D0A
:104F30004C8DA42FC9010296A11D8A8F9B8FAC8F27
:104F4000A42FC9010196A11D8C012A2F332727FD0B
:104F500030958EA19FA1A8A5B9A5801B910BA20B8E
:104F6000B30B8EA39FA3A8A7B9A72C9A8F8198856E
:104F7000A9850196A11D8F839887A9872C982F9AC0
:104F8000FE018E859F85A8890196A11D8E879F872A
:104F9000A88B2F89388D498DA42FC9010296A11D98
:104FA0008F8B988FA98FA42FC9010196A11D7C0119
:104FB0000A2F112707FD10958EA19FA1A8A5B9A5BD
:104FC0008E199F09A00BB10B8EA39FA3A8A7B9A709
:104FD0002E9A8C819D81AE810196A11D8C839D832B
:104FE000AE832E9889899A89AB89A09590958195F1
:104FF0009F4FAF4F2E853F854889281739074A07AD
:105000000CF4ADC487E1AAC42E853F854889CA8CBB
:10501000DB8CEC8C2C0D3D1D4E1D7901042F1127CE
:1050200007FD1095E816F9060A071B0794F52F9A55
:105030008E859F85A8890196A11D8E879F87A88B45
:105040002F89388D498DA42FC9010296A11D8F8B00
:10505000988FA98FA42FC9010196A11D8C012A2F19
:10506000332727FD30958EA19FA1A8A5B9A5801B48
:10507000910BA20BB30B8EA39FA3A8A7B9A72E9A3F
:105080008C819D81AE810196A11D8C839D83AE8311
:105090002E982D98FE0189899A89AB890196A11DC8
:1050A000898B9A8BAB8B2A8D3B8D4C8DA42FC9019C
:1050B0000296A11D8A8F9B8FAC8FA42FC9010196E8
:1050C000A11D7C010A2F112707FD10958EA19FA11C
:1050D000A8A5B9A58E199F09A00BB10B8EA39FA3FC
:1050E000A8A7B9A72C9A8F819885A9850196A11D9B
:1050F0008F839887A9872C9889899A89AB89AA2355
:105100000CF42DC480E12AC42E853F854889CA8CC1
:10511000DB8CEC8C2C193D094E097901042F1127E9
:1051200007FD1095E816F9060A071B0794F52F9A54
:105130008E859F85A8890196A11D8E879F87A88B44
:105140002F89388D498DA42FC9010296A11D8F8BFF
:10515000988FA98FA42FC9010196A11D8C012A2F18
:10516000332727FD30958EA19FA1A8A5B9A5801B47
:10517000910BA20BB30B8EA39FA3A8A7B9A72E9A3E
:105180008C819D81AE810196A11D8C839D83AE8310
:105190002E982D9AFE01CA8CDB8CEC8CAE2DC601AC
:1051A0000197A1098C012A2F332727FD30958EA165
:1051B0009FA1A8A5B9A5800F911FA21FB31F8EA301
:1051C0009FA3A8A7B9A712E0C11AD108E108CA8E07
:1051D000DB8EEC8E89899A89AB890197A109898B2D
:1051E0009A8BAB8B2C9A8F819885A9850197A10901
:1051F0008F839887A9872C9889899A89AB891816F3
:1052000019061A060CF4ABC38FE1A8C32F89388D99
:10521000498DC988DA88EB882C193D094E09790136
:10522000042F112707FD1095E816F9060A071B073A
:1052300094F12D9ACA8CDB8CEC8CAE2DC6010197B3
:10524000A1098C012A2F332727FD30958EA19FA11C
:10525000A8A5B9A5800F911FA21FB31F8EA39FA35E
:10526000A8A7B9A712E0C11AD108E108CA8EDB8E3F
:10527000EC8E89899A89AB890197A109898B9A8BD0
:10528000AB8B2C9A8F819885A9850197A1098F8373
:105290009887A9872C982F9AFE018E859F85A889CB
:1052A0000196A11D8E879F87A88B2F89388D498DE8
:1052B000A42FC9010296A11D8F8B988FA98FA42FAF
:1052C000C9010196A11D7C010A2F112707FD109528
:1052D0008EA19FA1A8A5B9A58E199F09A00BB10BFE
:1052E0008EA39FA3A8A7B9A72E9A8C819D81AE817A
:1052F0000196A11D8C839D83AE832E9829893A89BE
:105300004B898E859F85A889281739074A070CF095
:1053100026C388E123C32F89388D498DC988DA884F
:10532000EB882C0D3D1D4E1D7901042F112707FD23
:105330001095E816F9060A071B0794F52D98898938
:105340009A89AB890196A11D898B9A8BAB8B2A8D8B
:105350003B8D4C8DA42FC9010296A11D8A8F9B8F76
:10536000AC8FA42FC9010196A11D8C012A2F3327D0
:1053700027FD30958EA19FA1A8A5B9A5801B910BF3
:10538000A20BB30B8EA39FA3A8A7B9A72C9A8F81BA
:105390009885A9850196A11D8F839887A9872C9848
:1053A0002F9AFE018E859F85A8890196A11D8E8763
:1053B0009F87A88B2F89388D498DA42FC90102960C
:1053C000A11D8F8B988FA98FA42FC9010196A11DB4
:1053D0007C010A2F112707FD10958EA19FA1A8A57A
:1053E000B9A58E199F09A00BB10B8EA39FA3A8A7E7
:1053F000B9A72E9A8C819D81AE810196A11D8C83C7
:105400009D83AE832E988E859F85A889AA230CF450
:10541000A6C289E1A3C22A8D3B8D4C8DCE84DF8448
:10542000E8882C0D3D1D4E1D7901042F112707FD25
:105430001095E816F9060A071B0794F12F9A8E8536
:105440009F85A8890196A11D8E879F87A88B2F898C
:10545000388D498DA42FC9010296A11D8F8B988F7D
:10546000A98FA42FC9010196A11D8C012A2F3327D2
:1054700027FD30958EA19FA1A8A5B9A5801B910BF2
:10548000A20BB30B8EA39FA3A8A7B9A72E9A8C81BA
:105490009D81AE810196A11D8C839D83AE832E9844
:1054A0002D98FE0189899A89AB890196A11D898B66
:1054B0009A8BAB8B2A8D3B8D4C8DA42FC901029604
:1054C000A11D8A8F9B8FAC8FA42FC9010196A11DAE
:1054D0007C010A2F112707FD10958EA19FA1A8A579
:1054E000B9A58E199F09A00BB10B8EA39FA3A8A7E6
:1054F000B9A72C9A8F819885A9850196A11D8F83C4
:105500009887A9872C9889899A89AB89A0959095C5
:1055100081959F4FAF4F2E853F854889821793070E
:10552000A4070CF01CC28AE119C22A8D3B8D4C8D58
:10553000CE84DF84E8882C193D094E097901042FB7
:10554000112707FD1095E816F9060A071B0794F5C1
:105550002F98CF88D88CE98CAE2DC6010197A10970
:105560008C012A2F332727FD30958EA19FA1A8A556
:10557000B9A5800F911FA21FB31F8EA39FA3A8A739
:10558000B9A712E0C11AD108E108CF8AD88EE98EF6
:105590008E859F85A8890197A1098E879F87A88BF3
:1055A0002E9A8C819D81AE810197A1098C839D8368
:1055B000AE832E982D98FE0189899A89AB89019630
:1055C000A11D898B9A8BAB8B2A8D3B8D4C8DA42F83
:1055D000C9010296A11D8A8F9B8FAC8FA42FC90190
:1055E0000196A11D7C010A2F112707FD10958EA1A0
:1055F0009FA1A8A5B9A58E199F09A00BB10B8EA3D9
:105600009FA3A8A7B9A72C9A8F819885A9850196F1
:10561000A11D8F839887A9872C9889899A89AB893E
:10562000AA230CF49CC18BE199C129893A894B8941
:10563000CF88D88CE98C2C193D094E097901042FAB
:10564000112707FD1095E816F9060A071B0794F1C4
:105650002D9889899A89AB890196A11D898B9A8B8E
:10566000AB8B2A8D3B8D4C8DA42FC9010296A11DB9
:105670008A8F9B8FAC8FA42FC9010196A11D8C012D
:105680002A2F332727FD30958EA19FA1A8A5B9A564
:10569000801B910BA20BB30B8EA39FA3A8A7B9A746
:1056A0002C9A8F819885A9850196A11D8F83988753
:1056B000A9872C982F98FE01CF88D88CE98CAE2D25
:1056C000C6010197A1098C012A2F332727FD3095A8
:1056D0008EA19FA1A8A5B9A5800F911FA21FB31FDE
:1056E0008EA39FA3A8A7B9A712E0C11AD108E10809
:1056F000CF8AD88EE98E8E859F85A8890197A109CA
:105700008E879F87A88B2E9A8C819D81AE81019771
:10571000A1098C839D83AE832E982E853F85488971
:1057200089899A89AB89281739074A070CF017C16C
:105730008CE114C12F89388D498DC988DA88EB88AE
:105740002C0D3D1D4E1D4095309521953F4F4F4FDF
:105750007901042F112707FD1095E816F9060A07AD
:105760001B0794F52D9ACA8CDB8CEC8CAE2DC601F0
:105770000197A1098C012A2F332727FD30958EA18F
:105780009FA1A8A5B9A5800F911FA21FB31F8EA32B
:105790009FA3A8A7B9A712E0C11AD108E108CA8E31
:1057A000DB8EEC8E89899A89AB890197A109898B57
:1057B0009A8BAB8B2C9A8F819885A9850197A1092B
:1057C0008F839887A9872C982F98FE01CF88D88C33
:1057D000E98CAE2DC6010197A1098C012A2F332730
:1057E00027FD30958EA19FA1A8A5B9A5800F911F77
:1057F000A21FB31F8EA39FA3A8A7B9A712E0C11A27
:10580000D108E108CF8AD88EE98E8E859F85A88938
:105810000197A1098E879F87A88B2E9A8C819D81E5
:10582000AE810197A1098C839D83AE832E988E85CE
:105830009F85A889181619061A060CF490C08DE1E8
:105840008DC02E853F854889CA8CDB8CEC8C2C0D55
:105850003D1D4E1D4095309521953F4F4F4F79018D
:10586000042F112707FD1095E816F9060A071B07F4
:1058700094F12F98CF88D88CE98CAE2DC601019772
:10588000A1098C012A2F332727FD30958EA19FA1D6
:10589000A8A5B9A5800F911FA21FB31F8EA39FA318
:1058A000A8A7B9A712E0C11AD108E108CF8AD88EFB
:1058B000E98E8E859F85A8890197A1098E879F878C
:1058C000A88B2E9A8C819D81AE810197A1098C8332
:1058D0009D83AE832E982D9AFE01CA8CDB8CEC8CB6
:1058E000AE2DC6010197A1098C012A2F332727FD70
:1058F00030958EA19FA1A8A5B9A5800F911FA21FC9
:10590000B31F8EA39FA3A8A7B9A712E0C11AD108FD
:10591000E108CA8EDB8EEC8E89899A89AB89019762
:10592000A109898B9A8BAB8B2C9A8F819885A9853D
:105930000197A1098F839887A9872C9889899A89CB
:10594000AB89A095909581959F4FAF4F2E853F8550
:105950004889281739074A0714F48EE180838D851A
:1059600082FF2BC08B81813011F4469A01C046988A
:105970002D8D3E8D4F8DC8A0D9A0EAA08C899D8920
:10598000AE895527820F931FA41F20F453958C19BD
:105990009D09AE098C8B9D8BAE8B552371F0479A78
:1059A0002B818A859B85AC85022E0594820F901DE4
:1059B000A01D8A879B87AC8747988E012AA53BA5A7
:1059C0004CA550E0ADA5BEA50E946A3D29893A8943
:1059D00037FF03C0319521953109F8014685578578
:1059E00057FF03C0519541955109241735070CF411
:1059F0009A01442737FD4095542F0E94833D3093F0
:105A0000890020938800F80123A134A145A12150E9
:105A10003109410923A334A345A381E0232B242B7F
:105A200009F480E0DF91CF911F910F91FF90EF90EB
:105A3000DF90CF900895CF92DF92EF92CF93DF93D4
:105A4000E0910A04F0910B04EF01858580FF2BC0E3
:105A50008181813011F42F9A01C02F982F89388DC0
:105A6000498DC8A0D9A0EAA08E859F85A889552711
:105A7000820F931FA41F20F453958C199D09AE0922
:105A80008E879F87A88B552371F02E9A29818C8150
:105A90009D81AE81022E0594820F901DA01D8C83E6
:105AA0009D83AE832E988D8581FF2BC08A818130A6
:105AB00011F42D9801C02D9A2A8D3B8D4C8DC8A0D4
:105AC000D9A0EAA089899A89AB895527820F931FAB
:105AD000A41F20F453958C199D09AE09898B9A8BCC
