:10000000F1C200000CC300000AC3000008C30000D6
:1000100006C3000004C3000002C3000000C30000C8
:10002000FEC20000FCC200000C94D2310C940C32D1
:10003000F6C20000F4C20000F2C20000F0C20000EC
:10004000EEC200000C940625EAC20000E8C20000DF
:10005000E6C200000C942E19E2C20000E0C20000CB
:10006000DEC200000C94561D0C940F1DD8C2000077
:10007000D6C20000D4C20000D2C20000D0C200002C
:100080000C94AC0CCCC20000CAC20000C8C2000074
:10009000C6C20000C4C20000C2C20000C0C200004C
:1000A000BEC20000BCC20000BAC20000D803F40304
:1000B00013043F04630482049B04BF04D804F704C0
:1000C00014052D05510569058805AC05360E830E0E
:1000D000BE0EDB0E3A0F800F930FB70FDF0F6610C7
:1000E0003D10FB0FBF103D102810251022100B1FD4
:1000F000381F621F991FC81FF51F1D204F20772032
:10010000A120CE20F620292151217E21AC21463389
:1001100030300A4732380A004552524F523A204E88
:10012000756D626572206F766572666C6F772109F6
:10013000004552524F523A20556E6B6E6F776E20CB
:100140006F7220756E646566696E656420537461B4
:10015000746509004552524F523A20455850454364
:10016000545F4241534536345F343A20546F6F2018
:100170006D616E7920426173653634204279746511
:100180007320284275666665722066756C6C290955
:10019000004552524F523A204558504543545F4211
:1001A00041534536345F343A204578706563746551
:1001B0006420612042415345363420636861726196
:1001C0006374657209004552524F523A20455850A7
:1001D0004543545F4241534536345F333A20546FB0
:1001E0006F206D616E7920426173653634204279EB
:1001F00074657320284275666665722066756C6C3E
:100200002909004552524F523A204558504543540F
:100210005F4241534536345F333A20457870656319
:10022000746564206120424153453634206368611F
:1002300072616374657209004552524F523A20450B
:1002400058504543545F4241534536345F323A205B
:10025000546F6F206D616E79204261736536342072
:1002600042797465732028427566666572206675EA
:100270006C6C2909004552524F523A20455850455E
:1002800043545F4241534536345F323A20457870DB
:1002900065637465642061204241534536342063B0
:1002A000686172616374657209004552524F523A37
:1002B000204558504543545F4241534536345F31E1
:1002C0003A2045787065637465642061204241532B
:1002D0004536342063686172616374657209004554
:1002E00052524F523A204558504543545F5355425D
:1002F0004449474954533A204578706563746564AE
:10030000205B302D395C775D09004552524F523ADF
:10031000204558504543545F414E4F544845524440
:10032000494749543A204578706563746564205B99
:10033000302D392E5C775D09004552524F523A20DC
:100340004558504543545F414E4F544845524449E7
:100350004749543A20546F6F206D616E79206C6567
:100360006164696E67206469676974732109004577
:1003700052524F523A2046495253545F44494749DA
:10038000543A204578706563746564205B302D397C
:100390005C775D09004552524F523A20455850450E
:1003A00043545F4E554D4245525F4F525F5349474C
:1003B0004E3A2066696C656E616D6520616C726590
:1003C000616479207365743A20756E657870656331
:1003D0007465642063686172616374657220666F1E
:1003E000756E6409004552524F523A2045585045A7
:1003F00043545F4C45545445523A20756E657870AD
:1004000065637465642063686172616374657220FA
:10041000616E642066696C656E616D6520616C72E9
:100420006561647920736574210900464F524D411E
:1004300054204552524F520A00726573656E642112
:100440000A004F4B2025640A003A3A2056302E32DB
:100450002D372D673066336139333120285265736B
:1004600070656374204732302F47323120737769CB
:10047000746368696E6720756E697473206D6D2F83
:10048000696E636829203A3A200053503A25780073
:10049000256420256420256420006C61736572202A
:1004A0004F4646004C41534552204F4E2025640094
:1004B0005A3A256E20202020202020202020202095
:1004C00000593A256E2020202020202020202020A6
:1004D0002000583A256E2020202020202020202097
:1004E00020200025632051756575653A2564202517
:1004F0006E2000554152545F52585F46554C4C0097
:100500003031323334353637383941424344454649
:1005100000010000C705120002000084054300032B
:100520000000800504010309046E0510020309049C
:10053000440528030309043A050808033100330081
:100540003700000028034600720065006500430084
:100550004E00430020004C006100730065007200F3
:1005600063007500740074006500720000001003E1
:1005700065002D00500075006E006B0074000000D7
:100580000403090409024300020100C03209040007
:1005900000010202010005240010010524010101EF
:1005A000042402060524060001070582031000400A
:1005B00009040100020A00000007050302400000D0
:1005C000070584024000001201000202000010C072
:1005D000167A040001010203010001C112018036F4
:1005E0000181360011241FBECFEFDAE0DEBFCDBFA0
:1005F00011E0A0E0B1E0E0E3FAE602C005900D9260
:10060000A431B107D9F718E0A4E1B1E001C01D920F
:10061000AA36B107E1F70E947C110C945733F0CC55
:10062000EF92FF920F931F930023E1F11616170626
:100630001806190654F457FD21C026173707480736
:1006400059070CF066C080E17FC01216130614062D
:10065000150684F47B018C0188279927DC018E190B
:100660009F09A00BB10B82179307A407B507B4F439
:1006700082E16AC097FD55C057FF5CC07B018C01C9
:1006800088279927DC018E199F09A00BB10B281729
:1006900039074A075B0724F486E156C083E154C05A
:1006A00087E152C016161706180619064CF457FDB6
:1006B00020C026173707480759076CF588E144C062
:1006C000121613061406150684F47B018C01882784
:1006D0009927DC018E199F09A00BB10B8217930794
:1006E000A407B507D4F48AE12FC097FD25C057FFB2
:1006F00021C07B018C0188279927DC018E199F0975
:10070000A00BB10B281739074A075B0744F48EE1A9
:100710001BC081E119C089E117C08BE115C08FE1D1
:1007200013C0621773078407950714F484E10CC0A3
:1007300085E10AC08FEF08C0621773078407950729
:1007400014F48CE101C08DE11F910F91FF90EF90A7
:1007500008958F929F92AF92BF92CF92DF92EF92C5
:10076000FF920F931F9380912C0190E0FC017097F2
:100770004091310150913201609133017091340107
:1007800080912D0190912E01A0912F01B091300107
:10079000E031F10508F00CC2EA5AFF4F0091280140
:1007A0001091290120912A0130912B010C94B4342D
:1007B000C0902001D0902101E0902201F09023010F
:1007C000C41AD50AE60AF70AE1E0C016D106E20625
:1007D000F3060CF4E0E0E86084179507A607B70776
:1007E0000CF4E7C121E1E1C1C0902401D0902501C2
:1007F000E0902601F09027014C015D018C189D08C6
:10080000AE08BF0880169106A206B30614F0E0E019
:1008100001C0E8E0E16014161506160617060CF490
:10082000C8C122E1C2C1C0902401D0902501E0904E
:100830002601F0902701C80ED91EEA1EFB1EF09477
:10084000E094D094C094C11CD11CE11CF11CC016D2
:10085000D106E206F30614F4E0E001C0E4E0E16052
:10086000002711279801081B190B2A0B3B0B0417B3
:100870001507260737070CF49CC123E196C1C090E9
:100880002001D0902101E0902201F0902301C40EBC
:10089000D51EE61EF71EF094E094D094C094C11CBF
:1008A000D11CE11CF11CE1E0C016D106E206F30602
:1008B0000CF0E0E0E460181619061A061B060CF4AA
:1008C00078C124E172C1C0902001D0902101E09054
:1008D0002201F09023014A015B018C189D08AE08AB
:1008E000BF0880169106A206B30614F4E0E001C02A
:1008F000E2E0E460481759076A077B070CF459C126
:1009000025E153C1C0902401D0902501E09026013B
:10091000F0902701C81AD90AEA0AFB0AC016D106C4
:10092000E206F30614F0E0E001C0E4E0E26077FDE7
:1009300040C126E13AC1C0902401D0902501E09049
:100940002601F0902701C80ED91EEA1EFB1EC01614
:10095000D106E206F30614F4E0E001C0E8E0E2604C
:10096000002711279801081B190B2A0B3B0B401776
:100970005107620773070CF41CC127E116C1C09030
:100980002001D0902101E0902201F0902301C40EBB
:10099000D51EE61EF71EC016D106E206F30614F0B9
:1009A000E0E001C0E2E0E860B7FD03C120E1FDC086
:1009B000C0902001D0902101E0902201F09023010D
:1009C0004A015B018C189D08AE08BF08801691068D
:1009D000A206B30614F0E0E001C0E2E0E4601816FD
:1009E00019061A061B060CF4E4C02FE1DEC0C09005
:1009F0002401D0902501E0902601F0902701C81A2B
:100A0000D90AEA0AFB0AC016D106E206F30614F474
:100A1000E0E001C0E4E0E26084179507A607B707AD
:100A20000CF0C7C028E1C1C0C0902401D0902501BE
:100A3000E0902601F0902701C80ED91EEA1EFB1E89
:100A4000C016D106E206F30614F0E0E001C0E8E0CB
:100A5000E26077FDAEC029E1A8C0C0902001D0902F
:100A60002101E0902201F0902301C40ED51EE61E64
:100A7000F71EC016D106E206F30614F4E0E001C04A
:100A8000E2E0E860002711279801081B190B2A0BE8
:100A90003B0B04171507260737070CF08AC02AE11D
:100AA00084C0C0902001D0902101E0902201F090FC
:100AB0002301C41AD50AE60AF70AE1E0C016D106F6
:100AC000E206F3060CF0E0E0E860B7FD72C02BE14F
:100AD0006CC0C0902401D0902501E0902601F090D8
:100AE00027014C015D018C189D08AE08BF088016D7
:100AF0009106A206B30614F4E0E001C0E8E0E1606C
:100B0000481759076A077B070CF053C02CE14DC00A
:100B1000C0902401D0902501E0902601F09027019B
:100B2000C80ED91EEA1EFB1EF094E094D094C09427
:100B3000C11CD11CE11CF11CC016D106E206F30653
:100B400014F0E0E001C0E4E0E160141615061606BA
:100B500017067CF12DE129C0C0902001D090210121
:100B6000E0902201F0902301C40ED51EE61EF71E70
:100B7000F094E094D094C094C11CD11CE11CF11CF1
:100B8000E1E0C016D106E206F3060CF4E0E0E46012
:100B9000002711279801081B190B2A0B3B0B401744
:100BA0005107620773072CF42EE120932C0101C03A
:100BB000E0E0E0FF3CC0C0902401D0902501E0902F
:100BC0002601F09027014601570121E0821A910881
:100BD000A108B108009128011091290120912A0152
:100BE00030912B01080D191D2A1D3B1D0093280172
:100BF0001093290120932A0130932B0122E0C21A7D
:100C0000D108E108F108C0922401D0922501E092B8
:100C10002601F09227014150510961097109409361
:100C20003101509332016093330170933401E1FF3D
:100C300044C0409131015091320160913301709173
:100C400034014F5F5F4F6F4F7F4F4093310150939F
:100C5000320160933301709334014091240150912B
:100C6000250160912601709127018A019B010E5F89
:100C70001F4F2F4F3F4F00932401109325012093C6
:100C80002601309327018A019B010095109520953C
:100C90003095409128015091290160912A0170916D
:100CA0002B01400F511F621F731F40932801509367
:100CB000290160932A0170932B01E2FF3AC0009151
:100CC000200110912101209122013091230168011E
:100CD000790141E0C41AD108E108F10840912801E6
:100CE0005091290160912A0170912B014C0D5D1DDD
:100CF0006E1D7F1D409328015093290160932A01A6
:100D000070932B0102501109210931090093200130
:100D10001093210120932201309323010197A1090F
:100D2000B10980932D0190932E01A0932F01B093D0
:100D30003001E3FF43C080912D0190912E01A091DD
:100D40002F01B09130010196A11DB11D80932D019D
:100D500090932E01A0932F01B09330018091200138
:100D600090912101A0912201B0912301AC01BD011C
:100D70004E5F5F4F6F4F7F4F409320015093210193
:100D80006093220170932301AC01BD014095509501
:100D9000609570958091280190912901A0912A0178
:100DA000B0912B01840F951FA61FB71F80932801B8
:100DB00090932901A0932A01B0932B014091310116
:100DC00050913201609133017091340180912D0175
:100DD00090912E01A0912F01B0913001FA0157FF9F
:100DE00004C0EE27FF27E41BF50B9C0197FF04C00E
:100DF00022273327281B390B2E173F07C4F50091F4
:100E000018011091190120911A0130911B01081746
:100E100019072A073B0709F065C080911C019091D2
:100E20001D01A0911E01B0911F0184179507A6070F
:100E3000B70709F472C077FD0BC0F1E0E0E01416CB
:100E40001506160617060CF0F0E02F2F3E2F02C0F5
:100E50002FEF3FEFB7FD41C051E040E018161906F3
:100E60001A061B060CF050E0852F942F38C0009115
:100E70001C0110911D0120911E0130911F010417CA
:100E800015072607370771F5409118015091190190
:100E900060911A0170911B01481759076A077B0777
:100EA000E1F1B7FD0BC0F1E0E0E0181619061A06F3
:100EB0001B060CF0F0E02F2F3E2F02C02FEF3FEF6C
:100EC00077FD0BC0F1E0E0E01416150616061706D4
:100ED0000CF0F0E08F2F9E2F02C08FEF9FEF2817AE
:100EE0003907E9F040911401509115016091160104
:100EF0007091170141505109610971094093140122
:100F000050931501609316017093170181E0452BF2
:100F1000462B472B29F080E003C083E001C082E02C
:100F20001F910F91FF90EF90DF90CF90BF90AF9007
:100F30009F908F9008954F925F926F927F928F92C1
:100F40009F92AF92BF92CF92DF92EF92FF920F9358
:100F5000CF93DF9300D000D0CDB7DEB769837A831B
:100F60008B839C83A02FC7010C2D6C01EA2EFF24DC
:100F7000E7FCF09446015701A42FC901BB27A7FD48
:100F8000B0952C013D01A7019601BC01CD0148DBC4
:100F900080932C01409231015092320160923301D2
:100FA00070923401C0922D01D0922E01E0922F0157
:100FB000F0923001440C551C661C771C40922401B1
:100FC000509225016092260170922701880C991C8D
:100FD000AA1CBB1C8092200190922101A0922201A8
:100FE000B0922301A6E0B0E029813A814B815C8177
:100FF0000E94593360931401709315018093160178
:10100000909317010F900F900F900F90DF91CF9159
:101010000F91FF90EF90DF90CF90BF90AF909F9097
:101020008F907F906F905F904F9008952F923F9296
:101030004F925F926F928F929F92AF92BF92CF9298
:10104000DF92EF92FF920F931F93CF93DF93CDB771
:10105000DEB769970FB6F894DEBF0FBECDBF6C87C1
:101060007D878E879F8729833A834B832701602E54
:10107000AC8ABD8ACE8A2DA53EA54FA52F8B388F71
:10108000498F18A9AC2DC501BB27A7FDB095888B4A
:10109000998BAA8BBB8B80931C0190931D01A0930D
:1010A0001E01B0931F01A42FC901BB27A7FDB09556
:1010B0004C015D018093180190931901A0931A01CE
:1010C000B0931B01C12E29813A814B816C857D85AE
:1010D0008E859F8530DF89819A81AB81BB27A7FDF3
:1010E000B0958C839D83AE83BF83A62DC201BB27A1
:1010F000A7FDB09588879987AA87BB87A50194012A
:10110000C501B4010E9463334B015C012885398518
:101110004A855B85CA01B9010E9463336B017C017A
:101120002C813D814E815F81CA01B9010E946333E8
:10113000C60ED71EE81EF91E8C189D08AE08BF0803
:10114000288939894A895B89CA01B9010E946333B8
:10115000860E971EA81EB91E809228019092290122
:10116000A0922A01B0922B01F4DA8823E9F380914E
:10117000D3079091D407A091D5072C893D894E893A
:10118000820F931FA41F8093C1079093C207A0935F
:10119000C3078091D6079091D707A091D8072F89D0
:1011A000388D498D820F931FA41F8093C40790939D
:1011B000C507A093C60720905C013BE1239E100168
:1011C0001124C101845F9B4F1C01809114019091F7
:1011D0001501A0911601A095909581959F4FAF4F55
:1011E000F10181839283A383C12E062D720129818F
:1011F0003A814B816C857D858E859F859CDE8092B2
:10120000280190922901A0922A01B0922B01D101CC
:101210001196CD90DD90EC90BFEFCB1ADB0AEB0A74
:101220008091140190911501A0911601C80ED91E4C
:10123000EA1EF101C182D282E38229813A814B8187
:1012400024833583468347825086618682869386CF
:10125000A486B5862C853D854E8526873787408BAD
:10126000012F288539854A855B856C817D818E813A
:101270009F81D6D9F101808380917B0190917C017F
:10128000A0917D01B0917E010097A105B10521F0EB
:10129000382F292F8A2F1DC020916D0130916E01AA
:1012A00040916F018E2DB60190E050E00E94ED3329
:1012B000EBE9AE2EF6E1BF2ECC24C394D12CE12C69
:1012C000F12C00E010E00E94D533932F842F322FB1
:1012D000292FD10153963C93539754962C935497AE
:1012E00055968C938091700190917101A09172013B
:1012F000F101868B978BA08F909178018091790175
:10130000918F828F69960FB6F894DEBF0FBECDBF66
:10131000DF91CF911F910F91FF90EF90DF90CF90D1
:10132000BF90AF909F908F906F905F904F903F9045
:101330002F900C94B71DAC01222788279927469F30
:10134000312D479F300D811D921F569F300D811DFD
:10135000921F579F800D911D112408952F923F9247
:101360004F925F926F927F928F929F92AF92BF92B5
:10137000CF92DF92EF92FF920F931F93CF93DF9361
:10138000CDB7DEB766970FB6F894DEBF0FBECDBF00
:101390002C833D834E835F83688779878A879B8709
:1013A000712C812C912C1E8A1B8A1C8AF0E0E0E4AF
:1013B000272D382D492D5E896B897C898F2F9E2F93
:1013C000AC80BD80CE80DF80E884F9840A851B85EF
:1013D0000E94EA34A9F0A0F0272D382D492D5E890E
:1013E0006B897C898F2F9E2F02E00E94BC34722E65
:1013F000832E942E5E8B6B8B7C8BF82FE92FD8CFAE
:10140000612C512C212C312CB0E01A821B82412CF2
:10141000272D382D492D5E896B897C898F2F9E2F32
:10142000A0E00E94F33409F470C0272D382D492D17
:101430005E896B897C898F2F9E2FA62CB52C61012C
:10144000EB2EFA800B81142D0E94D8342D8BA32F04
:101450004D875E876F87788B898B9A8B2C813D8136
:101460004E815F81688579858A859B85AD88BA2E96
:10147000CD84DE84EF84F88809891A890E94EA34D1
:10148000F8F00E94E1342C833D834E835F836887AC
:1014900079878A879B87262D352DA1016B2F7A812D
:1014A0008B81942D01E00E94BC34A72CB82CC92C50
:1014B000DE88EB88FC880F2F1E2F0E94D8340AC0CC
:1014C000262D352DA1016B2F7A818B81942D01E082
:1014D0000E94BC34622E532E1A01B62F7A838B835E
:1014E000492E272D382D492D5E896B897C898F2FB8
:1014F0009E2F02E00E94BC34722E832E942E5E8BAF
:101500006B8B7C8BF82FE92F83CF662D752DC10156
:1015100066960FB6F894DEBF0FBECDBFDF91CF91B8
:101520001F910F91FF90EF90DF90CF90BF90AF9001
:101530009F908F907F906F905F904F903F902F90F3
:1015400008954F925F926F927F928F929F92AF9287
:10155000BF92CF92DF92EF92FF920F931F93CF93A0
:10156000DF934B015C0169017A01A50194010E949E
:10157000E03329013A01D62FC72F4C01C701B6012C
:10158000A70196010E94E03359016A017B018C0199
:101590009201A3016D2F7C2FC4010E94D834DF91EA
:1015A000CF911F910F91FF90EF90DF90CF90BF9060
:1015B000AF909F908F907F906F905F904F90CECE26
:1015C00010923501109236010895209136019091C4
:1015D000350181E0291380E00895F7DF91E0811162
:1015E00090E0892F0895209136014091350130E037
:1015F0002F5F3F4F2F73332750E081E024173507CB
:1016000009F080E00895EFDF882319F082E412D614
:10161000FACF809136018F5F8F73809336010895E2
:10162000809135018F5F8F73809335010895CF933B
:10163000DF931F92CDB7DEB7C8DF882319F082E6AB
:10164000F9D5FACFE0913501F0E0E158FE4F808105
:101650008983E6DF89810F90DF91CF910895E09132
:101660003601F0E0E158FE4F8083CDCF82B7806134
:1016700082BFE1ECF0E0108282E08093C00098E04D
:101680009093C2008093C30080E48093C40083E001
:101690008093BF008FEB8093D10010927200109264
:1016A000BF001092BE0081E08083089510929000E8
:1016B00088E0809391001092950010929400E1E7E9
:1016C000F0E0808182608083089561157105810555
:1016D000910511F488E05DC0611520E17207810574
:1016E000910558F4E4E0660F771FEA95E1F77093EF
:1016F00099006093980089E04CC0611520E872075A
:101700008105910540F4660F771F709399006093EF
:1017100098008AE03EC06115710524E082079105BA
:1017200078F4DC01CB0142E0B695A79597958795B3
:101730004A95D1F790939900809398008BE029C047
:101740006115710520E18207910578F4DC01CB0178
:1017500034E0B695A795979587953A95D1F79093EC
:101760009900809398008CE014C06115710520E405
:1017700082079105C8F4DC01CB0126E0B695A79558
:10178000979587952A95D1F7909399008093980023
:101790008DE08093910010923701109238011092E1
:1017A000390110923A01089560E070EA8FE090E00C
:1017B000CDCFCF92DF92EF92FF920F931F932FB76F
:1017C000F894C0906101D0906201E0906301F090C4
:1017D00064011092610110926201109263011092F3
:1017E00064012FBF2091650130916601C20ED31EA6
:1017F000E11CF11CC60ED71EE81EF91E40E050E0A9
:10180000BA0118EEC11613E0D106E104F10458F054
:1018100008EEC01A03E0D00AE108F1084F5F5F4FFD
:101820006F4F7F4FEECFD0926601C09265018091DD
:101830006701909168018A019B01080F191F211D02
:10184000311DD901C8014091690150916A0160912F
:101850006B0170916C018A019B010F5F1F4F2F4F2D
:101860003F4F8036EAEE9E07A105B10538F080565D
:101870009A4EA109B109B901A801EDCF40936901C0
:1018800050936A0160936B0170936C0190936801AF
:10189000809367011F910F91FF90EF90DF90CF90A1
:1018A00008950F931F93182F90917A01882379F14F
:1018B00091110AC00E94F118609373017093740132
:1018C000809375019093760181E080937A015E9A0E
:1018D0001F3F21F48091C4008F7E16C0812F90E0BD
:1018E000382F22276EE777E0822B932B24DD803878
:1018F00027E0920710F08FE797E09093BF00809366
:10190000CF008091C40080618093C40022C05E98A3
:101910008091C4008F7E8093C4009923D1F01092EF
:101920007A010E94F11800917301109174012091C5
:10193000750130917601601B710B820B930B39DFBF
:1019400080919100887F8093910010929500109271
:1019500094001F910F9108951F920F920FB60F924E
:1019600011242F933F934F935F936F937F938F93A4
:101970009F93AF93BF93EF93FF932DB73EB78091A3
:101980000001909101012817390730F48DB79EB7F7
:10199000909301018093000180917A01882379F06E
:1019A00060913701709138018091390190913A012D
:1019B000611571058105910511F087DE07C08091E1
:1019C0009100887F8093910080E06BDFFF91EF9121
:1019D000BF91AF919F918F917F916F915F914F9147
:1019E0003F912F910F900FBE0F901F9018955E980A
:1019F000569A3CDE5BDEE8E7F1E084E680832181F5
:101A000081E090E0A0E080936D0190936E01A0933F
:101A10006F0188EE93E0A0E08093700190937101D4
:101A2000A093720110927A01207E2183109273019B
:101A300010927401109275011092760110927B0140
:101A400010927C0110927D0110927E0186E59AEE43
:101A5000909368018093670180E023CF883048F439
:101A60008770880F880F90917901937E982B9093BF
:101A700079010895883048F48295880F807E90918E
:101A800079019F71982B90937901089560936D016E
:101A900070936E0180936F0108956093700170934D
:101AA0007101809372010895893E23E0920748F402
:101AB000809378019370809179018C7F892B80933A
:101AC000790108959FEB980F9A31C0F09FE9980F24
:101AD0009A3110F48754089590ED980F9A3010F4CD
:101AE0008C5F08958B3261F08D3251F08F3211F09E
:101AF0008F3511F48FE308958FEF0895892F08959E
:101B00008EE30895CF92DF92EF92FF92CF93DF930F
:101B1000282F31E0803219F0893009F030E08091CF
:101B20004001811149C010924501109205021092A6
:101B3000060210920702109208021092C001109241
:101B4000C1011092C2011092C30110924101109282
:101B50004201109243011092440110923F011092F1
:101B60003E0110923D0110923C0110923B011092F7
:101B7000C4011092C5011092BF0188E6E9E1F2E0CC
:101B8000DF01482F1D924A95E9F7E1E8F2E0DF0115
:101B90001D928A95E9F78FE3E6ECF1E0DF011D92F3
:101BA0008A95E9F780E1E9E0F2E0DF011D928A958C
:101BB000E9F781E0809340012D3009F4E0C22A303A
:101BC00081F58091BF01882331F09091C50180910A
:101BD000C401981719F08BE0809340018091400177
:101BE0008A3031F08B3039F41092400182E0C8C263
:101BF000109240016BC280913C01811105C0B6D7A3
:101C00001092400181E0BCC2C0E080913C01C81745
:101C1000B0F7EC2FF0E0EA53FE4F808120DDCF5F7C
:101C2000F4CF809140012A3221F48A3011F08EE005
:101C3000EDC150ED520F41E05A3008F040E08E30D7
:101C400009F4DDC19091BF01911105C09091C401CB
:101C500092279093C40190E0FC013197E131F105A6
:101C600008F00BC2EA59FF4F0C94B4348FEB820F8B
:101C70008A3118F58093450141E050E060E070E062
:101C800004C0440F551F661F771F8A95D2F78091B5
:101C9000050290910602A0910702B0910802842BE0
:101CA000952BA62BB72B8093050290930602A09349
:101CB0000702B093080282E0A9C1311160C22B3340
:101CC00009F49FC1283209F4A0C1243211F486E03E
:101CD0009DC1273211F480E199C1223211F481E1D2
:101CE00095C180913B0181110BC08FE08093400131
:101CF00081E080933B012093090210920A023FC2C7
:101D000085EE93E0DAC1332311F081E07FC1411108
:101D10001BC02B32C9F02D32B9F080913B018823D2
:101D200019F085E993E0C9C18FE08093400180916B
:101D300045018F5B8093090282E080933B012093F1
:101D40000A0210920B021BC283E0809340011092A2
:101D500041011092420110924301109244011092ED
:101D60003E0110923D012D3221F481E080933F012C
:101D700006C210923F012B3219F401C23111C5CFB6
:101D8000411103C08FE693E098C1822F90E0C09785
:101D9000AA2797FDA095BA2F809341019093420105
:101DA000A0934301B093440180913E018F5F8093E3
:101DB0003E0184E059C0442309F437C020913E011C
:101DC0002A3018F089E393E078C180914101909125
:101DD0004201A0914301B0914401880F991FAA1FAD
:101DE000BB1FBF93AF939F938F93880F991FAA1F19
:101DF000BB1F880F991FAA1FBB1F0F90800D0F904C
:101E0000901D0F90A01D0F90B01D850F911DA11D5D
:101E1000B11D8093410190934201A0934301B0937F
:101E200044012F5F20933E012BC12E3211F485E037
:101E30001BC0332311F081E017C02A3211F48EE069
:101E400013C02B3311F48DE00FC0283211F48CE055
:101E50000BC0243211F486E007C0273211F480E170
:101E600003C0223221F481E18093400109C18AE05C
:101E700093E023C1442309F43EC020913D01233067
:101E800008F07DC130913E01822F90E0830F911DBB
:101E90000A970CF074C18091410190914201A09188
:101EA0004301B0914401880F991FAA1FBB1FBF9324
:101EB000AF939F938F93880F991FAA1FBB1F880F03
:101EC000991FAA1FBB1F0F90800D0F90901D0F90A0
:101ED000A01D0F90B01D850F911DA11DB11D8093F8
:101EE000410190934201A0934301B09344012F5FBD
:101EF00020933D01C5C0311108CF8FED92E0DDC0C8
:101F0000311103CF822FDEDD803418F08AEA92E0AF
:101F1000D4C0E0913C01F0E0EA53FE4F880F880FF7
:101F2000808387E073C0822FCDDD803418F085E791
:101F300092E0C3C0E0913C0191E09E0F90933C0180
:101F4000F0E0EA53FE4F282F22952F703081232B8B
:101F500020839F3318F088E392E0AFC0E92FF0E0D0
:101F6000EA53FE4F8295807F808388E04FC02D33F7
:101F700021F1822FA7DD803418F083E092E09DC02C
:101F8000E0913C0191E09E0F90933C01F0E0EA5318
:101F9000FE4F282F269526953081232B20839F33B3
:101FA00018F086EC91E089C0E92FF0E0EA53FE4F8B
:101FB0008295880F880F807C808389E027C02D332D
:101FC00009F485CE822F7EDD803418F081E991E01E
:101FD00074C0E0913C0121E02E0F20933C01F0E021
:101FE000EA53FE4F9081982B90832F3308F46FCEE5
:101FF00084E591E062C0293209F0C1C086CE2B335E
:1020000011F48DE003C0283221F48CE0809340016C
:10201000B6C0442321F09091C5019A3120F08AE0A6
:102020008093400153C08091BF018F5F8093BF01B7
:10203000990F892F880F880F890F8053820F809303
:10204000C5019DC0223231F460CE273219F45DCE35
:1020500031115BCE80913B0131E0380FE82FF0E089
:10206000E75FFD4F2083E32FF0E0E75FFD4F108235
:1020700030933B01303150F582C081E391E01DC0C7
:10208000609141017091420180914301909144011E
:10209000C0913D0107C0AAE0B0E09B01AC010E94E5
:1020A0005933CF5FC330A0F46A39B9E97B078B0796
:1020B000B9E19B0784F388E191E09F938F930E949D
:1020C00096318AE0809340010F900F9083E058C0D2
:1020D0002AE0C22ED12CE12CF12CC33061F06B5FD1
:1020E0007F4F8F4F9F4FA70196010E949433CA01E3
:1020F000B901C150F2CF20913F01222339F09095D0
:102100008095709561957F4F8F4F9F4FF09045015F
:1021100044E0F49E90011124F901E75EFD4F6083D5
:10212000718382839383E901CF57DD4F28EE33E03B
:1021300040E050E00E949433288339834A835B83D4
:1021400041E050E060E070E004C0440F551F661F9E
:10215000771FFA94D2F78091C0019091C101A091AC
:10216000C201B091C301842B952BA62BB72B809372
:10217000C0019093C101A093C201B093C30180E05C
:10218000DF91CF91FF90EF90DF90CF900895CF93A4
:10219000DF9310924001EEE0F1E08491EF0121968F
:1021A000882319F0AFDCFE01F8CFDF91CF910895BD
:1021B000E1E6F0E080E880831082559A209A5D9AEB
:1021C000289A269A2E98279A2F9880988898249A49
:1021D0002C98259A2D9A819889983F9A47983E9AEB
:1021E0004698569A5E98539A52985A9A0E940319A2
:1021F0000E94B93160E071EE80E090E00E94B41C72
:10220000F6DB0E94FB1B0E944D2A0E94DA2978947B
:10221000BECF8091610190916201A0916301B09164
:102220006401892B8A2B8B2B21F060E070E0CB01BD
:10223000C0CA0895CF93DF931F92CDB7DEB74DB7D5
:102240005EB720910001309101014217530730F42D
:102250002DB73EB730930101209300019091E90220
:1022600093FF08C09091E902977F9093E9028983D8
:10227000D0DF89819091E90292FF0BC09091E90231
:102280009B7F9093E9024D9A0F90DF91CF910C9430
:10229000161B0F90DF91CF9108950E94FA1C88239E
:1022A00049F10E94EA1C28982DDC8230B9F0833075
:1022B000C1F08130F1F40E94CC1D2FE130E0281BE9
:1022C00031093F932F9382E494E09F938F930E9470
:1022D00096310F900F900F900F900BC089E394E010
:1022E00002C08BE294E09F938F930E9496310F90EF
:1022F0000F90289A8CE49ECF5BDFCFDFFECF60E0AB
:1023000082E00E943C2A89E091E09F938F930E9493
:10231000A531F89480E0C5DA80E0A0DB2FEF83E2FE
:1023200094EF215080409040E1F700C000000C94F1
:1023300000000F900F90089559982F70611120643C
:10234000411120628111206188E05C9820FF02C069
:10235000589A01C058985C9A26958150B1F7599ABD
:102360005C9859980895CF93C82FCF702C2F40E0D8
:1023700060E080E0E1DF2C2F40E060E081E0DCDF26
:102380002C2F40E060E080E0CF91D6CF5998519A51
:102390005898509A5C98549A20E040E060E080E0C1
:1023A000CBCFCF93C82F82958F70DDDF8C2FDBDFF3
:1023B00087EC90E00197F1F700C00000CF910895FD
:1023C000CF93DF93C82FD82FD295DF702D2F40E009
:1023D00061E080E0B1DF2D2F40E061E081E0ACDF23
:1023E0002D2F40E061E080E0A7DFCF702C2F40E090
:1023F00061E080E0A1DF2C2F40E061E081E09CDF24
:102400002C2F40E061E080E097DF87EC90E00197BF
:10241000F1F700C00000DF91CF910895AF92BF9215
:10242000CF92DF92EF92FF920F931F9394E0899FD8
:10243000F0011124E75EFD4F6081718182819381FB
:102440002091F907222399F02FE730E040E050E097
:102450000E94E033E5E0AE2EB12CC12CD12CE12C52
:10246000F12C00E010E00E94AA33B901CA011F91CB
:102470000F91FF90EF90DF90CF90BF90AF900895B5
:10248000CF92DF92EF92FF920F931F93C090C00103
:10249000D090C101E090C201F090C301E7FE27C0D7
:1024A00087E1BCDF2091F607211104C02091F507D8
:1024B0002223A9F00091DD071091DE072091DF07AC
:1024C0003091E007060F171F281F391F0093DD0703
:1024D0001093DE072093DF073093E00708C0609376
:1024E000DD077093DE078093DF079093E007F0FE2F
:1024F00027C088E193DF2091F707211104C02091C4
:10250000F5072223A9F00091E1071091E20720913D
:10251000E3073091E407060F171F281F391F0093A8
:10252000E1071093E2072093E3073093E40708C024
:102530006093E1077093E2078093E3079093E407C9
:10254000F1FE27C087E16ADF2091F807211104C05E
:102550002091F5072223A9F0C090E507D090E60767
:10256000E090E707F090E807C60ED71EE81EF91EB8
:10257000C092E507D092E607E092E707F092E807FD
:1025800008C06093E5077093E6078093E707909390
:10259000E8076091DD077091DE078091DF07909179
:1025A000E007B0D76093CA077093CB078093CC073E
:1025B0006091E1077091E2078091E3079091E40751
:1025C000CFD76093CD077093CE078093CF076091EC
:1025D000E5077091E6078091E7079091E807EED74D
:1025E0006093D0077093D1078093D2071F910F910A
:1025F000FF90EF90DF90CF9008952F923F924F92EF
:102600005F926F927F928F929F92AF92BF92CF9282
:10261000DF92EF92FF920F931F93CF93DF93CDB78B
:10262000DEB761970FB6F894DEBF0FBECDBF8D87C2
:102630008091DD079091DE07A091DF07B091E00760
:102640008093E9079093EA07A093EB07B093EC0718
:102650008091E1079091E207A091E307B091E40730
:102660008093ED079093EE07A093EF07B093F007E8
:1026700007DFC090C001D090C101E090C201F0908E
:10268000C30146015701882423E0922222E0A222BE
:10269000BB2481149104A104B10411F480E083C12E
:1026A000D0FE16C04090E9075090EA076090EB0713
:1026B0007090EC0788E0B2DE640D751D861D971DD5
:1026C0006093E9077093EA078093EB079093EC0718
:1026D000D1FE16C0C090ED07D090EE07E090EF0756
:1026E000F090F00789E09ADE6C0D7D1D8E1D9F1D18
:1026F0006093ED077093EE078093EF079093F007D8
:102700008114910432E0A306B10409F02DC181E1E6
:1027100085DE6D837E838F8398878091DD0790911E
:10272000DE07A091DF07B091E00789839A83AB832E
:10273000BC838091E9079091EA07A091EB07B091E3
:10274000EC0729813A814B815C81281B390B4A0BAC
:102750005B0B29833A834B835C834090E107509065
:10276000E2076090E3077090E4078091ED07909195
:10277000EE07A091EF07B091F007481A590A6A0ACC
:102780007B0AA301920169817A818B819C810E94DD
:10279000A10A69877A878B879C876D817E818F816B
:1027A00098859B01AC010E94E03319014A01698BB5
:1027B000788B8E879F8769857A858B859C859B0121
:1027C000AC010E94E03302E00E94BC3459016A016E
:1027D0007B018C019101A401698978898E859F858F
:1027E0000E94E1340E94AE096B017C0197FD56CF37
:1027F000A30192010E94633329853A854B855C854C
:102800000E94943349015A012093E9073093EA0763
:102810004093EB075093EC0729813A814B815C810F
:1028200050954095309521953F4F4F4F5F4FC701D1
:10283000B6010E94633329853A854B855C850E94E9
:1028400094332093ED073093EE074093EF075093B6
:10285000F0078D85882351F08D819E81AF81B885E9
:10286000181619061A061B063CF025C08D819E819C
:10287000AF81B885B7FF1FC0B094A09490948094A6
:10288000811C911CA11CB11C8092E9079092EA075F
:10289000A092EB07B092EC0788279927DC01821BF6
:1028A000930BA40BB50B8093ED079093EE07A093C9
:1028B000EF07B093F0076091DD077091DE0780911C
:1028C000DF079091E007660F771F881F991F298106
:1028D0003A814B815C81621B730B840B950B32E058
:1028E000C32ED12CE12CF12CA70196010E94943328
:1028F0008091E9079091EA07A091EB07B091EC076E
:10290000820F931FA41FB51F8093E9079093EA07D6
:10291000A093EB07B093EC076091E1077091E20799
:102920008091E3079091E407660F771F881F991F36
:102930006419750986099709A70196010E949433C5
:102940008091ED079091EE07A091EF07B091F0070D
:10295000820F931FA41FB51F8093ED079093EE077E
:10296000A093EF07B093F0076091E9077091EA0731
:102970008091EB079091EC07C5D56093D3077093D6
:10298000D4078093D5076091ED077091EE07809191
:10299000EF079091F007E4D56093D6077093D707BF
:1029A0008093D80781E061960FB6F894DEBF0FBE22
:1029B000CDBFDF91CF911F910F91FF90EF90DF90EE
:1029C000CF90BF90AF909F908F907F906F905F90CF
:1029D0004F903F902F9008958091C0019091C10138
:1029E000A091C201B091C301A2FF21C06091610218
:1029F00070916202809163029091640224E630E05B
:102A000040E050E00E94943357FF03C020E030E0E4
:102A1000A901293E83E038074105510524F028EE3D
:102A200033E040E050E0C9013FD881E017D8809101
:102A3000C0019091C101A091C201B091C30193FF67
:102A400015C06091450270914602809147029091B5
:102A5000480297FF07C090958095709561957F4FCC
:102A60008F4F9F4F1AD882E00E942E0D8091C00197
:102A70009091C101A091C201B091C30197FF0DC017
:102A800060915502709156028091570290915802C0
:102A90000E94460D82E00E942E0D8091C00182FFAF
:102AA0003EC08091790186958695877084600E94EA
:102AB0002E0D8091890290918A02A0918B02B09193
:102AC0008C0283309105A105B105F1F05CF48130F1
:102AD0009105A105B105B1F00297A105B105E1F499
:102AE00081E013C086309105A105B10589F08830D9
:102AF0009105A105B10571F00497A105B10561F437
:102B000083E003C080E001C082E00E943A0D07C06C
:102B100085E0FBCF87E0F9CF80E00E942E0D809109
:102B2000C00181FF04C0809185020E942E0D80911A
:102B3000C0019091C101A091C201B091C301A0FF59
:102B400009C08091C1029091C202A091C302B091CC
:102B5000C40203C080E090E0DC0180937B0190938D
:102B60007C01A0937D01B0937E0108958F929F9286
:102B7000AF92BF92CF92DF92EF92FF92CF93DF930B
:102B8000C090C001D090C101E090C201F090C3019B
:102B9000C5FE4EC080912D0290912E02A0912F0271
:102BA000B0913002181619061A061B060CF040C028
:102BB000BC01CD01625E7F4F8F4F9F4F2CE330E011
:102BC00040E050E00E949433DA01C901883823E1E3
:102BD0009207A105B10524F488E893E1A0E0B0E0F4
:102BE000D82FC92FFA2FEB2F4C015D01BB0C8808A1
:102BF000982C54019C01AD01682D782D882D982DBD
:102C000028373A4841405105610571058105910514
:102C100029F024F0D8E7CAE8F1E0E0E09E01CF0116
:102C20003093F107C093F2079093F307E093F40712
:102C3000C6FEFEC18091990290919A02A0919B02DA
:102C4000B0919C02AC01BD014427452B462B472B7C
:102C500009F0B3C2843109F4CCC020F58230B1F15F
:102C6000D8F4882389F1813009F0A7C209DCB4DEE9
:102C70006091F1077091F2078091F3079091F4074A
:102C8000DF91CF91FF90EF90DF90CF90BF90AF900A
:102C90009F908F900C94B32B833041F1843009F4D2
:102CA00040C08BC28A3509F44CC138F4853109F42F
:102CB000A3C08C3109F4A4C080C28B3509F444C18F
:102CC0008C3509F445C179C2DBDB13C280E095DCA9
:102CD000882309F40EC280DE6091F1077091F2073B
:102CE0008091F3079091F40740E00FC081E085DC0C
:102CF000882309F4FEC170DE6091F1077091F2073C
:102D00008091F3079091F40741E0DF91CF91FF901C
:102D1000EF90DF90CF90BF90AF909F908F900C94EA
:102D2000302DD7FE10C08091BD029091BE02A091BF
:102D3000BF02B091C0028093FA079093FB07A09363
:102D4000FC07B093FD07E2FE1CC08091FA0790914A
:102D5000FB07A091FC07B091FD07409161025091E3
:102D600062026091630270916402840F951FA61F36
:102D7000B71F8093FA079093FB07A093FC07B093CB
:102D8000FD070E94AA290E94ED0A882319F00E94DB
:102D9000100BF9CF1DD26B017C018091FA07909145
:102DA000FB07A091FC07B091FD07892B8A2B8B2B89
:102DB00009F403C284E43EDA0BD2C616D706E8064D
:102DC000F90659F305D26B017C018091FA079091C5
:102DD000FB07A091FC07B091FD070197A109B1097C
:102DE0008093FA079093FB07A093FC07B093FD072D
:102DF000D4CF1092F907E1C181E08093F907DDC1DA
:102E00001092F9071092F50788E414DA8091050210
:102E100090910602A0910702B0910802AC01BD0199
:102E20004427552760787370452B462B472B89F034
:102E3000AC01BD0127E176956795579547952A9591
:102E4000D1F7242F2170B0FD2260B1FF03C02460B0
:102E500001C027E0C22FCB7F09F45FC120FF1FC054
:102E60004091C0015091C1016091C2017091C301B4
:102E700067FF09C040917502509176026091770218
:102E80007091780204C048ED5CED6FEF7FEF4093E6
:102E9000DD075093DE076093DF077093E00721FFA3
:102EA0001FC04091C0015091C1016091C201709159
:102EB000C30170FF09C04091790250917A0260917C
:102EC0007B0270917C0204C048E65DEA63E070E03A
:102ED0004093E1075093E2076093E3077093E407A0
:102EE0006091DD077091DE078091DF079091E00728
:102EF00009D36093CA077093CB078093CC07609186
:102F0000E1077091E2078091E3079091E40728D3ED
:102F10006093CD077093CE078093CF076091E5074C
:102F20007091E6078091E7079091E80747D3609397
:102F3000D0077093D1078093D2078C2F0E943F2E29
:102F4000ECC01092F50739C181E08093F50735C1D7
:102F5000E7FE10C08091750290917602A0917702F1
:102F6000B09178028093DD079093DE07A093DF078E
:102F7000B093E007F0FE10C08091790290917A0240
:102F8000A0917B02B0917C028093E1079093E207CD
:102F9000A093E307B093E407F1FE10C080917D0297
:102FA00090917E02A0917F02B09180028093E5070C
:102FB0009093E607A093E707B093E8076091DD07D9
:102FC0007091DE078091DF079091E0079BD26093BC
:102FD000CA077093CB078093CC076091E10770918B
:102FE000E2078091E3079091E407BAD26093CD079E
:102FF0007093CE078093CF076091E5077091E60745
:103000008091E7079091E807D9D26093D007709339
:10301000D1078093D20780E0DF91CF91FF90EF90AE
:10302000DF90CF90BF90AF909F908F900C943F2EE9
:10303000D4FE8AC08091B1029091B202A091B302F5
:10304000B091B402AC01BD0144275527452B462B56
:10305000472B09F079C08530910548F483309105FC
:1030600008F03FC0009779F1029769F1A6C0803956
:1030700021E0920709F451C0893822E0920709F44F
:1030800058C0059709F099C0C0917901C695C695B9
:10309000C77080E00E942E0D6091F1077091F207D9
:1030A0008091F3079091F4070E94552A8C2FDF91AD
:1030B000CF91FF90EF90DF90CF90BF90AF909F9017
:1030C0008F900C942E0D80E00E942E0D6091F107E0
:1030D0007091F2078091F3079091F4070E94552AAE
:1030E0001CC07ADC809179018C7119F481E00E9416
:1030F0002E0D6091F1077091F2078091F307909186
:10310000F407DF91CF91FF90EF90DF90CF90BF90C9
:10311000AF909F908F900C94552ADF91CF91FF90A4
:10312000EF90DF90CF90BF90AF909F908F900C94D6
:10313000AA29DF91CF91FF90EF90DF90CF90BF90C1
:10314000AF909F908F9048CCE3FC37C080910502F0
:1031500090910602A0910702B0910802009720E228
:10316000A207B10569F4CD28CE28CF2831F589E42E
:1031700094E09F938F930E9496310F900F901DC003
:1031800081159048A105B105C1F4CD28CE28CF28DE
:10319000A1F40E94AA298FEF0E94510C8091700126
:1031A00090917101A0917201BC018A2F90E00E9460
:1031B000650B80917A018111FFCFDF91CF91FF9054
:1031C000EF90DF90CF90BF90AF909F908F90089539
:1031D00060914D0170914E0180914F01909150018D
:1031E00008953FB7F89426B52695609152017091E5
:1031F000530180915401909155013FBF620F711DA1
:10320000811D911D08951092520110925301109248
:103210005401109255011092510110924D011092DB
:103220004E0110924F011092500182E084BD85BD85
:1032300099EF97BD16BC80936E008AE080934C0195
:1032400080934B0180934A018093490196E09093CB
:103250004801809347019093460108951F920F9271
:103260000FB60F9211242F933F938F939F93AF9399
:10327000BF932DB73EB780910001909101012817AF
:10328000390730F48DB79EB7909301018093000108
:103290008091520190915301A0915401B091550138
:1032A00083589F4FAF4FBF4F80935201909353016C
:1032B000A0935401B0935501809151018F5F809389
:1032C0005101883008F481C0809151018850809369
:1032D000510180914D0190914E01A0914F01B0910B
:1032E00050010196A11DB11D80934D0190934E0197
:1032F000A0934F01B09350018091E90281608093C7
:10330000E90280914C01815080934C0181115DC094
:103310008091E90282608093E9028AE080934C0107
:1033200090914B01915090934B0191114EC090910F
:10333000E90294609093E90280934B0190914A01D5
:10334000915090934A01911140C09091E902986088
:103350009093E90280934A01909149019150909392
:103360004901911132C09091E90290619093E90274
:103370008093490190914801915090934801911197
:1033800024C09091E90290629093E90226E0209394
:10339000480190914701915090934701911115C0B8
:1033A0009091E90290649093E902809347018091A3
:1033B0004601815080934601811107C08091E90246
:1033C00080688093E90220934601BF91AF919F915D
:1033D0008F913F912F910F900FBE0F901F901895D6
:1033E000AF92BF92CF92DF92EF92FF920F931F9313
:1033F000992787FD909520E432E44FE050E00E9449
:10340000E033265435464F4F5F4F6F4F7F4F8F4FFE
:103410009F4FE4E7AE2EF5E3BF2ECC24C394D12C0E
:10342000E12CF12C00E010E00E94AA33B901CA019E
:103430001F910F91FF90EF90DF90CF90BF90AF90D2
:103440000895AF92BF92CF92DF92EF92FF920F93C7
:103450001F93992787FD909520E432E44FE050E0D8
:103460000E94E033265435464F4F5F4F6F4F7F4FDA
:103470008F4F9F4FE4E7AE2EF5E3BF2ECC24C394CD
:10348000D12CE12CF12C00E010E00E94AA33B9010C
:10349000CA011F910F91FF90EF90DF90CF90BF90E6
:1034A000AF900895AF92BF92CF92DF92EF92FF92CA
:1034B0000F931F93992787FD909520E432E44FE006
:1034C00050E00E94E0332058354E494F5F4F6F4F18
:1034D0007F4F8F4F9F4FA12CE5E3BE2EFCE0CF2EF8
:1034E000D12CE12CF12C00E010E00E94AA33B901AC
:1034F000CA011F910F91FF90EF90DF90CF90BF9086
:10350000AF900895AF92BF92CF92DF92EF92FF9269
:103510000F931F9324E735E341E050E00E94E0332E
:10352000205E3E45484F5F4F6F4F7F4F8F4F9F4FFD
:10353000E0E4AE2EF2E4BF2EAFE0CA2ED12CE12C97
:10354000F12C00E010E00E94AA33B901842F1F91F2
:103550000F91FF90EF90DF90CF90BF90AF900895C4
:10356000AF92BF92CF92DF92EF92FF920F931F9391
:1035700024E735E341E050E00E94E033205E3E4521
:10358000484F5F4F6F4F7F4F8F4F9F4FE0E4AE2EFE
:10359000F2E4BF2EAFE0CA2ED12CE12CF12C00E0DA
:1035A00010E00E94AA33B901842F1F910F91FF9060
:1035B000EF90DF90CF90BF90AF900895AF92BF9201
:1035C000CF92DF92EF92FF920F931F9320E035E3AB
:1035D0004CE050E00E94E033205E3E45484F5F4F94
:1035E0006F4F7F4F8F4F9F4FE0E4AE2EF2E4BF2E20
:1035F000AFE0CA2ED12CE12CF12C00E010E00E94AB
:10360000AA33B901842F1F910F91FF90EF90DF90A3
:10361000CF90BF90AF90089581E00E94D1118FE5C7
:103620009DE60197F1F700C0000008950F931F93E6
:10363000CF93DF9300D01F92CDB7DEB7182F60E095
:1036400080E00E943C2AC4DD082F69837A839B8333
:10365000A3D29B819F930F937A817F9369816F930C
:103660001F928F931F921F9383EE94E09F938F93EB
:103670000E94A53180E00E94BC29B2DE162F082FDF
:1036800060E081E07A839B830E943C2A9B819F9328
:103690000F937A817F931F9382ED94E09F938F9392
:1036A0000E94A53181E00E94BC29CBDE162F082F95
:1036B00060E082E07A839B830E943C2A9B819F93F7
:1036C0000F937A817F931F9381EC94E09F938F9364
:1036D0000E94A53182E00E94BC29E4DE162F082F4B
:1036E00060E083E07A839B830E943C2A9B819F93C6
:1036F0000F937A817F931F9380EB94E09F938F9336
:103700000E94A5318091BD078C710FB6F894DEBF81
:103710000FBECDBF6AE0A9F081E00E943C2A8091F3
:10372000BD078695869587701F928F9384EA94E0F3
:103730009F938F930E94A5310F900F900F900F9041
:103740000BC081E00E943C2A8AE994E09F938F930A
:103750000E94A5310F900F906AE082E00E943C2AFF
:103760009091BC078091BD0783708F939F93809148
:10377000BE07877090E001969F938F938091BD075D
:103780008695869587701F928F9380E994E09F932A
:103790008F930E94A5312DB73EB70FB6F894DEBFC8
:1037A0000FBECDBF8091000190910101281739070C
:1037B00030F48DB79EB790930101809300016AE0C9
:1037C00083E00E943C2A809101018F938091000147
:1037D0008F938AE894E09F938F930E94A5310F9076
:1037E0000F900F900F900F900F900F90DF91CF914F
:1037F0001F910F9108952FEF83EC99E021508040A5
:103800009040E1F700C0000084E00E94072A84E0B5
:103810000E94072A01DF89E409CF10925801109213
:1038200059010895209159019091580181E029137F
:1038300080E0089540915901209158014F5F50E078
:1038400030E081E04217530709F080E00895F2DF8D
:1038500091E0811190E0892F0895ECDF882321F019
:1038600082E40E941A11F9CF809159018F5F8093F1
:1038700059010895809158018F5F809358010895F0
:103880008091590190915801891B0895CF93DF933E
:103890001F92CDB7DEB7C6DF882321F082E60E94F3
:1038A0001A11F9CFE0915801F0E0E65FFC4F8081FA
:1038B0008983E0DF89810F90DF91CF910895E091B6
:1038C0005901F0E0E65FFC4F8083C7CF10925601AC
:1038D000109257010895209157019091560181E06F
:1038E000291380E00895209157014091560130E05E
:1038F0002F5F3F4F2F71332750E081E024173507AA
:1039000009F080E00895EFDF882321F082E40E942F
:103910001A11F9CF809157018F5F8F7180935701F2
:103920000895809156018F5F8F718093560108959D
:10393000E0915701F0E0E651FD4F8083E4CFCF9353
:10394000DF93C82FD0DF882321F085E50E941A116C
:10395000F9CFDFB7F8948C2FEBDF88EB8093C900A9
:10396000DFBFDF91CF9108950F931F93CF938B010A
:103970009C01CFB7F894775F824C9F4F42E0660F6F
:10398000771F881F991F4A95D1F7A9019801E3E095
:10399000220F331F441F551FEA95D1F70E9472333F
:1039A000215031093093CD002093CC0082E08093E8
:1039B000C80088E98093C90086E08093CA002DDFA3
:1039C00085DF84E080935A01CFBF81E1CF911F91C1
:1039D0000F91B5CF80915A0181FF0BC023DF88235F
:1039E00041F080915A01846080935A0188EB809362
:1039F000C9004CCFCF93CFB7F89480915A0181FF83
:103A00000BC010DF882341F080915A0184608093BD
:103A10005A0188EB8093C900CFBFCF9131CF1F925D
:103A20000F920FB60F9211242F933F934F935F93F2
:103A30006F937F938F939F93AF93BF93EF93FF9376
:103A400080915A0180FF07C083E18093CE0082E01D
:103A500080935A011AC080915A0182FF06C083E107
:103A60008093CE0010925A0110C035DF882321F0D8
:103A700088E98093C90009C0E0915601F0E0E65161
:103A8000FD4F80818093CE004CDFFF91EF91BF917D
:103A9000AF919F918F917F916F915F914F913F91E6
:103AA0002F910F900FBE0F901F9018951F920F929D
:103AB0000FB60F9211242F933F934F935F936F9301
:103AC0007F938F939F93AF93BF93EF93FF93D8DE32
:103AD000813460F080915A0181FD08C080915A01C3
:103AE000816080935A0188EB8093C900B0DE811118
:103AF0000DC063E00E943C2A83EF94E09F938F9374
:103B00000E94A5310E947F110F900F908091CE00EE
:103B1000D6DEFF91EF91BF91AF919F918F917F91F1
:103B20006F915F914F913F912F910F900FBE0F902A
:103B30001F90189510925B0110925C0108952091DE
:103B40005C0190915B0181E0291380E00895209150
:103B50005C0140915B0130E02F5F3F4F2F713327B5
:103B600050E081E02417350709F080E00895EFDF89
:103B7000882321F082E40E941A11F9CF80915C0120
:103B80008F5F8F7180935C01089580915B018F5FDF
:103B90008F7180935B01089580915C0190915B012E
:103BA000891B8F710895CF92DF92EF92FF920F934E
:103BB0001F93CF93DF93E0910A04F0910B04EF0180
:103BC000858580FF2BC08181813011F42F9A01C03F
:103BD0002F982F89388D498DC8A0D9A0EAA08E854D
:103BE0009F85A8895527820F931FA41F20F4539502
:103BF0008C199D09AE098E879F87A88B552371F07C
:103C00002E9A29818C819D81AE81022E0594820F8E
:103C1000901DA01D8C839D83AE832E988D8581FF82
:103C20002BC08A81813011F42D9801C02D9A2A8DE4
:103C30003B8D4C8DC8A0D9A0EAA089899A89AB890F
:103C40005527820F931FA41F20F453958C199D09AB
:103C5000AE09898B9A8BAB8B552371F02C9A2A81F4
:103C60008F819885A985022E0594820F901DA01D35
:103C70008F839887A9872C988D8582FF2BC08B8195
:103C8000813011F4469A01C046982D8D3E8D4F8D9E
:103C9000C8A0D9A0EAA08C899D89AE895527820F3A
:103CA000931FA41F20F453958C199D09AE098C8B8A
:103CB0009D8BAE8B552371F0479A2B818A859B850E
:103CC000AC85022E0594820F901DA01D8A879B87CC
:103CD000AC874798FE018D85877009F463C06DA598
:103CE0007EA56034710590F09B0101E0203831051C
:103CF00020F00F5F36952795F9CF2F73332750E4C7
:103D0000059F80011124022B132B01C08B01C3A03E
:103D1000D4A0E5A04E2D960121503109410980A182
:103D200091A1A2A18C199D09AE09281739074A074C
:103D300010F4A42FC9010817190728F07801E81A10
:103D4000F90AC70102C080E090E0DC01C6E0B69548
:103D5000A795CA95E1F75A2FAA2319F080645FEF5F
:103D60005A0F8F779927552341F097FD04C0880F8C
:103D7000991F5150F8CF8FEF9FEF6817790708F41C
:103D8000CB01803D57E0950710F480ED97E09093CC
:103D900089008093880023A334A345A381E0232BCB
:103DA000242B09F480E0DF91CF911F910F91FF90B8
:103DB000EF90DF90CF9008952F923F924F925F92B5
:103DC0006F927F928F929F92AF92BF92CF92DF922B
:103DD000EF92FF920F931F93CF93DF9300910A040A
:103DE00010910B04E801888190E09C012051310979
:103DF0002031310508F0E8C229583F4F6E847F8496
:103E000088888EA19FA1A8A5B9A5C988DA88EB8862
:103E1000F9010C94B4342A8D3B8D4C8D2619370949
:103E200048091901442E552447FC50942816390698
:103E30004A065B064CF021E0621A710881086E8622
:103E40007F86888A21E001C020E0FFEFCF1ADF0AD9
:103E5000EF0AF801C18AD28AE38A286086859785AD
:103E6000A089C816D906EA060CF4AFC281E1AAC23D
:103E70002F89388D498D16014E2C221A330A440A97
:103E8000552447FC5094281639064A065B064CF424
:103E90002FEFC21AD20AE20AC98ADA8AEB8A28E02C
:103EA00001C020E0F1E06F1A71088108F801668610
:103EB0007786808A21601614170418040CF485C2D2
:103EC00082E180C22F89388D498D2C0D3D1D4E1DFC
:103ED0004095309521953F4F4F4F1901442E552461
:103EE00047FC5094281639064A065B064CF021E040
:103EF000C21AD108E108C98ADA8AEB8A24E001C033
:103F000020E0F1E06F1A71088108F8016686778673
:103F1000808A216081899289A389A0959095819555
:103F20009F4FAF4F86159705A8050CF44EC283E14D
:103F300049C22A8D3B8D4C8D260D371D481D40955D
:103F4000309521953F4F4F4F1901442E552447FC82
:103F50005094281639064A065B064CF421E0621A92
:103F6000710881086E867F86888A21E001C020E082
:103F7000F1E0CF1AD108E108F801C18AD28AE38AB8
:103F800024601C141D041E040CF41FC284E11AC218
:103F90002A8D3B8D4C8D1301482C221A330A440A7A
:103FA000552447FC5094281639064A065B064CF007
:103FB0002FEF621A720A820A6E867F86888A22E052
:103FC00001C020E0F1E0CF1AD108E108F801C18A70
:103FD000D28AE38A246086859785A0898C159D0501
:103FE000AE050CF4F2C185E1EDC12F89388D498D04
:103FF0002C193D094E091901442E552447FC5094B3
:10400000281639064A065B064CF421E0C21AD1088C
:10401000E108C98ADA8AEB8A24E001C020E0FFEFD8
:104020006F1A7F0A8F0AF80166867786808A226077
:1040300088200CF4CAC186E1C5C12F89388D498D0D
:104040002C0D3D1D4E1D1901442E552447FC509446
:10405000281639064A065B064CF02FEFC21AD20A20
:10406000E20AC98ADA8AEB8A28E001C020E0FFEF81
:104070006F1A7F0A8F0AF80166867786808A226027
:1040800081899289A389A095909581959F4FAF4F83
:10409000681679068A060CF498C187E193C12A8DC7
:1040A0003B8D4C8D260D371D481D1901442E55247E
:1040B00047FC5094281639064A065B064CF42FEF4D
:1040C000621A720A820A6E867F86888A22E001C09E
:1040D00020E0FFEFCF1ADF0AEF0AF801C18AD28A87
:1040E000E38A2860EE200CF470C180E16BC12A8D58
:1040F0003B8D4C8D1301482C221A330A440A552457
:1041000047FC5094281639064A065B064CF42FEFFC
:10411000621A720A820A6E867F86888A22E001C04D
:1041200020E0F1E0CF1AD108E108F801C18AD28A73
:10413000E38A24601C141D041E040CF446C18FE1A4
:1041400041C12F89388D498D2C193D094E0919011E
:10415000442E552447FC5094281639064A065B061F
:104160004CF021E0C21AD108E108C98ADA8AEB8A48
:1041700024E001C020E0FFEF6F1A7F0A8F0AF801E8
:1041800066867786808A226081899289A3898615CE
:104190009705A8050CF019C188E114C12F89388D45
:1041A000498D2C0D3D1D4E1D1901442E552447FCF3
:1041B0005094281639064A065B064CF42FEFC21AB3
:1041C000D20AE20AC98ADA8AEB8A28E001C020E032
:1041D000FFEF6F1A7F0A8F0AF80166867786808A5A
:1041E000226088200CF4F1C089E1ECC02A8D3B8D5F
:1041F0004C8D260D371D481D1901442E552447FCB2
:104200005094281639064A065B064CF02FEF621AC6
:10421000720A820A6E867F86888A22E001C020E0C8
:10422000FFEFCF1ADF0AEF0AF801C18AD28AE38AC8
:104230002860E094D094C094C11CD11CE11C8685F8
:104240009785A089C816D906EA060CF0BEC08AE197
:10425000B9C02A8D3B8D4C8D2619370948091901A3
:10426000442E552447FC5094281639064A065B060E
:104270004CF421E0621A710881086E867F86888A74
:1042800021E001C020E0FFEFCF1ADF0AEF0AF801BA
:10429000C18AD28AE38A2860EE200CF496C08BE1B2
:1042A00091C02F89388D498D16014E2C221A330A60
:1042B000440A552447FC5094281639064A065B06E2
:1042C0004CF02FEFC21AD20AE20AC98ADA8AEB8AC4
:1042D00028E001C020E0F1E06F1A71088108F801C0
:1042E00066867786808A216081899289A38968168B
:1042F00079068A060CF069C08CE164C02F89388D7C
:10430000498D2C0D3D1D4E1D4095309521953F4FFB
:104310004F4F1901442E552447FC50942816390656
:104320004A065B064CF421E0C21AD108E108C98AAA
:10433000DA8AEB8A24E001C020E0F1E06F1A71080C
:104340008108F80166867786808A21601614170432
:104350001804DCF18DE136C02A8D3B8D4C8D260D85
:10436000371D481D4095309521953F4F4F4F1901FE
:10437000442E552447FC5094281639064A065B06FD
:104380004CF021E0621A710881086E867F86888A67
:1043900021E001C020E0F1E0CF1AD108E108F801E6
:1043A000C18AD28AE38A2460E094D094C094C11C6C
:1043B000D11CE11C86859785A0898C159D05AE05CD
:1043C00024F48EE1808301C020E020FF2AC02F98D2
:1043D000CF88D88CE98CAE2DC6010197A1091C01AC
:1043E0004A2E552447FC50948EA19FA1A8A5B9A59B
:1043F000820D931DA41DB51D8EA39FA3A8A7B9A7C9
:1044000002E0C01AD108E108CF8AD88EE98E2E9A30
:104410008C819D81AE810197A1098C839D83AE83A0
:104420002E9821FF2AC02F9ACF88D88CE98CAE2DE8
:10443000C6010296A11D8F8B988FA98FAE2DC60144
:104440000196A11D1C014A2E552447FC50948EA1B3
:104450009FA1A8A5B9A582199309A409B5098EA39E
:104460009FA3A8A7B9A72E9A8C819D81AE810196A2
:10447000A11D8C839D83AE832E9822FF2AC02D9A86
:10448000CA8CDB8CEC8CAE2DC6010197A1094C01C6
:10449000AA2EBB24A7FCB0948EA19FA1A8A5B9A564
:1044A000880D991DAA1DBB1D8EA39FA3A8A7B9A700
:1044B00002E0C01AD108E108CA8EDB8EEC8E2C9A7D
:1044C0008F819885A9850197A1098F839887A987EE
:1044D0002C9823FF2AC02D982A8D3B8D4C8DA42F1C
:1044E000C9010296A11D8A8F9B8FAC8FA42FC90191
:1044F0000196A11D1C014A2E552447FC50948EA103
:104500009FA1A8A5B9A582199309A409B5098EA3ED
:104510009FA3A8A7B9A72C9A8F819885A9850196F2
:10452000A11D8F839887A9872C988D8582FF2BC02A
:104530008B81813011F4469A01C046982D8D3E8DB5
:104540004F8DC8A0D9A0EAA08C899D89AE89552736
:10455000820F931FA41F20F453958C199D09AE0957
:104560008C8B9D8BAE8B552371F0479A2B818A855E
:104570009B85AC85022E0594820F901DA01D8A8715
:104580009B87AC8747988E012AA53BA54CA550E098
:10459000ADA5BEA50E94593329893A8937FF03C0CA
:1045A000319521953109F8014685578557FF03C09C
:1045B000519541955109241735070CF49A01442768
:1045C00037FD4095542F0E94723330938900209319
:1045D0008800F80123A134A145A1215031094109E6
:1045E00023A334A345A381E0232B242B09F480E0EB
:1045F000DF91CF911F910F91FF90EF90DF90CF90BF
:10460000BF90AF909F908F907F906F905F904F90F2
:104610003F902F900895CF92DF92EF92CF93DF9348
:10462000E0910A04F0910B04EF01858580FF2BC017
:104630008181813011F42F9A01C02F982F89388DF4
:10464000498DC8A0D9A0EAA08E859F85A889552745
:10465000820F931FA41F20F453958C199D09AE0956
:104660008E879F87A88B552371F02E9A29818C8184
:104670009D81AE81022E0594820F901DA01D8C831A
:104680009D83AE832E988D8581FF2BC08A818130DA
:1046900011F42D9801C02D9A2A8D3B8D4C8DC8A008
:1046A000D9A0EAA089899A89AB895527820F931FDF
:1046B000A41F20F453958C199D09AE09898B9A8B00
:1046C000AB8B552371F02C9A2A818F819885A9850F
:1046D000022E0594820F901DA01D8F839887A987B5
:1046E0002C988D8582FF2BC08B81813011F4469AE6
:1046F00001C046982D8D3E8D4F8DC8A0D9A0EAA04F
:104700008C899D89AE895527820F931FA41F20F4A1
:1047100053958C199D09AE098C8B9D8BAE8B5523BF
:1047200071F0479A2B818A859B85AC85022E059472
:10473000820F901DA01D8A879B87AC8747988DA507
:104740009EA590938900809388008D85877069F07D
:104750002BA13CA14DA12150310941092BA33CA320
:104760004DA381E0232B242B09F480E0DF91CF912E
:10477000EF90DF90CF900895EF92FF920F931F93E9
:10478000CF93DF93E0910A04F0910B04EF01908145
:104790008585913009F06AC080FF04C0789902C015
:1047A0008E7F8587858581FF04C0799902C08D7FC2
:1047B00085878585982F9B7F958780FF0EC02E9AD1
:1047C00029818C819D81AE81022E0594820F901DDE
:1047D000A01D8C839D83AE832E988D8581FF0EC096
:1047E0002C9A2A818F819885A985022E0594820FA3
:1047F000901DA01D8F839887A9872C988D8582FF97
:104800000EC0479A2B818A859B85AC85022E059424
:10481000820F901DA01D8A879B87AC8747988D8546
:10482000982F977009F582958F7091E1899F802D5F
:1048300011248D8781E089838FEF8A831B822F9AD1
:104840008A81813011F42D9801C02D9A8B8181309D
:1048500011F4469A01C0469882E088838FEF9FEF5B
:10486000909389008093880081E0C9C080FF04C0D4
:10487000789B02C08E7F8587858581FF04C0799BE8
:1048800002C08D7F85878585982F9B7F958780FFC8
:104890000EC02E9A29818C819D81AE81022E0594B5
:1048A000820F901DA01D8C839D83AE832E988D85D5
:1048B00081FF0EC02C9A2A818F819885A985022EAE
:1048C0000594820F901DA01D8F839887A9872C982F
:1048D0008D8582FF0EC0479A2B818A859B85AC858A
:1048E000022E0594820F901DA01D8A879B87AC879E
:1048F0004798FE012D85822F877009F0B5CF22954C
:104900002F702D8720FF25C08C819D81AE817C0179
:104910000A2F112707FD1095E0926C07F0926D07A2
:1049200000936E0710936F078F89988DA98D8C83E4
:104930009D83AE83BB27A7FDB0958E199F09A00B61
:10494000B10B8093780790937907A0937A07B0937F
:104950007B0721FF25C087819085A1857C010A2FD7
:10496000112707FD1095E0927007F09271070093F0
:10497000720710937307828D938DA48D8783908720
:10498000A187BB27A7FDB0958E199F09A00BB10B7E
:1049900080937C0790937D07A0937E07B0937F0759
:1049A00022FF25C082859385A4858C012A2F332779
:1049B00027FD3095009374071093750720937607B1
:1049C00030937707858D968DA78D82879387A487EF
:1049D000BB27A7FDB095801B910BA20BB30B809357
:1049E000800790938107A0938207B093830710827A
:1049F0008FEF9FEF909389008093880080E0DF9194
:104A0000CF911F910F91FF90EF9008951F920F92F9
:104A10000FB60F921124CF92DF92EF92FF920F9375
:104A20001F932F933F934F935F936F937F938F9336
:104A30009F93AF93BF93CF93DF93EF93FF93009137
:104A40000A0410910B04E80180915B012DB73EB779
:104A500080910001909101012817390730F48DB73A
:104A60009EB79093010180930001D801D9968C9153
:104A7000982F92959695977086958695877098173A
:104A800021F190FF05C081FF03C080E00E94510C1E
:104A9000F80181AD86FF07C082FF05C060E070E0CD
:104AA000CB010E94650BD801D9968C918C7111F4C1
:104AB0000E94510CF80181AD982F9695969592958C
:104AC000990F907E8F71892B81AFD8011D968C91A3
:104AD0001D9783FF12C1D2962D913D914C91D49791
:104AE0009096CD90DD90EC9092979F968D919D91B0
:104AF000AC915527820F931FA41F20F453958C1956
:104B00009D09AE09F80187A790ABA1AB552309F425
:104B1000F4C08E0129AD822F869586958770982FD7
:104B2000947009F4BFC08AAD282F26952695269546
:104B30002F7030E0877090E082179307ACF10E94ED
:104B4000ED0ACAAC2BAD3CAD882389F08C2D86953F
:104B5000869586958F70690102C0CC0CDD1C8A9504
:104B6000E2F70E94170BC82ADCAECBAE0FC08C2D2B
:104B70008695869586958F7002C0220F331F8A9581
:104B8000E2F7D801DC963C932E93DB97F80192ADC7
:104B9000892F869586958695885F8F70880F880FF8
:104BA000880F9778982B92AF8E016AAD762F777029
:104BB000472F50E06695669566956F709A012F5F56
:104BC0003F4F862F90E0089797FF02C080E090E06B
:104BD000D901A81BB90BF80123AD34AD0A2E02C0D0
:104BE000220F331F0A94E2F78FEF860F871B8F7017
:104BF000880F880F880F92AD9778982B92AFE32E8D
:104C0000B901772774AF63AF42305105B9F044F46E
:104C10004115510561F04130510509F585E51CC08C
:104C200043305105C1F04530510561F018C081E0B5
:104C3000311101C080E0E82EE19411C089E0839F2A
:104C4000E02C1124F4E0EF9E90011124E2945FE047
:104C5000E522E22A04C081E1839FE02C1124D801DF
:104C6000D9968C9182FF03C08E2D0E94510CF801C1
:104C700081AD83FF42C0EE2009F43FC08FEF0E9458
:104C8000510CD801D5962D913D914C9150E0AE2D0F
:104C9000B0E00E945933672F782F892F99270E94FF
:104CA000650B2BC081FF13C0F80180AD922F93706C
:104CB00095958795959587950E94510CF80185A942
:104CC00096A9A7A9BC018A2F90E00E94650BD80184
:104CD000D9962C91D99722FF0AC0D8968C91922F01
:104CE000937095958795959587950E94510CF8013D
:104CF00081AD8C7111F40E94510C8E01888183303A
:104D000071F020F4813078F037DD0BC0843029F069
:104D10008051803140F450D804C07DDC02C00E9434
:104D2000D31D8111FEC2D8011C92D9968C91D997BE
:104D3000837ED9968C930E949F1D8111F2C2E091CF
:104D40005B01BBE1EB9FF0011124E45FFB4F80812D
:104D5000D8019C91981731F0DA969C91DA97977860
:104D6000DA969C93D801D9966C91D997562F56957F
:104D700056955770952F9295990F907E6F71692B6C
:104D8000D9966C93D9978C93833009F4A0C060F4C2
:104D9000607E813009F430C208F46EC28285D80189
:104DA0001D968C931D973CC2843009F433C1805109
:104DB000803108F07CC2218132814381D8019096F4
:104DC0002D933D934C93929793962D933D934C93B3
:104DD0009597C480D580E6801E96CD92DD92EC92A8
:104DE0005097CC0CDD1CEE1C5796CD92DD92EC92C8
:104DF0005997C780D084E1845196CD92DD92EC9290
:104E00005397CC0CDD1CEE1C5A96CD92DD92EC92A1
:104E10005C97C284D384E484F5849696CD92DD9227
:104E2000ED92FC929997C684D784E0889A96CD92A9
:104E3000DD92EC929C97818992899E969C938E93A9
:104E40009D97828D8C7171F4F80117A610AA11AA92
:104E5000D2961D921D921C9215AA16AA17AA10AEE0
:104E6000607E08C2D8011D968C911D9788601D96A2
:104E70008C93557049F44695379527954095309514
:104E800021953F4F4F4F03C02FEF3FEF4FEFD8011A
:104E90009F962D933D934C93D197238934894589CF
:104EA000D2962D933D934C93D49726893789408D84
:104EB000D5962D933D934C93D797818D928D93707A
:104EC000D8968C93D897D9968C91D9977DC1D801D3
:104ED0001D961C921D9721813281438157962D93F7
:104EE0003D934C935997232B242B19F081E01D9669
:104EF0008C93248135814681D8015A962D933D9318
:104F00004C935C97232B242B31F01D968C911D978D
:104F100082601D968C93278130854185D8015D96EE
:104F20002D933D934C935F97232B242B31F01D96AB
:104F30008C911D9784601D968C93218132814381D1
:104F400084819581A68182179307A40710F4A42F6A
:104F5000C9012781308541856C01EA2E82179307AC
:104F6000A40710F46901E42ED8019096CD92DD9249
:104F7000EC9292979396CD92DD92EC92AE2DC60173
:104F8000A69597958795222733274427281B390B09
:104F90004A0BD8011E962D933D934C9350975196F2
:104FA0002D933D934C93539754962D933D934C934F
:104FB000828580FF02C08FEF01C081E0D801119689
:104FC0008C93828581FF02C08FEF01C081E0D80100
:104FD00012968C93828582FF02C08FEF01C081E020
:104FE000D80113968C931397818992899E969C93EE
:104FF0008E939D97F80117A610AA11AAD2961D921A
:105000001D921C9215AA16AA17AA10AE81AD807E19
:1050100081AF4DC1D8011D961C921D97218132810F
:10502000438157962D933D934C935997232B242BD3
:1050300019F081E01D968C93248135814681D80139
:105040005A962D933D934C935C97232B242B31F050
:105050001D968C911D9782601D968C9327813085BB
:105060004185D8015D962D933D934C935F97232BFB
:10507000242B31F01D968C911D9784601D968C9386
:1050800021813281438184819581A6818217930792
:10509000A40710F4A42FC9012781308541856C0134
:1050A000EA2E82179307A40710F46901E42ED801B1
:1050B0009096CD92DD92EC9292979396CD92DD925E
:1050C000EC92AE2DC601A69597958795CC24DD244C
:1050D000EE24C81AD90AEA0AD8011E96CD92DD92AA
:1050E000EC9250975196CD92DD92EC925397549654
:1050F000CD92DD92EC92228520FF02C02FEF01C0FD
:1051000021E0D80111962C93228521FF02C02FEFB8
:1051100001C021E0D80112962C93228522FF02C003
:105120002FEF01C021E0D80113962C93139721890A
:1051300032899E963C932E939D97228D2C71D99601
:105140003C91D99721110FC0F80117A610AA11AAF6
:10515000D2961D921D921C9215AA16AA17AA10AEDD
:10516000307E31AFA4C0D8011D962C911D972860C8
:105170001D962C93557021F44C2D2D2D8E2D03C092
:105180004FEF2FEF8FEFD8019F964C939F97D096BC
:105190002C93D097D1968C93D197C388D488E588E7
:1051A000D296CD92DD92EC92D497C688D788E08CC7
:1051B000D596CD92DD92EC92D797818D928D93709A
:1051C000D8968C93D897832F8C7F892BD9968C93E4
:1051D000D997928D9C71837E892BD9968C93D99780
:1051E000928D929596959770DA968C91DA97887F42
:1051F000892BDA968C935BC0228591E1299F902DB3
:1052000011249777D8011D969C931D979FEF1196B7
:105210009C93119712968C93129713961C92139746
:1052200021813281438157962D933D934C93599719
:105230002481358146815A962D933D934C935C97FA
:105240002781308541855D962D933D934C935F97E3
:10525000818992899E969C938E939D97F80117A6BB
:1052600010AA11AAD2961D921D921C9215AA16AAD6
:1052700017AA10AE61AF1BC0D8019F961D921D9258
:105280001C92D197F80112AA13AA14AAD5961D92BE
:105290001D921C92D797D8961C92D897D9966C934A
:1052A000D9978FEF9FEF9E969C938E939D970E9428
:1052B000C51DF8018181813011F42F9A01C02F980A
:1052C0008A81813011F42D9801C02D9A8B81813013
:1052D00011F4469A01C046988E0129AD23FF0CC0F7
:1052E00088A199A1AAA1A69597958795A095909533
:1052F00081959F4FAF4F03C08FEF9FEFAFEFF80146
:1053000087A790ABA1AB2C7119F480E00E94510CDF
:10531000D8019D968D919C919E9790938900809342
:105320008800FF91EF91DF91CF91BF91AF919F9155
:105330008F917F916F915F914F913F912F911F912D
:105340000F91FF90EF90DF90CF900F900FBE0F90D6
:105350001F9018950E949F1D811104C083E50E9433
:105360001A11F8CF80918407882321F083E70E94E7
:105370001A11F8CF0C94E00AEF92FF920F931F934B
:105380002FB7F89490E0FC01EE0FFF1FE80FF91F14
:10539000EC57F84F84819581A6817C010A2F112753
:1053A00007FD1095C801B7012FBF1F910F91FF9006
:1053B000EF9008950E949A1D269A2E98279A2F986A
:1053C00080988898249A2C98259A2D9A8198899863
:1053D0003F9A47983E9A469884E897E090930B044A
:1053E00080930A041092800089E0809381008FEFFF
:1053F0009FEF90938900809388001092850010920F
:105400008400EFE6F0E080818260808308950E944E
:10541000C6112FEF8FEC97E0215080409040E1F7CC
:1054200000C0000083E00E94B3112FEF8CEC90E0ED
:10543000215080409040E1F700C0000083E00E94CE
:10544000B3118FE396E00197F1F700C0000082E30B
:105450000E94D11188E20E94D1118CE00E94D111EA
:1054600081E00E94D1118FE393E80197F1F700C02A
:10547000000086E00C94D111823031F0833031F09D
:10548000813039F480E403C084E101C084E5860FF3
:1054900001C0862F80680C94D1118CE1E1ECF7E01B
:1054A000DF011D928A95E9F708952F923F924F925E
:1054B0005F926F927F928F929F92AF92BF92CF92A4
:1054C000DF92EF92FF920F931F93CF93DF93CDB7AD
:1054D000DEB76C970FB6F894DEBF0FBECDBF6B0181
:1054E0007C018091C4079091C507A091C6072091C7
:1054F000CD073091CE074091CF07821B930BA40BB1
:10550000BC018A2F0E94211A9B01AC018091C10726
:105510009091C207A091C3076090CA077090CB0713
:105520008090CC0786199709A809BC018A2F298B7E
:105530003A8B4B8B5C8B0E94F01929893A894B89F5
:105540005C890E94A10A30915C010BE1309F5001FF
:1055500011249501245F3B4F3E8B2D8BA7019601B3
:105560002F5F3F4F4F4F5F4F2D873E874F87588BA1
:105570002090CA073090CB074090CC07A090C1077D
:10558000B090C207C090C30791012A193B0937FFA9
:1055900003C0319521953109442737FD4095AD89E8
:1055A000BE8911962D933D934C93E090CD07F090DA
:1055B000CE070091CF07EC82FD820E83E090C407F6
:1055C000F090C5070091C607EF82F88609876C80C6
:1055D0007D806E187F0877FE03C071946194710816
:1055E000882477FC8094AD89BE8914966D927D9253
:1055F0008C92E090D007F090D1070091D207EF8A0B
:10560000F88E098FE090C707F090C8070091C9078E
:10561000EA86FB860C87EF89F88DEE19FF09F7FF04
:1056200003C0F195E195F1097F010027F7FC009592
:10563000AD89BE891796ED92FD920C9351E02A1424
:105640003B044C040CF050E0AF80B884C984EC807B
:10565000FD800E81EA14FB040C0514F4E2E001C0A5
:10566000E0E0E52BAA84BB84CC84EF88F88C098D1C
:10567000EA14FB040C0514F454E001C050E05E2B66
:10568000AD89BE891A965C93A82C430182169306B5
:10569000A40610F44901A42E20E034E244EF50E0C7
:1056A0000E94ED3319012A013B0189839C834A2D15
:1056B000940150E06D857E858F8598890E94E03346
:1056C00059016A017B018C019101A201B301898119
:1056D0009C810E94D533ED89FE89218B328B83E03A
:1056E0008083828D837E828F0E94B71D8091CA073E
:1056F0009091CB07A091CC078093C1079093C207EC
:10570000A093C3078091CD079091CE07A091CF07BA
:105710008093C4079093C507A093C6078091D007D4
:105720009091D107A091D2078093C7079093C807A3
:10573000A093C9076C960FB6F894DEBF0FBECDBF1D
:10574000DF91CF911F910F91FF90EF90DF90CF905D
:10575000BF90AF909F908F907F906F905F904F9091
:105760003F902F9008952F923F924F925F926F92A9
:105770007F928F929F92AF92BF92CF92DF92EF92E1
:10578000FF920F931F93CF93DF93CDB7DEB766974A
:105790000FB6F894DEBF0FBECDBF6B877C878D87B9
:1057A0009E878091C4079091C507A091C60720915C
:1057B000CD073091CE074091CF07821B930BA40BEE
:1057C000BC018A2F0E94211A9B01AC018091C10764
:1057D0009091C207A091C3076090CA077090CB0751
:1057E0008090CC0786199709A809BC018A2F2F87BA
:1057F000388B498B5A8B0E94F0192F85388949893B
:105800005A890E94A10A6F83788789879A87809135
:105810005C010BE1809F100111249101245F3B4F3B
:1058200019018091CA079091CB07A091CC078B8B6F
:105830009C8BAD8B8090C1079090C207A090C3074E
:105840008B899C898819990997FF03C09195819547
:105850009109AA2797FDA095F10181839283A383E3
:105860000091CD071091CE072091CF0709831A83AD
:105870002B832091C4073091C5074091C6072C8324
:105880003D834E83A801421B530B57FF03C0519524
:1058900041955109662757FD6095F1014483558371
:1058A0006683C090D007D090D107E090D207409097
:1058B000C7075090C8076090C90796012419350999
:1058C00037FF03C03195219531098901222717FD42
:1058D0002095F10107831087218771E00B891C89CE
:1058E0002D89081519052A050CF070E08C809D8023
:1058F000AE8009811A812B81081519052A0514F437
:1059000032E001C030E0372BC414D504E60414F4AF
:1059100024E001C020E0232BF10122874A01A62EBA
:10592000481759076A0710F44C01AA2E6F81788531
:1059300089859A8520E034E244EF50E04ED7290172
:105940003A016E8B7B8B89839C834A2D940150E0B6
:105950006B857C858D859E8533D759016A017B01D6
:105960008C019201A3016E897B8989819C811DD75D
:10597000F101218B328B84E0808380917B019091B7
:105980007C01A0917D01B0917E010097A105B10538
:10599000A9F480916D0190916E01A0916F01BC01FD
:1059A0008A2F90E02F81388549855A858CD620E44E
:1059B00032E44FE050E096D6A42FC901F101838B69
:1059C000948BA58B8091700190917101A0917201CF
:1059D000868B978BA08F9091780180917901918F20
:1059E000828F0E94B71D8091CA079091CB07A0912A
:1059F000CC078093C1079093C207A093C3078091FF
:105A0000CD079091CE07A091CF078093C4079093C4
:105A1000C507A093C6078091D0079091D107A091A8
:105A2000D2078093C7079093C807A093C9076696CB
:105A30000FB6F894DEBF0FBECDBFDF91CF911F919F
:105A40000F91FF90EF90DF90CF90BF90AF909F901D
:105A50008F907F906F905F904F903F902F90089520
:105A60002F923F924F925F926F927F928F929F926E
:105A7000AF92BF92CF92DF92EF92FF920F931F935C
:105A8000CF93DF93CDB7DEB763970FB6F894DEBF41
:105A90000FBECDBF6B877C878D879E87542ED0909D
:105AA0005C018091D3079091D407A091D5076090B5
:105AB000C1077090C2078090C307681A790A8A0AE2
:105AC000E090CA07F090CB070091CC07E81AF90ADA
:105AD0000A0BEC82FD820E838091D6079091D70746
