:10000000E5C2000000C30000FEC20000FCC2000008
:10001000FAC20000F8C20000F6C20000F4C20000FC
:10002000F2C20000F0C200000C94F9320C94673464
:10003000EAC20000E8C20000E6C20000E4C200001C
:10004000E2C200000C94D514DEC20000DCC2000045
:10005000DAC200000C943A26D6C20000D4C20000D6
:10006000D2C200000C94802A0C941F2ACCC200003B
:10007000CAC20000C8C20000C6C20000C4C200005C
:100080000C945F0CC0C20000BEC20000BCC20000E5
:10009000BAC20000B8C20000B6C20000B4C200007C
:1000A000B2C20000B0C20000AEC20000E203FE0314
:1000B0001D0448046C048B04A404C804E104000576
:1000C0001D0536055A0572059105B405750EA60E77
:1000D000D40E100F420F750F9F0FD50FFF0F2D106D
:1000E0005E108810BE10E8101B114D11C51A131BAD
:1000F0004E1B6A1BC91B101C231C451C6B1C4E1D70
:10010000C91C861C4C1DC91CB31CB01CAD1C46333D
:1001100030300A4732380A004552524F523A204E88
:10012000756D626572206F766572666C6F772109F6
:10013000004552524F523A20556E6B6E6F776E20CB
:100140006F7220756E646566696E656420537461B4
:10015000746509004552524F523A20455850454364
:10016000545F4241534536345F343A20546F6F2018
:100170006D616E7920426173653634204279746511
:100180007320284275666665722066756C6C290955
:10019000004552524F523A204558504543545F4211
:1001A00041534536345F343A204578706563746551
:1001B0006420612042415345363420636861726196
:1001C0006374657209004552524F523A20455850A7
:1001D0004543545F4241534536345F333A20546FB0
:1001E0006F206D616E7920426173653634204279EB
:1001F00074657320284275666665722066756C6C3E
:100200002909004552524F523A204558504543540F
:100210005F4241534536345F333A20457870656319
:10022000746564206120424153453634206368611F
:1002300072616374657209004552524F523A20450B
:1002400058504543545F4241534536345F323A205B
:10025000546F6F206D616E79204261736536342072
:1002600042797465732028427566666572206675EA
:100270006C6C2909004552524F523A20455850455E
:1002800043545F4241534536345F323A20457870DB
:1002900065637465642061204241534536342063B0
:1002A000686172616374657209004552524F523A37
:1002B000204558504543545F4241534536345F31E1
:1002C0003A2045787065637465642061204241532B
:1002D0004536342063686172616374657209004554
:1002E00052524F523A204558504543545F5355425D
:1002F0004449474954533A204578706563746564AE
:10030000205B302D395C775D09004552524F523ADF
:10031000204558504543545F414E4F544845524440
:10032000494749543A204578706563746564205B99
:10033000302D392E5C775D09004552524F523A20DC
:100340004558504543545F414E4F544845524449E7
:100350004749543A20546F6F206D616E79206C6567
:100360006164696E67206469676974732109004577
:1003700052524F523A2046495253545F44494749DA
:10038000543A204578706563746564205B302D397C
:100390005C775D09004552524F523A20455850450E
:1003A00043545F4E554D4245525F4F525F5349474C
:1003B0004E3A2066696C656E616D6520616C726590
:1003C000616479207365743A20756E657870656331
:1003D0007465642063686172616374657220666F1E
:1003E000756E6409004552524F523A2045585045A7
:1003F00043545F4C45545445523A20756E657870AD
:1004000065637465642063686172616374657220FA
:10041000616E642066696C656E616D6520616C72E9
:100420006561647920736574210900464F524D411E
:1004300054204552524F520A00726573656E642112
:100440000A004F4B2025640A003A3A2056302E34D9
:100450002D312D67326237626664652028757064BD
:10046000617465206D61696E2E68657829203A3A5D
:10047000200053503A257800256420256420256407
:1004800020006C61736572204F4646004C41534515
:1004900052204F4E202564005A3A256E20202020FD
:1004A000202020202020202000593A256E202020C6
:1004B00020202020202020202000583A256E2020B7
:1004C000202020202020202020200025632051757E
:1004D0006575653A256420256E2000554152545FAC
:1004E00052585F46554C4C00303132333435363734
:1004F000383941424344454600010000AF0512002F
:100500000200006C054300030000680504010309B4
:1005100004560510020309042C05280303090422CC
:1005200005080803310033003700000028034600A7
:1005300072006500650043004E00430020004C003F
:100540006100730065007200630075007400740040
:10055000650072000000100365002D00500075005A
:100560006E006B00740000000403090409024300DC
:10057000020100C03209040000010202010005244A
:1005800000100105240101010424020605240600CF
:10059000010705820310004009040100020A00005F
:1005A0000007050302400000070584024000001216
:1005B00001000202000010C0167A040001010203CB
:1005C000010001C1120180360181360011241FBED5
:1005D000CFEFDAE0DEBFCDBF11E0A0E0B1E0EEE3A7
:1005E000FDE602C005900D92A431B107D9F728E0CD
:1005F000A4E1B1E001C01D92A636B207E1F70E9466
:100600000F1E0C949534FCCCEF92FF920F931F9326
:10061000002309F442C0161617061806190654F4EA
:1006200057FD2AC026173707480759070CF472C030
:1006300081E18FC012161306140615068CF47B0197
:100640008C0188279927DC018E199F09A00BB10B1B
:1006500082179307A407B5070CF45EC083E179C045
:10066000611571058105910509F060C021153105FD
:100670004105510509F463C07B018C018827992746
:10068000DC018E199F09A00BB10B281739074A0707
:100690005B070CF443C087E15CC01616170618060A
:1006A00019064CF457FD26C0261737074807590787
:1006B000BCF189E14EC0121613061406150684F427
:1006C0007B018C0188279927DC018E199F09A00BDB
:1006D000B10B82179307A407B50724F18BE139C04A
:1006E000611571058105910561F5211531054105FA
:1006F000510529F17B018C0188279927DC018E198E
:100700009F09A00BB10B281739074A075B0764F054
:100710008FE11FC080E11DC082E11BC086E119C0CE
:1007200088E117C08AE115C08EE113C06217730714
:100730008407950714F085E10CC084E10AC08FEFAF
:1007400008C0621773078407950714F08DE101C094
:100750008CE11F910F91FF90EF9008954F925F925F
:100760006F927F928F929F92AF92BF92CF92DF92C1
:10077000EF92FF920F931F93E0912C018E2F90E048
:10078000FC017097009131011091320120913301E9
:100790003091340140912D0150912E0160912F0133
:1007A00070913001E031F10508F00AC2EA5AFF4FBA
:1007B000C0902801D0902901E0902A01F0902B01EF
:1007C0000C94E4348090200190902101A0902201AB
:1007D000B0902301801A910AA20AB30A81E08C1416
:1007E0009D04AE04BF040CF480E0886040175107FC
:1007F000620773070CF4E5C191E1DFC18091240128
:1008000090912501A0912601B09127014A015B0139
:10081000881A990AAA0ABB0A8C149D04AE04BF0464
:1008200014F488E001C080E0816010161106120601
:1008300013060CF4C6C192E1C0C1809124019091CD
:100840002501A0912601B0912701840F951FA61FB5
:10085000B71FB095A095909581959F4FAF4FBF4F13
:100860008C159D05AE05BF0514F084E001C080E045
:100870008160CC24DD247601C41AD50AE60AF70A81
:10088000C016D106E206F3060CF49BC193E195C1B4
:100890008090200190902101A0902201B09023012E
:1008A000800E911EA21EB31EB094A09490948094CA
:1008B000811C911CA11CB11C81E08C149D04AE0410
:1008C000BF040CF080E084601416150616061706A7
:1008D0000CF477C194E171C18091200190912101C4
:1008E000A0912201B091230148015901881A990A67
:1008F000AA0ABB0A8C149D04AE04BF0414F082E063
:1009000001C080E0846004171507260737070CF440
:1009100058C195E152C18091240190912501A09187
:100920002601B0912701841B950BA60BB70B8C15E4
:100930009D05AE05BF0514F484E001C080E082602F
:1009400037FD3FC196E139C1809124019091250185
:10095000A0912601B0912701840F951FA61FB71FF4
:100960008C159D05AE05BF0514F088E001C080E040
:100970008260CC24DD247601C41AD50AE60AF70A7F
:100980000C151D052E053F050CF41BC197E115C183
:100990008091200190912101A0912201B091230129
:1009A000800F911FA21FB31F8C159D05AE05BF05BB
:1009B00014F482E001C080E0886077FD02C190E11C
:1009C000FCC08091200190912101A0912201B09161
:1009D000230148015901881A990AAA0ABB0A8C14F2
:1009E0009D04AE04BF0414F482E001C080E0846082
:1009F00014161506160617060CF4E3C09FE1DDC0B9
:100A00008091240190912501A0912601B0912701A8
:100A1000841B950BA60BB70B8C159D05AE05BF056A
:100A200014F084E001C080E0826040175107620743
:100A300073070CF0C6C098E1C0C08091240190916A
:100A40002501A0912601B0912701840F951FA61FB3
:100A5000B71F8C159D05AE05BF0514F488E001C0D5
:100A600080E0826037FDADC099E1A7C08091200190
:100A700090912101A0912201B0912301800F911F3B
:100A8000A21FB31F8C159D05AE05BF0514F082E0B3
:100A900001C080E08860CC24DD247601C41AD50A28
:100AA000E60AF70AC016D106E206F3060CF089C082
:100AB0009AE183C08090200190902101A0902201B2
:100AC000B0902301801A910AA20AB30A81E08C1423
:100AD0009D04AE04BF040CF080E0886077FD71C017
:100AE0009BE16BC08091240190912501A09126018A
:100AF000B09127014A015B01881A990AAA0ABB0A28
:100B00008C149D04AE04BF0414F088E001C080E0A2
:100B1000816004171507260737070CF052C09CE1C7
:100B20004CC08091240190912501A0912601B091A3
:100B30002701840F951FA61FB71FB095A09590950C
:100B400081959F4FAF4FBF4F8C159D05AE05BF05DB
:100B500014F484E001C080E08160101611061206D2
:100B600013067CF19DE129C0809020019090210125
:100B7000A0902201B0902301800E911EA21EB31EF0
:100B8000B094A09490948094811C911CA11CB11CE1
:100B900081E08C149D04AE04BF040CF480E08460FA
:100BA000CC24DD247601C41AD50AE60AF70A0C150E
:100BB0001D052E053F052CF49EE190932C0101C0EC
:100BC00080E080FF3CC0C0902401D0902501E090DF
:100BD0002601F09027014601570191E0891A9108FA
:100BE000A108B108409028015090290160902A0185
:100BF00070902B01840C951CA61CB71C80922801B8
:100C000090922901A0922A01B0922B0192E0C91A78
:100C1000D108E108F108C0922401D0922501E092A8
:100C20002601F09227010150110921093109009391
:100C3000310110933201209333013093340181FF4D
:100C400043C0009131011091320120913301309164
:100C500034010F5F1F4F2F4F3F4F0093310110930F
:100C6000320120933301309334010091240110911B
:100C7000250120912601309127016801790192E038
:100C8000C90ED11CE11CF11CC0922401D092250197
:100C9000E0922601F092270100951095209530955D
:100CA000C0902801D0902901E0902A01F0902B01FA
:100CB0000C0D1D1D2E1D3F1D0093280110932901B1
:100CC00020932A0130932B0182FF3BC00091200129
:100CD00010912101209122013091230168017901B5
:100CE00091E0C91AD108E108F1088090280190909C
:100CF0002901A0902A01B0902B01C80CD91CEA1C34
:100D0000FB1CC0922801D0922901E0922A01F092A6
:100D10002B01025011092109310900932001109380
:100D2000210120932201309323014150510961098F
:100D3000710940932D0150932E0160932F01709300
:100D4000300183FF41C080912D0190912E01A0912F
:100D50002F01B09130010196A11DB11D80932D018D
:100D600090932E01A0932F01B09330018091200128
:100D700090912101A0912201B0912301AC01BD010C
:100D80004E5F5F4F6F4F7F4F409320015093210183
:100D9000609322017093230180959095A095B09562
:100DA000409128015091290160912A0170912B01F5
:100DB000840F951FA61FB71F8093280190932901C8
:100DC000A0932A01B0932B0140913101509132013F
:100DD000609133017091340180912D0190912E0129
:100DE000A0912F01B0913001FA0157FF04C0EE2706
:100DF000FF27E41BF50B9C0197FF04C02227332734
:100E0000281B390B2E173F07E4F5009118011091AC
:100E1000190120911A0130911B01081719072A079F
:100E20003B0709F067C080911C0190911D01A091C2
:100E30001E01B0911F0184179507A607B70709F493
:100E400074C077FD0DC0B7FD55C0F1E0E0E01416A9
:100E50001506160617060CF0F0E02F2F3E2F04C0E3
:100E6000B7FD65C02FEF3FEF41E050E018161906BF
:100E70001A061B0614F040E050E024173507D1F5A0
:100E800056C000911C0110911D0120911E0130914E
:100E90001F01041715072607370761F54091180150
:100EA0005091190160911A0170911B01481759075F
:100EB0006A077B07D1F1B7FD0DC077FD1BC031E09C
:100EC00020E0181619061A061B060CF030E0832FD6
:100ED000922F04C077FD2BC08FEF9FEF21E030E011
:100EE000141615061606170614F020E030E08217D7
:100EF0009307E9F04091140150911501609116019A
:100F00007091170141505109610971094093140111
:100F100050931501609316017093170181E0452BE2
:100F2000462B472B29F080E003C083E001C082E01C
:100F30001F910F91FF90EF90DF90CF90BF90AF90F7
:100F40009F908F907F906F905F904F9008954F92F9
:100F50005F926F927F928F929F92AF92BF92CF9249
:100F6000DF92EF92FF920F93CF93DF9300D000D0E8
:100F7000CDB7DEB769837A838B839C83A02FC701AB
:100F80000C2D6C01EA2E0E2C000CFF0846015701B7
:100F9000A42FC9010A2E000CBB0B2C013D01A70197
:100FA0009601BC01CD0130DB80932C0140923101D0
:100FB000509232016092330170923401C0922D013F
:100FC000D0922E01E0922F01F0923001440C551C7A
:100FD000661C771C409224015092250160922601E4
:100FE00070922701880C991CAA1CBB1C80922001BE
:100FF00090922101A0922201B0922301A6E0B0E0DC
:1010000029813A814B815C810E94EA34609314010A
:101010007093150180931601909317010F900F9014
:101020000F900F90DF91CF910F91FF90EF90DF9095
:10103000CF90BF90AF909F908F907F906F905F9078
:101040004F9008952F923F924F925F926F928F929E
:101050009F92AF92BF92CF92DF92EF92FF920F9347
:101060001F93CF93DF93CDB7DEB769970FB6F89490
:10107000DEBF0FBECDBF688B798B8A8B9B8B2D8398
:101080003E834F832701602EAC8ABD8ACE8A2DA570
:101090003EA54FA52F8B388F498F18A9AC2DC501C0
:1010A0000A2E000CBB0B89839A83AB83BC8380938D
:1010B0001C0190931D01A0931E01B0931F01042EEB
:1010C000000C550B49015A01209318013093190166
:1010D00040931A0150931B01C12E2D813E814F81F7
:1010E000688979898A899B8932DF8D819E81AF8168
:1010F0000A2E000CBB0B88879987AA87BB87462DD1
:101100009201042E000C550B2C873D874E875F877C
:10111000A5019401C501B4010E9497344B015C0103
:101120002C853D854E855F85CA01B9010E949734A3
:101130006B017C01288539854A855B85CA01B90127
:101140000E949734C60ED71EE81EF91E8C189D0803
:10115000AE08BF0829813A814B815C81CA01B9017F
:101160000E949734860E971EA81EB91E80922801F1
:1011700090922901A0922A01B0922B01EFDA8823E4
:10118000E9F38091CF079091D007A091D1072C89E6
:101190003D894E89820F931FA41F8093BD079093B2
:1011A000BE07A093BF078091D2079091D307A0916B
:1011B000D4072F89388D498D820F931FA41F8093E8
:1011C000C0079093C107A093C20720903801422D19
:1011D00050E05A8349835BE1259EC0011124DC0164
:1011E000A354BE4F1D018091140190911501A0914F
:1011F0001601A095909581959F4FAF4FF101818386
:101200009283A383C12E062D72012D813E814F81D1
:10121000688979898A899B899ADE809228019092CF
:101220002901A0922A01B0922B01D1011196CD90F3
:10123000DD90EC90BFEFCB1ADB0AEB0A2091140192
:101240003091150140911601C20ED31EE41EF1012A
:10125000C182D282E3822D813E814F8124833583F6
:10126000468347825086618682869386A486B586A9
:10127000288939894A8926873787408B012F2C8511
:101280003D854E855F85688579858A859B85BCD936
:10129000F10180834091770150917801609179014B
:1012A00070917A01411551056105710521F0242FD6
:1012B000952F862F1DC08091690190916A01A091A0
:1012C0006B01BC018A2F90E04E2D960150E00E94E8
:1012D0005235EBE9AE2EF6E1BF2ECC24C394D12CCF
:1012E000E12CF12C00E010E00E94A635932F842F12
:1012F0003BE149815A81349FF001359FF00D112463
:10130000DF01A354BE4F53962C93539754969C934E
:10131000549755968C93559720916C0130916D019F
:1013200040916E0156962D933D934C93EA52FE4F99
:1013300090917401809175019083818369960FB6B5
:10134000F894DEBF0FBECDBFDF91CF911F910F91FB
:10135000FF90EF90DF90CF90BF90AF909F908F90D5
:101360006F905F904F903F902F906BC32F923F9262
:101370004F925F926F927F928F929F92AF92BF92A5
:10138000CF92DF92EF92FF920F931F93CF93DF9351
:10139000CDB7DEB766970FB6F894DEBF0FBECDBFF0
:1013A0002C833D834E835F83688779878A879B87F9
:1013B000912C1E8A1B8A1C8AF0E0E0E0612C80E4FC
:1013C000782E292D3E894B895C896F2F7E2FC30192
:1013D000AC80BD80CE80DF80E884F9840A851B85DF
:1013E0000E94793699F090F0292D3E894B895C89CD
:1013F0006F2F7E2FC30102E00E944B36922E3E8B50
:101400004B8B5C8BF62FE72F3C01DBCF812C512CD3
:10141000212C312CB0E01A821B82412C292D3E89CF
:101420004B895C896F2F7E2FC301A0E00E9482361A
:1014300009F46CC0292D3E894B895C896F2F7E2F62
:10144000C301A82CB52C6101EB2EFA800B81142D61
:101450000E9467362D8BA32F4D875E876F87788B11
:10146000898B9A8B2C813D814E815F81688579853E
:101470008A859B85AD88BA2ECD84DE84EF84F8887A
:1014800009891A890E947936F0F00E9470362C83FF
:101490003D834E835F83688779878A879B87282D62
:1014A000352DA1016B2F7A818B81942D01E00E9453
:1014B0004B36A92CBE88CB88DC88EF2EFE2E83010C
:1014C0000E9467360AC0282D352DA1016B2F7A8125
:1014D0008B81942D01E00E944B36822E532E1A01EF
:1014E000B62F7A838B83492E292D3E894B895C89BF
:1014F0006F2F7E2FC30102E00E944B36922E3E8B4F
:101500004B8B5C8BF62FE72F3C0188CF682D752D18
:10151000C10166960FB6F894DEBF0FBECDBFDF9156
:10152000CF911F910F91FF90EF90DF90CF90BF90E0
:10153000AF909F908F907F906F905F904F903F9073
:101540002F9008954F925F926F927F928F929F9209
:10155000AF92BF92CF92DF92EF92FF920F931F93C1
:10156000CF93DF934B015C0169017A01A5019401DE
:101570000E94453529013A01D62FC72F4C01C701DA
:10158000B601A70196010E94453559016A017B0108
:101590008C019201A3016D2F7C2FC4010E9467363C
:1015A000DF91CF911F910F91FF90EF90DF90CF903F
:1015B000BF90AF909F908F907F906F905F904F9073
:1015C000D5CE109235011092360108952091360142
:1015D0009091350181E0291380E00895F7DF91E0D3
:1015E000811190E0892F08952091360140913501B5
:1015F00030E02F5F3F4F2F73332750E081E02417F7
:10160000350709F080E00895EFDF882321F082E4B8
:101610000E94AB1DF9CF809136018F5F8F7380934D
:1016200036010895809135018F5F8F738093350166
:101630000895CF93DF931F92CDB7DEB7C7DF88231E
:1016400021F082E60E94AB1DF9CFE0913501F0E078
:10165000E558FE4F80818983E5DF89810F90DF9116
:10166000CF910895E0913601F0E0E558FE4F808378
:10167000CBCF82B7806182BFE1ECF0E0108282E0E4
:101680008093C00098E09093C2008093C30080E4F0
:101690008093C40083E08093BF008FEB8093D100E0
:1016A000109272001092BF001092BE0081E0808301
:1016B00008951092900088E0809391001092950018
:1016C00010929400E1E7F0E08081826080830895C9
:1016D0000F931F934FB7F89400915D0110915E0135
:1016E00020915F013091600110925D0110925E01C6
:1016F00010925F01109260014FBF409161015091C3
:101700006201040F151F211D311DAB01BC01400FEB
:10171000511F621F731F80E090E0DC01483E23E010
:1017200052076105710540F0485E53406109710937
:101730000196A11DB11DF2CF50936201409361014A
:101740002091630130916401820F931FA11DB11D8F
:101750004091650150916601609167017091680147
:101760008A019B010F5F1F4F2F4F3F4F8036EAEEDC
:101770009E07A105B10538F080569A4EA109B1091E
:10178000B901A801EDCF40936501509366016093C4
:1017900067017093680190936401809363011F91C6
:1017A0000F9108950F931F93CF93C82F0E94C41ECB
:1017B000CC2311F05E9A19C05E988091760188233F
:1017C000A1F0109276010E94FB2500916F0110910B
:1017D00070012091710130917201601B710B820BBD
:1017E000930BCF911F910F9173CFCF911F910F91B9
:1017F0000895CF93A82FCB01CFB7F89428E020937A
:10180000910010929500109294000097A10519F490
:101810002093910051C0811520E19207A10558F451
:1018200034E0880F991F3A95E1F7909399008093DF
:10183000980089E00CC0811520E89207A10550F4BA
:10184000880F991F90939900809398008AE0809365
:10185000910032C0009724E0A20760F4A695979506
:101860008795A69597958795909399008093980072
:101870008BE0EDCF009720E1A20760F424E0A6956D
:10188000979587952A95D9F790939900809398001A
:101890008CE0DDCF009720E4A20760F426E0A69557
:1018A000979587952A95D9F79093990080939800FA
:1018B0008DE0CDCF80E076DFCFBFCF9108951F922E
:1018C0000F920FB60F9211242F933F934F935F9374
:1018D0006F937F938F939F93AF93BF93EF93FF93F8
:1018E0005F9A85B1817F85B92B9A2DB73EB78091DC
:1018F0000001909101012817390730F48DB79EB788
:10190000909301018093000188E08093910080E032
:1019100049DF85B1817F85B95F98FF91EF91BF91D4
:10192000AF919F918F917F916F915F914F913F9177
:101930002F910F900FBE0F901F9018955E98569A9A
:1019400098DEB7DE0E94B51EE4ECF0E080818F7E69
:101950008083A4E7B1E084E68C9311968C91119773
:10196000EDE5F1E021E030E040E02487358746876F
:1019700028EE33E040E02787308B418B118E807E4C
:1019800011968C93128A138A148A158A128E138EDA
:10199000148E158E86E59AEE9783868380E002CFBB
:1019A000883048F48770880F880F90917501937E76
:1019B000892B809375010895883048F48295880FAB
:1019C000807E909175019F71892B80937501089598
:1019D0006093690170936A0180936B01089560932D
:1019E0006C0170936D0180936E010895893E23E030
:1019F000920748F4809374019370809175018C7FF5
:101A0000892B809375010895109237011092380147
:101A10000895209138019091370181E0291380E0E9
:101A20000895209138014091370130E02F5F3F4FFA
:101A30002F71332750E081E02417350709F080E04B
:101A40000895EFDF882321F082E40E94AB1DF9CFD7
:101A5000809138018F5F8F71809338010895809154
:101A600037018F5F8F71809337010895809138011E
:101A700090913701891B8F7108956F927F928F9299
:101A8000CF92DF92EF92CF93DF93E091BB01F09181
:101A9000BC01EF01858580FF2BC08181813011F46D
:101AA0002F9A01C02F982F89388D498DC8A0D9A0B1
:101AB000EAA08E859F85A8895527820F931FA41FB2
:101AC00020F453958C199D09AE098E879F87A88BAA
:101AD000552371F02E9A29818C819D81AE81022E31
:101AE0000594820F901DA01D8C839D83AE832E983C
:101AF0008D8581FF2BC08A81813011F42D9801C022
:101B00002D9A2A8D3B8D4C8DC8A0D9A0EAA0898939
:101B10009A89AB895527820F931FA41F20F45395F0
:101B20008C199D09AE09898B9A8BAB8B552371F06B
:101B30002C9A2A818F819885A985022E0594820F7F
:101B4000901DA01D8F839887A9872C988D8582FF73
:101B50002BC08B81813011F4469A01C046982D8D9F
:101B60003E8D4F8DC8A0D9A0EAA08C899D89AE89F1
:101B70005527820F931FA41F20F453958C199D099C
:101B8000AE098C8B9D8BAE8B552371F0479A2B81C0
:101B90008A859B85AC85022E0594820F901DA01D21
:101BA0008A879B87AC874798FE018D85877009F4EB
:101BB00061C06DA57EA5CB016034710580F021E088
:101BC0008038910520F02F5F96958795F9CF8F7318
:101BD000992740E4249F90011124822B932B63A02A
:101BE00074A085A0E82C630121E0C21AD108E108A5
:101BF00020A131A142A1261937094809C216D306EE
:101C0000E40610F44E2D96018217930718F0821BFC
:101C1000930B02C080E090E0AC01A6E0569547959A
:101C2000AA95E1F7242F442319F080642FEF240FA5
:101C30008F779927222341F097FD04C0880F991FC1
:101C40002150F8CF8FEF9FEF6817790708F4CB0189
:101C5000803D47E0940710F480ED97E09093890071
:101C600080938800C3A2D4A2E5A281E0CD28CE282B
:101C700009F480E0DF91CF91EF90DF90CF908F90CB
:101C80007F906F9008954F925F926F927F928F92A4
:101C90009F92AF92BF92CF92DF92EF92FF920F93FB
:101CA0001F93CF93DF93A091BB01B091BC01ED01D5
:101CB000EC914E2F50E0FA017097E031F10508F0F9
:101CC00028C3EA59FF4F1E96CD90DD90EC905097B7
:101CD00096968D909D90AD90BC90999751962D9130
:101CE0003D914C9153970C94E4345A964D905D90ED
:101CF0006C905C974C185D086E08062C000C7708F9
:101D0000481459046A047B045CF001E0C01AD1084D
:101D1000E1081E96CD92DD92EC92509781E001C0D1
:101D200080E02F5F3F4F4F4F51962D933D934C9343
:101D3000539788601E96CD90DD90EC9050972C15AF
:101D40003D054E050CF4E6C291E1E1C257966D9156
:101D50007D918C9159972901642E461A570A680A79
:101D6000062C000C7708481459046A047B0454F4C8
:101D70002F5F3F4F4F4F51962D933D934C93539769
:101D800088E001C080E011E0C11AD108E1081E9688
:101D9000CD92DD92EC92509781601C141D041E04BC
:101DA0000CF4B8C292E1B3C257964D905D906C901E
:101DB0005997420E531E641E609450944094411CE7
:101DC000511C611C062C000C7708481459046A0445
:101DD0007B0454F021503109410951962D933D93D4
:101DE0004C93539784E001C080E021E0C21AD108EF
:101DF000E1081E96CD92DD92EC925097816051964B
:101E00002D913D914C9153974095309521953F4FA1
:101E10004F4F2C153D054E050CF47CC293E177C263
:101E20005A964D905D906C905C974C0C5D1C6E1CAE
:101E3000609450944094411C511C611C062C000C71
:101E40007708481459046A047B045CF481E0C81ADA
:101E5000D108E1081E96CD92DD92EC92509781E078
:101E600001C080E021503109410951962D933D93E5
:101E70004C93539784601216130614060CF44AC24E
:101E800094E145C25A966D917D918C915C972601A3
:101E90006E2C461A570A680A062C000C770848145C
:101EA00059046A047B045CF09FEFC91AD90AE90A55
:101EB0001E96CD92DD92EC92509782E001C080E0B8
:101EC00021503109410951962D933D934C935397DD
:101ED00084601E96CD90DD90EC905097C216D3068C
:101EE000E4060CF417C295E112C257964D905D902E
:101EF0006C905997421A530A640A062C000C770812
:101F0000481459046A047B0454F4215031094109EE
:101F100051962D933D934C93539784E001C080E0FC
:101F2000EFEFCE1ADE0AEE0A1E96CD92DD92EC920B
:101F300050978260EE200CF4EDC196E1E8C157960F
:101F40004D905D906C905997420E531E641E062C66
:101F5000000C7708481459046A047B0454F02F5F7E
:101F60003F4F4F4F51962D933D934C93539788E09D
:101F700001C080E0FFEFCF1ADF0AEF0A1E96CD9274
:101F8000DD92EC925097826051962D913D914C914B
:101F900053974095309521953F4F4F4FC216D3062A
:101FA000E4060CF4B7C197E1B2C15A964D905D902A
:101FB0006C905C974C0C5D1C6E1C062C000C77081A
:101FC000481459046A047B045CF40FEFC01AD00A69
:101FD000E00A1E96CD92DD92EC92509782E001C00D
:101FE00080E02F5F3F4F4F4F51962D933D934C9381
:101FF0005397886044230CF48DC190E188C15A96B0
:102000006D917D918C915C9726016E2C461A570A32
:10201000680A062C000C7708481459046A047B04EB
:102020005CF41FEFC11AD10AE10A1E96CD92DD922F
:10203000EC92509782E001C080E0215031094109C3
:1020400051962D933D934C9353978460121613062B
:1020500014060CF45FC19FE15AC157964D905D90F4
:102060006C905997421A530A640A062C000C7708A0
:10207000481459046A047B0454F021503109410981
:1020800051962D933D934C93539784E001C080E08B
:102090002FEFC21AD20AE20A1E96CD92DD92EC927E
:1020A0005097826051962D913D914C9153972C15EC
:1020B0003D054E050CF02EC198E129C157964D9073
:1020C0005D906C905997420E531E641E062C000CB6
:1020D0007708481459046A047B0454F42F5F3F4F77
:1020E0004F4F51962D933D934C93539788E001C0E9
:1020F00080E03FEFC31AD30AE30A1E96CD92DD9229
:10210000EC9250978260EE200CF404C199E1FFC07C
:102110005A964D905D906C905C974C0C5D1C6E1CBB
:10212000062C000C7708481459046A047B045CF000
:102130008FEFC81AD80AE80A1E96CD92DD92EC926B
:10214000509782E001C080E02F5F3F4F4F4F519684
:102150002D933D934C9353978860409530952195EE
:102160003F4F4F4F1E96CD90DD90EC9050972C1521
:102170003D054E050CF0CEC09AE1C9C05A964D906F
:102180005D906C905C974C185D086E08062C000CF6
:102190007708481459046A047B045CF491E0C91A76
:1021A000D108E1081E96CD92DD92EC92509781E025
:1021B00001C080E02F5F3F4F4F4F51962D933D93CD
:1021C0004C935397886044230CF4A4C09BE19FC0B8
:1021D00057966D917D918C9159972901642E461ADD
:1021E000570A680A062C000C7708481459046A0438
:1021F0007B0454F02F5F3F4F4F4F51962D933D93EB
:102200004C93539788E001C080E0E1E0CE1AD108FA
:10221000E1081E96CD92DD92EC9250978160519626
:102220002D913D914C915397C216D306E4060CF0C4
:1022300071C09CE16CC057964D905D906C90599721
:10224000420E531E641E609450944094411C511CD5
:10225000611C062C000C7708481459046A047B049E
:1022600054F421503109410951962D933D934C93DB
:10227000539784E001C080E0F1E0CF1AD108E10873
:102280001E96CD92DD92EC92509781601C141D0435
:102290001E040CF43FC09DE13AC05A964D905D90EB
:1022A0006C905C974C0C5D1C6E1C60945094409438
:1022B000411C511C611C062C000C77084814590461
:1022C0006A047B045CF001E0C01AD108E1081E96A4
:1022D000CD92DD92EC92509781E001C080E02150D8
:1022E0003109410951962D933D934C935397846046
:1022F0004095309521953F4F4F4F1E96CD90DD90E4
:10230000EC905097C216D306E40624F49EE19C9309
:1023100001C080E080FF2EC02F98CF88D88CE98C38
:102320004E2D96012150310941094901A42E0A2C54
:10233000000CBB08B501A4018EA09FA0A8A4B9A45D
:10234000480D591D6A1D7B1D4EA35FA368A779A781
:1023500002E0C01AD108E108CF8AD88EE98E2E9A01
:102360002C813D814E812150310941092C833D83CF
:102370004E832E9881FF31C02F9AFE012F89388D10
:10238000498D6901E42E12E0C10ED11CE11CCF8AF7
:10239000D88EE98E2F5F3F4F4F4F4901A42E0A2C54
:1023A000000CBB08B501A4018EA09FA0A8A4B9A4ED
:1023B00085017401E41AF50A060B170BE6A2F7A2D1
:1023C00000A711A72E9A2C813D814E812F5F3F4F90
:1023D0004F4F2C833D834E832E9882FF2EC02D9A23
:1023E000CA8CDB8CEC8C4E2D9601215031094109B1
:1023F0004901A42E0A2C000CBB08B501A4018EA033
:102400009FA0A8A4B9A4480D591D6A1D7B1D4EA309
:102410005FA368A779A702E0C01AD108E108CA8EB5
:10242000DB8EEC8E2C9A2F8138854985215031091D
:1024300041092F83388749872C9883FF2AC02D981C
:10244000FE018A8D9B8DAC8D9C014A2F2E5F3F4FE4
:102450004F4F2A8F3B8F4C8F0196A11D0A2E000CE7
:10246000BB0B4EA15FA168A579A54A015B01881A43
:10247000990AAA0ABB0A86A297A2A0A6B1A62C9A7C
:102480008F819885A9850196A11D8F839887A9873B
:102490002C988D8582FF2BC08B81813011F4469A58
:1024A00001C046982D8D3E8D4F8DC8A0D9A0EAA0C1
:1024B0008C899D89AE895527820F931FA41F20F414
:1024C00053958C199D09AE098C8B9D8BAE8B552332
:1024D00071F0479A2B818A859B85AC85022E0594E5
:1024E000820F901DA01D8A879B87AC8747986E013D
:1024F0002AA53BA54CA550E0ADA5BEA50E94EA3497
:1025000029893A8937FF03C0319521953109F601B0
:102510004685578557FF03C05195419551092417AA
:1025200035070CF49A01032E000C440B550B0E9446
:10253000A6343093890020938800F60123A134A1AA
:1025400045A121503109410923A334A345A381E0CA
:10255000232B242B09F480E0DF91CF911F910F9161
:10256000FF90EF90DF90CF90BF90AF909F908F90B3
:102570007F906F905F904F900895CF92DF92EF928F
:10258000CF93DF93E091BB01F091BC01EF01858512
:1025900080FF2BC08181813011F42F9A01C02F98C8
:1025A0002F89388D498DC8A0D9A0EAA08E859F8536
:1025B000A8895527820F931FA41F20F453958C19C7
:1025C0009D09AE098E879F87A88B552371F02E9A9F
:1025D00029818C819D81AE81022E0594820F901DF0
:1025E000A01D8C839D83AE832E988D8581FF2BC08B
:1025F0008A81813011F42D9801C02D9A2A8D3B8D4E
:102600004C8DC8A0D9A0EAA089899A89AB895527A1
:10261000820F931FA41F20F453958C199D09AE09B6
:10262000898B9A8BAB8B552371F02C9A2A818F81E1
:102630009885A985022E0594820F901DA01D8F8379
:102640009887A9872C988D8582FF2BC08B8181303C
:1026500011F4469A01C046982D8D3E8D4F8DC8A02D
:10266000D9A0EAA08C899D89AE895527820F931F36
:10267000A41F20F453958C199D09AE098C8B9D8B5A
:10268000AE8B552371F0479A2B818A859B85AC854B
:10269000022E0594820F901DA01D8A879B87AC8710
:1026A00047988DA59EA590938900809388008D857D
:1026B000877071F02BA13CA14DA121503109410936
:1026C0002BA33CA34DA381E0232B242B09F480E012
:1026D000DF91CF91EF90DF90CF9008958F929F92EE
:1026E000AF92BF92CF92DF92EF92FF920F931F9320
:1026F000CF93DF93E091BB01F091BC01EF0190819A
:102700008585913009F06AC080FF04C0789902C0C5
:102710008E7F8587858581FF04C0799902C08D7F72
:1027200085878585982F9B7F958780FF0EC02E9A81
:1027300029818C819D81AE81022E0594820F901D8E
:10274000A01D8C839D83AE832E988D8581FF0EC046
:102750002C9A2A818F819885A985022E0594820F53
:10276000901DA01D8F839887A9872C988D8582FF47
:102770000EC0479A2B818A859B85AC85022E0594D5
:10278000820F901DA01D8A879B87AC8747988D85F7
:10279000982F977009F582958F7091E1899F802D10
:1027A00011248D8781E089838FEF8A831B822F9A82
:1027B0008A81813011F42D9801C02D9A8B8181304E
:1027C00011F4469A01C0469882E088838FEF9FEF0C
:1027D000909389008093880081E0DAC080FF04C074
:1027E000789B02C08E7F8587858581FF04C0799B99
:1027F00002C08D7F85878585982F9B7F958780FF79
:102800000EC02E9A29818C819D81AE81022E059465
:10281000820F901DA01D8C839D83AE832E988D8585
:1028200081FF0EC02C9A2A818F819885A985022E5E
:102830000594820F901DA01D8F839887A9872C98DF
:102840008D8582FF0EC0479A2B818A859B85AC853A
:10285000022E0594820F901DA01D8A879B87AC874E
:102860004798FE019D85892F877009F0B5CF929515
:102870009F709D8790FF2BC02C813D814E81490127
:10288000A42E0A2C000CBB089501840180921D0522
:1028900090921E05A0921F05B0922005CF88D88C7B
:1028A000E98CCC82DD82EE824601AE2C0A2C000C33
:1028B000BB08B501A401401B510B620B730B409385
:1028C000290550932A0560932B0570932C0591FFE1
:1028D0002BC02781308541855901C42E0C2C000C5A
:1028E000DD0896018501A0922105B0922205C092D3
:1028F0002305D0922405C28CD38CE48CC782D08669
:10290000E1864601AE2C0A2C000CBB08B501A401DF
:10291000401B510B620B730B40932D0550932E05FA
:1029200060932F057093300592FF2BC0228533856D
:1029300044855901C42E0C2C000CDD08960185013C
:10294000A0922505B0922605C0922705D0922805B1
:10295000C58CD68CE78CC286D386E4864601AE2C25
:102960000A2C000CBB08B501A401401B510B620BE3
:10297000730B409331055093320560933305709388
:10298000340510822FEF3FEF3093890020938800A9
:10299000DF91CF911F910F91FF90EF90DF90CF903B
:1029A000BF90AF909F908F9008951F920F920FB697
:1029B0000F9211246F927F928F92CF92DF92EF92BB
:1029C000FF920F931F932F933F934F935F936F93B8
:1029D0007F938F939F93AF93BF93CF93DF93EF93A7
:1029E000FF935F9A85B1817F85B92A9A0091BB01D7
:1029F0001091BC01E801809137012DB73EB780915D
:102A00000001909101012817390730F48DB79EB766
:102A10009093010180930001D801D9968C91982F51
:102A2000929596959770869586958770981721F15F
:102A300090FF05C081FF03C080E00E94D20BF80127
:102A400081AD86FF07C082FF05C060E070E080E0D6
:102A50000E94F90BD801D9968C918C7111F40E94C7
:102A6000D20BF80181AD982F969596959295990F76
:102A7000907E8F71892B81AFD8011D968C911D9707
:102A800083FF04C1D2962D913D914C91D49790969D
:102A9000CD90DD90EC9092979F968D919D91AC9109
:102AA0005527820F931FA41F20F453958C199D095D
:102AB000AE09F80187A790ABA1AB552309F4E6C096
:102AC0008E0189AD869586958770982F947009F44C
:102AD000BEC08AAD282F2695269526952F7030E00A
:102AE000877090E08217930784F10E94EE0A9AADF6
:102AF0002BAD3CAD9695969596959F70882369F081
:102B0000790102C0EE0CFF1C9A95E2F70E94190BA6
:102B10009701282B3CAF2BAF0AC002C0220F331FF6
:102B20009A95E2F7D801DC963C932E93DB97F80157
:102B300082AD982F969596959695985F9F70990F70
:102B4000990F990F8778892B82AF7E018AAD982FD4
:102B50009770292F30E08695869586958F70B901FC
:102B60006F5F7F4F482F50E04850510957FF02C018
:102B700040E050E0641B750BD701DB964D915C91F2
:102B8000DC9702C0440F551F6A95E2F78150891BFC
:102B90008F70982F990F990F990FDA968C91DA9779
:102BA0008778892BDA968C93DA97852F9927182FB7
:102BB0005527DC965C934E93DB9722303105B1F0BC
:102BC00044F42115310561F021303105F9F415E5A2
:102BD0001AC023303105B1F02530310559F016C047
:102BE00011E0892B09F410E0119510C019E0189F2D
:102BF000102D1124B4E01B9FC001112412951F70E9
:102C0000182B04C011E1189F102D1124F70181AD7C
:102C100082FF03C0812F0E94D20BD701D9968C91DD
:102C200083FF34C0112391F18FEF0E94D20BF70183
:102C300025A936A947A950E0A12FB0E00E94EA34A7
:102C4000672F782F892F99270E94F90B1FC081FFCA
:102C50000AC08FEF0E94D20BD801D5966D917D915D
:102C60008C910E94F90BF80181AD82FF08C08FEFB3
:102C70000E94D20B60E079E08DE30E94F90BD8014D
:102C8000D9968C918C7111F40E94D20B8E0188819F
:102C9000833079F020F4813080F020DD0CC0843066
:102CA00031F08051803148F40E94430E04C065DC4D
:102CB00002C00E943D0D811108C3F801108281AD50
:102CC000837E81AF0E94090D8111FFC240913701BF
:102CD000D801DA968C91DA97F80117A610AA11AAF2
:102CE000D2961D921D921C92D49715AA16AA17AAC5
:102CF00010AE11AE382F307832AF842F90E0FBE168
:102D00004F9FA0011124FA01E354FE4F20812C9320
:102D1000233009F4A0C058F4213009F462C208F449
:102D200093C28285D8011D968C931D976EC2243064
:102D300009F44FC12051203108F08BC261807280AC
:102D40008380D80190966D927D928C929297939603
:102D50006D927D928C929597C480D580E6801E9668
:102D6000CD92DD92EC925097CC0CDD1CEE1C579668
:102D7000CD92DD92EC925997C780D084E184519630
:102D8000CD92DD92EC925397CC0CDD1CEE1C5A9642
:102D9000CD92DD92EC925C97C284D384E484F58476
:102DA0009696CD92DD92ED92FC929997C684D78447
:102DB000E0889A96CD92DD92EC929C976189728917
:102DC0009E967C936E939D9723E01D962C931D9762
:102DD000228D2C7109F43DC22BE01D962C93A82D59
:102DE000C301A69597958795CC24DD24EE24C81AB7
:102DF000D90AEA0AD8019F96CD92DD92EC92D1973A
:102E0000C388D488E588D296CD92DD92EC928689EB
:102E10009789A08DF80185AB96ABA7ABFA01EA5272
:102E2000FE4F20819181892F8370D801D8962C93F1
:102E3000D897D9968C93D997FA01E952FE4F908191
:102E40009C71982BD9969C93D99780818295869571
:102E50008770832BC3C1D8011D961C9221813281BA
:102E60004381F801278B308F418F232B242B11F0C6
:102E700021E025872BE1289FF001299FF00D1124E7
:102E8000E354FE4F248135814681D8015A962D9313
:102E90003D934C935C97232B242B31F01D962C9162
:102EA0001D9722601D962C932BE1289FF001299FEE
:102EB000F00D1124E354FE4F278130854185F80140
:102EC000258F368F478F232B242B19F025852460DF
:102ED00025872BE1289FF001299FF00D1124E35451
:102EE000FE4FC180D280E3802481358146812C153C
:102EF0003D054E0510F44E2D96015BE1589FF00103
:102F0000599FF00D1124E354FE4FC780D084E18413
:102F10002C153D054E0510F44E2D9601D8019096C6
:102F20002D933D934C939297F80123A334A345A38B
:102F30004695379527954095309521953F4F4F4FB2
:102F40001E962D933D934C935097218B328B438B40
:102F500054962D933D934C932BE1289FF001299F8C
:102F6000F00D1124E354FE4F228520FD02C021E024
:102F700001C02FEFF80121832BE1289FF001299F49
:102F8000F00D1124E354FE4F228521FD02C021E003
:102F900001C02FEFD80112962C932BE1289FF0014E
:102FA000299FF00D1124E354FE4F228522FD02C01B
:102FB00021E001C02FEFF80123832BE1289FF001CE
:102FC000299FF00D1124E354FE4F81899289D80185
:102FD00036C1D8011D961C92218132814381F801AE
:102FE000278B308F418F232B242B11F021E0258755
:102FF0002BE1289FF001299FF00D1124E354FE4F8F
:10300000248135814681D8015A962D933D934C9366
:103010005C97232B242B31F01D962C911D97226059
:103020001D962C932BE1289FF001299FF00D112470
:10303000E354FE4F278130854185F801258F368F77
:10304000478F232B242B19F02585246025872BE11E
:10305000289FF001299FF00D1124E354FE4FC180F9
:10306000D280E3802481358146812C153D054E05B3
:1030700010F44E2D96015BE1589FF001599FF00D21
:103080001124E354FE4FC780D084E1842C153D0504
:103090004E0510F44E2D9601D80190962D933D9338
:1030A0004C939297F80123A334A345A346953795F3
:1030B00027954095309521953F4F4F4F1E962D9364
:1030C0003D934C935097218B328B438B54962D9389
:1030D0003D934C935BE1589FF001599FF00D1124F3
:1030E000E354FE4F528550FD02C051E001C05FEF36
:1030F000F80151835BE1589FF001599FF00D1124B5
:10310000E354FE4F528551FD02C051E001C05FEF14
:10311000D80112965C935BE1589FF001599FF00D26
:103120001124E354FE4F528552FD02C051E001C00C
:103130005FEFF80153835BE1589FB001599F700D19
:103140001124CB0183549E4F7C01DC0151968D915B
:103150009C91529796A785A75A968C915A978C71F5
:1031600009F477C085858860858727A730AB41AB98
:1031700053968D919D91AC9182AB93ABA4ABF7012B
:1031800086899789A08DF80185AB96ABA7ABFB012B
:10319000EA52FE4F20818181982F9370D801D896F2
:1031A0002C93D897D9968C91D9978C7F892BD996C7
:1031B0008C93D997FB01E952FE4F90819C71837EDD
:1031C000892BD9968C93D9978081982F9295969533
:1031D0009770DA968C91DA97887F892BDA968C93A0
:1031E00038C0828591E1899F802D11248777D8018D
:1031F0001D968C931D978FEF11968C9311971296B5
:103200002C93129713961C9213972181328143813C
:1032100057962D933D934C93599724813581468140
:103220005A962D933D934C935C9727813085418529
:103230005D962D933D934C935F97818992899E96DD
:103240009C938E939D9705C08FEF9FEFF80196A7F3
:1032500085A70E942F0DD80111968C91813011F411
:103260002F9A01C02F988A81813011F42D9801C0C6
:103270002D9A8B81813011F4469A01C046988E01B7
:1032800029AD23FF0CC088A199A1AAA1A695979565
:103290008795A095909581959F4FAF4F03C08FEF75
:1032A0009FEFAFEFF80187A790ABA1AB80AD922F56
:1032B0009370880F991F880F991F63D5F80185A512
:1032C00096A5909389008093880085B1817F85B908
:1032D0005F98FF91EF91DF91CF91BF91AF919F9157
:1032E0008F917F916F915F914F913F912F911F919E
:1032F0000F91FF90EF90DF90CF908F907F906F9025
:103300000F900FBE0F901F9018950E94090D81110C
:1033100003C083E520D4F9CF80913505882319F0C7
:1033200083E719D4F9CF0C94E10AEF92FF920F933F
:103330001F932FB7F89490E0FC01EE0FFF1F8E0F44
:103340009F1FFC01EB5CFA4F84819581A6817C0173
:103350000A2F002E000C110BC801B7012FBF1F91BF
:103360000F91FF90EF9008950E94040D269A2E98D9
:10337000279A2F9880988898249A2C98259A2D9A85
:10338000819889983F9A47983E9A46980E94E10A08
:1033900085E395E09093BC018093BB01109280007F
:1033A00089E0809381008FEF9FEF90938900809355
:1033B00088001092850010928400EFE6F0E0808192
:1033C0008260808308959FEB980F9A31B0F09FE957
:1033D000980F9A3110F48754089590ED980F9A3011
:1033E00010F48C5F08958B3251F08D3241F08F32A2
:1033F00041F08F3531F08FEF0895892F08958EE3D6
:1034000008958FE30895CF92DF92EF92FF920F938A
:103410001F93CF93803241F041E090E0893009F072
:1034200040E0242F392F02C021E030E090913E018E
:10343000911149C0109243011092B8051092B9053C
:103440001092BA051092BB05109273051092740584
:10345000109275051092760510923F01109240016E
:10346000109241011092420110923D0110923C01D4
:1034700010923B0110923A01109239011092770597
:10348000109278051092720598E6ECECF5E0DF01F9
:10349000492F1D924A95E9F7E4E3F6E0DF011D921A
:1034A0009A95E9F79FE3E9E7F5E0DF011D929A9528
:1034B000E9F790E1ECEBF5E0DF011D929A95E9F771
:1034C00091E090933E018D3009F4E6C28A30B9F55F
:1034D00080917205882351F090917805809177054D
:1034E000981741F08BE080933E0104C080913A012F
:1034F0008111F8CF80913E018A3031F08B3039F460
:1035000010923E0182E0CBC210923E01C7C2809170
:103510003A01811106C00E94C72210923E0181E04B
:10352000BEC2C0E080913A01C817A8F7EC2FF0E0C6
:10353000E758FA4F80810E94320BCF5FF3CFE091C2
:103540003E018A3221F4EA3011F08EE0EAC1C0ED8A
:10355000C80F91E0CA3008F090E0EE3009F4DAC10B
:1035600040917205411105C040917705482740936D
:1035700077054E2F50E0FA013197E131F10508F05F
:1035800008C2EA58FF4F0C94E4344FEB480F4A311D
:1035900018F54093430181E090E0A0E0B0E004C062
:1035A000880F991FAA1FBB1F4A95D2F74091B805F3
:1035B0005091B9056091BA057091BB05842B952B8C
:1035C000A62BB72B8093B8059093B905A093BA05A5
:1035D000B093BB0582E0A5C1232B09F05DC28B33FC
:1035E00009F49AC1883209F49BC1843211F486E04F
:1035F00098C1873211F480E194C1823211F481E1E3
:1036000090C19091390191110BC09FE090933E01C0
:1036100091E0909339018093BC051092BD053CC2A6
:1036200085EE93E0D6C1232B11F081E07AC1911190
:103630001BC08B32C9F08D32B9F0909139019923BA
:1036400019F085E993E0C5C19FE090933E01909108
:1036500043019F5B9093BC0592E090933901809366
:10366000BD051092BE0518C223E020933E011092C2
:103670003F011092400110924101109242011092BC
:103680003C0110923B018D3221F481E080933D0199
:1036900003C210923D018B3219F4FEC1232B29F68F
:1036A000911103C08FE693E094C190E0C097092E7A
:1036B000000CAA0BBB0B80933F0190934001A09399
:1036C0004101B093420180913C018F5F80933C01A6
:1036D00084E059C0992309F437C020913C012A3075
:1036E00018F089E393E075C180913F01909140010A
:1036F000A0914101B0914201880F991FAA1FBB1FE1
:10370000BF93AF939F938F93880F991FAA1FBB1FDF
:10371000880F991FAA1FBB1F0F90800D0F90901D3F
:103720000F90A01D0F90B01D8C0F911DA11DB11DFC
:1037300080933F0190934001A0934101B0934201D7
:103740002F5F20933C0128C18E3211F485E01BC00D
:10375000232B11F081E017C08A3211F48EE013C0E0
:103760008B3311F48DE00FC0883211F48CE00BC064
:10377000843211F486E007C0873211F480E103C07F
:10378000823221F481E180933E0106C18AE093E018
:1037900020C1992309F43EC020913B01233008F059
:1037A0007BC130913C01822F90E0830F911D0A97DD
:1037B0000CF072C180913F0190914001A0914101B4
:1037C000B0914201880F991FAA1FBB1FBF93AF93EF
:1037D0009F938F93880F991FAA1FBB1F880F991F54
:1037E000AA1FBB1F0F90800D0F90901D0F90A01D62
:1037F0000F90B01D8C0F911DA11DB11D80933F0135
:1038000090934001A0934101B09342012F5F209318
:103810003B01C2C0232B09F008CF8FED92E0D9C045
:10382000232B09F002CFCFDD803418F08AEA92E032
:10383000D0C0E0913A01F0E0E758FA4F880F880FC6
:10384000808387E06EC0BFDD803418F085E792E0AA
:10385000C0C0A0913A01E1E0EA0FE0933A01B0E084
:10386000A758BA4F9C91282F22952F70922B9C938A
:10387000EF3318F088E392E0ACC0F0E0E758FA4F7D
:103880008295807F808388E04CC08D3311F19BDD71
:10389000803418F083E092E09CC0A0913A01E1E00E
:1038A000EA0FE0933A01B0E0A758BA4F9C91282F55
:1038B00026952695922B9C93EF3318F086EC91E099
:1038C00088C0F0E0E758FA4F8295880F880F807C17
:1038D000808389E026C08D3309F489CE74DD80347D
:1038E00018F081E991E075C0E0913A0121E02E0FD6
:1038F00020933A01F0E0E758FA4F9081892B8083BA
:103900002F3308F474CE84E591E063C0893209F066
:10391000C3C08BCE8B3311F48DE003C0883221F409
:103920008CE080933E01B8C0992321F090917805F6
:103930009A3120F08AE080933E01B0C02091720558
:103940002F5F20937205990F292F220F220F920FBC
:103950009053890F809378059FC0823239F465CEE9
:10396000873221F462CE232B09F05FCEE09139013A
:1039700091E09E0FF0E0E454FA4F8083E92FF0E0ED
:10398000E454FA4F108290933901903108F086C0C8
:1039900083C081E391E01DC060913F0170914001BF
:1039A0008091410190914201C0913B0107C0AAE082
:1039B000B0E09B01AC010E94EA34CF5FC33098F4C1
:1039C0006A39B9E97B078B07B9E19B0784F388E182
:1039D00091E09F938F930E94B9328AE080933E01D9
:1039E0000F900F905BC02AE0C22ED12CE12CF12C5D
:1039F000C33061F06B5F7F4F8F4F9F4FA7019601E0
:103A00000E94C834CA01B901C150F2CF20913D01D2
:103A1000222339F090958095709561957F4F8F4F57
:103A20009F4FC0914301E4E0CE9F90011124F90122
:103A3000E453FA4F608371838283938389010C5C22
:103A4000194F28EE33E040E050E00E94C834D8011E
:103A50002D933D934D935C93139781E090E0A0E00C
:103A6000B0E004C0880F991FAA1FBB1FCA95D2F7E8
:103A700040917305509174056091750570917605BC
:103A8000842B952BA62BB72B8093730590937405ED
:103A9000A0937505B093760580E001C083E0CF91D7
:103AA0001F910F91FF90EF90DF90CF900895CF93EB
:103AB000DF9310923E01EEE0F1E08491EF01219658
:103AC000882319F0A0DCFE01F8CFDF91CF91089593
:103AD000E1E6F0E080E880831082559A209A5D9AB2
:103AE000289A269A2E98279A2F9880988898249A10
:103AF0002C98259A2D9A819889983F9A47983E9AB2
:103B00004698569A5E98539A52985A9A0E940F264F
:103B10000E94E03260E071EE80E090E00E94C029F7
:103B20000E949E0C0E9409290E94232B1DDC789480
:103B3000BECF80915D0190915E01A0915F01B09137
:103B40006001892B8A2B8B2B29F060E070E0CB0180
:103B50000C94680B0895CF93DF931F92CDB7DEB717
:103B60004DB75EB720910001309101014217530714
:103B700030F42DB73EB730930101209300019091AE
:103B80009C0693FF08C090919C06977F90939C069B
:103B90008983CFDF898190919C0692FF0BC0909121
:103BA0009C069B7F90939C064D9A0F90DF91CF913E
:103BB0000C942B280F90DF91CF9108950E940A2A30
:103BC000882359F10E94FA2928981DDC8230C9F017
:103BD0008330D1F0813001F50E94360D2FE130E0C5
:103BE000A901481B5109CA019F934F9382E494E0B5
:103BF0009F938F930E94B9320F900F900F900F9068
:103C00000BC089E394E002C08BE294E09F938F9312
:103C10000E94B9320F900F90289A8CE49CCF58DF05
:103C2000CDDFFECF60E082E00E94122B89E091E0C0
:103C30009F938F930E94CA32F89480E00E94D20B27
:103C400080E00E94D00C2FEF83E294EF215080405F
:103C50009040E1F700C000000C9400000F900F901E
:103C6000089559982F7061112064411120628111CB
:103C7000206188E05C9820FF02C0589A01C05898E3
:103C80005C9A26958150B1F7599A5C985998089595
:103C9000CF93C82FCF702C2F40E060E080E0E1DFB1
:103CA0002C2F40E060E081E0DCDF2C2F40E060E082
:103CB00080E0CF91D6CF5998519A5898509A5C98F5
:103CC000549A20E040E060E080E0CBCFCF93C82F53
:103CD00082958F70DDDF8C2FDBDF87EC90E0019722
:103CE000F1F700C00000CF910895CF93DF93C82F64
:103CF000D82FD295DF702D2F40E061E080E0B1DF5A
:103D00002D2F40E061E081E0ACDF2D2F40E061E04D
:103D100080E0A7DFCF702C2F40E061E080E0A1DFE2
:103D20002C2F40E061E081E09CDF2C2F40E061E03F
:103D300080E097DF87EC90E00197F1F700C000008A
:103D4000DF91CF9108959C018E9890E18C9837FF78
:103D500002C08D9A01C08D988C9A220F331F91500A
:103D6000A9F78E9A8C988D9808958E98869A8D983A
:103D7000859A8C98849A80E090E2E5DF80E090EA72
:103D8000E2CF9F709062DFCF282F22952F7030E115
:103D9000839FC0011124822B906AD5CFAF92BF922E
:103DA000CF92DF92EF92FF920F931F9324E0829FB6
:103DB000C0011124FC01E453FA4F608171818281BA
:103DC00093812091F507222399F02FE730E040E01E
:103DD00050E00E944535E5E0AE2EB12CC12CD12C2F
:103DE000E12CF12C00E010E00E947B35B901CA0102
:103DF0001F910F91FF90EF90DF90CF90BF90AF9009
:103E00000895CF92DF92EF92FF920F931F93C0908D
:103E10007305D0907405E0907505F0907605E7FE87
:103E200029C087E1BBDF2091F207211104C0209156
:103E3000F1072223B9F00091D9071091DA072091F8
:103E4000DB073091DC07DC01CB01800F911FA21F43
:103E5000B31F8093D9079093DA07A093DB07B09341
:103E6000DC0708C06093D9077093DA078093DB07FB
:103E70009093DC07F0FE29C088E190DF2091F307E2
:103E8000211104C02091F1072223B9F00091DD0730
:103E90001091DE072091DF073091E007DC01CB01B4
:103EA000800F911FA21FB31F8093DD079093DE0741
:103EB000A093DF07B093E00708C06093DD0770931D
:103EC000DE078093DF079093E007F1FE29C087E1CA
:103ED00065DF2091F407211104C02091F10722230E
:103EE000B9F0C090E107D090E207E090E307F090CE
:103EF000E407DC01CB018C0D9D1DAE1DBF1D809321
:103F0000E1079093E207A093E307B093E40708C0AA
:103F10006093E1077093E2078093E3079093E407CF
:103F20006091D9077091DA078091DB079091DC07E7
:103F3000FED76093C6077093C7078093C807609148
:103F4000DD077091DE078091DF079091E0070E9406
:103F5000C5276093C9077093CA078093CB07609108
:103F6000E1077091E2078091E3079091E4070E94D6
:103F7000F3276093CC077093CD078093CE071F91F2
:103F80000F91FF90EF90DF90CF9008952F923F9286
:103F90004F925F926F927F928F929F92AF92BF9259
:103FA000CF92DF92EF92FF920F931F93CF93DF9305
:103FB000CDB7DEB768970FB6F894DEBF0FBECDBFA2
:103FC000382E8091D9079091DA07A091DB07B09144
:103FD000DC078093E5079093E607A093E707B0938B
:103FE000E8078091DD079091DE07A091DF07B0918F
:103FF000E0078093E9079093EA07A093EB07B0935B
:10400000EC07FFDE8090730590907405A090750515
:10401000B090760575016401CC2403E0D02202E063
:10402000E022FF24C114D104E104F10411F480E082
:10403000C6C190FE18C088E0B1DE0091E50710917E
:10404000E6072091E7073091E807DC01CB01800FFC
:10405000911FA21FB31F8093E5079093E607A093DB
:10406000E707B093E80791FE18C089E097DE00915A
:10407000E9071091EA072091EB073091EC07DC018A
:10408000CB01800F911FA21FB31F8093E90790936C
:10409000EA07A093EB07B093EC07C114D10412E038
:1040A000E106F10409F06CC181E178DE698B7A8B5D
:1040B0008B8B9C8B4091D9075091DA076091DB077D
:1040C0007091DC078091E5079091E607A091E707E2
:1040D000B091E8078A019B01081B190B2A0B3B0BC7
:1040E00009871A872B873C874091DD075091DE07AF
:1040F0006091DF077091E0078091E9079091EA07EE
:10410000A091EB07B091EC078A019B01081B190BEA
:104110002A0B3B0B0D8B1E8B2F8B388FA90198011F
:1041200069857A858B859C850E94A20A69837A833A
:104130008B839C839B01AC01550F220B322FA9016D
:104140002D833E834F83588769897A898B899C891F
:104150009B01AC010E94453549014D87252E2B015D
:104160003C0169817A818B819C819B01AC010E9419
:10417000453502E00E944B3659016A017B018C01F2
:1041800094014D85522DB201C3010E9470360E94E8
:10419000B6092B013C0197FD4ACF6D897E898F8935
:1041A000988DA30192010E944535A980BA80CB80E9
:1041B000DC80ED80FE2C0E2D1E2D0E947B352D8780
:1041C0003E874F87588B8D859E85AF85B8898093B4
:1041D000E5079093E607A093E707B093E8072985E2
:1041E0003A854B855C85C984DA84EB84FC84FF0CBA
:1041F000CC08DC2C76016C2D7C2D8C2D9C2D0E9406
:104200000236B42FA52FF62FE72FB301A201770FA7
:10421000440B542FBA0152016301E42EF42E042FF3
:10422000142F4B2F5A2F6F2F7E2F0E94F434A9800A
:10423000BA80CB80DC80ED80FE2C0E2D1E2D0E94DE
:104240007B35C901DA018093E9079093EA07A093CF
:10425000EB07B093EC07332051F009891A892B89B9
:104260003C8910161106120613063CF028C0298955
:104270003A894B895C8957FF22C04D855E856F85E1
:10428000788970956095509541955F4F6F4F7F4F3E
:104290004093E5075093E6076093E7077093E807BC
:1042A000B095A095909581959F4FAF4FBF4F80934C
:1042B000E9079093EA07A093EB07B093EC0780918E
:1042C000D9079091DA07A091DB07B091DC07880F3E
:1042D000991FAA1FBB1FBC01CD0109851A852B851B
:1042E0003C85601B710B820B930B32E0C32ED12CEB
:1042F000E12CF12CA70196010E94C8348091E507BA
:104300009091E607A091E707B091E807820F931F0D
:10431000A41FB51F8093E5079093E607A093E707D6
:10432000B093E8078091DD079091DE07A091DF0749
:10433000B091E007880F991FAA1FBB1FBC01CD01D8
:104340002D893E894F89588D621B730B840B950B09
:10435000A70196010E94C8348091E9079091EA076D
:10436000A091EB07B091EC07820F931FA41FB51F1C
:104370008093E9079093EA07A093EB07B093EC07CB
:104380006091E5077091E6078091E7079091E80753
:10439000CED56093CF077093D0078093D1076091FB
:1043A000E9077091EA078091EB079091EC07EDD552
:1043B0006093D2077093D3078093D40781E0689607
:1043C0000FB6F894DEBF0FBECDBFDF91CF911F9126
:1043D0000F91FF90EF90DF90CF90BF90AF909F90A4
:1043E0008F907F906F905F904F903F902F900895A7
:1043F0008091730590917405A0917505B091760533
:10440000A2FF23C0609114067091150680911606D4
:104410009091170624E630E040E050E00E94C83456
:1044200057FF03C020E030E0A901293E83E03807B0
:104430004105510524F028EE33E040E050E0C90189
:104440000E94F60C81E00E94D00C8091730590913F
:104450007405A0917505B091760593FF16C0609123
:10446000F8057091F9058091FA059091FB0597FF89
:1044700007C090958095709561957F4F8F4F9F4FA6
:104480000E94EF0C82E00E94D00C80917305909105
:104490007405A0917505B091760597FF0DC06091E8
:1044A00008067091090680910A0690910B060E94F9
:1044B000E80C82E00E94D00C8091730582FF3EC020
:1044C0008091750186958695877084600E94D00CD6
:1044D00080913C0690913D06A0913E06B0913F062A
:1044E00083309105A105B105F1F05CF481309105AF
:1044F000A105B105B1F00297A105B105E1F481E094
:1045000013C086309105A105B10589F08830910569
:10451000A105B10571F00497A105B10561F483E02F
:1045200003C080E001C082E00E94DC0C07C085E08F
:10453000FBCF87E0F9CF80E00E94D00C809173051B
:1045400081FF04C0809138060E94D00C4091730511
:10455000509174056091750570917605DB01CA0173
:1045600088279927A170BB2760FF08C08091740637
:1045700090917506A0917606B091770680937701A9
:1045800090937801A0937901B0937A0108958F9266
:104590009F92AF92BF92CF92DF92EF92FF92CF9312
:1045A000DF93C0907305D0907405E0907505F0908E
:1045B0007605C5FE4EC08091E0059091E105A09181
:1045C000E205B091E305181619061A061B060CF051
:1045D00040C0BC01CD01625E7F4F8F4F9F4F2CE3E7
:1045E00030E040E050E00E94C834DA01C901883868
:1045F00023E19207A105B10524F488E893E1A0E046
:10460000B0E0D82FC92FFA2FEB2F4C015D01BB0C66
:104610008808982C54019C01AD01682D782D882DB7
:10462000982D28373A4841405105610571058105AB
:10463000910529F024F0D8E7CAE8F1E0E0E09E0116
:10464000CF013093ED07C093EE079093EF07E0930F
:10465000F007C6FEFDC180914C0690914D06A091D9
:104660004E06B0914F06AC01BD014427452B462BA9
:10467000472B09F0ACC2843109F4CCC020F582305C
:10468000B1F1D8F4882389F1813009F0A0C2B9DBF7
:10469000AFDE6091ED077091EE078091EF0790918A
:1046A000F007DF91CF91FF90EF90DF90CF90BF9018
:1046B000AF909F908F900C94A32C833041F1843065
:1046C00009F440C084C28A3509F44BC138F48531FD
:1046D00009F4A4C08C3109F4A4C079C28B3509F463
:1046E00043C18C3509F444C172C28BDB10C280E037
:1046F0004DDC882309F40BC27BDE6091ED077091DD
:10470000EE078091EF079091F00740E00FC081E045
:104710003DDC882309F4FBC16BDE6091ED077091ED
:10472000EE078091EF079091F00741E0DF91CF9184
:10473000FF90EF90DF90CF90BF90AF909F908F90C1
:104740000C94572ED7FE10C0809170069091710680
:10475000A0917206B09173068093F6079093F707C5
:10476000A093F807B093F907E2FE1CC04091F6074A
:104770005091F7076091F8077091F907809114063E
:1047800090911506A0911606B0911706840F951FFB
:10479000A61FB71F8093F6079093F707A093F8071B
:1047A000B093F9070E9485190E94EE0A882319F038
:1047B0000E94120BF9CF16D26B017C018091F60793
:1047C0009091F707A091F807B091F907892B8A2BF0
:1047D0008B2B09F4FCC184E4BED904D2C616D706DB
:1047E000E806F90659F3FED16B017C018091F607CA
:1047F0009091F707A091F807B091F9070197A109E7
:10480000B1098093F6079093F707A093F807B09348
:10481000F907D4CF81E08093F507D9C11092F5074D
:10482000D6C11092F5071092F10788E494D940910F
:10483000B8055091B9056091BA057091BB05DB01CF
:10484000CA0188279927A078B370892B8A2B8B2BD4
:1048500081F0DB01CA0127E1B695A7959795879569
:104860002A95D1F7817070FD826071FF03C084606A
:1048700001C087E0C82FCB7F09F45CC180FF1FC057
:10488000409173055091740560917505709176059E
:1048900067FF09C0409128065091290660912A06B9
:1048A00070912B0604C048ED5CED6FEF7FEF4093F5
:1048B000D9075093DA076093DB077093DC0781FF19
:1048C0001FC08091730590917405A0917505B091FA
:1048D0007605B0FF09C080912C0690912D06A0911D
:1048E0002E06B0912F0604C088E69DEAA3E0B0E052
:1048F0008093DD079093DE07A093DF07B093E00776
:104900006091D9077091DA078091DB079091DC07FD
:104910000ED36093C6077093C7078093C807609152
:10492000DD077091DE078091DF079091E0072DD3BE
:104930006093C9077093CA078093CB076091E10722
:104940007091E2078091E3079091E4074CD3609364
:10495000CC077093CD078093CE078C2F0E94742FC5
:10496000E9C01092F10733C181E08093F1072FC1B4
:10497000E7FE10C08091280690912906A0912A0692
:10498000B0912B068093D9079093DA07A093DB07A9
:10499000B093DC07F0FE10C080912C0690912D069C
:1049A000A0912E06B0912F068093DD079093DE072D
:1049B000A093DF07B093E007F1FE10C080913006AE
:1049C00090913106A0913206B09133068093E107B1
:1049D0009093E207A093E307B093E4076091D907AF
:1049E0007091DA078091DB079091DC07A0D2609389
:1049F000C6077093C7078093C8076091DD07709161
:104A0000DE078091DF079091E007BFD26093C9076E
:104A10007093CA078093CB076091E1077091E2071A
:104A20008091E3079091E407DED26093CC07709306
:104A3000CD078093CE0780E0DF91CF91FF90EF907C
:104A4000DF90CF90BF90AF909F908F900C94742F79
:104A5000D4FE87C08091640690916506A091660699
:104A6000B0916706AC01BD0144275527452B462B65
:104A7000472B09F076C08530910548F483309105C5
:104A800008F03DC0009771F1029761F1A0C0803934
:104A900021E0920709F44EC0893822E0920709F418
:104AA00055C0059709F093C0C0917501C695C6958C
:104AB000C77080E00E94D00C6091ED077091EE0706
:104AC0008091EF079091F007C6D58C2FDF91CF91A1
:104AD000FF90EF90DF90CF90BF90AF909F908F901E
:104AE0000C94D00C80E00E94D00C6091ED07709186
:104AF000EE078091EF079091F007ADD51BC078DCF1
:104B0000809175018C7119F481E00E94D00C609144
:104B1000ED077091EE078091EF079091F007DF911C
:104B2000CF91FF90EF90DF90CF90BF90AF909F908C
:104B30008F9091C5DF91CF91FF90EF90DF90CF9054
:104B4000BF90AF909F908F900C948519DF91CF917B
:104B5000FF90EF90DF90CF90BF90AF909F908F909D
:104B600047CCE3FC34C08091B8059091B905A09181
:104B7000BA05B091BB05009720E2A207B10569F420
:104B8000CD28CE28CF2819F589E494E09F938F9300
:104B90000E94B9320F900F901AC081159048A1055C
:104BA000B105A9F4CD28CE28CF2889F40E94851913
:104BB0008FEF0E94D20B60916C0170916D0180911A
:104BC0006E010E94F90B809176018111FECFDF9179
:104BD000CF91FF90EF90DF90CF90BF90AF909F90DC
:104BE0008F90089560914B0170914C0180914D011F
:104BF00090914E0108953FB7F89426B5269580917F
:104C0000500190915101A0915201B09153013FBFC9
:104C1000BC01CD01620F711D811D911D089510927F
:104C200050011092510110925201109253011092B2
:104C30004F0110924B0110924C0110924D011092B5
:104C40004E0182E084BD85BD99EF97BD16BC80936F
:104C50006E008AE080934A01809349018093480165
:104C60008093470196E0909346018093450190938D
:104C7000440108951F920F920FB60F9211242F93A3
:104C80003F938F939F93AF93BF935F9A85B1817F3B
:104C900085B9299A2DB73EB7809100019091010105
:104CA0002817390730F48DB79EB790930101809390
:104CB00000018091500190915101A0915201B09159
:104CC000530183589F4FAF4FBF4F80935001909334
:104CD0005101A0935201B093530180914F018F5F16
:104CE00080934F01883008F481C080914F01885033
:104CF00080934F0180914B0190914C01A0914D0107
:104D0000B0914E010196A11DB11D80934B0190936E
:104D10004C01A0934D01B0934E0180919C0681609F
:104D200080939C0680914A01815080934A018111B1
:104D30005DC080919C06826080939C068AE080938F
:104D40004A019091490191509093490191114EC0AF
:104D500090919C06946090939C0680934901909159
:104D60004801915090934801911140C090919C0648
:104D7000986090939C0680934801909147019150D0
:104D800090934701911132C090919C06906190934D
:104D90009C06809347019091460191509093460163
:104DA000911124C090919C06906290939C0626E0FD
:104DB00020934601909145019150909345019111A6
:104DC00015C090919C06906490939C068093450139
:104DD00080914401815080934401811107C08091EA
:104DE0009C06806880939C062093440185B1817F56
:104DF00085B95F98BF91AF919F918F913F912F910E
:104E00000F900FBE0F901F901895AF92BF92CF9248
:104E1000DF92EF92FF920F931F93082E000C990BD5
:104E200020E432E44FE050E00E94453526543546F8
:104E30004F4F5F4F6F4F7F4F8F4F9F4FE4E7AE2E27
:104E4000F5E3BF2ECC24C394D12CE12CF12C00E04F
:104E500010E00E947B35B901CA011F910F91FF90AC
:104E6000EF90DF90CF90BF90AF900895AF92BF9238
:104E7000CF92DF92EF92FF920F931F93082E000CB8
:104E8000990B20E432E44FE050E00E94453526546F
:104E900035464F4F5F4F6F4F7F4F8F4F9F4FE4E728
:104EA000AE2EF5E3BF2ECC24C394D12CE12CF12CF3
:104EB00000E010E00E947B35B901CA011F910F91FB
:104EC000FF90EF90DF90CF90BF90AF900895AF929A
:104ED000BF92CF92DF92EF92FF920F931F93082E13
:104EE000000C990B20E432E44FE050E00E9445357D
:104EF0002058354E494F5F4F6F4F7F4F8F4F9F4F19
:104F0000A12CE5E3BE2EFCE0CF2ED12CE12CF12C20
:104F100000E010E00E947B35B901CA011F910F919A
:104F2000FF90EF90DF90CF90BF90AF900895AF9239
:104F3000BF92CF92DF92EF92FF920F931F9324E7DD
:104F400035E341E050E00E944535205E3E45484F44
:104F50005F4F6F4F7F4F8F4F9F4FE0E4AE2EF2E4D5
:104F6000BF2EAFE0CA2ED12CE12CF12C00E010E0D6
:104F70000E947B35B901842F1F910F91FF90EF9014
:104F8000DF90CF90BF90AF900895AF92BF92CF9235
:104F9000DF92EF92FF920F931F9324E735E341E0F6
:104FA00050E00E944535205E3E45484F5F4F6F4FB1
:104FB0007F4F8F4F9F4FE0E4AE2EF2E4BF2EAFE065
:104FC000CA2ED12CE12CF12C00E010E00E947B35A0
:104FD000B901842F1F910F91FF90EF90DF90CF9038
:104FE000BF90AF900895AF92BF92CF92DF92EF92B1
:104FF000FF920F931F9320E035E34CE050E00E94B6
:105000004535205E3E45484F5F4F6F4F7F4F8F4F76
:105010009F4FE0E4AE2EF2E4BF2EAFE0CA2ED12CBB
:10502000E12CF12C00E010E00E947B35B901842FC7
:105030001F910F91FF90EF90DF90CF90BF90AF90B6
:10504000089581E00E94661E8FE59DE60197F1F7C5
:1050500000C0000008950F931F93CF93DF9300D0FB
:105060001F92CDB7DEB7182F60E080E0DBD2BADD4B
:10507000082F69837A839B830E94360D9B819F93BF
:105080000F937A817F9369816F931F928F931F9201
:105090001F938BEC94E09F938F930E94CA3280E021
:1050A0000E949519B2DE162F082F60E081E07A8306
:1050B0009B83B8D29B819F930F937A817F931F9399
:1050C0008AEB94E09F938F930E94CA3281E00E9402
:1050D0009519CCDE162F082F60E082E07A839B833F
:1050E000A1D29B819F930F937A817F931F9389EA2B
:1050F00094E09F938F930E94CA3282E00E94951998
:10510000E6DE162F082F60E083E07A839B838AD245
:105110009B819F930F937A817F931F9388E994E0FB
:105120009F938F930E94CA3280916E058C710FB647
:10513000F894DEBF0FBECDBF6AE0A1F081E072D26D
:1051400080916E058695869587701F928F938CE867
:1051500094E09F938F930E94CA320F900F900F900C
:105160000F900AC081E05ED282E894E09F938F9313
:105170000E94CA320F900F906AE082E053D2909161
:105180006D0580916E0583708F939F9380916F055D
:10519000877090E001969F938F9380916E0586951E
:1051A000869587701F928F9388E794E09F938F93E3
:1051B0000E94CA322DB73EB70FB6F894DEBF0FBEBD
:1051C000CDBF80910001909101012817390730F47B
:1051D0008DB79EB790930101809300016AE083E050
:1051E00021D2809101018F93809100018F9382E7FA
:1051F00094E09F938F930E94CA320F900F900F906C
:105200000F900F900F900F90DF91CF911F910F9102
:1052100008952FEF83EC99E0215080409040E1F712
:1052200000C0000084E0C9D184E0C7D10ADF89E46E
:1052300012CF1092560110925701089520915701F4
:105240009091560181E0291380E008952091570143
:10525000409156012F5F30E050E081E02417350780
:1052600009F080E00895F2DF91E0811190E0892F4C
:105270000895ECDF882321F082E40E94AB1DF9CF72
:10528000809157018F5F8093570108958091560157
:105290008F5F809356010895809157019091560138
:1052A000891B0895CF93DF931F92CDB7DEB7C6DF7A
:1052B000882321F082E60E94AB1DF9CFE0915601D0
:1052C000F0E0E354F94F80818983E0DF89810F901A
:1052D000DF91CF910895E0915701F0E0E354F94F49
:1052E0008083C7CF109254011092550108952091E8
:1052F00055019091540181E0291380E00895209197
:1053000055014091540130E02F5F3F4F2F713327FB
:1053100050E081E02417350709F080E00895EFDFC1
:10532000882321F082E40E94AB1DF9CF80915501C2
:105330008F5F8F71809355010895809154018F5F25
:105340008F71809354010895E0915501F0E0E35688
:10535000F94F8083E4CFCF93DF93D82FD0DF88231A
:1053600021F085E50E94AB1DF9CFCFB7F8948D2FC2
:10537000EBDF88EB8093C900CFBFDF91CF91089519
:105380000F931F93CF938B019C01CFB7F894DC014F
:10539000CB01975FA24CBF4FBC01CD0142E0660F2D
:1053A000771F881F991F4A95D1F7A9019801E3E05B
:1053B000220F331F441F551FEA95D1F70E94A634D0
:1053C000215031093093CD002093CC0082E08093AE
:1053D000C80088E98093C90086E08093CA0029DF6D
:1053E00081DF84E080935801CFBF81E1CF911F918D
:1053F0000F91B1CF8091580181FF0BC01FDF88232F
:1054000041F08091580184608093580188EB80932B
:10541000C90048CFCF93CFB7F8948091580181FF4E
:105420000BC00CDF882341F0809158018460809389
:10543000580188EB8093C900CFBFCF912DCF1F9229
:105440000F920FB60F9211242F933F934F935F93B8
:105450006F937F938F939F93AF93BF93EF93FF933C
:105460005F9A85B1817F85B985B18E6085B92DB789
:105470003EB780910001909101012817390730F45F
:105480008DB79EB7909301018093000180915801E0
:1054900080FF07C083E18093CE0082E080935801B3
:1054A0001AC08091580182FF06C083E18093CE002C
:1054B0001092580110C01BDF882321F088E98093E7
:1054C000C90009C0E0915401F0E0E356F94F808132
:1054D0008093CE0032DF85B1817F85B95F98FF91DF
:1054E000EF91BF91AF919F918F917F916F915F915C
:1054F0004F913F912F910F900FBE0F901F901895D5
:105500001F920F920FB60F9211242F933F934F9338
:105510005F936F937F938F939F93AF93BF93EF931B
:10552000FF935F9A85B1817F85B985B1866085B922
:105530002DB73EB7809100019091010128173907DE
:1055400030F48DB79EB79093010180930001A4DEE3
:10555000813460F08091580181FD08C0809158012C
:1055600081608093580188EB8093C9007CDE8111B3
:105570000CC063E057D08BED94E09F938F930E9413
:10558000CA320E94121E0F900F908091CE00A3DEAF
:1055900085B1817F85B95F98FF91EF91BF91AF9100
:1055A0009F918F917F916F915F914F913F912F913B
:1055B0000F900FBE0F901F9018950E945B1E2FEF4B
:1055C0008FEC97E0215080409040E1F700C0000050
:1055D00083E00E94481E2FEF8CEC90E02150804029
:1055E0009040E1F700C0000083E00E94481E8FE376
:1055F00096E00197F1F700C0000082E30E94661E6A
:1056000088E20E94661E8CE00E94661E81E00E9475
:10561000661E8FE393E80197F1F700C0000086E073
:105620000C94661E823031F0833031F0813039F4D1
:1056300080E403C084E101C084E5860F01C0862FA9
:1056400080680C94661E8CE1EDEBF7E0DF011D92A3
:105650008A95E9F708952F923F924F925F926F9249
:105660007F928F929F92AF92BF92CF92DF92EF92F2
:10567000FF920F931F93CF93DF93CDB7DEB7619760
:105680000FB6F894DEBF0FBECDBF4B015C01809119
:10569000C0079091C107A091C2072091C90730911E
:1056A000CA074091CB07BC018A2F621B730B840B86
:1056B000DDDB9B01AC018091BD079091BE07A091FD
:1056C000BF07C090C607D090C707E090C807BC01CD
:1056D0008A2F6C197D098E092B873C874D875E8741
:1056E00094DB2B853C854D855E850E94A20A6B83E9
:1056F0007C838D839E83E0913801D501C40101969E
:10570000A11DB11D8F839887A987BA87C090C6074E
:10571000D090C707E090C8076090BD077090BE07A3
:105720008090BF07AE2EB12C9BE1E99FF0011124C0
:10573000E354FE4FC6018619970997FF03C0919560
:1057400081959109092E000CAA0B81839283A38372
:105750002090C9073090CA074090CB078091C007BE
:105760009091C107A091C2078F87988BA98B8BE17D
:105770008A9DF0018B9DF00D1124E354FE4FC10171
:10578000AF85B8898A1B9B0B97FF03C091958195C4
:1057900091099C01990F440B2483358346834091E2
:1057A000CC075091CD076091CE070091C3071091AF
:1057B000C4072091C5073BE13A9DC0013B9D900D78
:1057C0001124FC01E354FE4FCA01801B910B9A8304
:1057D000898397FF05C09195819591099A83898363
:1057E00089819A81092E000CAA0B87839087A18753
:1057F00081E0C614D704E8040CF080E0CF84D88898
:10580000E9882C143D044E0414F090E001C092E0AD
:10581000982B40175107620714F080E001C084E024
:105820002BE12A9DF0012B9DF00D1124E354FE4F36
:10583000892B828781819281A381C480D580E68073
:10584000C816D906EA0610F46C01EA2E8BE18A9D8F
:1058500090018B9D300D11243A83298323543E4FB0
:10586000388B2F876B817C818D819E8120E034E293
:1058700044EF50E00E94523519012A013B014C01CE
:105880004E2D960150E06F81788589859A850E941A
:10589000453559016A017B018C019101A201B301D7
:1058A000C4010E94A635AF85B88951962C935197B3
:1058B00052963C93529783E08C93E981FA81EA52A5
:1058C000FE4F8181837E81830E94210D8091C607D6
:1058D0009091C707A091C8078093BD079093BE071A
:1058E000A093BF078091C9079091CA07A091CB07E9
:1058F0008093C0079093C107A093C2078091CC0703
:105900009091CD07A091CE078093C3079093C407D1
:10591000A093C50761960FB6F894DEBF0FBECDBF4A
:10592000DF91CF911F910F91FF90EF90DF90CF907B
:10593000BF90AF909F908F907F906F905F904F90AF
:105940003F902F9008952F923F924F925F926F92C7
:105950007F928F929F92AF92BF92CF92DF92EF92FF
:10596000FF920F931F93CF93DF93CDB7DEB7659769
:105970000FB6F894DEBF0FBECDBF6A877B878C87DA
:105980009D878091C0079091C107A091C207209187
:10599000C9073091CA074091CB07BC018A2F621B0F
:1059A000730B840B63DA9B01AC018091BD0790916E
:1059B000BE07A091BF076090C6077090C707809090
:1059C000C807BC018A2F6619770988092F87388B89
:1059D000498B5A8B1ADA2F85388949895A890E944E
:1059E000A20A6E837F8388879987E091380120918E
:1059F000C6073091C7074091C8076090BD077090F7
:105A0000BE078090BF076E2F70E07A8369837BE1C9
:105A1000E79FF0011124E354FE4FC901861997094D
:105A200097FF03C0919581959109092E000CAA0B4F
:105A300081839283A3832090C9073090CA07409046
:105A4000CB078091C0079091C107A091C2078B8BB3
:105A50009C8BAD8B8BE169817A81869FF001879F5A
:105A6000F00D1124E354FE4FC1016B897C89861B24
:105A7000970B97FF03C09195819591096C01990F40
:105A8000EE08C482D582E682C090CC07D090CD07C4
:105A9000E090CE078091C3079091C407A091C507FD
:105AA0008B839C83AD835BE1E981FA815E9FC001BA
:105AB0005F9F900D1124FC01E354FE4FC6016B81E2
:105AC0007C81861B970B97FF03C091958195910967
:105AD000BC01990F880B67837087818781E0261549
