:10000000F6C2000011C300000FC300000DC30000C2
:100010000BC3000009C3000007C3000005C30000B4
:1000200003C3000001C300000C942A330C949834DD
:10003000FBC20000F9C20000F7C20000F5C20000D8
:10004000F3C200000C943F14EFC20000EDC20000A8
:10005000EBC200000C94A30BE7C20000E5C2000055
:10006000E3C200000C9487230C942623DDC2000019
:10007000DBC20000D9C20000D7C20000D5C2000018
:100080000C941827D1C20000CFC20000CDC20000DE
:10009000CBC20000C9C20000C7C20000C5C2000038
:1000A000C3C20000C1C20000BFC20000B8080609F8
:1000B00041095D09BC09030A160A380A5E0A410BA8
:1000C000BC0A790A3F0BBC0AA60AA30AA00ADF0DE4
:1000D000100E3E0E7A0EAC0EDF0E090F3F0F690FA9
:1000E000970FC80FF20F281052108510B710361A4C
:1000F000521A711A9C1AC01ADF1AF81A1C1B351BE7
:10010000541B711B8A1BAE1BC61BE51B081C463308
:1001100030300A4732380A004552524F523A204E88
:10012000756D626572206F766572666C6F772109F6
:10013000004552524F523A20556E6B6E6F776E20CB
:100140006F7220756E646566696E656420537461B4
:10015000746509004552524F523A20455850454364
:10016000545F4241534536345F343A20546F6F2018
:100170006D616E7920426173653634204279746511
:100180007320284275666665722066756C6C290955
:10019000004552524F523A204558504543545F4211
:1001A00041534536345F343A204578706563746551
:1001B0006420612042415345363420636861726196
:1001C0006374657209004552524F523A20455850A7
:1001D0004543545F4241534536345F333A20546FB0
:1001E0006F206D616E7920426173653634204279EB
:1001F00074657320284275666665722066756C6C3E
:100200002909004552524F523A204558504543540F
:100210005F4241534536345F333A20457870656319
:10022000746564206120424153453634206368611F
:1002300072616374657209004552524F523A20450B
:1002400058504543545F4241534536345F323A205B
:10025000546F6F206D616E79204261736536342072
:1002600042797465732028427566666572206675EA
:100270006C6C2909004552524F523A20455850455E
:1002800043545F4241534536345F323A20457870DB
:1002900065637465642061204241534536342063B0
:1002A000686172616374657209004552524F523A37
:1002B000204558504543545F4241534536345F31E1
:1002C0003A2045787065637465642061204241532B
:1002D0004536342063686172616374657209004554
:1002E00052524F523A204558504543545F5355425D
:1002F0004449474954533A204578706563746564AE
:10030000205B302D395C775D09004552524F523ADF
:10031000204558504543545F414E4F544845524440
:10032000494749543A204578706563746564205B99
:10033000302D392E5C775D09004552524F523A20DC
:100340004558504543545F414E4F544845524449E7
:100350004749543A20546F6F206D616E79206C6567
:100360006164696E67206469676974732109004577
:1003700052524F523A2046495253545F44494749DA
:10038000543A204578706563746564205B302D397C
:100390005C775D09004552524F523A20455850450E
:1003A00043545F4E554D4245525F4F525F5349474C
:1003B0004E3A2066696C656E616D6520616C726590
:1003C000616479207365743A20756E657870656331
:1003D0007465642063686172616374657220666F1E
:1003E000756E6409004552524F523A2045585045A7
:1003F00043545F4C45545445523A20756E657870AD
:1004000065637465642063686172616374657220FA
:10041000616E642066696C656E616D6520616C72E9
:10042000656164792073657421090053503A257819
:1004300000256420256420256420006C61736572AA
:10044000204F4646004C41534552204F4E202564D4
:10045000005A3A256E202020202020202020202015
:100460002000593A256E2020202020202020202006
:10047000202000583A256E202020202020202020F7
:100480002020200025632051756575653A2564207C
:10049000256E2000554152545F52585F46554C4CD2
:1004A000003A3A2056302E332D342D67613265657F
:1004B000643732202846697820696E7465676572F2
:1004C000206F766572666C6F7720666F7220473298
:1004D0002F33207768656E206F6E6C79205220690B
:1004E0007320676976656E29203A3A2000464F529C
:1004F0004D4154204552524F520A00726573656E49
:1005000064210A004F4B2025640A00303132333415
:10051000353637383941424344454600010000D260
:100520000512000200008F0543000300008B050444
:1005300001030904790510020309044F0528030388
:10054000090445050808033100330037000000287E
:1005500003460072006500650043004E0043002022
:10056000004C006100730065007200630075007448
:10057000007400650072000000100365002D00503B
:100580000075006E006B007400000004030904098C
:10059000024300020100C03209040000010202010E
:1005A00000052400100105240101010424020605B0
:1005B000240600010705820310004009040100021F
:1005C0000A000000070503024000000705840240FE
:1005D00000001201000202000010C0167A0400019F
:1005E000010203010001C11201803601813611248C
:1005F0001FBECFEFDAE0DEBFCDBF11E0A0E0B1E07B
:10060000E0EAFDE602C005900D92A431B107D9F7EA
:1006100028E0A4E1B1E001C01D92A636B207E1F7DF
:100620000E94792F0C94C634EBCC8CE1EDE5F1E01F
:10063000DF011D928A95E9F708952F923F924F921C
:100640005F926F927F928F929F92AF92BF92CF9262
:10065000DF92EF92FF920F931F93CF93DF93CDB76B
:10066000DEB761970FB6F894DEBF0FBECDBF4B016A
:100670005C018091600190916101A09162012091E3
:10068000690130916A0140916B01BC018A2F621BA4
:10069000730B840B0E943C209B01AC0180915D0197
:1006A00090915E01A0915F01C0906601D0906701BA
:1006B000E0906801BC018A2F6C197D098E092B8797
:1006C0003C874D875E870E940B202B853C854D859E
:1006D0005E850E94E3246B837C838D839E83E091FF
:1006E0003001D501C4010196A11DB11D8F839887EA
:1006F000A987BA87C0906601D0906701E090680131
:1007000060905D0170905E0180905F01AE2EB12C13
:100710009BE1E99FF0011124EA55FD4FC6018619BE
:10072000970997FF03C0919581959109092E000CB7
:10073000AA0B81839283A3832090690130906A0180
:1007400040906B018091600190916101A0916201E4
:100750008F87988BA98B8BE18A9DF0018B9DF00D83
:100760001124EA55FD4FC101AF85B8898A1B9B0B47
:1007700097FF03C09195819591099C01990F440BB6
:1007800024833583468340916C0150916D016091C3
:100790006E010091630110916401209165013BE1BC
:1007A0003A9DC0013B9D900D1124FC01EA55FD4F7F
:1007B000CA01801B910B9A83898397FF05C091958D
:1007C000819591099A83898389819A81092E000CE8
:1007D000AA0B87839087A18781E0C614D704E80419
:1007E0000CF080E0CF84D888E9882C143D044E04B6
:1007F00014F090E001C092E0982B40175107620777
:1008000014F080E001C084E02BE12A9DF0012B9DD3
:10081000F00D1124EA55FD4F892B82878181928149
:10082000A381C480D580E680C816D906EA0610F4F4
:100830006C01EA2E8BE18A9D90018B9D300D112475
:100840003A8329832A553D4F388B2F876B817C81D2
:100850008D819E8120E034E244EF50E00E94833598
:1008600019012A013B014C014E2D960150E06F8188
:10087000788589859A850E94763559016A017B01C0
:100880008C019101A201B301C4010E94D735AF854B
:10089000B88951962C93519752963C93529783E086
:1008A0008C93E981FA81E154FD4F8181837E8183BC
:1008B0000E948B0C8091660190916701A091680164
:1008C00080935D0190935E01A0935F018091690127
:1008D00090916A01A0916B018093600190936101F6
:1008E000A093620180916C0190916D01A0916E01C5
:1008F0008093630190936401A093650161960FB6A4
:10090000F894DEBF0FBECDBFDF91CF911F910F9145
:10091000FF90EF90DF90CF90BF90AF909F908F901F
:100920007F906F905F904F903F902F9008952F92FF
:100930003F924F925F926F927F928F929F92AF926F
:10094000BF92CF92DF92EF92FF920F931F93CF93BC
:10095000DF93CDB7DEB765970FB6F894DEBF0FBE55
:10096000CDBF6A877B878C879D878091600190913E
:100970006101A09162012091690130916A01409169
:100980006B01BC018A2F621B730B840B0E943C20FD
:100990009B01AC0180915D0190915E01A0915F018E
:1009A000609066017090670180906801BC018A2F99
:1009B0006619770988092F87388B498B5A8B0E94D3
:1009C0000B202F85388949895A890E94E3246E8338
:1009D0007F8388879987E09130012091660130916B
:1009E00067014091680160905D0170905E018090A8
:1009F0005F016E2F70E07A8369837BE1E79FF001EE
:100A00001124EA55FD4FC9018619970997FF03C0C4
:100A1000919581959109092E000CAA0B81839283EF
:100A2000A3832090690130906A0140906B0180910E
:100A3000600190916101A09162018B8B9C8BAD8BC9
:100A40008BE169817A81869FF001879FF00D1124E7
:100A5000EA55FD4FC1016B897C89861B970B97FF77
:100A600003C09195819591096C01990FEE08C4829C
:100A7000D582E682C0906C01D0906D01E0906E014D
:100A80008091630190916401A09165018B839C83A7
:100A9000AD835BE1E981FA815E9FC0015F9F900DAC
:100AA0001124FC01EA55FD4FC6016B817C81861B38
:100AB000970B97FF03C0919581959109BC01990F00
:100AC000880B67837087818781E026153705480585
:100AD0000CF080E02B893C894D89221633064406B0
:100AE00014F090E001C092E0982B4B815C816D8105
:100AF000C416D506E60614F080E001C084E02BE1C0
:100B000069817A81269FF001279FF00D1124EA5513
:100B1000FD4F892B828781819281A381848095807A
:100B2000A68088169906AA0610F44C01AA2E8BE11D
:100B3000E981FA818E9FA0018F9F500D11249A01A7
:100B40002A553D4F3C8B2B8B6E817F818885998503
:100B500020E034E244EF50E00E94833519012A017D
:100B60003B018B839E874A2D940150E06A857B85EB
:100B70008C859D850E94763559016A017B018C0127
:100B80009101A201B3018B819E850E94D735EB892B
:100B9000FC89218B328B84E0808380919507909132
:100BA0009607A0919707B09198070097A105B10506
:100BB00019F09C014A2F15C08091870790918807F2
:100BC000A0918907BC018A2F90E02E813F81488542
:100BD00059850E94C83420E432E44FE050E00E947E
:100BE000D7348BE169817A81869FF001879FF00D70
:100BF0001124DF01AA55BD4F53962D933D934C937D
:100C0000559720918A0730918B0740918C07569613
:100C10002D933D934C93E154FD4F90919207809119
:100C200093079083818377D68091660190916701C5
:100C3000A091680180935D0190935E01A0935F0194
:100C40008091690190916A01A0916B01809360018C
:100C500090936101A093620180916C0190916D016C
:100C6000A0916E018093630190936401A09365014C
:100C700065960FB6F894DEBF0FBECDBFDF91CF9162
:100C80001F910F91FF90EF90DF90CF90BF90AF90AA
:100C90009F908F907F906F905F904F903F902F909C
:100CA00008952F923F924F925F926F927F928F9210
:100CB0009F92AF92BF92CF92DF92EF92FF920F93EB
:100CC0001F93CF93DF93CDB7DEB763970FB6F8943A
:100CD000DEBF0FBECDBF6E877F87888B998B342E8A
:100CE0001091300180916F0190917001A09171017C
:100CF00020915D0130915E0140915F012901642ED8
:100D0000481A590A6A0A2091660130916701409198
:100D100068016901E42EC81AD90AEA0ACC82DD8288
:100D2000EE828091720190917301A09174012091E3
:100D3000600130916101409162017901042FE81A4C
:100D4000F90A0A0BEF82F886098720916901309130
:100D50006A0140916B016901E42EC81AD90AEA0AB6
:100D6000C982DA82EB828F819885A9850A2E000CD0
:100D7000BB0B9C01AD01E62C62010E2C000CFF08A0
:100D8000C701B6010E94E3246A877B878C879D8711
:100D900089819A81AB810A2E000CBB0B9C01AD01AD
:100DA000CC80DD80EE800E2C000CFF08C701B60160
:100DB0000E94E324262E772E982E892E0BE1109F79
:100DC000C00111249C012A553D4F3B8B2A8B6E8517
:100DD0007F858889998924E735E341E050E00E94C6
:100DE000763559016A017B018C0120E030E041E554
:100DF0005AE46DE87EE080E090E00E94D735AA8951
:100E0000BB8951962C93519752963C93622D772D26
:100E1000892D982DCA84DB84EC84FD846C157D05B6
:100E20008E059F0510F4C701B6013F92DB80DF926B
:100E3000EA80EF92F980FF92AC80BD80CE80EF8097
:100E4000F8840985462D92010E94761E0F900F901E
:100E50000F900F9020916C0130916D0140916E01C7
:100E60008091630190916401A09165012817390771
:100E70004A07E9F06E857F858889998963960FB660
:100E8000F894DEBF0FBECDBFDF91CF911F910F91C0
:100E9000FF90EF90DF90CF90BF90AF909F908F909A
:100EA0007F906F905F904F903F902F90C6CB63964E
:100EB0000FB6F894DEBF0FBECDBFDF91CF911F916B
:100EC0000F91FF90EF90DF90CF90BF90AF909F90E9
:100ED0008F907F906F905F904F903F902F900895EC
:100EE000CF92DF92EF92E09130012E2F30E09BE124
:100EF000E99FF0011124EA55FD4FC0906601D090A2
:100F00006701E0906801C182D282E382C0906901EA
:100F1000D0906A01E0906B01C482D582E682C090D5
:100F20006C01D0906D01E0906E01C782D086E186A1
:100F3000882319F0828781E003C080E7828782E0FE
:100F400080838BE1829FF001839FF00D1124EA558D
:100F5000FD4F80E49FE1928B818BDDD4809166010F
:100F600090916701A091680180935D0190935E016B
:100F7000A0935F018091690190916A01A0916B013A
:100F80008093600190936101A093620180916C0154
:100F900090916D01A0916E01809363019093640123
:100FA000A0936501EF90DF90CF9008959FEB980F8D
:100FB0009A31B0F09FE9980F9A3110F48754089550
:100FC00090ED980F9A3010F48C5F08958B3251F0A9
:100FD0008D3241F08F3241F08F3531F08FEF08952F
:100FE000892F08958EE308958FE30895CF92DF92BD
:100FF000EF92FF920F931F93CF93803241F041E025
:1010000090E0893009F040E0242F392F02C021E020
:1010100030E090911901911149C010921E01109277
:10102000BF011092C0011092C1011092C201109232
:101030007A0110927B0110927C0110927D01109236
:101040001A0110921B0110921C0110921D011092A6
:1010500018011092170110921601109215011092AA
:10106000140110927E0110927F011092790198E68E
:10107000E3EDF1E0DF01492F1D924A95E9F7EBE33B
:10108000F2E0DF011D929A95E9F79FE3E0E8F1E0D5
:10109000DF011D929A95E9F790E1E3ECF1E0DF01C1
:1010A0001D929A95E9F791E0909319018D3009F41A
:1010B000E6C28A30B9F580917901882351F0909188
:1010C0007F0180917E01981741F08BE08093190198
:1010D00004C0809115018111F8CF809119018A30E7
:1010E00031F08B3039F41092190182E0CBC21092AA
:1010F0001901C7C280911501811106C00E94A32B5E
:101100001092190181E0BEC2C0E080911501C8179C
:10111000A8F7EC2FF0E0E058FE4F80810E94B9253F
:10112000CF5FF3CFE09119018A3221F4EA3011F058
:101130008EE0EAC1C0EDC80F91E0CA3008F090E03F
:10114000EE3009F4DAC140917901411105C04091B6
:101150007E01482740937E014E2F50E0FA013197DF
:10116000E131F10508F008C2EA5AFF4F0C94153539
:101170004FEB480F4A3118F540931E0181E090E093
:10118000A0E0B0E004C0880F991FAA1FBB1F4A95BA
:10119000D2F74091BF015091C0016091C10170919F
:1011A000C201842B952BA62BB72B8093BF01909364
:1011B000C001A093C101B093C20182E0A5C1232B5D
:1011C00009F05DC28B3309F49AC1883209F49BC1DE
:1011D000843211F486E098C1873211F480E194C121
:1011E000823211F481E190C19091140191110BC0F0
:1011F0009FE09093190191E0909314018093C301B3
:101200001092C4013CC285EE93E0D6C1232B11F0AD
:1012100081E07AC191111BC08B32C9F08D32B9F0D7
:1012200090911401992319F085E993E0C5C19FE0DD
:101230009093190190911E019F5B9093C30192E0DE
:10124000909314018093C4011092C50118C223E049
:101250002093190110921A0110921B0110921C0187
:1012600010921D0110921701109216018D3221F477
:1012700081E08093180103C2109218018B3219F497
:10128000FEC1232B29F6911103C08FE693E094C190
:1012900090E0C097092E000CAA0BBB0B80931A019B
:1012A00090931B01A0931C01B0931D018091170125
:1012B0008F5F8093170184E059C0992309F437C0E8
:1012C000209117012A3018F089E393E075C18091CD
:1012D0001A0190911B01A0911C01B0911D01880F72
:1012E000991FAA1FBB1FBF93AF939F938F93880F24
:1012F000991FAA1FBB1F880F991FAA1FBB1F0F9002
:10130000800D0F90901D0F90A01D0F90B01D8C0FA1
:10131000911DA11DB11D80931A0190931B01A093F3
:101320001C01B0931D012F5F2093170128C18E323D
:1013300011F485E01BC0232B11F081E017C08A3225
:1013400011F48EE013C08B3311F48DE00FC088329E
:1013500011F48CE00BC0843211F486E007C08732B0
:1013600011F480E103C0823221F481E180931901FC
:1013700006C18AE093E020C1992309F43EC0209180
:101380001601233008F07BC130911701822F90E0C5
:10139000830F911D0A970CF072C180911A019091F0
:1013A0001B01A0911C01B0911D01880F991FAA1F5C
:1013B000BB1FBF93AF939F938F93880F991FAA1F53
:1013C000BB1F880F991FAA1FBB1F0F90800D0F9086
:1013D000901D0F90A01D0F90B01D8C0F911DA11D91
:1013E000B11D80931A0190931B01A0931C01B0932F
:1013F0001D012F5F20931601C2C0232B09F008CFD7
:101400008FED92E0D9C0232B09F002CFCFDD8034DD
:1014100018F08AEA92E0D0C0E0911501F0E0E058BF
:10142000FE4F880F880F808387E06EC0BFDD803459
:1014300018F085E792E0C0C0A0911501E1E0EA0F45
:10144000E0931501B0E0A058BE4F9C91282F229543
:101450002F70922B9C93EF3318F088E392E0ACC08E
:10146000F0E0E058FE4F8295807F808388E04CC09A
:101470008D3311F19BDD803418F083E092E09CC045
:10148000A0911501E1E0EA0FE0931501B0E0A0584A
:10149000BE4F9C91282F26952695922B9C93EF3337
:1014A00018F086EC91E088C0F0E0E058FE4F82959D
:1014B000880F880F807C808389E026C08D3309F4F3
:1014C00089CE74DD803418F081E991E075C0E09137
:1014D000150121E02E0F20931501F0E0E058FE4F9A
:1014E0009081892B80832F3308F474CE84E591E0BA
:1014F00063C0893209F0C3C08BCE8B3311F48DE009
:1015000003C0883221F48CE080931901B8C099237C
:1015100021F090917F019A3120F08AE080931901A7
:10152000B0C0209179012F5F20937901990F292F65
:10153000220F220F920F9053890F80937F019FC03B
:10154000823239F465CE873221F462CE232B09F042
:101550005FCEE091140191E09E0FF0E0ED53FE4F5D
:101560008083E92FF0E0ED53FE4F10829093140139
:10157000903108F086C083C081E391E01DC0609186
:101580001A0170911B0180911C0190911D01C09165
:10159000160107C0AAE0B0E09B01AC010E941B3518
:1015A000CF5FC33098F46A39B9E97B078B07B9E19B
:1015B0009B0784F388E191E09F938F930E94EA3226
:1015C0008AE0809319010F900F905BC02AE0C22E31
:1015D000D12CE12CF12CC33061F06B5F7F4F8F4F2A
:1015E0009F4FA70196010E94F934CA01B901C15069
:1015F000F2CF20911801222339F0909580957095B3
:1016000061957F4F8F4F9F4FC0911E01E4E0CE9FA9
:1016100090011124F901ED52FE4F608371838283A2
:1016200093838901055C1D4F28EE33E040E050E0D4
:101630000E94F934D8012D933D934D935C931397F9
:1016400081E090E0A0E0B0E004C0880F991FAA1FDD
:10165000BB1FCA95D2F740917A0150917B016091EE
:101660007C0170917D01842B952BA62BB72B809349
:101670007A0190937B01A0937C01B0937D0180E07F
:1016800001C083E0CF911F910F91FF90EF90DF9009
:10169000CF900895CF93DF9310921901EEE0F1E01F
:1016A0008491EF012196882319F0A0DCFE01F8CF88
:1016B000DF91CF910895609126017091270180916B
:1016C00028019091290108953FB7F89426B52695F1
:1016D00080912B0190912C01A0912D01B0912E01B0
:1016E0003FBFBC01CD01620F711D811D911D089589
:1016F00010922B0110922C0110922D0110922E01AC
:1017000010922A01109226011092270110922801AE
:101710001092290182E084BD85BD99EF97BD16BC6A
:1017200080936E008AE0809325018093240180934A
:1017300023018093220196E0909321018093200160
:1017400090931F0108951F920F920FB60F921124CC
:101750002F933F938F939F93AF93BF935F9A85B1DE
:10176000817F85B9299A2DB73EB78091000190916C
:1017700001012817390730F48DB79EB79093010106
:101780008093000180912B0190912C01A0912D015B
:10179000B0912E0183589F4FAF4FBF4F80932B01C5
:1017A00090932C01A0932D01B0932E0180912A01DA
:1017B0008F5F80932A01883008F481C080912A01CC
:1017C000885080932A018091260190912701A09151
:1017D0002801B09129010196A11DB11D8093260118
:1017E00090932701A0932801B09329018091A3022F
:1017F00081608093A302809125018150809325010F
:1018000081115DC08091A30282608093A3028AE06F
:10181000809325019091240191509093240191117E
:101820004EC09091A30294609093A30280932401F0
:1018300090912301915090932301911140C0909178
:10184000A30298609093A3028093230190912201B8
:10185000915090932201911132C09091A302906116
:101860009093A30280932201909121019150909333
:101870002101911124C09091A30290629093A30240
:1018800026E0209321019091200191509093200116
:10189000911115C09091A30290649093A30280933C
:1018A000200180911F01815080931F01811107C089
:1018B0008091A30280688093A30220931F0185B1C9
:1018C000817F85B95F98BF91AF919F918F913F9133
:1018D0002F910F900FBE0F901F90189510922F010F
:1018E0001092300108952091300190912F0181E0F4
:1018F000291380E008952091300140912F0130E0BC
:101900002F5F3F4F2F71332750E081E024173507B9
:1019100009F080E00895EFDF882321F082E40E943F
:10192000162FF9CF809130018F5F8F718093300136
:10193000089580912F018F5F8F7180932F010895FB
:101940008091300190912F01891B8F7108956F92C2
:101950007F928F92CF92DF92EF92CF93DF93E091BD
:10196000A402F091A502EF01858580FF2BC0818143
:10197000813011F42F9A01C02F982F89388D498D0D
:10198000C8A0D9A0EAA08E859F85A8895527820F77
:10199000931FA41F20F453958C199D09AE098E87BF
:1019A0009F87A88B552371F02E9A29818C819D8168
:1019B000AE81022E0594820F901DA01D8C839D8305
:1019C000AE832E988D8581FF2BC08A81813011F4E2
:1019D0002D9801C02D9A2A8D3B8D4C8DC8A0D9A081
:1019E000EAA089899A89AB895527820F931FA41F82
:1019F00020F453958C199D09AE09898B9A8BAB8B7A
:101A0000552371F02C9A2A818F819885A985022E01
:101A10000594820F901DA01D8F839887A9872C980D
:101A20008D8582FF2BC08B81813011F4469A01C0D5
:101A300046982D8D3E8D4F8DC8A0D9A0EAA08C89E7
:101A40009D89AE895527820F931FA41F20F45395BB
:101A50008C199D09AE098C8B9D8BAE8B552371F033
:101A6000479A2B818A859B85AC85022E0594820F2F
:101A7000901DA01D8A879B87AC874798FE018D85A6
:101A8000877009F461C06DA57EA5CB016034710536
:101A900080F021E08038910520F02F5F96958795A2
:101AA000F9CF8F73992740E4249F90011124822B52
:101AB000932B63A074A085A0E82C630121E0C21AD7
:101AC000D108E10820A131A142A12619370948090E
:101AD000C216D306E40610F44E2D96018217930722
:101AE00018F0821B930B02C080E090E0AC01A6E0EE
:101AF00056954795AA95E1F7242F442319F0806461
:101B00002FEF240F8F779927222341F097FD04C0F0
:101B1000880F991F2150F8CF8FEF9FEF6817790733
:101B200008F4CB01803D47E0940710F480ED97E086
:101B30009093890080938800C3A2D4A2E5A281E09B
:101B4000CD28CE2809F480E0DF91CF91EF90DF908F
:101B5000CF908F907F906F9008954F925F926F9289
:101B60007F928F929F92AF92BF92CF92DF92EF922D
:101B7000FF920F931F93CF93DF93A091A402B09194
:101B8000A502ED01EC914E2F50E0FA017097E03183
:101B9000F10508F028C3E959FF4F1E96CD90DD905E
:101BA000EC90509796968D909D90AD90BC909997A3
:101BB00051962D913D914C9153970C9415355A9611
:101BC0004D905D906C905C974C185D086E08062CEB
:101BD000000C7708481459046A047B045CF001E0A7
:101BE000C01AD108E1081E96CD92DD92EC92509772
:101BF00081E001C080E02F5F3F4F4F4F51962D9302
:101C00003D934C93539788601E96CD90DD90EC9059
:101C100050972C153D054E050CF4E6C291E1E1C24A
:101C200057966D917D918C9159972901642E461A92
:101C3000570A680A062C000C7708481459046A04ED
:101C40007B0454F42F5F3F4F4F4F51962D933D939C
:101C50004C93539788E001C080E011E0C11AD1088D
:101C6000E1081E96CD92DD92EC92509781601C1493
:101C70001D041E040CF4B8C292E1B3C257964D90F5
:101C80005D906C905997420E531E641E6094509460
:101C90004094411C511C611C062C000C7708481410
:101CA00059046A047B0454F02150310941095196CA
:101CB0002D933D934C93539784E001C080E021E045
:101CC000C21AD108E1081E96CD92DD92EC9250978F
:101CD000816051962D913D914C915397409530954F
:101CE00021953F4F4F4F2C153D054E050CF47CC2FE
:101CF00093E177C25A964D905D906C905C974C0C36
:101D00005D1C6E1C609450944094411C511C611CDD
:101D1000062C000C7708481459046A047B045CF410
:101D200081E0C81AD108E1081E96CD92DD92EC92AE
:101D3000509781E001C080E021503109410951965E
:101D40002D933D934C9353978460121613061406FB
:101D50000CF44AC294E145C25A966D917D918C91E2
:101D60005C9726016E2C461A570A680A062C000C4E
:101D70007708481459046A047B045CF09FEFC91A81
:101D8000D90AE90A1E96CD92DD92EC92509782E034
:101D900001C080E021503109410951962D933D93B6
:101DA0004C93539784601E96CD90DD90EC905097A5
:101DB000C216D306E4060CF417C295E112C2579678
:101DC0004D905D906C905997421A530A640A062C04
:101DD000000C7708481459046A047B0454F4215019
:101DE0003109410951962D933D934C93539784E0CB
:101DF00001C080E0EFEFCE1ADE0AEE0A1E96CD9209
:101E0000DD92EC9250978260EE200CF4EDC196E1E9
:101E1000E8C157964D905D906C905997420E531EB5
:101E2000641E062C000C7708481459046A047B04CD
:101E300054F02F5F3F4F4F4F51962D933D934C934E
:101E4000539788E001C080E0FFEFCF1ADF0AEF0A66
:101E50001E96CD92DD92EC925097826051962D9114
:101E60003D914C9153974095309521953F4F4F4F61
:101E7000C216D306E4060CF4B7C197E1B2C15A9674
:101E80004D905D906C905C974C0C5D1C6E1C062C0C
:101E9000000C7708481459046A047B045CF40FEFC3
:101EA000C01AD00AE00A1E96CD92DD92EC925097AD
:101EB00082E001C080E02F5F3F4F4F4F51962D933E
:101EC0003D934C935397886044230CF48DC190E16B
:101ED00088C15A966D917D918C915C9726016E2CEC
:101EE000461A570A680A062C000C77084814590449
:101EF0006A047B045CF41FEFC11AD10AE10A1E9642
:101F0000CD92DD92EC92509782E001C080E02150AA
:101F10003109410951962D933D934C935397846019
:101F20001216130614060CF45FC19FE15AC15796AE
:101F30004D905D906C905997421A530A640A062C92
:101F4000000C7708481459046A047B0454F02150AB
:101F50003109410951962D933D934C93539784E059
:101F600001C080E02FEFC21AD20AE20A1E96CD927B
:101F7000DD92EC925097826051962D913D914C915B
:101F800053972C153D054E050CF02EC198E129C143
:101F900057964D905D906C905997420E531E641E5B
:101FA000062C000C7708481459046A047B0454F486
:101FB0002F5F3F4F4F4F51962D933D934C93539727
:101FC00088E001C080E03FEFC31AD30AE30A1E96FF
:101FD000CD92DD92EC9250978260EE200CF404C119
:101FE00099E1FFC05A964D905D906C905C974C0CB7
:101FF0005D1C6E1C062C000C7708481459046A04FA
:102000007B045CF08FEFC81AD80AE80A1E96CD92BE
:10201000DD92EC92509782E001C080E02F5F3F4F4D
:102020004F4F51962D933D934C9353978860409515
:10203000309521953F4F4F4F1E96CD90DD90EC90FF
:1020400050972C153D054E050CF0CEC09AE1C9C045
:102050005A964D905D906C905C974C185D086E0898
:10206000062C000C7708481459046A047B045CF4BD
:1020700091E0C91AD108E1081E96CD92DD92EC924A
:10208000509781E001C080E02F5F3F4F4F4F519646
:102090002D933D934C935397886044230CF4A4C034
:1020A0009BE19FC057966D917D918C915997290125
:1020B000642E461A570A680A062C000C7708481442
:1020C00059046A047B0454F02F5F3F4F4F4F5196E1
:1020D0002D933D934C93539788E001C080E0E1E05D
:1020E000CE1AD108E1081E96CD92DD92EC9250975F
:1020F000816051962D913D914C915397C216D30614
:10210000E4060CF071C09CE16CC057964D905D9058
:102110006C905997420E531E641E609450944094E4
:10212000411C511C611C062C000C770848145904F2
:102130006A047B0454F421503109410951962D93CE
:102140003D934C93539784E001C080E0F1E0CF1AB7
:10215000D108E1081E96CD92DD92EC9250978160F5
:102160001C141D041E040CF43FC09DE13AC05A9695
:102170004D905D906C905C974C0C5D1C6E1C609457
:1021800050944094411C511C611C062C000C770893
:10219000481459046A047B045CF001E0C01AD108B9
:1021A000E1081E96CD92DD92EC92509781E001C03D
:1021B00080E021503109410951962D933D934C9374
:1021C000539784604095309521953F4F4F4F1E9611
:1021D000CD90DD90EC905097C216D306E40624F41F
:1021E0009EE19C9301C080E080FF2EC02F98CF8895
:1021F000D88CE98C4E2D96012150310941094901B5
:10220000A42E0A2C000CBB08B501A4018EA09FA02F
:10221000A8A4B9A4480D591D6A1D7B1D4EA35FA338
:1022200068A779A702E0C01AD108E108CF8AD88E42
:10223000E98E2E9A2C813D814E8121503109410930
:102240002C833D834E832E9881FF31C02F9AFE014F
:102250002F89388D498D6901E42E12E0C10ED11C01
:10226000E11CCF8AD88EE98E2F5F3F4F4F4F490137
:10227000A42E0A2C000CBB08B501A4018EA09FA0BF
:10228000A8A4B9A485017401E41AF50A060B170B7A
:10229000E6A2F7A200A711A72E9A2C813D814E81BC
:1022A0002F5F3F4F4F4F2C833D834E832E9882FFED
:1022B0002EC02D9ACA8CDB8CEC8C4E2D96012150B1
:1022C000310941094901A42E0A2C000CBB08B501B3
:1022D000A4018EA09FA0A8A4B9A4480D591D6A1DF1
:1022E0007B1D4EA35FA368A779A702E0C01AD1089F
:1022F000E108CA8EDB8EEC8E2C9A2F8138854985B9
:102300002150310941092F83388749872C9883FF51
:102310002AC02D98FE018A8D9B8DAC8D9C014A2F81
:102320002E5F3F4F4F4F2A8F3B8F4C8F0196A11D41
:102330000A2E000CBB0B4EA15FA168A579A54A012E
:102340005B01881A990AAA0ABB0A86A297A2A0A6CC
:10235000B1A62C9A8F819885A9850196A11D8F839E
:102360009887A9872C988D8582FF2BC08B8181301F
:1023700011F4469A01C046982D8D3E8D4F8DC8A010
:10238000D9A0EAA08C899D89AE895527820F931F19
:10239000A41F20F453958C199D09AE098C8B9D8B3D
:1023A000AE8B552371F0479A2B818A859B85AC852E
:1023B000022E0594820F901DA01D8A879B87AC87F3
:1023C00047986E012AA53BA54CA550E0ADA5BEA53A
:1023D0000E941B3529893A8937FF03C03195219521
:1023E0003109F6014685578557FF03C05195419540
:1023F0005109241735070CF49A01032E000C440BE5
:10240000550B0E94D7343093890020938800F60141
:1024100023A134A145A121503109410923A334A3AB
:1024200045A381E0232B242B09F480E0DF91CF9199
:102430001F910F91FF90EF90DF90CF90BF90AF90E2
:102440009F908F907F906F905F904F900895CF9264
:10245000DF92EF92CF93DF93E091A402F091A50277
:10246000EF01858580FF2BC08181813011F42F9A87
:1024700001C02F982F89388D498DC8A0D9A0EAA016
:102480008E859F85A8895527820F931FA41F20F44E
:1024900053958C199D09AE098E879F87A88B55236C
:1024A00071F02E9A29818C819D81AE81022E059436
:1024B000820F901DA01D8C839D83AE832E988D85E9
:1024C00081FF2BC08A81813011F42D9801C02D9A93
:1024D0002A8D3B8D4C8DC8A0D9A0EAA089899A8904
:1024E000AB895527820F931FA41F20F453958C1995
:1024F0009D09AE09898B9A8BAB8B552371F02C9A71
:102500002A818F819885A985022E0594820F901DBE
:10251000A01D8F839887A9872C988D8582FF2BC05B
:102520008B81813011F4469A01C046982D8D3E8DE5
:102530004F8DC8A0D9A0EAA08C899D89AE89552766
:10254000820F931FA41F20F453958C199D09AE0987
:102550008C8B9D8BAE8B552371F0479A2B818A858E
:102560009B85AC85022E0594820F901DA01D8A8745
:102570009B87AC8747988DA59EA5909389008093F3
:1025800088008D85877071F02BA13CA14DA1215051
:10259000310941092BA33CA34DA381E0232B242B1C
:1025A00009F480E0DF91CF91EF90DF90CF90089514
:1025B0008F929F92AF92BF92CF92DF92EF92FF9253
:1025C0000F931F93CF93DF93E091A402F091A502A4
:1025D000EF0190818585913009F06AC080FF04C0C9
:1025E000789902C08E7F8587858581FF04C079999F
:1025F00002C08D7F85878585982F9B7F958780FF7B
:102600000EC02E9A29818C819D81AE81022E059467
:10261000820F901DA01D8C839D83AE832E988D8587
:1026200081FF0EC02C9A2A818F819885A985022E60
:102630000594820F901DA01D8F839887A9872C98E1
:102640008D8582FF0EC0479A2B818A859B85AC853C
:10265000022E0594820F901DA01D8A879B87AC8750
:1026600047988D85982F977009F582958F7091E125
:10267000899F802D11248D8781E089838FEF8A8344
:102680001B822F9A8A81813011F42D9801C02D9AD6
:102690008B81813011F4469A01C0469882E088838C
:1026A0008FEF9FEF909389008093880081E0DAC0DC
:1026B00080FF04C0789B02C08E7F8587858581FF5F
:1026C00004C0799B02C08D7F85878585982F9B7F6D
:1026D000958780FF0EC02E9A29818C819D81AE81C5
:1026E000022E0594820F901DA01D8C839D83AE83C6
:1026F0002E988D8581FF0EC02C9A2A818F81988516
:10270000A985022E0594820F901DA01D8F839887A6
:10271000A9872C988D8582FF0EC0479A2B818A85C8
:102720009B85AC85022E0594820F901DA01D8A8783
:102730009B87AC874798FE019D85892F877009F09C
:10274000B5CF92959F709D8790FF2BC02C813D81C6
:102750004E814901A42E0A2C000CBB08950184016E
:102760008092060690920706A0920806B09209068B
:10277000CF88D88CE98CCC82DD82EE824601AE2CEB
:102780000A2C000CBB08B501A401401B510B620BC5
:10279000730B4093120650931306609314067093C4
:1027A000150691FF2BC02781308541855901C42E24
:1027B0000C2C000CDD0896018501A0920A06B0924F
:1027C0000B06C0920C06D0920D06C28CD38CE48C02
:1027D000C782D086E1864601AE2C0A2C000CBB08CD
:1027E000B501A401401B510B620B730B40931606FD
:1027F00050931706609318067093190692FF2BC02A
:102800002285338544855901C42E0C2C000CDD082B
:1028100096018501A0920E06B0920F06C092100696
:10282000D0921106C58CD68CE78CC286D386E486FE
:102830004601AE2C0A2C000CBB08B501A401401BBC
:10284000510B620B730B40931A0650931B06609357
:102850001C0670931D0610822FEF3FEF3093890006
:1028600020938800DF91CF911F910F91FF90EF90FF
:10287000DF90CF90BF90AF909F908F9008951F9260
:102880000F920FB60F9211246F927F928F92CF9278
:10289000DF92EF92FF920F931F932F933F934F93EB
:1028A0005F936F937F938F939F93AF93BF93CF93D8
:1028B000DF93EF93FF935F9A85B1817F85B92A9A61
:1028C0000091A4021091A502E80180912F012DB77B
:1028D0003EB780910001909101012817390730F42B
:1028E0008DB79EB79093010180930001D801D996CE
:1028F0008C91982F9295969597708695869587706E
:10290000981721F190FF05C081FF03C080E00E946D
:102910005926F80181AD86FF07C082FF05C060E03F
:1029200070E080E00E94B226D801D9968C918C711B
:1029300011F40E945926F80181AD982F969596952D
:102940009295990F907E8F71892B81AFD8011D963A
:102950008C911D9783FF0FC1D2962D913D914C9183
:10296000D4979096CD90DD90EC9092979F968D9114
:102970009D91AC915527820F931FA41F20F453956E
:102980008C199D09AE09F80187A790ABA1AB55231F
:1029900009F4F1C08E0129AD822F86958695877046
:1029A000982F947009F4BEC08AAD282F26952695DD
:1029B00026952F7030E0877090E08217930784F19E
:1029C0000E9475259AAD2BAD3CAD96959695969542
:1029D0009F70882369F0790102C0EE0CFF1C9A9564
:1029E000E2F70E94A0259701282B3CAF2BAF0AC02D
:1029F00002C0220F331F9A95E2F7D801DC963C9370
:102A00002E93DB97F80182AD982F96959695969523
:102A1000985F9F70990F990F990F8778892B82AFD4
:102A20007E018AAD982F9770292F30E08695869584
:102A300086958F70B9016F5F7F4F482F50E04850E7
:102A4000510957FF02C040E050E0641B750BD701ED
:102A5000DB964D915C91DC9702C0440F551F6A953F
:102A6000E2F78150891B8F70982F990F990F990F5A
:102A7000DA968C91DA978778892BDA968C93DA97A5
:102A8000852F9927182F5527DC965C934E93DB975B
:102A900022303105B1F044F42115310561F02130C7
:102AA0003105F9F415E51AC023303105B1F02530B0
:102AB000310559F016C011E0892B09F410E0119589
:102AC00010C019E0189F102D1124B4E01B9FC00105
:102AD000112412951F70182B04C011E1189F102D9E
:102AE0001124F70181AD82FF03C0812F0E94592676
:102AF000D701D9968C9183FF3EC01123E1F18FEF6E
:102B00000E945926F70125A936A947A950E0A12F0F
:102B1000B0E00E941B35672F782F892F99270E94DC
:102B2000B22629C081FF11C0D801D8968C91922F6E
:102B3000937095958795959587950E945926F801EC
:102B400065A976A987A90E94B226D801D9962C91A9
:102B5000D99722FF0AC0D8968C91922F93709595A1
:102B60008795959587950E945926F80181AD8C71BE
:102B700011F40E9459268E018881833079F020F467
:102B8000813080F015DD0CC0843031F0805180310F
:102B900048F40E94AD0D04C05ADC02C00E94A70C8C
:102BA000811106C3D8011C92D9968C91D997837E46
:102BB000D9968C930E94730C8111FAC240912F0117
:102BC000F80182AD17A610AA11AA12AA13AA14AA74
:102BD00015AA16AA17AA10AE11AE382F307832AF48
:102BE000842F90E0BBE14B9FA0011124FA01EA552C
:102BF000FD4F2081D8012C93233009F4A0C058F454
:102C0000213009F462C208F493C28285D8011D966E
:102C10008C931D976EC2243009F44FC1205120318E
:102C200008F08BC2618072808380D80190966D928B
:102C30007D928C92929793966D927D928C929597BD
:102C4000C480D580E6801E96CD92DD92EC9250979E
:102C5000CC0CDD1CEE1C5796CD92DD92EC92599770
:102C6000C780D084E1845196CD92DD92EC92539747
:102C7000CC0CDD1CEE1C5A96CD92DD92EC925C974A
:102C8000C284D384E484F5849696CD92DD92ED924D
:102C9000FC929997C684D784E0889A96CD92DD926B
:102CA000EC929C97618972899E967C936E939D9716
:102CB00023E01D962C931D97228D2C7109F43DC2A3
:102CC0002BE01D962C93A82DC301A695979587956B
:102CD000CC24DD24EE24C81AD90AEA0AD8019F962A
:102CE000CD92DD92EC92D197C388D488E588D296B4
:102CF000CD92DD92EC9286899789A08DF80185AB03
:102D000096ABA7ABFA01E154FD4F20819181892F49
:102D10008370D801D8962C93D897D9968C93D9974D
:102D2000FA01E054FD4F90819C71982BD9969C93A9
:102D3000D9978081829586958770832BC3C1D801EE
:102D40001D961C92218132814381F801278B308F9F
:102D5000418F232B242B11F021E025872BE1289F85
:102D6000F001299FF00D1124EA55FD4F2481358192
:102D70004681D8015A962D933D934C935C97232B13
:102D8000242B31F01D962C911D9722601D962C93BB
:102D90002BE1289FF001299FF00D1124EA55FD4FEA
:102DA000278130854185F801258F368F478F232B6A
:102DB000242B19F02585246025872BE1289FF0011D
:102DC000299FF00D1124EA55FD4FC180D280E38088
:102DD0002481358146812C153D054E0510F44E2D7C
:102DE00096015BE1589FF001599FF00D1124EA55BF
:102DF000FD4FC780D084E1842C153D054E0510F4AD
:102E00004E2D9601D80190962D933D934C93929719
:102E1000F80123A334A345A34695379527954095FC
:102E2000309521953F4F4F4F1E962D933D934C93D8
:102E30005097218B328B438B54962D933D934C931B
:102E40002BE1289FF001299FF00D1124EA55FD4F39
:102E5000228520FD02C021E001C02FEFF80121836F
:102E60002BE1289FF001299FF00D1124EA55FD4F19
:102E7000228521FD02C021E001C02FEFD80112966A
:102E80002C932BE1289FF001299FF00D1124EA5586
:102E9000FD4F228522FD02C021E001C02FEFF80185
:102EA00023832BE1289FF001299FF00D1124EA557F
:102EB000FD4F81899289D80136C1D8011D961C9297
:102EC000218132814381F801278B308F418F232B61
:102ED000242B11F021E025872BE1289FF001299F69
:102EE000F00D1124EA55FD4F248135814681D8012A
:102EF0005A962D933D934C935C97232B242B31F0C2
:102F00001D962C911D9722601D962C932BE1289FD6
:102F1000F001299FF00D1124EA55FD4F27813085DE
:102F20004185F801258F368F478F232B242B19F0ED
:102F30002585246025872BE1289FF001299FF00D2E
:102F40001124EA55FD4FC180D280E3802481358170
:102F500046812C153D054E0510F44E2D96015BE182
:102F6000589FF001599FF00D1124EA55FD4FC7807D
:102F7000D084E1842C153D054E0510F44E2D9601AC
:102F8000D80190962D933D934C939297F80123A3EB
:102F900034A345A3469537952795409530952195BF
:102FA0003F4F4F4F1E962D933D934C935097218B3F
:102FB000328B438B54962D933D934C935BE1589FFA
:102FC000F001599FF00D1124EA55FD4F528550FD37
:102FD00002C051E001C05FEFF80151835BE1589FEF
:102FE000F001599FF00D1124EA55FD4F528551FD16
:102FF00002C051E001C05FEFD80112965C935BE123
:10300000589FF001599FF00D1124EA55FD4F52854C
:1030100052FD02C051E001C05FEFF80153835BE154
:10302000589FB001599F700D1124CB018A559D4FB7
:103030007C01DC0151968D919C91529796A785A7B2
:103040005A968C915A978C7109F477C0858588605F
:10305000858727A730AB41AB53968D919D91AC915D
:1030600082AB93ABA4ABF70186899789A08DF80159
:1030700085AB96ABA7ABFB01E154FD4F208181816D
:10308000982F9370D801D8962C93D897D9968C9175
:10309000D9978C7F892BD9968C93D997FB01E054D3
:1030A000FD4F90819C71837E892BD9968C93D99703
:1030B0008081982F929596959770DA968C91DA97F1
:1030C000887F892BDA968C9338C0828591E1899F1D
:1030D000802D11248777D8011D968C931D978FEF33
:1030E00011968C93119712962C93129713961C920B
:1030F000139721813281438157962D933D934C93B1
:1031000059972481358146815A962D933D934C934E
:103110005C972781308541855D962D933D934C9337
:103120005F97818992899E969C938E939D9705C007
:103130008FEF9FEFF80196A785A70E94990CD80101
:1031400011968C91813011F42F9A01C02F988A81A9
:10315000813011F42D9801C02D9A8B81813011F4AA
:10316000469A01C046988E0129AD23FF0CC088A164
:1031700099A1AAA1A69597958795A09590958195D7
:103180009F4FAF4F03C08FEF9FEFAFEFF80187A7BF
:1031900090ABA1AB2C7119F480E00E945926D801A4
:1031A0009D968D919C919E97909389008093880025
:1031B00085B1817F85B95F98FF91EF91DF91CF91C4
:1031C000BF91AF919F918F917F916F915F914F913F
:1031D0003F912F911F910F91FF90EF90DF90CF9033
:1031E0008F907F906F900F900FBE0F901F9018954B
:1031F0000E94730C811104C083E50E94162FF8CF42
:1032000080911E06882321F083E70E94162FF8CFB5
:103210000C946825EF92FF920F931F932FB7F894A9
:1032200090E0FC01EE0FFF1F8E0F9F1FFC01E25E7E
:10323000F94F84819581A6817C010A2F002E000C14
:10324000110BC801B7012FBF1F910F91FF90EF9095
:1032500008950E946E0C269A2E98279A2F9880988F
:103260008898249A2C98259A2D9A819889983F9A23
:1032700047983E9A46980E9468258EE196E0909382
:10328000A5028093A4021092800089E080938100BF
:103290008FEF9FEF909389008093880010928500B4
:1032A00010928400EFE6F0E08081826080830895D0
:1032B000EF92FF920F931F93002309F442C016165A
:1032C00017061806190654F457FD2AC026173707A3
:1032D000480759070CF472C081E18FC0121613061B
:1032E000140615068CF47B018C0188279927DC01D4
:1032F0008E199F09A00BB10B82179307A407B5077E
:103300000CF45EC083E179C06115710581059105FA
:1033100009F060C0211531054105510509F463C06C
:103320007B018C0188279927DC018E199F09A00B4E
:10333000B10B281739074A075B070CF443C087E134
:103340005CC016161706180619064CF457FD26C061
:103350002617370748075907BCF189E14EC01216F6
:1033600013061406150684F47B018C01882799271F
:10337000DC018E199F09A00BB10B82179307A407DC
:10338000B50724F18BE139C06115710581059105FF
:1033900061F5211531054105510529F17B018C01AC
:1033A00088279927DC018E199F09A00BB10B2817DC
:1033B00039074A075B0764F08FE11FC080E11DC039
:1033C00082E11BC086E119C088E117C08AE115C0FF
:1033D0008EE113C0621773078407950714F085E127
:1033E0000CC084E10AC08FEF08C06217730784071E
:1033F000950714F08DE101C08CE11F910F91FF90B2
:10340000EF9008954F925F926F927F928F929F926A
:10341000AF92BF92CF92DF92EF92FF920F931F93E2
:10342000E09149018E2F90E0FC01709700914E01D0
:1034300010914F01209150013091510140914A016A
:1034400050914B0160914C0170914D01E031F105BB
:1034500008F00AC2E958FF4FC0904501D0904601DC
:10346000E0904701F09048010C94153580903D01A3
:1034700090903E01A0903F01B0904001801A910AC7
:10348000A20AB30A81E08C149D04AE04BF040CF4BC
:1034900080E0886040175107620773070CF4E5C1AC
:1034A00091E1DFC18091410190914201A0914301DE
:1034B000B09144014A015B01881A990AAA0ABB0A21
:1034C0008C149D04AE04BF0414F488E001C080E0B5
:1034D000816010161106120613060CF4C6C192E1A3
:1034E000C0C18091410190914201A0914301B091EE
:1034F0004401840F951FA61FB71FB095A095909506
:1035000081959F4FAF4FBF4F8C159D05AE05BF05F1
:1035100014F084E001C080E08160CC24DD247601D9
:10352000C41AD50AE60AF70AC016D106E206F3065F
:103530000CF49BC193E195C180903D0190903E01B8
:10354000A0903F01B0904001800E911EA21EB31EBC
:10355000B094A09490948094811C911CA11CB11CE7
:1035600081E08C149D04AE04BF040CF080E0846004
:1035700014161506160617060CF477C194E171C1EE
:1035800080913D0190913E01A0913F01B091400199
:1035900048015901881A990AAA0ABB0A8C149D0489
:1035A000AE04BF0414F082E001C080E08460041720
:1035B0001507260737070CF458C195E152C18091D1
:1035C000410190914201A0914301B0914401841BBB
:1035D000950BA60BB70B8C159D05AE05BF0514F416
:1035E00084E001C080E0826037FD3FC196E139C1CF
:1035F0008091410190914201A0914301B091440119
:10360000840F951FA61FB71F8C159D05AE05BF051E
:1036100014F088E001C080E08260CC24DD247601D3
:10362000C41AD50AE60AF70A0C151D052E053F0532
:103630000CF41BC197E115C180913D0190913E01B1
:10364000A0913F01B0914001800F911FA21FB31FB5
:103650008C159D05AE05BF0514F482E001C080E025
:10366000886077FD02C190E1FCC080913D0190919E
:103670003E01A0913F01B091400148015901881AD3
:10368000990AAA0ABB0A8C149D04AE04BF0414F460
:1036900082E001C080E08460141615061606170645
:1036A0000CF4E3C09FE1DDC08091410190914201A3
:1036B000A0914301B0914401841B950BA60BB70B5D
:1036C0008C159D05AE05BF0514F084E001C080E0B7
:1036D000826040175107620773070CF0C6C098E17B
:1036E000C0C08091410190914201A0914301B091ED
:1036F0004401840F951FA61FB71F8C159D05AE05AD
:10370000BF0514F488E001C080E0826037FDADC0E1
:1037100099E1A7C080913D0190913E01A0913F01A8
:10372000B0914001800F911FA21FB31F8C159D0502
:10373000AE05BF0514F082E001C080E08860CC24B3
:10374000DD247601C41AD50AE60AF70AC016D106A6
:10375000E206F3060CF089C09AE183C080903D0137
:1037600090903E01A0903F01B0904001801A910AD4
:10377000A20AB30A81E08C149D04AE04BF040CF0CD
:1037800080E0886077FD71C09BE16BC08091410152
:1037900090914201A0914301B09144014A015B0123
:1037A000881A990AAA0ABB0A8C149D04AE04BF04A5
:1037B00014F088E001C080E0816004171507260737
:1037C00037070CF052C09CE14CC0809141019091B0
:1037D0004201A0914301B0914401840F951FA61F9F
:1037E000B71FB095A095909581959F4FAF4FBF4F54
:1037F0008C159D05AE05BF0514F484E001C080E082
:10380000816010161106120613067CF19DE129C095
:1038100080903D0190903E01A0903F01B09040010A
:10382000800E911EA21EB31EB094A094909480941A
:10383000811C911CA11CB11C81E08C149D04AE0460
:10384000BF040CF480E08460CC24DD247601C41A2B
:10385000D50AE60AF70A0C151D052E053F052CF4BE
:103860009EE19093490101C080E080FF3CC0C09080
:103870004101D0904201E0904301F09044014601A3
:10388000570191E0891A9108A108B10840904501BB
:10389000509046016090470170904801840C951C3F
:1038A000A61CB71C8092450190924601A092470148
:1038B000B092480192E0C91AD108E108F108C0921B
:1038C0004101D0924201E0924301F0924401015043
:1038D00011092109310900934E0110934F012093E2
:1038E00050013093510181FF43C000914E0110916E
:1038F0004F0120915001309151010F5F1F4F2F4F09
:103900003F4F00934E0110934F012093500130938D
:1039100051010091410110914201209143013091E8
:1039200044016801790192E0C90ED11CE11CF11C2F
:10393000C0924101D0924201E0924301F0924401D1
:103940000095109520953095C0904501D090460186
:10395000E0904701F09048010C0D1D1D2E1D3F1DEC
:10396000009345011093460120934701309348018D
:1039700082FF3BC000913D0110913E0120913F012B
:10398000309140016801790191E0C91AD108E1083C
:10399000F1088090450190904601A0904701B090B9
:1039A0004801C80CD91CEA1CFB1CC0924501D092EE
:1039B0004601E0924701F0924801025011092109A5
:1039C000310900933D0110933E0120933F01309354
:1039D0004001415051096109710940934A015093D6
:1039E0004B0160934C0170934D0183FF41C0809166
:1039F0004A0190914B01A0914C01B0914D0101966B
:103A0000A11DB11D80934A0190934B01A0934C01DD
:103A1000B0934D0180913D0190913E01A0913F01F5
:103A2000B0914001AC01BD014E5F5F4F6F4F7F4FC2
:103A300040933D0150933E0160933F0170934001DC
:103A400080959095A095B095409145015091460183
:103A50006091470170914801840F951FA61FB71F01
:103A60008093450190934601A0934701B09348018C
:103A700040914E0150914F01609150017091510160
:103A800080914A0190914B01A0914C01B0914D0160
:103A9000FA0157FF04C0EE27FF27E41BF50B9C013A
:103AA00097FF04C022273327281B390B2E173F0707
:103AB000E4F50091350110913601209137013091E4
:103AC0003801081719072A073B0709F067C08091DA
:103AD000390190913A01A0913B01B0913C018417CA
:103AE0009507A607B70709F474C077FD0DC0B7FDA9
:103AF00055C0F1E0E0E014161506160617060CF0A6
:103B0000F0E02F2F3E2F04C0B7FD65C02FEF3FEF31
:103B100041E050E0181619061A061B0614F040E0A2
:103B200050E024173507D1F556C0009139011091A6
:103B30003A0120913B0130913C01041715072607FB
:103B4000370761F540913501509136016091370199
:103B500070913801481759076A077B07D1F1B7FD03
:103B60000DC077FD1BC031E020E0181619061A06BB
:103B70001B060CF030E0832F922F04C077FD2BC082
:103B80008FEF9FEF21E030E014161506160617069A
:103B900014F020E030E082179307E9F04091310102
:103BA00050913201609133017091340141505109BB
:103BB00061097109409331015093320160933301DF
:103BC0007093340181E0452B462B472B29F080E090
:103BD00003C083E001C082E01F910F91FF90EF903E
:103BE000DF90CF90BF90AF909F908F907F906F901D
:103BF0005F904F9008954F925F926F927F928F9255
:103C00009F92AF92BF92CF92DF92EF92FF920F936B
:103C1000CF93DF9300D000D0CDB7DEB769837A832E
:103C20008B839C83A02FC7010C2D6C01EA2E0E2CD8
:103C3000000CFF0846015701A42FC9010A2E000CF1
:103C4000BB0B2C013D01A7019601BC01CD0130DB6E
:103C50008093490140924E0150924F016092500171
:103C600070925101C0924A01D0924B01E0924C01F6
:103C7000F0924D01440C551C661C771C409241018A
:103C8000509242016092430170924401880C991C49
:103C9000AA1CBB1C80923D0190923E01A0923F0164
:103CA000B0924001A6E0B0E029813A814B815C816D
:103CB0000E941B3560933101709332018093330170
:103CC000909334010F900F900F900F90DF91CF9150
:103CD0000F91FF90EF90DF90CF90BF90AF909F90AB
:103CE0008F907F906F905F904F9008952F923F92AA
:103CF0004F925F926F928F929F92AF92BF92CF92AC
:103D0000DF92EF92FF920F931F93CF93DF93CDB784
:103D1000DEB769970FB6F894DEBF0FBECDBF688BD4
:103D2000798B8A8B9B8B2D833E834F832701602E5B
:103D3000AC8ABD8ACE8A2DA53EA54FA52F8B388F84
:103D4000498F18A9AC2DC5010A2E000CBB0B898325
:103D50009A83AB83BC838093390190933A01A093FB
:103D60003B01B0933C01042E000C550B49015A0154
:103D70002093350130933601409337015093380139
:103D8000C12E2D813E814F81688979898A899B89DD
:103D900032DF8D819E81AF810A2E000CBB0B88879C
:103DA0009987AA87BB87462D9201042E000C550BDC
:103DB0002C873D874E875F87A5019401C501B4011B
:103DC0000E94C8344B015C012C853D854E855F8582
:103DD000CA01B9010E94C8346B017C01288539856C
:103DE0004A855B85CA01B9010E94C834C60ED71E38
:103DF000E81EF91E8C189D08AE08BF0829813A817B
:103E00004B815C81CA01B9010E94C834860E971E9D
:103E1000A81EB91E8092450190924601A0924701CA
:103E2000B0924801EFDA8823E9F380916F01909115
:103E30007001A09171012C893D894E89820F931FD9
:103E4000A41F80935D0190935E01A0935F01809118
:103E5000720190917301A09174012F89388D498D61
:103E6000820F931FA41F8093600190936101A09320
:103E7000620120903001422D50E05A8349835BE17A
:103E8000259EC0011124DC01AA55BD4F1D01809162
:103E9000310190913201A0913301A09590958195C7
:103EA0009F4FAF4FF10181839283A383C12E062DD3
:103EB00072012D813E814F81688979898A899B8928
:103EC0009ADE8092450190924601A0924701B092FD
:103ED0004801D1011196CD90DD90EC90BFEFCB1A47
:103EE000DB0AEB0A2091310130913201409133011C
:103EF000C20ED31EE41EF101C182D282E3822D8163
:103F00003E814F8124833583468347825086618674
:103F100082869386A486B586288939894A89268728
:103F20003787408B012F2C853D854E855F856885C1
:103F300079858A859B85BCD9F1018083409195075D
:103F40005091960760919707709198074115510518
:103F50006105710521F0242F952F862F1DC08091BA
:103F6000870790918807A0918907BC018A2F90E06C
:103F70004E2D960150E00E948335EBE9AE2EF6E11E
:103F8000BF2ECC24C394D12CE12CF12C00E010E006
:103F90000E94D735932F842F3BE149815A81349F6A
:103FA000F001359FF00D1124DF01AA55BD4F539646
:103FB0002C93539754969C93549755968C9355975E
:103FC00020918A0730918B0740918C0756962D934C
:103FD0003D934C93E154FD4F90919207809193074C
:103FE0009083818369960FB6F894DEBF0FBECDBF74
:103FF000DF91CF911F910F91FF90EF90DF90CF90C5
:10400000BF90AF909F908F906F905F904F903F9038
:104010002F900C948B0CAF92BF92CF92DF92EF92C5
:10402000FF920F931F93082E000C990B20E432E4AB
:104030004FE050E00E947635265435464F4F5F4F93
:104040006F4F7F4F8F4F9F4FE4E7AE2EF5E3BF2EAC
:10405000CC24C394D12CE12CF12C00E010E00E9480
:10406000AC35B901CA011F910F91FF90EF90DF901D
:10407000CF90BF90AF900895AF92BF92CF92DF9252
:10408000EF92FF920F931F93082E000C990B20E4E0
:1040900032E44FE050E00E947635265435464F4FCB
:1040A0005F4F6F4F7F4F8F4F9F4FE4E7AE2EF5E38B
:1040B000BF2ECC24C394D12CE12CF12C00E010E0D5
:1040C0000E94AC35B901CA011F910F91FF90EF908A
:1040D000DF90CF90BF90AF900895AF92BF92CF92F4
:1040E000DF92EF92FF920F931F93082E000C990B13
:1040F00020E432E44FE050E00E9476352058354EFF
:10410000494F5F4F6F4F7F4F8F4F9F4FA12CE5E37C
:10411000BE2EFCE0CF2ED12CE12CF12C00E010E0E3
:104120000E94AC35B901CA011F910F91FF90EF9029
:10413000DF90CF90BF90AF900895AF92BF92CF9293
:10414000DF92EF92FF920F931F9324E735E341E054
:1041500050E00E947635205E3E45484F5F4F6F4FDE
:104160007F4F8F4F9F4FE0E4AE2EF2E4BF2EAFE0C3
:10417000CA2ED12CE12CF12C00E010E00E94AC35CD
:10418000B901842F1F910F91FF90EF90DF90CF9096
:10419000BF90AF900895AF92BF92CF92DF92EF920F
:1041A000FF920F931F9324E735E341E050E00E9414
:1041B0007635205E3E45484F5F4F6F4F7F4F8F4FA4
:1041C0009F4FE0E4AE2EF2E4BF2EAFE0CA2ED12C1A
:1041D000E12CF12C00E010E00E94AC35B901842FF5
:1041E0001F910F91FF90EF90DF90CF90BF90AF9015
:1041F0000895AF92BF92CF92DF92EF92FF920F930A
:104200001F9320E035E34CE050E00E947635205EBD
:104210003E45484F5F4F6F4F7F4F8F4F9F4FE0E4BA
:10422000AE2EF2E4BF2EAFE0CA2ED12CE12CF12C41
:1042300000E010E00E94AC35B901842F1F910F916E
:10424000FF90EF90DF90CF90BF90AF90089581E006
:104250000E94CF2F8FE59DE60197F1F700C0000087
:1042600008950F931F93CF93DF9300D01F92CDB784
:10427000DEB7182F60E080E01AD40E945B0B082F95
:1042800069837A839B830E94A00C9B819F930F93E9
:104290007A817F9369816F931F928F931F921F93EF
:1042A00084E894E09F938F930E94FB3280E00E9409
:1042B0000A19B1DE162F082F60E081E07A839B8314
:1042C000F6D39B819F930F937A817F931F9383E70C
:1042D00094E09F938F930E94FB3281E00E940A1921
:1042E000CBDE162F082F60E082E07A839B83DFD33A
:1042F0009B819F930F937A817F931F9382E694E033
:104300009F938F930E94FB3282E00E940A19E5DEA0
:10431000162F082F60E083E07A839B83C8D39B81AC
:104320009F930F937A817F931F9381E594E09F93EE
:104330008F930E94FB32809157068C710FB6F894D0
:10434000DEBF0FBECDBF6AE0A1F081E0B0D38091A7
:1043500057068695869587701F928F9385E494E023
:104360009F938F930E94FB320F900F900F900F90AE
:104370000AC081E09CD38BE394E09F938F930E94CB
:10438000FB320F900F906AE082E091D39091560635
:104390008091570683708F939F9380915806877002
:1043A00090E001969F938F9380915706869586950E
:1043B00087701F928F9381E394E09F938F930E9465
:1043C000FB322DB73EB70FB6F894DEBF0FBECDBFA0
:1043D00080910001909101012817390730F48DB7C1
:1043E0009EB790930101809300016AE083E05FD360
:1043F000809101018F93809100018F938BE294E073
:104400009F938F930E94FB320F900F900F900F900D
:104410000F900F900F90DF91CF911F910F91089502
:104420002FEF83EC99E0215080409040E1F700C0ED
:10443000000084E007D384E005D309DF89E411CFCD
:1044400010925401109255010895209155019091B8
:10445000540181E0291380E0089520915501409195
:1044600054012F5F30E050E081E02417350709F058
:1044700080E00895F2DF91E0811190E0892F0895A6
:10448000ECDF882321F082E40E94162FF9CF80917F
:1044900055018F5F809355010895809154018F5F7E
:1044A0008093540108958091550190915401891B86
:1044B0000895CF93DF931F92CDB7DEB7C6DF882371
:1044C00021F082E60E94162FF9CFE0915401F0E02E
:1044D000E558F94F80818983E0DF89810F90DF9172
:1044E000CF910895E0915501F0E0E558F94F8083B0
:1044F000C7CF109252011092530108952091530199
:104500009091520181E0291380E008952091530198
:104510004091520130E02F5F3F4F2F71332750E021
:1045200081E02417350709F080E00895EFDF882344
:1045300021F082E40E94162FF9CF809153018F5F02
:104540008F71809353010895809152018F5F8F7115
:10455000809352010895E0915301F0E0E55AF94F3C
:104560008083E4CFCF93DF93D82FD0DF882321F04F
:1045700085E50E94162FF9CFCFB7F8948D2FEBDF8A
:1045800088EB8093C900CFBFDF91CF9108950F933F
:104590001F93CF938B019C01CFB7F894DC01CB0123
:1045A000975FA24CBF4FBC01CD0142E0660F771F61
:1045B000881F991F4A95D1F7A9019801E3E0220FBE
:1045C000331F441F551FEA95D1F70E94D73421505D
:1045D00031093093CD002093CC0082E08093C80055
:1045E00088E98093C90086E08093CA0029DF81DFD3
:1045F00084E080935601CFBF81E1CF911F910F914D
:10460000B1CF8091560181FF0BC01FDF882341F09D
:104610008091560184608093560188EB8093C90095
:1046200048CFCF93CFB7F8948091560181FF0BC04C
:104630000CDF882341F080915601846080935601FD
:1046400088EB8093C900CFBFCF912DCF1F920F92DF
:104650000FB60F9211242F933F934F935F936F9355
:104660007F938F939F93AF93BF93EF93FF935F9A43
:1046700085B1817F85B985B18E6085B92DB73EB78B
:1046800080910001909101012817390730F48DB70E
:104690009EB790930101809300018091560180FFA5
:1046A00007C083E18093CE0082E0809356011AC058
:1046B0008091560182FF06C083E18093CE00109264
:1046C000560110C01BDF882321F088E98093C900C0
:1046D00009C0E0915201F0E0E55AF94F80818093E2
:1046E000CE0032DF85B1817F85B95F98FF91EF9170
:1046F000BF91AF919F918F917F916F915F914F91FA
:104700003F912F910F900FBE0F901F9018951F9201
:104710000F920FB60F9211242F933F934F935F93F5
:104720006F937F938F939F93AF93BF93EF93FF9379
:104730005F9A85B1817F85B985B1866085B92DB7CE
:104740003EB780910001909101012817390730F49C
:104750008DB79EB79093010180930001A4DE813450
:1047600060F08091560181FD08C080915601816002
:104770008093560188EB8093C9007CDE81110CC0C8
:1047800063E095D184E994E09F938F930E94FB327C
:104790000E947C2F0F900F908091CE00A3DE85B1F8
:1047A000817F85B95F98FF91EF91BF91AF919F9104
:1047B0008F917F916F915F914F913F912F910F90CA
:1047C0000FBE0F901F901895AC01222788279927BC
:1047D000469F312D479F300D811D921F569F300DF2
:1047E000811D921F579F800D911D112408952F92B6
:1047F0003F924F925F926F927F928F929F92AF9271
:10480000BF92CF92DF92EF92FF920F931F93CF93BD
:10481000DF93CDB7DEB766970FB6F894DEBF0FBE55
:10482000CDBF2C833D834E835F83688779878A87DA
:104830009B87912C1E8A1B8A1C8AF0E0E0E0612C89
:1048400080E4782E292D3E894B895C896F2F7E2F3D
:10485000C301AC80BD80CE80DF80E884F9840A8506
:104860001B850E94AA3699F090F0292D3E894B892C
:104870005C896F2F7E2FC30102E00E947C36922E4E
:104880003E8B4B8B5C8BF62FE72F3C01DBCF812CD3
:10489000512C212C312CB0E01A821B82412C292D65
:1048A0003E894B895C896F2F7E2FC301A0E00E9457
:1048B000B33609F46CC0292D3E894B895C896F2F72
:1048C0007E2FC301A82CB52C6101EB2EFA800B8141
:1048D000142D0E9498362D8BA32F4D875E876F87EE
:1048E000788B898B9A8B2C813D814E815F81688585
:1048F00079858A859B85AD88BA2ECD84DE84EF8448
:10490000F88809891A890E94AA36F0F00E94A13617
:104910002C833D834E835F83688779878A879B8753
:10492000282D352DA1016B2F7A818B81942D01E0EB
:104930000E947C36A92CBE88CB88DC88EF2EFE2E08
:1049400083010E9498360AC0282D352DA1016B2FB6
:104950007A818B81942D01E00E947C36822E532E29
:104960001A01B62F7A838B83492E292D3E894B89D4
:104970005C896F2F7E2FC30102E00E947C36922E4D
:104980003E8B4B8B5C8BF62FE72F3C0188CF682D3D
:10499000752DC10166960FB6F894DEBF0FBECDBF70
:1049A000DF91CF911F910F91FF90EF90DF90CF900B
:1049B000BF90AF909F908F907F906F905F904F903F
:1049C0003F902F9008954F925F926F927F928F92B7
:1049D0009F92AF92BF92CF92DF92EF92FF920F938E
:1049E0001F93CF93DF934B015C0169017A01A5010D
:1049F00094010E94763529013A01D62FC72F4C0128
:104A0000C701B601A70196010E94763559016A01D6
:104A10007B018C019201A3016D2F7C2FC4010E94A8
:104A20009836DF91CF911F910F91FF90EF90DF901B
:104A3000CF90BF90AF909F908F907F906F905F903E
:104A40004F90D5CE0E94C42F2FEF8FEC97E02150CE
:104A500080409040E1F700C0000083E00E94B12F49
:104A60002FEF8CEC90E0215080409040E1F700C0A7
:104A7000000083E00E94B12F8FE396E00197F1F7E9
:104A800000C0000082E30E94CF2F88E20E94CF2F57
:104A90008CE00E94CF2F81E00E94CF2F8FE393E81C
:104AA0000197F1F700C0000086E00C94CF2F823010
:104AB00031F0833031F0813039F480E403C084E197
:104AC00001C084E5860F01C0862F80680C94CF2F2B
:104AD0001092570110925801089520915801909119
:104AE000570181E0291380E00895F7DF91E08111FB
:104AF00090E0892F0895209158014091570130E0AE
:104B00002F5F3F4F2F73332750E081E02417350785
:104B100009F080E00895EFDF882321F082E40E940D
:104B2000162FF9CF809158018F5F8F7380935801B2
:104B30000895809157018F5F8F7380935701089577
:104B4000CF93DF931F92CDB7DEB7C7DF882321F065
:104B500082E60E94162FF9CFE0915701F0E0E75668
:104B6000F84F80818983E5DF89810F90DF91CF91B4
:104B70000895E0915801F0E0E756F84F8083CBCFDD
:104B800082B7806182BFE1ECF0E0108282E0809326
:104B9000C00098E09093C2008093C30080E48093AB
:104BA000C40083E08093BF008FEB8093D10010920C
:104BB00072001092BF001092BE0081E080830895C1
:104BC0001092900088E080939100109295001092CE
:104BD0009400E1E7F0E080818260808308950F9384
:104BE0001F934FB7F89400917B0710917C07209199
:104BF0007D0730917E0710927B0710927C07109200
:104C00007D0710927E074FBF40917F07509180072C
:104C1000040F151F211D311DAB01BC01400F511F99
:104C2000621F731F80E090E0DC01483E23E05207E2
:104C30006105710540F0485E5340610971090196B4
:104C4000A11DB11DF2CF5093800740937F072091A3
:104C5000810730918207820F931FA11DB11D4091E2
:104C600083075091840760918507709186078A01B8
:104C70009B010F5F1F4F2F4F3F4F8036EAEE9E077D
:104C8000A105B10538F080569A4EA109B109B901C4
:104C9000A801EDCF40938307509384076093850765
:104CA0007093860790938207809381071F910F91DD
:104CB00008950F931F93CF93C82F90919407882343
:104CC00079F191110AC00E94640B60938D07709373
:104CD0008E0780938F079093900781E080939407CD
:104CE0005E9ACF3F21F48091C4008F7E16C08C2F36
:104CF00090E0382F22276EE777E0822B932B64DD3C
:104D0000803827E0920710F08FE797E09093BF007C
:104D10008093CF008091C40080618093C4001EC046
:104D20005E988091C4008F7E8093C4009923B1F077
:104D3000109294070E94640B00918D0710918E07CA
:104D400020918F0730919007601B710B820B930BA2
:104D500046DF80919100887F80939100CF911F91D1
:104D60000F910895CF93A82FCB01CFB7F89428E0E7
:104D70002093910010929500109294000097A10545
:104D800019F42093910051C0811520E19207A105EB
:104D900058F434E0880F991F3A95E1F79093990001
:104DA0008093980089E00CC0811520E89207A10546
:104DB00050F4880F991F90939900809398008AE08F
:104DC0008093910032C0009724E0A20760F4A6957A
:104DD00097958795A6959795879590939900809339
:104DE00098008BE0EDCF009720E1A20760F424E06B
:104DF000A695979587952A95D9F7909399008093D2
:104E000098008CE0DDCF009720E4A20760F426E054
:104E1000A695979587952A95D9F7909399008093B1
:104E200098008DE0CDCF80E044DFCFBFCF910895D3
:104E30001F920F920FB60F9211242F933F934F930F
:104E40005F936F937F938F939F93AF93BF93EF93F2
:104E5000FF935F9A85B1817F85B92B9A2DB73EB7B5
:104E600080910001909101012817390730F48DB726
:104E70009EB7909301018093000188E08093910098
:104E800080E017DF85B1817F85B95F98FF91EF9151
:104E9000BF91AF919F918F917F916F915F914F9152
:104EA0003F912F910F900FBE0F901F9018955E9815
:104EB000569A66DE85DEA2E9B7E084E68C93119609
:104EC0008C911197EBE7F7E021E030E040E0248798
:104ED0003587468728EE33E040E02787308B418BCB
:104EE000118E807E11968C93128A138A148A158AE9
:104EF000128E138E148E158E86E59AEE9783868316
:104F000080E0D7CE883048F48770880F880F909162
:104F10009307937E892B809393070895883048F4F4
:104F20008295880F807E909193079F71892B809343
:104F30009307089560938707709388078093890784
:104F4000089560938A0770938B0780938C07089568
:104F5000893E23E0920748F48093920793708091F2
:104F600093078C7F892B809393070895AF92BF920C
:104F7000CF92DF92EF92FF920F931F9324E0829FD4
:104F8000C0011124FC01ED52FE4F608171818281CC
:104F900093812091F507222399F02FE730E040E03C
:104FA00050E00E947635E5E0AE2EB12CC12CD12C1C
:104FB000E12CF12C00E010E00E94AC35B901CA01EF
:104FC0001F910F91FF90EF90DF90CF90BF90AF9027
:104FD0000895CF92DF92EF92FF920F931F93C090AC
:104FE0007A01D0907B01E0907C01F0907D01E7FE9A
:104FF00029C087E1BBDF2091F207211104C0209175
:10500000F1072223B9F00091D9071091DA07209116
:10501000DB073091DC07DC01CB01800F911FA21F61
:10502000B31F8093D9079093DA07A093DB07B0935F
:10503000DC0708C06093D9077093DA078093DB0719
:105040009093DC07F0FE29C088E190DF2091F30700
:10505000211104C02091F1072223B9F00091DD074E
:105060001091DE072091DF073091E007DC01CB01D2
:10507000800F911FA21FB31F8093DD079093DE075F
:10508000A093DF07B093E00708C06093DD0770933B
:10509000DE078093DF079093E007F1FE29C087E1E8
:1050A00065DF2091F407211104C02091F10722232C
:1050B000B9F0C090E107D090E207E090E307F090EC
:1050C000E407DC01CB018C0D9D1DAE1DBF1D80933F
:1050D000E1079093E207A093E307B093E40708C0C9
:1050E0006093E1077093E2078093E3079093E407EE
:1050F0006091D9077091DA078091DB079091DC0706
:105100001CD8609366017093670180936801609179
:10511000DD077091DE078091DF079091E0073BD8B3
:105120006093690170936A0180936B016091E1075C
:105130007091E2078091E3079091E4075AD8609359
:105140006C0170936D0180936E011F910F91FF9020
:10515000EF90DF90CF9008952F923F924F925F9201
:105160006F927F928F929F92AF92BF92CF92DF9277
:10517000EF92FF920F931F93CF93DF93CDB7DEB7DC
:1051800068970FB6F894DEBF0FBECDBF382E809162
:10519000D9079091DA07A091DB07B091DC078093E3
:1051A000E5079093E607A093E707B093E80780919F
:1051B000DD079091DE07A091DF07B091E0078093B3
:1051C000E9079093EA07A093EB07B093EC0701DFA0
:1051D00080907A0190907B01A0907C01B0907D013D
:1051E00075016401CC2403E0D02202E0E022FF2418
:1051F000C114D104E104F10411F480E0C6C190FEB1
:1052000018C088E0B3DE0091E5071091E607209111
:10521000E7073091E807DC01CB01800F911FA21F47
:10522000B31F8093E5079093E607A093E707B09339
:10523000E80791FE18C089E099DE0091E907109116
:10524000EA072091EB073091EC07DC01CB01800FDE
:10525000911FA21FB31F8093E9079093EA07A093C1
:10526000EB07B093EC07C114D10412E0E106F1049E
:1052700009F06AC181E17ADE698B7A8B8B8B9C8B1A
:105280004091D9075091DA076091DB077091DC07F4
:105290008091E5079091E607A091E707B091E807B4
:1052A0008A019B01081B190B2A0B3B0B09871A87E4
:1052B0002B873C874091DD075091DE076091DF0727
:1052C0007091E0078091E9079091EA07A091EB07C0
:1052D000B091EC078A019B01081B190B2A0B3B0BB1
:1052E0000D8B1E8B2F8B388FA901980169857A85CC
:1052F0008B859C8568DB69837A838B839C839B0188
:10530000AC01550F220B322FA9012D833E834F8311
:10531000588769897A898B899C899B01AC010E9495
:10532000763549014D87252E2B013C0169817A8113
:105330008B819C819B01AC010E94763502E00E942A
:105340007C3659016A017B018C0194014D85522DF7
:10535000B201C3010E94A1364ADA2B013C0197FD3C
:105360004CCF6D897E898F89988DA30192010E940F
:105370007635A980BA80CB80DC80ED80FE2C0E2DA6
:105380001E2D0E94AC352D873E874F87588B8D850B
:105390009E85AF85B8898093E5079093E607A09333
:1053A000E707B093E80729853A854B855C85C98472
:1053B000DA84EB84FC84FF0CCC08DC2C76016C2DA9
:1053C0007C2D8C2D9C2D0E943336B42FA52FF62FCB
:1053D000E72FB301A201770F440B542FBA015201FA
:1053E0006301E42EF42E042F142F4B2F5A2F6F2F0E
:1053F0007E2F0E942535A980BA80CB80DC80ED808D
:10540000FE2C0E2D1E2D0E94AC35C901DA018093B1
:10541000E9079093EA07A093EB07B093EC073320DA
:1054200051F009891A892B893C8910161106120638
:1054300013063CF028C029893A894B895C8957FFBB
:1054400022C04D855E856F857889709560955095F1
:1054500041955F4F6F4F7F4F4093E5075093E607AD
:105460006093E7077093E807B095A09590958195B4
:105470009F4FAF4FBF4F8093E9079093EA07A093E8
:10548000EB07B093EC078091D9079091DA07A091D0
:10549000DB07B091DC07880F991FAA1FBB1FBC0157
:1054A000CD0109851A852B853C85601B710B820B0C
:1054B000930B32E0C32ED12CE12CF12CA7019601E5
:1054C0000E94F9348091E5079091E607A091E707E3
:1054D000B091E807820F931FA41FB51F8093E507C3
:1054E0009093E607A093E707B093E8078091DD0764
:1054F0009091DE07A091DF07B091E007880F991F18
:10550000AA1FBB1FBC01CD012D893E894F89588D33
:10551000621B730B840B950BA70196010E94F93453
:105520008091E9079091EA07A091EB07B091EC0711
:10553000820F931FA41FB51F8093E9079093EA077A
:10554000A093EB07B093EC076091E5077091E60735
:105550008091E7079091E8070E949D2060936F017A
:1055600070937001809371016091E9077091EA076F
:105570008091EB079091EC070E94CB206093720121
:10558000709373018093740181E068960FB6F8946C
:10559000DEBF0FBECDBFDF91CF911F910F91FF9066
:1055A000EF90DF90CF90BF90AF909F908F907F90C3
:1055B0006F905F904F903F902F90089580917A0167
:1055C00090917B01A0917C01B0917D01A2FF21C04F
:1055D00060911B0270911C0280911D0290911E022D
:1055E00024E630E040E050E00E94F93457FF03C069
:1055F00020E030E0A901293E83E03807410551054C
:1056000024F028EE33E040E050E0C901A1DC81E065
:1056100079DC80917A0190917B01A0917C01B0911D
:105620007D0193FF14C06091FF0170910002809191
:1056300001029091020297FF07C0909580957095A6
:1056400061957F4F8F4F9F4F7CDC82E05BDC8091C8
:105650007A0190917B01A0917C01B0917D0197FF2F
:105660000BC060910F027091100280911102909115
:10567000120260DC82E046DC80917A0182FF3BC04E
:105680008091930786958695877084603BDC809136
:10569000430290914402A0914502B09146028330AA
:1056A0009105A105B105F1F05CF481309105A105EA
:1056B000B105B1F00297A105B105D9F481E013C09D
:1056C00086309105A105B10581F088309105A105CD
:1056D000B10569F00497A105B10559F483E003C051
:1056E00080E001C082E01ADC06C085E0FCCF87E0E4
:1056F000FACF80E007DC80917A0181FF03C08091BE
:105700003F0200DC40917A0150917B0160917C0165
:1057100070917D01DB01CA0188279927A170BB2701
:1057200060FF08C080917B0290917C02A0917D0275
:10573000B0917E028093950790939607A093970768
:10574000B093980708958F929F92AF92BF92CF9295
:10575000DF92EF92FF92CF93DF93C0907A01D090C7
:105760007B01E0907C01F0907D01C5FE4EC08091F0
:10577000E7019091E801A091E901B091EA011816C2
:1057800019061A061B060CF040C0BC01CD01625E72
:105790007F4F8F4F9F4F2CE330E040E050E00E945E
:1057A000F934DA01C901883823E19207A105B1056E
:1057B00024F488E893E1A0E0B0E0D82FC92FFA2FB5
:1057C000EB2F4C015D01BB0C8808982C54019C0107
:1057D000AD01682D782D882D982D28373A48414005
:1057E0005105610571058105910529F024F0D8E77F
:1057F000CAE8F1E0E0E09E01CF013093ED07C093ED
:10580000EE079093EF07E093F007C6FE04C2809185
:10581000530290915402A0915502B0915602AC01EE
:10582000BD014427452B462B472B09F0B1C28431DB
:1058300009F4CDC020F58230B1F1D8F4882389F184
:10584000813009F0A5C2C5DBB9DE6091ED0770912A
:10585000EE078091EF079091F007DF91CF91FF90D5
:10586000EF90DF90CF90BF90AF909F908F900C946F
:105870009704833041F1843009F440C089C28A35ED
:1058800009F44FC138F4853109F4A5C08C3109F40D
:10589000A5C07EC28B3509F447C18C3509F448C1D7
:1058A00077C297DB15C280E057DC882309F410C269
:1058B00085DE6091ED077091EE078091EF07909182
:1058C000F00740E00FC081E047DC882309F400C204
:1058D00075DE6091ED077091EE078091EF07909172
:1058E000F00741E0DF91CF91FF90EF90DF90CF90F4
:1058F000BF90AF909F908F900C945106D7FE10C030
:105900008091770290917802A0917902B0917A0209
:105910008093F6079093F707A093F807B093F907E1
:10592000E2FE1CC04091F6075091F7076091F8071E
:105930007091F90780911B0290911C02A0911D02A9
:10594000B0911E02840F951FA61FB71F8093F60704
:105950009093F707A093F807B093F9070E94F818FF
:10596000C4D8882311F0E5D8FBCF0E945B0B6B01F4
:105970007C018091F6079091F707A091F807B0910C
:10598000F907892B8A2B8B2B09F402C284E44ED2AF
:105990000E945B0BC616D706E806F90651F30E9473
:1059A0005B0B6B017C018091F6079091F707A0914A
:1059B000F807B091F9070197A109B1098093F6079B
:1059C0009093F707A093F807B093F907D2CF81E03F
:1059D0008093F507DDC11092F507DAC11092F50743
:1059E0001092F10788E422D24091BF015091C0018A
:1059F0006091C1017091C201DB01CA01882799271A
:105A0000A078B370892B8A2B8B2B81F0DB01CA0124
:105A100027E1B695A795979587952A95D1F7817037
:105A200070FD826071FF03C0846001C087E0C82FF1
:105A3000CB7F09F461C180FF1FC040917A01509172
:105A40007B0160917C0170917D0167FF09C04091ED
:105A50002F0250913002609131027091320204C0E5
:105A600048ED5CED6FEF7FEF4093D9075093DA0775
:105A70006093DB077093DC0781FF1FC080917A0180
:105A800090917B01A0917C01B0917D01B0FF09C094
:105A90008091330290913402A0913502B091360288
:105AA00004C088E69DEAA3E0B0E08093DD07909310
:105AB000DE07A093DF07B093E0076091D9077091EC
:105AC000DA078091DB079091DC070E949D206093AC
:105AD000660170936701809368016091DD077091A2
