:1000000039C1000054C1000052C1000050C10000BD
:100010004EC100004CC100004AC1000048C10000B0
:1000200046C1000044C100000C944B390C94853942
:100030003EC100003CC100003AC1000038C10000D0
:1000400036C100000C947A2C32C1000030C100008F
:100050002EC100000C94600C2AC1000028C10000D1
:1000600026C100000C946B0E0C94240E20C10000DD
:100070001EC100001CC100001AC1000018C1000010
:100080000C94BC1F14C1000012C1000010C100007C
:100090000EC100000CC100000AC1000008C1000030
:1000A00006C1000004C1000002C100000410841059
:1000B0001C11A5112D12A8123613B2133514BC143D
:1000C0003615C3153E16C6164F17BC214122C32252
:1000D0005223D9235E24DE246825E8256A26EF26EC
:1000E0006F27F9277928FE28852905323832903282
:1000F000CA32E53287327E338F33AF33D3338E3219
:10010000ED337E347E34F733F433F13355415254BA
:100110005F52585F46554C4C0053503A25780025A5
:100120006420256420256420006C61736572204F73
:100130004646004C41534552204F4E202564005AFC
:100140003A256E2020202020202020202020200062
:10015000593A256E202020202020202020202020F9
:1001600000583A256E20202020202020202020200A
:10017000200025632051756575653A256420256E3C
:1001800020004552524F520A004F4B2025640A006E
:1001900030313233343536373839414243444546BD
:1001A0000001000057021200020000140243000385
:1001B000000010020401030904FE011002030904F7
:1001C000D4012803030904CA0108080331003300DD
:1001D00037000000280346007200650065004300F8
:1001E0004E00430020004C00610073006500720067
:1001F0006300750074007400650072000000100355
:1002000065002D00500075006E006B00740000004A
:100210000403090409024300020100C0320904007A
:100220000001020201000524001001052401010162
:10023000042402060524060001070582031000407D
:1002400009040100020A0000000705030240000043
:10025000070584024000001201000202000010C0E5
:10026000167A040001010203010001C11201803667
:100270000181360011241FBECFEFDAE0DEBFCDBF13
:1002800011E0A0E0B1E0E2E2F9E702C005900D92D2
:10029000A431B107D9F718E0A4E1B1E001C01D9283
:1002A000A736B107E1F70E9440350C94D03AA8CEAA
:1002B0008CE1E1E6F1E0DF011D928A95E9F708950E
:1002C0002F923F924F925F926F927F928F929F9266
:1002D000AF92BF92CF92DF92EF92FF920F931F9354
:1002E000CF93DF93CDB7DEB76C970FB6F894DEBF30
:1002F0000FBECDBF6B017C018091640190916501BF
:10030000A091660120916D0130916E0140916F01C5
:10031000821B930BA40BBC018A2F0E94DD1A9B0148
:10032000AC018091610190916201A09163016090A4
:100330006A0170906B0180906C0186199709A80979
:10034000BC018A2F298B3A8B4B8B5C8B0E94B41A91
:1003500029893A894B895C890E94B41D30915101E9
:100360000BE1309F50011124950122503D4F3E8BEF
:100370002D8BA70196012F5F3F4F4F4F5F4F2D876A
:100380003E874F87588B20906A0130906B014090D8
:100390006C01A0906101B0906201C0906301910175
:1003A0002A193B0937FF03C03195219531094427AC
:1003B00037FD4095AD89BE8911962D933D934C93A1
:1003C000E0906D01F0906E0100916F01EC82FD8272
:1003D0000E83E0906401F090650100916601EF8268
:1003E000F88609876C807D806E187F0877FE03C0D1
:1003F000719461947108882477FC8094AD89BE89DA
:1004000014966D927D928C92E0907001F090710143
:1004100000917201EF8AF88E098FE0906701F090E9
:10042000680100916901EA86FB860C87EF89F88DE7
:10043000EE19FF09F7FF03C0F195E195F1097F017E
:100440000027F7FC0095AD89BE891796ED92FD92C5
:100450000C9351E02A143B044C040CF050E0AF80A4
:10046000B884C984EC80FD800E81EA14FB040C057D
:1004700014F4E2E001C0E0E0E52BAA84BB84CC8464
:10048000EF88F88C098DEA14FB040C0514F454E091
:1004900001C050E05E2BAD89BE891A965C93A82CF2
:1004A000430182169306A40610F44901A42E20E00D
:1004B00034E244EF50E00E94663B19012A013B01FF
:1004C00089839C834A2D940150E06D857E858F85BC
:1004D00098890E94593B59016A017B018C01910165
:1004E000A201B30189819C810E944E3BED89FE8966
:1004F000218B328B83E08083828D837E828F0E946A
:10050000922080916A0190916B01A0916C0180937F
:10051000610190936201A093630180916D019091BC
:100520006E01A0916F018093640190936501A09387
:1005300066018091700190917101A0917201809388
:10054000670190936801A09369016C960FB6F894C7
:10055000DEBF0FBECDBFDF91CF911F910F91FF90F6
:10056000EF90DF90CF90BF90AF909F908F907F9053
:100570006F905F904F903F902F9008952F923F92F1
:100580004F925F926F927F928F929F92AF92BF92A3
:10059000CF92DF92EF92FF920F931F93CF93DF934F
:1005A000CDB7DEB766970FB6F894DEBF0FBECDBFEE
:1005B0006B877C878D879E87809164019091650110
:1005C000A091660120916D0130916E0140916F0103
:1005D000821B930BA40BBC018A2F0E94DD1A9B0186
:1005E000AC018091610190916201A09163016090E2
:1005F0006A0170906B0180906C0186199709A809B7
:10060000BC018A2F2F87388B498B5A8B0E94B41AD2
:100610002F85388949895A890E94B41D6F8378874C
:1006200089879A87809151010BE1809F10011124E5
:10063000910122503D4F190180916A0190916B0107
:10064000A0916C018B8B9C8BAD8B80906101909005
:100650006201A09063018B899C898819990997FF91
:1006600003C0919581959109AA2797FDA095F10165
:1006700081839283A38300916D0110916E0120917B
:100680006F0109831A832B832091640130916501E6
:10069000409166012C833D834E83A801421B530B7E
:1006A00057FF03C0519541955109662757FD609545
:1006B000F101448355836683C0907001D09071012D
:1006C000E09072014090670150906801609069016C
:1006D00096012419350937FF03C031952195310959
:1006E0008901222717FD2095F101078310872187B3
:1006F00071E00B891C892D89081519052A050CF054
:1007000070E08C809D80AE8009811A812B81081554
:1007100019052A0514F432E001C030E0372BC41467
:10072000D504E60414F424E001C020E0232BF101F9
:1007300022874A01A62E481759076A0710F44C0170
:10074000AA2E6F81788589859A8520E034E244EF6E
:1007500050E00E94663B29013A016E8B7B8B8983B6
:100760009C834A2D940150E06B857C858D859E8508
:100770000E94593B59016A017B018C019201A3013E
:100780006E897B8989819C810E944E3BF101218B7E
:10079000328B84E080838091B8029091B902A0915D
:1007A000BA02B091BB020097A105B105B9F48091DE
:1007B000AA029091AB02A091AC02BC018A2F90E0FA
:1007C0002F81388549855A850E94DC3A20E432E43D
:1007D0004FE050E00E94EB3AA42FC901F101838B56
:1007E000948BA58B8091AD029091AE02A091AF0247
:1007F000868B978BA08F9091B5028091B602918FD6
:10080000828F0E94922080916A0190916B01A09149
:100810006C018093610190936201A09363018091C8
:100820006D0190916E01A0916F018093640190938E
:100830006501A09366018091700190917101A09172
:1008400072018093670190936801A0936901669695
:100850000FB6F894DEBF0FBECDBFDF91CF911F91D1
:100860000F91FF90EF90DF90CF90BF90AF909F904F
:100870008F907F906F905F904F903F902F90089552
:100880002F923F924F925F926F927F928F929F92A0
:10089000AF92BF92CF92DF92EF92FF920F931F938E
:1008A000CF93DF93CDB7DEB763970FB6F894DEBF73
:1008B0000FBECDBF6B877C878D879E87542ED090CF
:1008C00051018091730190917401A0917501609024
:1008D00061017090620180906301681A790A8A0A46
:1008E000E0906A01F0906B0100916C01E81AF90A3E
:1008F0000A0BEC82FD820E83809176019091770144
:10090000A0917801209064013090650140906601CB
:10091000281A390A4A0A00916D0110916E0120913E
:100920006F01081B190B2A0B09831A832B83A42D33
:10093000C101BB27A7FDB0959C01AD01082D730136
:10094000112707FD1095C801B7010E94B41D6F83E0
:10095000788789879A8789819A81AB81BB27A7FD90
:10096000B0959C01AD01EC80FD800E81112707FD43
:100970001095C801B7010E94B41D6F87972E888B10
:10098000998B2BE1D29E8001112402501D4F1B8BAD
:100990000A8B6B857C858D859E8524E735E341E058
:1009A00050E00E94593B59016A017B018C0120E013
:1009B00030E041E55AE46DE87EE080E090E00E949E
:1009C0004E3BAA89BB8951962C93519752963C93E2
:1009D0006F85792D88899989EF80F88409851A8532
:1009E0006E157F058007910710F4C801B7015F926B
:1009F000FB80FF920A810F9319811F93AC80BD8009
:100A0000CE80042D7101482D93010E9426190F906C
:100A10000F900F900F9020917001309171014091D3
:100A200072018091670190916801A0916901281776
:100A300039074A07E9F06B857C858D859E8563962D
:100A40000FB6F894DEBF0FBECDBFDF91CF911F91DF
:100A50000F91FF90EF90DF90CF90BF90AF909F905D
:100A60008F907F906F905F904F903F902F9028CC09
:100A700063960FB6F894DEBF0FBECDBFDF91CF9166
:100A80001F910F91FF90EF90DF90CF90BF90AF90AC
:100A90009F908F907F906F905F904F903F902F909E
:100AA0000895E09151019BE1E99FF0011124E2508A
:100AB000FD4F20916A0130916B0140916C012183BF
:100AC0003283438320916D0130916E0140916F011B
:100AD00024833583468320917001309171014091C8
:100AE0007201278330874187882319F0828781E04C
:100AF00003C080E7828782E0808380E49FE1928B5D
:100B0000818B0E94922080916A0190916B01A0914B
:100B10006C018093610190936201A09363018091C5
:100B20006D0190916E01A0916F018093640190938B
:100B30006501A09366018091700190917101A0916F
:100B400072018093670190936801A09369010895F1
:100B50000F931F938091B3069091B406A091B506B0
:100B6000B091B606A7FF2DC04091F307009166072C
:100B7000109167072091680730916907411104C0FF
:100B80004091F2074423A9F04091DA075091DB0726
:100B90006091DC077091DD07400F511F621F731FCA
:100BA0004093DA075093DB076093DC077093DD070F
:100BB00008C00093DA071093DB072093DC0730931B
:100BC000DD07B0FF2DC04091F40700916A07109136
:100BD0006B0720916C0730916D07411104C0409163
:100BE000F2074423A9F04091DE075091DF0760919E
:100BF000E0077091E107400F511F621F731F409380
:100C0000DE075093DF076093E0077093E10708C0A9
:100C10000093DE071093DF072093E0073093E1078E
:100C2000B1FF2DC08091F50740916E0750916F077D
:100C30006091700770917107811104C08091F20773
:100C40008823A9F08091E2079091E307A091E4073F
:100C5000B091E507840F951FA61FB71F8093E20789
:100C60009093E307A093E407B093E50708C040938F
:100C7000E2075093E3076093E4077093E507609100
:100C8000DA077091DB078091DC079091DD070E9405
:100C90002E1B60936A0170936B0180936C016091CD
:100CA000DE077091DF078091E0079091E1070E94D5
:100CB000541B60936D0170936E0180936F0160917E
:100CC000E2077091E3078091E4079091E5070E94A5
:100CD0007A1B6093700170937101809372011F9170
:100CE0000F9108952F923F924F925F926F927F9251
:100CF0008F929F92AF92BF92CF92DF92EF92FF922C
:100D00000F931F93CF93DF93CDB7DEB761970FB6E5
:100D1000F894DEBF0FBECDBF8D878091DA0790912A
:100D2000DB07A091DC07B091DD078093E607909385
:100D3000E707A093E807B093E9078091DE07909159
:100D4000DF07A091E007B091E1078093EA07909355
:100D5000EB07A093EC07B093ED07FADE8091B306A2
:100D60009091B406A091B506B091B6068C019D0194
:100D70000027137022703327011511052105310555
:100D800011F480E08EC190FF1CC04091E6075091A5
:100D9000E7076091E8077091E907C0902A07D090B3
:100DA0002B07E0902C07F0902D074C0D5D1D6E1D5C
:100DB0007F1D4093E6075093E7076093E807709321
:100DC000E90791FF1CC08091EA079091EB07A09181
:100DD000EC07B091ED0740912E0750912F076091DD
:100DE000300770913107840F951FA61FB71F80939E
:100DF000EA079093EB07A093EC07B093ED0701157A
:100E000011052240310509F02BC180914E079091C8
:100E10004F07A0915007B09151078D839E83AF83F8
:100E2000B8872091DA073091DB074091DC075091B9
:100E3000DD078091E6079091E707A091E807B09160
:100E4000E907281B390B4A0B5B0B29833A834B8339
:100E50005C834090DE075090DF076090E007709061
:100E6000E1078091EA079091EB07A091EC07B09120
:100E7000ED07481A590A6A0A7B0AA301920169819F
:100E80007A818B819C810E94B41D69877A878B87C8
:100E90009C876D817E818F8198859B01AC010E942A
:100EA000593B2E873F871A014B01898B988B6985A7
:100EB0007A858B859C859B01AC010E94593B02E0A1
:100EC0000E94353C59016A017B018C012E853F85CA
:100ED000A101B401898998890E945A3C0E94C11CD1
:100EE0006B017C0197FD4DCFA30192010E94DC3A7A
:100EF00029853A854B855C850E940D3B49015A0145
:100F00002093E6073093E7074093E8075093E907FB
:100F100029813A814B815C8150954095309521958E
:100F20003F4F4F4F5F4FC701B6010E94DC3A298502
:100F30003A854B855C850E940D3B2093EA073093F0
:100F4000EB074093EC075093ED078D85882351F014
:100F50008D819E81AF81B885181619061A061B0669
:100F60003CF025C08D819E81AF81B885B7FF1FC041
:100F7000B094A09490948094811C911CA11CB11CED
:100F80008092E6079092E707A092E807B092E907FF
:100F900088279927DC01821B930BA40BB50B809348
:100FA000EA079093EB07A093EC07B093ED076091ED
:100FB000DA077091DB078091DC079091DD07660FFF
:100FC000771F881F991F29813A814B815C81621BA1
:100FD000730B840B950B32E0C32ED12CE12CF12C3A
:100FE000A70196010E940D3B8091E6079091E707CB
:100FF000A091E807B091E907820F931FA41FB51FC6
:101000008093E6079093E707A093E807B093E9077A
:101010006091DE077091DF078091E0079091E10712
:10102000660F771F881F991F64197509860997092C
:10103000A70196010E940D3B8091EA079091EB0772
:10104000A091EC07B091ED07820F931FA41FB51F6D
:101050008093EA079093EB07A093EC07B093ED071A
:101060006091E6077091E7078091E8079091E907A2
:101070000E942E1B6093730170937401809375011D
:101080006091EA077091EB078091EC079091ED0772
:101090000E94541B609376017093770180937801CE
:1010A00081E061960FB6F894DEBF0FBECDBFDF9131
:1010B000CF911F910F91FF90EF90DF90CF90BF9055
:1010C000AF909F908F907F906F905F904F903F90E8
:1010D0002F9008958091B3069091B406A091B50623
:1010E000B091B606A2FF23C06091520770915307DA
:1010F000809154079091550724E630E040E050E09D
:101100000E940D3B57FF03C020E030E0A901293EBB
:1011100083E038074105510524F028EE33E040E034
:1011200050E0C9010E94642081E00E943E2080912D
:10113000B3069091B406A091B506B091B60693FFA0
:1011400016C06091360770913707809138079091EB
:10115000390797FF07C090958095709561957F4FEF
:101160008F4F9F4F0E945D2082E00E943E20809121
:10117000B3069091B406A091B506B091B60697FF5C
:101180000DC0609146077091470780914807909184
:1011900049070E94562082E00E943E208091B306BB
:1011A00082FF3EC08091B6028695869587708460E6
:1011B0000E943E2080917A0790917B07A0917C0746
:1011C000B0917D0783309105A105B105F1F05CF484
:1011D00081309105A105B105B1F00297A105B105D6
:1011E000E1F481E013C086309105A105B10589F0D5
:1011F00088309105A105B10571F00497A105B105ED
:1012000061F483E003C080E001C082E00E944A20D4
:1012100007C085E0FBCF87E0F9CF80E00E943E2049
:101220008091B30681FF04C0809176070E943E2022
:101230008091B3069091B406A091B506B091B60620
:10124000A0FF09C08091B2079091B307A091B407A5
:10125000B091B50703C080E090E0DC018093B80254
:101260009093B902A093BA02B093BB0208958F92F3
:101270009F92AF92BF92CF92DF92EF92FF92CF9365
:10128000C090B306D090B406E090B506F090B606D4
:10129000C5FE2BC080911E0790911F07A0912007CB
:1012A000B0912107181619061A061B06F4F4BC01A2
:1012B000CD01625E7F4F8F4F9F4F2CE330E040E0C7
:1012C00050E00E940D3B283883E138074105510565
:1012D00024F428E833E140E050E02093EE07309317
:1012E000EF074093F0075093F107C6FE13C28091B9
:1012F0008A0790918B07A0918C07B0918D07AC0164
:10130000BD014427452B462B472B09F089C2843069
:1013100009F449C040F48130D1F0B8F08230D1F006
:10132000833041F17DC28A3509F47CC138F48730BD
:1013300009F469C08C3109F4D6C072C28B3509F446
:1013400074C18C3509F475C16BC202DC41C200DC8A
:10135000C1DEB7C080E0C6DC882309F439C2BADE3A
:101360006091EE077091EF078091F0079091F1077F
:1013700040E00FC081E0B6DC882309F429C2AADE70
:101380006091EE077091EF078091F0079091F1075F
:1013900041E0CF91FF90EF90DF90CF90BF90AF9062
:1013A0009F908F906DCAD7FE09C08090AE07909035
:1013B000AF07A090B007B090B10703C0812C912C6B
:1013C0005401E2FE0CC08091520790915307A09106
:1013D0005407B0915507880E991EAA1EBB1E0E9485
:1013E0001F3128D26B017C01C80CD91CEA1CFB1CE4
:1013F00021D2C616D706E806F90609F411C284E41C
:101400000E94E034F5CF8091530181111BC080917F
:10141000B3069091B406A091B506B091B606A0FFB0
:101420002EC08091B2079091B307A091B407B091FC
:10143000B5078093B8029093B902A093BA02B09313
:10144000BB021DC0482F50E060E070E04093B8023E
:101450005093B9026093BA027093BB0290E00E946D
:101460007220C0E080915301C81788F6EC2FF0E09D
:10147000E954F94F80810E943F1ECF5FF3CF209146
:10148000EE073091EF074091F0075091F10760E4CB
:1014900072E48FE090E00E940D3BC090AA02D090D1
:1014A000AB02E090AC02F12CCA01B901A701960190
:1014B0000E940D3BCA01B9010E945D2085E00E9497
:1014C0003E206091EE077091EF078091F0079091B8
:1014D000F107CF91FF90EF90DF90CF90BF90AF904A
:1014E0009F908F904BC888E40E94E0348091F6066C
:1014F0009091F706A091F806B091F906AC01BD01F4
:101500004427552760787370452B462B472B89F06D
:10151000AC01BD0127E176956795579547952A95CA
:10152000D1F7242F2170B0FD2260B1FF03C02460E9
:1015300001C027E0C22FCB7F09F472C120FF1FC07A
:101540004091B3065091B4066091B5067091B6060D
:1015500067FF09C04091660750916707609168076F
:101560007091690704C048ED5CED6FEF7FEF409329
:10157000DA075093DB076093DC077093DD0721FFE8
:101580001FC04091B3065091B4066091B5067091AA
:10159000B60670FF09C040916A0750916B076091D1
:1015A0006C0770916D0704C048E65DEA63E070E087
:1015B0004093DE075093DF076093E0077093E107E5
:1015C0006091DA077091DB078091DC079091DD076D
:1015D0000E942E1B60936A0170936B0180936C01D3
:1015E0006091DE077091DF078091E0079091E1073D
:1015F0000E94541B60936D0170936E0180936F0184
:101600006091E2077091E3078091E4079091E5070C
:101610000E947A1B60937001709371018093720134
:101620008C2F6EC01092F207FBC081E08093F2070E
:10163000F7C0E7FE10C08091660790916707A09100
:101640006807B09169078093DA079093DB07A0934E
:10165000DC07B093DD07F0FE10C080916A0790911F
:101660006B07A0916C07B0916D078093DE07909394
:10167000DF07A093E007B093E107F1FE10C080916F
:101680006E0790916F07A0917007B09171078093DA
:10169000E2079093E307A093E407B093E507609116
:1016A000DA077091DB078091DC079091DD070E94DB
:1016B0002E1B60936A0170936B0180936C016091A3
:1016C000DE077091DF078091E0079091E1070E94AB
:1016D000541B60936D0170936E0180936F01609154
:1016E000E2077091E3078091E4079091E5070E947B
:1016F0007A1B60937001709371018093720180E096
:10170000CF91FF90EF90DF90CF90BF90AF909F90E0
:101710008F90C7C9D4FE84C08091A2079091A3077F
:10172000A091A407B091A507AC01BD01442755279E
:10173000452B462B472B09F073C08330910509F4E4
:101740003FC028F4009771F1029761F169C08039B8
:1017500021E0920709F44FC0893822E0920709F48A
:1017600055C0059709F05CC0C091B602C695C695F4
:10177000C77080E00E943E206091EE077091EF07F5
:101780008091F0079091F1070E9460018C2FCF911A
:10179000FF90EF90DF90CF90BF90AF909F908F9091
:1017A0000C943E2080E00E943E206091EE077091F4
:1017B000EF078091F0079091F1070E9460011BC034
:1017C00089DC8091B6028C7119F481E00E943E2080
:1017D0006091EE077091EF078091F0079091F1070B
:1017E000CF91FF90EF90DF90CF90BF90AF909F9000
:1017F0008F900C946001CF91FF90EF90DF90CF908D
:10180000BF90AF909F908F900C941F31CF91FF901D
:10181000EF90DF90CF90BF90AF909F908F905ACC79
:10182000CF91FF90EF90DF90CF90BF90AF909F90BF
:101830008F90089560911B0170911C0180911D0192
:1018400090911E0108953FB7F89426B526956091B2
:1018500020017091210180912201909123013FBFCD
:10186000620F711D811D911D08951092200110922B
:101870002101109222011092230110921F01109257
:101880001B0110921C0110921D0110921E0182E09A
:1018900084BD85BD99EF97BD16BC80936E008AE02C
:1018A00080931A0180931901809318018093170186
:1018B00096E090931601809315019093140108957A
:1018C0001F920F920FB60F9211242F933F938F9375
:1018D0009F93AF93BF932DB73EB780910001909136
:1018E00001012817390730F48DB79EB79093010195
:1018F000809300018091200190912101A09122010B
:10190000B091230183589F4FAF4FBF4F8093200169
:1019100090932101A0932201B093230180911F0194
:101920008F5F80931F01883008F481C080911F0170
:10193000885080931F0180911B0190911C01A09100
:101940001D01B0911E010196A11DB11D80931B01C7
:1019500090931C01A0931D01B0931E0180917D0105
:10196000816080937D0180911A01815080931A01DA
:1019700081115DC080917D01826080937D018AE04C
:1019800080931A019091190191509093190191112E
:101990004EC090917D01946090937D0180931901D8
:1019A00090911801915090931801911140C090911D
:1019B0007D01986090937D018093180190911701AB
:1019C000915090931701911132C090917D019061D7
:1019D00090937D01809317019091160191509093FF
:1019E0001601911124C090917D01906290937D0128
:1019F00026E02093160190911501915090931501C6
:101A0000911115C090917D01906490937D01809318
:101A1000150180911401815080931401811107C038
:101A200080917D01806880937D0120931401BF9196
:101A3000AF919F918F913F912F910F900FBE0F907B
:101A40001F90189510922601109227010895209159
:101A500027019091260181E0291380E008954091AB
:101A60002701209126014F5F50E030E081E04217CE
:101A7000530709F080E00895F2DF91E0811190E0D2
:101A8000892F0895ECDF882321F082E40E94E0345E
:101A9000F9CF809127018F5F80932701089580916E
:101AA00026018F5F809326010895809127019091F0
:101AB0002601891B0895CF93DF931F92CDB7DEB720
:101AC000C6DF882321F082E40E94E034F9CFE09160
:101AD0002601F0E0E256FE4F80818983E0DF8981B4
:101AE0000F90DF91CF910895E0912701F0E0E25649
:101AF000FE4F8083C7CF10922401109225010895D4
:101B0000209125019091240181E0291380E008951E
:101B1000209125014091240130E02F5F3F4F2F712C
:101B2000332750E081E02417350709F080E008955D
:101B3000EFDF882321F082E40E94E034F9CF809126
:101B400025018F5F8F718093250108958091240175
:101B50008F5F8F71809324010895E0912501F0E05B
:101B6000E258FE4F8083E4CFCF93DF93C82FD0DFBE
:101B7000882321F085E50E94E034F9CFDFB7F8949F
:101B80008C2FEBDF88EB8093C900DFBFDF91CF9113
:101B900008950F931F93CF938B019C01CFB7F894B7
:101BA000775F824C9F4F42E0660F771F881F991F17
:101BB0004A95D1F7A9019801E3E0220F331F441F92
:101BC000551FEA95D1F70E94EB3A21503109309325
:101BD000CD002093CC0082E08093C80088E98093F8
:101BE000C90086E08093CA002DDF85DF84E0809302
:101BF0002801CFBF81E1CF911F910F91B5CF809187
:101C0000280181FF0BC023DF882341F08091280148
:101C100084608093280188EB8093C9004CCFCF93D8
:101C2000CFB7F8948091280181FF0BC010DF882383
:101C300041F08091280184608093280188EB809393
:101C4000C900CFBFCF9131CF1F920F920FB60F9225
:101C500011242F933F934F935F936F937F938F93B1
:101C60009F93AF93BF93EF93FF938091280180FFE1
:101C700007C083E18093CE0082E0809328011AC0E0
:101C80008091280182FF06C083E18093CE001092EC
:101C9000280110C035DF882321F088E98093C9002E
:101CA00009C0E0912401F0E0E258FE4F808180936A
:101CB000CE004CDFFF91EF91BF91AF919F918F913B
:101CC0007F916F915F914F913F912F910F900FBE38
:101CD0000F901F9018951F920F920FB60F9211241C
:101CE0002F933F934F935F936F937F938F939F9324
:101CF000AF93BF93EF93FF93D8DE813460F0809170
:101D0000280181FD08C0809128018160809328010D
:101D100088EB8093C900B0DE81110DC063E00E94A2
:101D2000FF358CE091E09F938F930E941E390E94B3
:101D300043350F900F908091CE00D6DEFF91EF914A
:101D4000BF91AF919F918F917F916F915F914F91D3
:101D50003F912F910F900FBE0F901F901895EF920B
:101D6000FF920F931F930023E9F11616170618062A
:101D700019065CF457FD22C0E1E026173707480733
:101D800059070CF07FC0E0E07DC012161306140660
:101D9000150684F47B018C0188279927DC018E19B4
:101DA0009F09A00BB10B82179307A407B507B4F4E2
:101DB000E2E068C097FD53C057FF5AC07B018C0119
:101DC00088279927DC018E199F09A00BB10B2817D2
:101DD00039074A075B0724F4E6E054C0E3E052C049
:101DE000E7E050C016161706180619064CF457FD02
:101DF00020C026173707480759075CF5E8E042C0BE
:101E0000121613061406150684F47B018C0188272C
:101E10009927DC018E199F09A00BB10B821793073C
:101E2000A407B507C4F4EAE02DC097FD23C057FF0F
:101E30001FC07B018C0188279927DC018E199F091F
:101E4000A00BB10B281739074A075B0734F4EEE003
:101E500019C0E9E017C0EBE015C0EFE013C062174E
:101E600073078407950714F4E4E00CC0E5E00AC0AA
:101E7000EFEF08C0621773078407950714F4ECE0CE
:101E800001C0EDE08E2F1F910F91FF90EF9008950C
:101E90004F925F926F927F928F929F92AF92BF927A
:101EA000CF92DF92EF92FF920F931F93CF93C09147
:101EB00041018C2F8F7090E0FC01319780913D01A2
:101EC00090913E01A0913F01B091400100914601E7
:101ED0001091470120914801309149014091420100
:101EE000509143016091440170914501EF30F1053B
:101EF00020F4EA5AFF4F0C942D3CC0903501D0904D
:101F00003601E0903701F090380146015701801A00
:101F1000910AA20AB30A88169906AA06BB06A4F17A
:101F20004090390150903A0160903B0170903C0123
:101F300053014201E1E08E1A9108A108B108880E10
:101F4000991EAA1EBB1E80923D0190923E01A09256
:101F50003F01B092400182E0481A510861087108BF
:101F60004092390150923A0160923B0170923C01DB
:101F700001501109210931090093460110934701CD
:101F800020934801309349014F5F5F4F6F4F7F4F60
:101F90004093420150934301609344017093450183
:101FA000D701C6010296A11DB11D80933501909302
:101FB0003601A0933701B0933801C094D094E094D7
:101FC000F09480913D0190913E01A0913F01B0912C
:101FD00040018C0D9D1DAE1DBF1D80933D01909352
:101FE0003E01A0933F01B093400180914601909142
:101FF0004701A0914801B0914901481759076A0764
:102000007B070CF4E5C730C3C0903901D0903A018A
:10201000E0903B01F0903C014A015B018C189D0867
:10202000AE08BF0888169906AA06BB069CF54F5F46
:102030005F4F6F4F7F4F4093420150934301609336
:1020400044017093450140913501509136016091F2
:102050003701709138014A015B01E2E08E0E911C5C
:10206000A11CB11C8092350190923601A0923701DB
:10207000B09238014095509560957095480F591F62
:102080006A1F7B1F40933D0150933E0160933F01C7
:1020900070934001B701A6014150510961097109CE
:1020A00080913D0190913E01A0913F01B09140018E
:1020B000840F951FA61FB71F80933D0190933E018B
:1020C000A0933F01B093400182E0C81AD108E10813
:1020D000F108C0923901D0923A01E0923B01F092AE
:1020E0003C01015011092109310900934601109367
:1020F000470120934801309349011016110612063A
:1021000013060CF465C7B0C2C0903901D0903A01F3
:10211000E0903B01F0903C0146015701840E951E72
:10212000A61EB71EB094A09490948094811C911C1C
:10213000A11CB11C88169906AA06BB06A4F1409002
:10214000350150903601609037017090380153018D
:102150004201E1E08E1A9108A108B108880E991E8B
:10216000AA1EBB1E80923D0190923E01A0923F01AB
:10217000B092400182E0481A51086108710840920B
:10218000350150923601609237017092380141500A
:1021900051096109710940934201509343016093D1
:1021A000440170934501B701A601415051096109ED
:1021B000710980913D0190913E01A0913F01B09144
:1021C0004001840F951FA61FB71F80933D01909378
:1021D0003E01A0933F01B0934001E2E0CE1AD10846
:1021E000E108F108C0923901D0923A01E0923B0136
:1021F000F0923C0101501109210931090093460177
:102200001093470120934801309349018091420186
:1022100090914301A0914401B0914501B095A095E2
:10222000909581959F4FAF4FBF4F80179107A207A1
:10223000B3070CF4CDC618C2C0903501D09036015A
:10224000E0903701F090380146015701800E911E51
:10225000A21EB31EB094A09490948094811C911CF3
:10226000A11CB11C88169906AA06BB06A4F54090CD
:10227000390150903A0160903B0170903C0153014C
:102280004201E1E08E1A9108A108B108880E991E5A
:10229000AA1EBB1E80923D0190923E01A0923F017A
:1022A000B092400182E0481A5108610871084092DA
:1022B000390150923A0160923B0170923C01015009
:1022C0001109210931090093460110934701209318
:1022D00048013093490197018601015011092109F4
:1022E000310980913D0190913E01A0913F01B09153
:1022F0004001800F911FA21FB31F80933D01909357
:102300003E01A0933F01B0934001E2E0CE1AD10814
:10231000E108F108C0923501D0923601E092370110
:10232000F09238014150510961097109409342010D
:1023300050934301609344017093450114161506B0
:10234000160617060CF444C68FC1C0903501D09014
:102350003601E0903701F0903801480159018C189E
:102360009D08AE08BF0888169906AA06BB069CF110
:102370000F5F1F4F2F4F3F4F0093460110934701B0
:1023800020934801309349010091390110913A019D
:1023900020913B0130913C0148015901E2E08E0E51
:1023A000911CA11CB11C8092390190923A01A0921B
:1023B0003B01B0923C010095109520953095080F97
:1023C000191F2A1F3B1F00933D0110933E012093CC
:1023D0003F01309340019701860101501109210905
:1023E000310980913D0190913E01A0913F01B09152
:1023F0004001800F911FA21FB31F80933D01909356
:102400003E01A0933F01B093400182E0C81AD10879
:10241000E108F108C0923501D0923601E09237010F
:10242000F09238014150510961097109409342010C
:10243000509343016093440170934501809146019C
:1024400090914701A0914801B091490184179507E7
:10245000A607B7070CF4BCC507C1C0903901D090DE
:102460003A01E0903B01F0903C0146015701841A8B
:10247000950AA60AB70A88169906AA06BB06A4F505
:1024800040903501509036016090370170903801CE
:1024900053014201E1E08E1A9108A108B108880EAB
:1024A000991EAA1EBB1E80923D0190923E01A092F1
:1024B0003F01B092400182E0481A5108610871085A
:1024C0004092350150923601609237017092380186
:1024D00041505109610971094093420150934301F0
:1024E00060934401709345010F5F1F4F2F4F3F4F83
:1024F000009346011093470120934801309349010E
:10250000D701C6010296A11DB11D80933901909398
:102510003A01A0933B01B0933C01C094D094E09465
:10252000F09480913D0190913E01A0913F01B091C6
:1025300040018C0D9D1DAE1DBF1D80933D019093EC
:102540003E01A0933F01B093400137FD41C58CC0CF
:10255000C0903901D0903A01E0903B01F0903C01ED
:1025600046015701840E951EA61EB71E88169906B1
:10257000AA06BB069CF14F5F5F4F6F4F7F4F4093A2
:10258000420150934301609344017093450140918F
:1025900035015091360160913701709138014A013F
:1025A0005B01E2E08E0E911CA11CB11C80923501F2
:1025B00090923601A0923701B09238014095509523
:1025C00060957095480F591F6A1F7B1F40933D010E
:1025D00050933E0160933F01709340010F5F1F4F86
:1025E0002F4F3F4F0093460110934701209348011E
:1025F00030934901D701C6010296A11DB11D8093F8
:10260000390190933A01A0933B01B0933C01C094EF
:10261000D094E094F09480913D0190913E01A0917E
:102620003F01B09140018C0D9D1DAE1DBF1D8093DB
:102630003D0190933E01A0933F01B09340018091F2
:10264000420190914301A0914401B0914501B095A0
:10265000A095909581959F4FAF4FBF4F08171907D1
:102660002A073B070CF4B4C4CF5FB0C4C090350157
:10267000D0903601E0903701F090380148015901BF
:102680008C0C9D1CAE1CBF1C88169906AA06BB06A6
:102690009CF50F5F1F4F2F4F3F4F00934601109344
:1026A000470120934801309349010091390110916D
:1026B0003A0120913B0130913C0148015901E2E08F
:1026C0008E0E911CA11CB11C8092390190923A018E
:1026D000A0923B01B0923C01009510952095309559
:1026E000080F191F2A1F3B1F00933D0110933E0145
:1026F00020933F01309340014F5F5F4F6F4F7F4FFB
:10270000409342015093430160934401709345010B
:10271000D701C6010296A11DB11D8093350190938A
:102720003601A0933701B0933801C094D094E0945F
:10273000F09480913D0190913E01A0913F01B091B4
:1027400040018C0D9D1DAE1DBF1D80933D019093DA
:102750003E01A0933F01B093400177FD39C4109230
:10276000410136C4C0903501D0903601E090370168
:10277000F0903801480159018C189D08AE08BF0837
:1027800088169906AA06BB069CF50F5F1F4F2F4FB0
:102790003F4F009346011093470120934801309327
:1027A00049010091390110913A0120913B0130918A
:1027B0003C0148015901E2E08E0E911CA11CB11CA4
:1027C0008092390190923A01A0923B01B0923C0173
:1027D0000095109520953095080F191F2A1F3B1F53
:1027E00000933D0110933E0120933F01309340013F
:1027F00097018601015011092109310980913D019C
:1028000090913E01A0913F01B0914001800F911F36
:10281000A21FB31F80933D0190933E01A0933F01FF
:10282000B093400182E0C81AD108E108F108C092D3
:102830003501D0923601E0923701F09238014150D3
:10284000510961097109409342015093430160931A
:1028500044017093450114161506160617060CF46C
:10286000B7C38FE080934101B3C3C0903901D090CA
:102870003A01E0903B01F0903C0146015701841A77
:10288000950AA60AB70A88169906AA06BB06A4F1F5
:1028900040903501509036016090370170903801BA
:1028A00053014201E1E08E1A9108A108B108880E97
:1028B000991EAA1EBB1E80923D0190923E01A092DD
:1028C0003F01B092400182E0481A51086108710846
:1028D0004092350150923601609237017092380172
:1028E00041505109610971094093420150934301DC
:1028F00060934401709345010F5F1F4F2F4F3F4F6F
:1029000000934601109347012093480130934901F9
:10291000D701C6010296A11DB11D80933901909384
:102920003A01A0933B01B0933C01C094D094E09451
:10293000F09480913D0190913E01A0913F01B091B2
:1029400040018C0D9D1DAE1DBF1D80933D019093D8
:102950003E01A0933F01B0934001809142019091CC
:102960004301A0914401B091450180179107A2074E
:10297000B3070CF02DC329C3C0903901D0903A01A0
:10298000E0903B01F0903C0146015701840E951EFA
:10299000A61EB71E88169906AA06BB069CF54F5FB1
:1029A0005F4F6F4F7F4F40934201509343016093BD
:1029B0004401709345014091350150913601609179
:1029C0003701709138014A015B01E2E08E0E911CE3
:1029D000A11CB11C8092350190923601A092370162
:1029E000B09238014095509560957095480F591FE9
:1029F0006A1F7B1F40933D0150933E0160933F014E
:102A0000709340010F5F1F4F2F4F3F4F00934601C0
:102A1000109347012093480130934901D701C60123
:102A20000296A11DB11D8093390190933A01A093A4
:102A30003B01B0933C01C094D094E094F094809119
:102A40003D0190913E01A0913F01B09140018C0D5C
:102A50009D1DAE1DBF1D80933D0190933E01A0932F
:102A60003F01B093400137FDB3C2AFC2C090350102
:102A7000D0903601E0903701F090380146015701BF
:102A8000800E911EA21EB31E88169906AA06BB06CA
:102A90009CF10F5F1F4F2F4F3F4F00934601109344
:102AA0004701209348013093490100913901109169
:102AB0003A0120913B0130913C0148015901E2E08B
:102AC0008E0E911CA11CB11C8092390190923A018A
:102AD000A0923B01B0923C01009510952095309555
:102AE000080F191F2A1F3B1F00933D0110933E0141
:102AF00020933F01309340014F5F5F4F6F4F7F4FF7
:102B00004093420150934301609344017093450107
:102B1000D701C6010296A11DB11D80933501909386
:102B20003601A0933701B0933801C094D094E0945B
:102B3000F09480913D0190913E01A0913F01B091B0
:102B400040018C0D9D1DAE1DBF1D80933D019093D6
:102B50003E01A0933F01B093400170956095509560
:102B600041955F4F6F4F7F4F809146019091470194
:102B7000A0914801B0914901481759076A077B079E
:102B80000CF026C222C2C0903501D0903601E090F0
:102B90003701F090380146015701801A910AA20AC4
:102BA000B30A88169906AA06BB06A4F54090390117
:102BB00050903A0160903B0170903C0153014201FA
:102BC000E1E08E1A9108A108B108880E991EAA1E8C
:102BD000BB1E80923D0190923E01A0923F01B092B7
:102BE000400182E0481A5108610871084092390199
:102BF00050923A0160923B0170923C0101501109E0
:102C0000210931090093460110934701209348019F
:102C1000309349014F5F5F4F6F4F7F4F40934201A9
:102C2000509343016093440170934501D701C6015D
:102C30000296A11DB11D8093350190933601A0939A
:102C40003701B0933801C094D094E094F09480910F
:102C50003D0190913E01A0913F01B09140018C0D4A
:102C60009D1DAE1DBF1D80933D0190933E01A0931D
:102C70003F01B093400177FDABC1A7C1C0903901BE
:102C8000D0903A01E0903B01F0903C014A015B0199
:102C90008C189D08AE08BF0888169906AA06BB06C0
:102CA0009CF14F5F5F4F6F4F7F4F409342015093B6
:102CB0004301609344017093450140913501509167
:102CC000360160913701709138014A015B01E2E001
:102CD0008E0E911CA11CB11C809235019092360180
:102CE000A0923701B092380140955095609570954B
:102CF000480F591F6A1F7B1F40933D0150933E01AF
:102D000060933F0170934001B701A6014150510902
:102D10006109710980913D0190913E01A0913F01AF
:102D2000B0914001840F951FA61FB71F80933D01EE
:102D300090933E01A0933F01B093400182E0C81AF6
:102D4000D108E108F108C0923901D0923A01E0922D
:102D50003B01F0923C010150110921093109009316
:102D60004601109347012093480130934901809117
:102D7000420190914301A0914401B091450108178F
:102D800019072A073B070CF023C11FC1C090390166
:102D9000D0903A01E0903B01F0903C014601570190
:102DA000840E951EA61EB71EB094A0949094809495
:102DB000811C911CA11CB11C88169906AA06BB0691
:102DC000A4F5409035015090360160903701709025
:102DD000380153014201E1E08E1A9108A108B108BF
:102DE000880E991EAA1EBB1E80923D0190923E0144
:102DF000A0923F01B092400182E0481A5108610858
:102E000071084092350150923601609237017092FC
:102E100038014150510961097109409342015093B1
:102E200043016093440170934501B701A6014150ED
:102E300051096109710980913D0190913E01A09174
:102E40003F01B0914001840F951FA61FB71F8093CB
:102E50003D0190933E01A0933F01B0934001E2E019
:102E6000CE1AD108E108F108C0923901D0923A0196
:102E7000E0923B01F0923C01015011092109310916
:102E80000093460110934701209348013093490174
:102E900010161106120613060CF49AC096C0C090C4
:102EA0003501D0903601E0903701F09038014801AB
:102EB00059018C0C9D1CAE1CBF1CB094A094909426
:102EC0008094811C911CA11CB11C88169906AA062D
:102ED000BB06A4F14090390150903A0160903B014B
:102EE00070903C0153014201E1E08E1A9108A10863
:102EF000B108880E991EAA1EBB1E80923D019092B9
:102F00003E01A0923F01B092400182E0481A510870
:102F1000610871084092390150923A0160923B0178
:102F200070923C01015011092109310900934601B9
:102F3000109347012093480130934901970186017E
:102F4000015011092109310980913D0190913E0103
:102F5000A0913F01B0914001800F911FA21FB31FAC
:102F600080933D0190933E01A0933F01B0934001B7
:102F7000E2E0CE1AD108E108F108C0923501D09202
:102F80003601E0923701F092380141505109610950
:102F9000710940934201509343016093440170933F
:102FA000450170956095509541955F4F6F4F7F4FEC
:102FB0008091460190914701A0914801B09149014B
:102FC00084179507A607B7071CF4C150C0934101A9
:102FD000409146015091470160914801709149012B
:102FE0008091420190914301A0914401B09145012B
:102FF000FA0157FF04C0EE27FF27E41BF50B9C01E5
:1030000097FF04C022273327281B390B2E173F07B1
:10301000C4F500912D0110912E0120912F013091C6
:103020003001081719072A073B0709F065C080918E
:10303000310190913201A0913301B0913401841794
:103040009507A607B70709F472C077FD0BC0F1E03A
:10305000E0E014161506160617060CF0F0E02F2F08
:103060003E2F02C02FEF3FEFB7FD41C051E040E0DF
:10307000181619061A061B060CF050E0852F942F1F
:1030800038C000913101109132012091330130910B
:103090003401041715072607370771F540912D01F4
:1030A00050912E0160912F017091300148175907FE
:1030B0006A077B07E1F1B7FD0BC0F1E0E0E018160D
:1030C00019061A061B060CF0F0E02F2F3E2F02C047
:1030D0002FEF3FEF77FD0BC0F1E0E0E0141615068F
:1030E000160617060CF0F0E08F2F9E2F02C08FEF10
:1030F0009FEF28173907E9F04091290150912A01E3
:1031000060912B0170912C014150510961097109A5
:103110004093290150932A0160932B0170932C0155
:1031200081E0452B462B472B29F080E003C083E04C
:1031300001C082E0CF911F910F91FF90EF90DF903F
:10314000CF90BF90AF909F908F907F906F905F9047
:103150004F9008954F925F926F927F928F929F92BD
:10316000AF92BF92CF92DF92EF92FF920F93CF93E5
:10317000DF9300D000D0CDB7DEB769837A838B832D
:103180009C83A02FC7010C2D6C01EA2EFF24E7FCC5
:10319000F09446015701A42FC901BB27A7FDB095A4
:1031A0002C013D01A7019601BC01CD010E94AF0E8B
:1031B000809341014092460150924701609248013C
:1031C00070924901C0924201D0924301E0924401C1
:1031D000F0924501440C551C661C771C4092390145
:1031E00050923A0160923B0170923C01880C991C0C
:1031F000AA1CBB1C8092350190923601A092370127
:10320000B0923801A6E0B0E029813A814B815C811F
:103210000E94D23A6093290170932A0180932B0176
:1032200090932C010F900F900F900F90DF91CF9102
:103230000F91FF90EF90DF90CF90BF90AF909F9055
:103240008F907F906F905F904F9008952F923F9254
:103250004F925F926F928F929F92AF92BF92CF9256
:10326000DF92EF92FF920F931F93CF93DF93CDB72F
:10327000DEB769970FB6F894DEBF0FBECDBF6C877F
:103280007D878E879F8729833A834B832701602E12
:10329000AC8ABD8ACE8A2DA53EA54FA52F8B388F2F
:1032A000498F18A9AC2DC501BB27A7FDB095888B08
:1032B000998BAA8BBB8B8093310190933201A093A1
:1032C0003301B0933401A42FC901BB27A7FDB095EA
:1032D0004C015D0180932D0190932E01A0932F014D
:1032E000B0933001C12E29813A814B816C857D8557
:1032F0008E859F852FDF89819A81AB81BB27A7FDB2
:10330000B0958C839D83AE83BF83A62DC201BB275E
:10331000A7FDB09588879987AA87BB87A5019401E7
:10332000C501B4010E94DC3A4B015C012885398556
:103330004A855B85CA01B9010E94DC3A6B017C01B8
:103340002C813D814E815F81CA01B9010E94DC3A26
:10335000C60ED71EE81EF91E8C189D08AE08BF08C1
:10336000288939894A895B89CA01B9010E94DC3AF6
:10337000860E971EA81EB91E80923D0190923E01B6
:10338000A0923F01B09240010E94480F8823E1F3D0
:103390008091730190917401A09175012C893D89F0
:1033A0004E89820F931FA41F809361019093620145
:1033B000A09363018091760190917701A0917801AB
:1033C0002F89388D498D820F931FA41F809364012C
:1033D00090936501A0936601209051013BE1239EEB
:1033E00010011124C10182509D4F1C0180912901BF
:1033F00090912A01A0912B01A095909581959F4FC6
:10340000AF4FF10181839283A383C12E062D7201F8
:1034100029813A814B816C857D858E859F859ADED9
:1034200080923D0190923E01A0923F01B0924001F6
:10343000D1011196CD90DD90EC90BFEFCB1ADB0A55
:10344000EB0A8091290190912A01A0912B01C80ECD
:10345000D91EEA1EF101C182D282E38229813A811A
:103460004B812483358346834782508661868286DA
:103470009386A486B5862C853D854E85268737871D
:10348000408B112319F0B0E1FB2E02C0A8E1FA2E07
:10349000012F288539854A855B856C817D818E81E8
:1034A0009F810E94AF0E8F29F10180838091B80225
:1034B0009091B902A091BA02B091BB020097A10508
:1034C000B10521F0382F292F8A2F1DC02091AA0283
:1034D0003091AB024091AC028E2DB60190E050E0ED
:1034E0000E94663BEBE9AE2EF6E1BF2ECC24C394DE
:1034F000D12CE12CF12C00E010E00E944E3B932FE8
:10350000842F322F292FD10153963C9353975496F1
:103510002C93549755968C938091AD029091AE0266
:10352000A091AF02F101868B978BA08F9091B5028D
:103530008091B602918F828F69960FB6F894DEBFA4
:103540000FBECDBFDF91CF911F910F91FF90EF90F4
:10355000DF90CF90BF90AF909F908F906F905F90D3
:103560004F903F902F90DEC5AF92BF92CF92DF92E7
:10357000EF92FF920F931F93992787FD909520E478
:1035800032E44FE050E00E94593BE4E7AE2EF5E311
:10359000BF2ECC24C394D12CE12CF12C00E010E000
:1035A0000E94233BB901CA011F910F91FF90EF9038
:1035B000DF90CF90BF90AF900895AF92BF92CF921F
:1035C000DF92EF92FF920F931F93992787FD9095BB
:1035D00020E432E44FE050E00E94593BE4E7AE2E95
:1035E000F5E3BF2ECC24C394D12CE12CF12C00E0C8
:1035F00010E00E94233BB901CA011F910F91FF9077
:10360000EF90DF90CF90BF90AF900895AF92BF92B0
:10361000CF92DF92EF92FF920F931F93992787FD2E
:10362000909520E432E44FE050E00E94593BA12CF9
:10363000E5E3BE2EFCE0CF2ED12CE12CF12C00E0F6
:1036400010E00E94233BB901CA011F910F91FF9026
:10365000EF90DF90CF90BF90AF900895AF92BF9260
:10366000CF92DF92EF92FF920F931F9324E735E3FF
:1036700041E050E00E94593BE0E4AE2EF2E4BF2E60
:10368000AFE0CA2ED12CE12CF12C00E010E00E941A
:10369000233BB901842F1F910F91FF90EF90DF9092
:1036A000CF90BF90AF900895AF92BF92CF92DF922C
:1036B000EF92FF920F931F9324E735E341E050E030
:1036C0000E94593BE0E4AE2EF2E4BF2EAFE0CA2EDA
:1036D000D12CE12CF12C00E010E00E94233BB90139
:1036E000842F1F910F91FF90EF90DF90CF90BF90AC
:1036F000AF900895AF92BF92CF92DF92EF92FF9278
:103700000F931F9320E035E34CE050E00E94593BBB
:10371000E0E4AE2EF2E4BF2EAFE0CA2ED12CE12CB5
:10372000F12C00E010E00E94233BB901842F1F918F
:103730000F91FF90EF90DF90CF90BF90AF900895E2
:1037400081E00E9495358FE59DE60197F1F700C075
:10375000000008950F931F93CF93DF9300D01F9223
:10376000CDB7DEB7182F60E080E00E94FF350E94E1
:103770001A0C082F69837A839B83E9D49B819F93DA
:103780000F937A817F9369816F931F928F931F921A
:103790001F9382E791E09F938F930E941E3980E0F0
:1037A0000E942E31E1DE162F082F60E081E07A833F
:1037B0009B830E94FF359B819F930F937A817F9318
:1037C0001F9381E691E09F938F930E941E3981E0C1
:1037D0000E942E31F2DE162F082F60E082E07A83FD
:1037E0009B830E94FF359B819F930F937A817F93E8
:1037F0001F9380E591E09F938F930E941E3982E092
:103800000E942E3103DF162F082F60E083E07A83B9
:103810009B830E94FF359B819F930F937A817F93B7
:103820001F938FE391E09F938F930E941E398091A5
:10383000AF068C710FB6F894DEBF0FBECDBF6AE045
:10384000A9F081E00E94FF358091AF0686958695AC
:1038500087701F928F9383E391E09F938F930E94D1
:103860001E390F900F900F900F900BC081E00E94B7
:10387000FF3589E291E09F938F930E941E390F904C
:103880000F906AE082E00E94FF359091AE06809131
:10389000AF0683708F939F938091B006877090E0FE
:1038A00001969F938F938091AF068695869587703A
:1038B0001F928F938FE191E09F938F930E941E3907
:1038C0002DB73EB70FB6F894DEBF0FBECDBF8091C7
:1038D0000001909101012817390730F48DB79EB788
:1038E00090930101809300016AE083E00E94FF351C
:1038F000809101018F93809100018F9389E191E084
:103900009F938F930E941E390F900F900F900F90EE
:103910000F900F900F90DF91CF911F910F9108950D
:103920002FEF83EC99E0215080409040E1F700C0F8
:10393000000084E00E94D23584E00E94D23500DF8E
:1039400089E408CF28E288E190E00FB6F894A895C2
:10395000809360000FBE209360000895AC01222781
:1039600088279927469F312D479F300D811D921F33
:10397000569F300D811D921F579F800D911D112460
:1039800008952F923F924F925F926F927F928F9203
:103990009F92AF92BF92CF92DF92EF92FF920F93DE
:1039A0001F93CF93DF93CDB7DEB766970FB6F8942A
:1039B000DEBF0FBECDBF2C833D834E835F83688700
:1039C00079878A879B87712C812C912C1E8A1B8A70
:1039D0001C8AF0E0E0E4272D382D492D5E896B89A3
:1039E0007C898F2F9E2FAC80BD80CE80DF80E884C5
:1039F000F9840A851B850E94633CA9F0A0F0272D5D
:103A0000382D492D5E896B897C898F2F9E2F02E08E
:103A10000E94353C722E832E942E5E8B6B8B7C8B9A
:103A2000F82FE92FD8CF612C512C212C312CB0E06C
:103A30001A821B82412C272D382D492D5E896B89D6
:103A40007C898F2F9E2FA0E00E946C3C09F470C0EF
:103A5000272D382D492D5E896B897C898F2F9E2FCC
:103A6000A62CB52C6101EB2EFA800B81142D0E943F
:103A7000513C2D8BA32F4D875E876F87788B898B69
:103A80009A8B2C813D814E815F81688579858A85FD
:103A90009B85AD88BA2ECD84DE84EF84F8880989B1
:103AA0001A890E94633CF8F00E945A3C2C833D83A3
:103AB0004E835F83688779878A879B87262D352D7C
:103AC000A1016B2F7A818B81942D01E00E94353CFE
:103AD000A72CB82CC92CDE88EB88FC880F2F1E2F52
:103AE0000E94513C0AC0262D352DA1016B2F7A81F1
:103AF0008B81942D01E00E94353C622E532E1A01D9
:103B0000B62F7A838B83492E272D382D492D5E8938
:103B10006B897C898F2F9E2F02E00E94353C722E8C
:103B2000832E942E5E8B6B8B7C8BF82FE92F83CFAB
:103B3000662D752DC10166960FB6F894DEBF0FBED7
:103B4000CDBFDF91CF911F910F91FF90EF90DF904C
:103B5000CF90BF90AF909F908F907F906F905F902D
:103B60004F903F902F9008954F925F926F927F9267
:103B70008F929F92AF92BF92CF92DF92EF92FF927D
:103B80000F931F93CF93DF934B015C0169017A017F
:103B9000A50194010E94593B29013A01D62FC72F54
:103BA0004C01C701B601A70196010E94593B59017A
:103BB0006A017B018C019201A3016D2F7C2FC4014E
:103BC0000E94513CDF91CF911F910F91FF90EF9098
:103BD000DF90CF90BF90AF909F908F907F906F902D
:103BE0005F904F90CECE20914B0190914A0181E0A1
:103BF000291380E00895F7DF91E0811190E0892F8B
:103C0000089520914B0140914A0130E02F5F3F4FD2
:103C10002F73332750E081E02417350709F080E047
:103C20000895EFDF882321F082E40E94E034F9CF89
:103C300080914B018F5F8F7380934B01089580912A
:103C40004A018F5F8F7380934A010895CF93DF936A
:103C50001F92CDB7DEB7C7DF882321F082E40E9430
:103C6000E034F9CFE0914A01F0E0E454FD4F808167
:103C70008983E5DF89810F90DF91CF910895E091ED
:103C80004B01F0E0E454FD4F8083CBCF82B78061DD
:103C900082BFE1ECF0E0108282E08093C00098E007
:103CA0009093C2008093C30080E48093C40083E0BB
:103CB0008093BF008FEB8093D1001092720010921E
:103CC000BF001092BE0081E08083089510929000A2
:103CD00088E0809391001092950010929400E1E7A3
:103CE000F0E080818260808308956115710581050F
:103CF000910511F488E05DC0611520E1720781052E
:103D0000910558F4E4E0660F771FEA95E1F77093A8
:103D100099006093980089E04CC0611520E8720713
:103D20008105910540F4660F771F709399006093A9
:103D300098008AE03EC06115710524E08207910574
:103D400078F4DC01CB0142E0B695A795979587956D
:103D50004A95D1F790939900809398008BE029C001
:103D60006115710520E18207910578F4DC01CB0132
:103D700034E0B695A795979587953A95D1F79093A6
:103D80009900809398008CE014C06115710520E4BF
:103D900082079105C8F4DC01CB0126E0B695A79512
:103DA000979587952A95D1F79093990080939800DD
:103DB0008DE08093910010924C0110924D01109271
:103DC0004E0110924F01089560E070EA8FE090E09C
:103DD000CDCFCF92DF92EF92FF920F931F932FB729
:103DE000F894C0909E02D0909F02E090A002F090C4
:103DF000A10210929E0210929F021092A0021092B5
:103E0000A1022FBF2091A2023091A302C20ED31EA5
:103E1000E11CF11CC60ED71EE81EF91E40E050E062
:103E2000BA0118EEC11613E0D106E104F10458F00E
:103E300008EEC01A03E0D00AE108F1084F5F5F4FB7
:103E40006F4F7F4FEECFD092A302C092A20280911B
:103E5000A4029091A5028A019B01080F191F211D40
:103E6000311DD901C8014091A6025091A70260916D
:103E7000A8027091A9028A019B010F5F1F4F2F4F6B
:103E80003F4F8036EAEE9E07A105B10538F0805617
:103E90009A4EA109B109B901A801EDCF4093A6023C
:103EA0005093A7026093A8027093A9029093A50271
:103EB0008093A4021F910F91FF90EF90DF90CF901D
:103EC00008950F931F93182F9091B702882379F1CB
:103ED00091110AC00E94230C6093B0027093B1024A
:103EE0008093B2029093B30281E08093B7025E9A0E
:103EF0001F3F21F48091C4008F7E16C0812F90E077
:103F0000382F22276EE777E0822B932B27DD80382E
:103F100027E0920710F08FE797E09093BF0080931F
:103F2000CF008091C40080618093C40022C05E985D
:103F30008091C4008F7E8093C4009923D1F01092A9
:103F4000B7020E94230C0091B0021091B10220919F
:103F5000B2023091B302601B710B820B930B39DFFD
:103F600080919100887F809391001092950010922B
:103F700094001F910F9108951F920F920FB60F9208
:103F800011242F933F934F935F936F937F938F935E
:103F90009F93AF93BF93EF93FF932DB73EB780915D
:103FA0000001909101012817390730F48DB79EB7B1
:103FB00090930101809300018091B702882379F0EA
:103FC00060914C0170914D0180914E0190914F0193
:103FD000611571058105910511F087DE07C080919B
:103FE0009100887F8093910080E06BDFFF91EF91DB
:103FF000BF91AF919F918F917F916F915F914F9101
:104000003F912F910F900FBE0F901F9018955E98C3
:10401000569A3CDE5BDEE5EBF2E084E680832181AC
:1040200081E090E0A0E08093AA029093AB02A0937D
:10403000AC0288EE93E0A0E08093AD029093AE02D4
:10404000A093AF021092B702207E21831092B0029B
:104050001092B1021092B2021092B3021092B80202
:104060001092B9021092BA021092BB0286E59AEE43
:104070009093A5028093A40280E023CF883048F477
:104080008770880F880F9091B602937E982B90933B
:10409000B6020895883048F48295880F807E90910A
:1040A000B6029F71982B9093B60208956093AA026E
:1040B0007093AB028093AC0208956093AD0270934D
:1040C000AE028093AF020895893E23E0920748F440
:1040D0008093B50293708091B6028C7F892B809378
:1040E000B60208958093B402089510925001109280
:1040F00051010895209151019091500181E02913BF
:1041000080E00895209151014091500130E02F5FEF
:104110003F4F2F71332750E081E02417350709F016
:1041200080E00895EFDF882321F082E40E94E034EC
:10413000F9CF809151018F5F8F7180935101089564
:10414000809150018F5F8F7180935001089580910D
:10415000510190915001891B8F710895CF92DF9288
:10416000EF92CF93DF93E091FC02F091FD02EF011B
:10417000858580FF2BC08181813011F42F9A01C089
:104180002F982F89388D498DC8A0D9A0EAA08E8597
:104190009F85A8895527820F931FA41F20F453954C
:1041A0008C199D09AE098E879F87A88B552371F0C6
:1041B0002E9A29818C819D81AE81022E0594820FD9
:1041C000901DA01D8C839D83AE832E988D8581FFCD
:1041D0002BC08A81813011F42D9801C02D9A2A8D2F
:1041E0003B8D4C8DC8A0D9A0EAA089899A89AB895A
:1041F0005527820F931FA41F20F453958C199D09F6
:10420000AE09898B9A8BAB8B552371F02C9A2A813E
:104210008F819885A985022E0594820F901DA01D7F
:104220008F839887A9872C988D8582FF2BC08B81DF
:10423000813011F4469A01C046982D8D3E8D4F8DE8
:10424000C8A0D9A0EAA08C899D89AE895527820F84
:10425000931FA41F20F453958C199D09AE098C8BD4
:104260009D8BAE8B552371F0479A2B818A859B8558
:10427000AC85022E0594820F901DA01D8A879B8716
:10428000AC874798FE018D85877009F44EC02BA13D
:104290003CA14DA188A199A1AAA10196A11D821BB3
:1042A000930BA40B281739074A0710F4A42FC90150
:1042B000813C52E0950728F460EC72E0681B790BB2
:1042C00002C060E070E0CB0156E0969587955A9564
:1042D000E1F7582F882319F060645FEF580F6F776C
:1042E0007727552341F077FD04C0660F771F5150A3
:1042F000F8CF6FEF7FEF603D87E0780710F460ED57
:1043000077E085A596A58617970708F4BC017093FA
:1043100089006093880021503109410923A334A307
:1043200045A381E0232B242B09F480E0DF91CF917A
:10433000EF90DF90CF900895CF92DF92EF92FF92AF
:104340000F931F93CF93DF936091FC027091FD0256
:10435000EB01888190E09C01205131092031310529
:1043600010F00C94132A2B593F4F8EA19FA1A8A5A2
:10437000B9A5F9010C942D3C2A8D3B8D4C8DCE8432
:10438000DF84E8882C193D094E097901042F112793
:1043900007FD1095E816F9060A071B0794F12F98F8
:1043A000CF88D88CE98CAE2DC6010197A1098C016C
:1043B0002A2F332727FD30958EA19FA1A8A5B9A547
:1043C000800F911FA21FB31F8EA39FA3A8A7B9A7F9
:1043D00012E0C11AD108E108CF8AD88EE98E8E8505
:1043E0009F85A8890197A1098E879F87A88B2E9A00
:1043F0008C819D81AE810197A1098C839D83AE83C1
:104400002E982D98FE0189899A89AB890196A11D64
:10441000898B9A8BAB8B2A8D3B8D4C8DA42FC90138
:104420000296A11D8A8F9B8FAC8FA42FC901019684
:10443000A11D7C010A2F112707FD10958EA19FA1B8
:10444000A8A5B9A58E199F09A00BB10B8EA39FA398
:10445000A8A7B9A72C9A8F819885A9850196A11D37
:104460008F839887A9872C9829893A894B898E85CB
:104470009F85A889281739074A070CF4D4C781E11A
:10448000D1C729893A894B89CF88D88CE98C2C19D6
:104490003D094E097901042F112707FD1095E816F3
:1044A000F9060A071B0794F52D9889899A89AB8923
:1044B0000196A11D898B9A8BAB8B2A8D3B8D4C8DE0
:1044C000A42FC9010296A11D8A8F9B8FAC8FA42FA8
:1044D000C9010196A11D8C012A2F332727FD309594
:1044E0008EA19FA1A8A5B9A5801B910BA20BB30B10
:1044F0008EA39FA3A8A7B9A72C9A8F819885A98579
:104500000196A11D8F839887A9872C982F98FE016B
:10451000CF88D88CE98CAE2DC6010197A1098C01FA
:104520002A2F332727FD30958EA19FA1A8A5B9A5D5
:10453000800F911FA21FB31F8EA39FA3A8A7B9A787
:1045400012E0C11AD108E108CF8AD88EE98E8E8593
:104550009F85A8890197A1098E879F87A88B2E9A8E
:104560008C819D81AE810197A1098C839D83AE834F
:104570002E988E859F85A889181619061A060CF4A0
:1045800052C782E14FC72F89388D498DC988DA8893
:10459000EB882C0D3D1D4E1D4095309521953F4FCC
:1045A0004F4F7901042F112707FD1095E816F906E2
:1045B0000A071B0794F12D9ACA8CDB8CEC8CAE2D6C
:1045C000C6010197A1098C012A2F332727FD3095B9
:1045D0008EA19FA1A8A5B9A5800F911FA21FB31FEF
:1045E0008EA39FA3A8A7B9A712E0C11AD108E1081A
:1045F000CA8EDB8EEC8E89899A89AB890197A109D5
:10460000898B9A8BAB8B2C9A8F819885A985019782
:10461000A1098F839887A9872C982F98FE01CF88AE
:10462000D88CE98CAE2DC6010197A1098C012A2FE7
:10463000332727FD30958EA19FA1A8A5B9A5800F8E
:10464000911FA21FB31F8EA39FA3A8A7B9A712E013
:10465000C11AD108E108CF8AD88EE98E8E859F8550
:10466000A8890197A1098E879F87A88B2E9A8C8194
:104670009D81AE810197A1098C839D83AE832E9885
:1046800089899A89AB89A095909581959F4FAF4F65
:104690002E853F85488982179307A4070CF4C3C66B
:1046A00083E1C0C62A8D3B8D4C8DCE84DF84E888A3
:1046B0002C0D3D1D4E1D4095309521953F4F4F4F80
:1046C0007901042F112707FD1095E816F9060A074E
:1046D0001B0794F52F98CF88D88CE98CAE2DC60196
:1046E0000197A1098C012A2F332727FD30958EA130
:1046F0009FA1A8A5B9A5800F911FA21FB31F8EA3CC
:104700009FA3A8A7B9A712E0C11AD108E108CF8AD0
:10471000D88EE98E8E859F85A8890197A1098E87FD
:104720009F87A88B2E9A8C819D81AE810197A109CC
:104730008C839D83AE832E982D9AFE01CA8CDB8CD0
:10474000EC8CAE2DC6010197A1098C012A2F3327CD
:1047500027FD30958EA19FA1A8A5B9A5800F911F17
:10476000A21FB31F8EA39FA3A8A7B9A712E0C11AC7
:10477000D108E108CA8EDB8EEC8E89899A89AB89D3
:104780000197A109898B9A8BAB8B2C9A8F81988585
:10479000A9850197A1098F839887A9872C98898972
:1047A0009A89AB89181619061A060CF43CC684E1DE
:1047B00039C62E853F854889CA8CDB8CEC8C2C1938
:1047C0003D094E097901042F112707FD1095E816C0
:1047D000F9060A071B0794F12F9A8E859F85A889F1
:1047E0000196A11D8E879F87A88B2F89388D498DB3
:1047F000A42FC9010296A11D8F8B988FA98FA42F7A
:10480000C9010196A11D8C012A2F332727FD309560
:104810008EA19FA1A8A5B9A5801B910BA20BB30BDC
:104820008EA39FA3A8A7B9A72E9A8C819D81AE8144
:104830000196A11D8C839D83AE832E982D9AFE0137
:10484000CA8CDB8CEC8CAE2DC6010197A1098C01C2
:104850002A2F332727FD30958EA19FA1A8A5B9A5A2
:10486000800F911FA21FB31F8EA39FA3A8A7B9A754
:1048700012E0C11AD108E108CA8EDB8EEC8E89895C
:104880009A89AB890197A109898B9A8BAB8B2C9A5A
:104890008F819885A9850197A1098F839887A9871A
:1048A0002C982E853F85488989899A89AB89281754
:1048B00039074A070CF4B7C585E1B4C52F89388D8F
:1048C000498DC988DA88EB882C193D094E09790190
:1048D000042F112707FD1095E816F9060A071B0794
:1048E00094F52D9ACA8CDB8CEC8CAE2DC601019709
:1048F000A1098C012A2F332727FD30958EA19FA176
:10490000A8A5B9A5800F911FA21FB31F8EA39FA3B7
:10491000A8A7B9A712E0C11AD108E108CA8EDB8E98
:10492000EC8E89899A89AB890197A109898B9A8B29
:10493000AB8B2C9A8F819885A9850197A1098F83CC
:104940009887A9872C982F9AFE018E859F85A88924
:104950000196A11D8E879F87A88B2F89388D498D41
:10496000A42FC9010296A11D8F8B988FA98FA42F08
:10497000C9010196A11D7C010A2F112707FD109581
:104980008EA19FA1A8A5B9A58E199F09A00BB10B57
:104990008EA39FA3A8A7B9A72E9A8C819D81AE81D3
:1049A0000196A11D8C839D83AE832E988E859F8555
:1049B000A889AA230CF437C586E134C52F89388D20
:1049C000498DC988DA88EB882C0D3D1D4E1D790173
:1049D000042F112707FD1095E816F9060A071B0793
:1049E00094F12D9889899A89AB890196A11D898BAB
:1049F0009A8BAB8B2A8D3B8D4C8DA42FC9010296CF
:104A0000A11D8A8F9B8FAC8FA42FC9010196A11D78
:104A10008C012A2F332727FD30958EA19FA1A8A5B1
:104A2000B9A5801B910BA20BB30B8EA39FA3A8A7C4
:104A3000B9A72C9A8F819885A9850196A11D8F838E
:104A40009887A9872C982F9AFE018E859F85A88923
:104A50000196A11D8E879F87A88B2F89388D498D40
:104A6000A42FC9010296A11D8F8B988FA98FA42F07
:104A7000C9010196A11D7C010A2F112707FD109580
:104A80008EA19FA1A8A5B9A58E199F09A00BB10B56
:104A90008EA39FA3A8A7B9A72E9A8C819D81AE81D2
:104AA0000196A11D8C839D83AE832E9889899A8956
:104AB000AB89A095909581959F4FAF4F2E853F85EF
:104AC0004889281739074A070CF4ADC487E1AAC4FE
:104AD0002E853F854889CA8CDB8CEC8C2C0D3D1DC6
:104AE0004E1D7901042F112707FD1095E816F906D0
:104AF0000A071B0794F52F9A8E859F85A889019632
:104B0000A11D8E879F87A88B2F89388D498DA42F53
:104B1000C9010296A11D8F8B988FA98FA42FC9015F
:104B20000196A11D8C012A2F332727FD30958EA1D8
:104B30009FA1A8A5B9A5801B910BA20BB30B8EA3B7
:104B40009FA3A8A7B9A72E9A8C819D81AE810196BB
:104B5000A11D8C839D83AE832E982D98FE0189899B
:104B60009A89AB890196A11D898B9A8BAB8B2A8D73
:104B70003B8D4C8DA42FC9010296A11D8A8F9B8F5E
:104B8000AC8FA42FC9010196A11D7C010A2F11270A
:104B900007FD10958EA19FA1A8A5B9A58E199F0903
:104BA000A00BB10B8EA39FA3A8A7B9A72C9A8F81A6
:104BB0009885A9850196A11D8F839887A9872C9830
:104BC00089899A89AB89AA230CF42DC480E12AC46F
:104BD0002E853F854889CA8CDB8CEC8C2C193D09CD
:104BE0004E097901042F112707FD1095E816F906E3
:104BF0000A071B0794F52F9A8E859F85A889019631
:104C0000A11D8E879F87A88B2F89388D498DA42F52
:104C1000C9010296A11D8F8B988FA98FA42FC9015E
:104C20000196A11D8C012A2F332727FD30958EA1D7
:104C30009FA1A8A5B9A5801B910BA20BB30B8EA3B6
:104C40009FA3A8A7B9A72E9A8C819D81AE810196BA
:104C5000A11D8C839D83AE832E982D9AFE01CA8C54
:104C6000DB8CEC8CAE2DC6010197A1098C012A2F9B
:104C7000332727FD30958EA19FA1A8A5B9A5800F48
:104C8000911FA21FB31F8EA39FA3A8A7B9A712E0CD
:104C9000C11AD108E108CA8EDB8EEC8E89899A8907
:104CA000AB890197A109898B9A8BAB8B2C9A8F8149
:104CB0009885A9850197A1098F839887A9872C9842
:104CC00089899A89AB89181619061A060CF4ABC3A0
:104CD0008FE1A8C32F89388D498DC988DA88EB8880
:104CE0002C193D094E097901042F112707FD109554
:104CF000E816F9060A071B0794F12D9ACA8CDB8C7B
:104D0000EC8CAE2DC6010197A1098C012A2F332707
:104D100027FD30958EA19FA1A8A5B9A5800F911F51
:104D2000A21FB31F8EA39FA3A8A7B9A712E0C11A01
:104D3000D108E108CA8EDB8EEC8E89899A89AB890D
:104D40000197A109898B9A8BAB8B2C9A8F819885BF
:104D5000A9850197A1098F839887A9872C982F9AF5
:104D6000FE018E859F85A8890196A11D8E879F874C
:104D7000A88B2F89388D498DA42FC9010296A11DBA
:104D80008F8B988FA98FA42FC9010196A11D7C013B
:104D90000A2F112707FD10958EA19FA1A8A5B9A5DF
:104DA0008E199F09A00BB10B8EA39FA3A8A7B9A72B
:104DB0002E9A8C819D81AE810196A11D8C839D834D
:104DC000AE832E9829893A894B898E859F85A8893B
:104DD000281739074A070CF026C388E123C32F8917
:104DE000388D498DC988DA88EB882C0D3D1D4E1D04
:104DF0007901042F112707FD1095E816F9060A0717
:104E00001B0794F52D9889899A89AB890196A11D74
:104E1000898B9A8BAB8B2A8D3B8D4C8DA42FC9012E
:104E20000296A11D8A8F9B8FAC8FA42FC90101967A
:104E3000A11D8C012A2F332727FD30958EA19FA11C
:104E4000A8A5B9A5801B910BA20BB30B8EA39FA3A2
:104E5000A8A7B9A72C9A8F819885A9850196A11D2D
:104E60008F839887A9872C982F9AFE018E859F851E
:104E7000A8890196A11D8E879F87A88B2F89388DC1
:104E8000498DA42FC9010296A11D8F8B988FA98FE0
:104E9000A42FC9010196A11D7C010A2F112707FD2E
:104EA00010958EA19FA1A8A5B9A58E199F09A00B49
:104EB000B10B8EA39FA3A8A7B9A72E9A8C819D8121
:104EC000AE810196A11D8C839D83AE832E988E8525
:104ED0009F85A889AA230CF4A6C289E1A3C22A8DC2
:104EE0003B8D4C8DCE84DF84E8882C0D3D1D4E1DFE
:104EF0007901042F112707FD1095E816F9060A0716
:104F00001B0794F12F9A8E859F85A8890196A11D74
:104F10008E879F87A88B2F89388D498DA42FC90133
:104F20000296A11D8F8B988FA98FA42FC90101967E
:104F3000A11D8C012A2F332727FD30958EA19FA11B
:104F4000A8A5B9A5801B910BA20BB30B8EA39FA3A1
:104F5000A8A7B9A72E9A8C819D81AE810196A11D2B
:104F60008C839D83AE832E982D98FE0189899A8922
:104F7000AB890196A11D898B9A8BAB8B2A8D3B8DBA
:104F80004C8DA42FC9010296A11D8A8F9B8FAC8FD7
:104F9000A42FC9010196A11D7C010A2F112707FD2D
:104FA00010958EA19FA1A8A5B9A58E199F09A00B48
:104FB000B10B8EA39FA3A8A7B9A72C9A8F81988520
:104FC000A9850196A11D8F839887A9872C98898927
:104FD0009A89AB89A095909581959F4FAF4F2E856B
:104FE0003F85488982179307A4070CF01CC28AE109
:104FF00019C22A8D3B8D4C8DCE84DF84E8882C1914
:105000003D094E097901042F112707FD1095E81677
:10501000F9060A071B0794F52F98CF88D88CE98CDE
:10502000AE2DC6010197A1098C012A2F332727FD38
:1050300030958EA19FA1A8A5B9A5800F911FA21F91
:10504000B31F8EA39FA3A8A7B9A712E0C11AD108C6
:10505000E108CF8AD88EE98E8E859F85A889019731
:10506000A1098E879F87A88B2E9A8C819D81AE8106
:105070000197A1098C839D83AE832E982D98FE0104
:1050800089899A89AB890196A11D898B9A8BAB8BF3
:105090002A8D3B8D4C8DA42FC9010296A11D8A8FAC
:1050A0009B8FAC8FA42FC9010196A11D7C010A2FF3
:1050B000112707FD10958EA19FA1A8A5B9A58E194E
:1050C0009F09A00BB10B8EA39FA3A8A7B9A72C9AE9
:1050D0008F819885A9850196A11D8F839887A987BF
:1050E0002C9889899A89AB89AA230CF49CC18BE1FD
:1050F00099C129893A894B89CF88D88CE98C2C1998
:105100003D094E097901042F112707FD1095E81676
:10511000F9060A071B0794F12D9889899A89AB89AA
:105120000196A11D898B9A8BAB8B2A8D3B8D4C8D63
:10513000A42FC9010296A11D8A8F9B8FAC8FA42F2B
:10514000C9010196A11D8C012A2F332727FD309517
:105150008EA19FA1A8A5B9A5801B910BA20BB30B93
:105160008EA39FA3A8A7B9A72C9A8F819885A985FC
:105170000196A11D8F839887A9872C982F98FE01EF
:10518000CF88D88CE98CAE2DC6010197A1098C017E
:105190002A2F332727FD30958EA19FA1A8A5B9A559
:1051A000800F911FA21FB31F8EA39FA3A8A7B9A70B
:1051B00012E0C11AD108E108CF8AD88EE98E8E8517
:1051C0009F85A8890197A1098E879F87A88B2E9A12
:1051D0008C819D81AE810197A1098C839D83AE83D3
:1051E0002E982E853F85488989899A89AB89281709
:1051F00039074A070CF017C18CE114C12F89388D8B
:10520000498DC988DA88EB882C0D3D1D4E1D4095CF
:10521000309521953F4F4F4F7901042F112707FDFE
:105220001095E816F9060A071B0794F52D9ACA8C03
:10523000DB8CEC8CAE2DC6010197A1098C012A2FC5
:10524000332727FD30958EA19FA1A8A5B9A5800F72
:10525000911FA21FB31F8EA39FA3A8A7B9A712E0F7
:10526000C11AD108E108CA8EDB8EEC8E89899A8931
:10527000AB890197A109898B9A8BAB8B2C9A8F8173
:105280009885A9850197A1098F839887A9872C986C
:105290002F98FE01CF88D88CE98CAE2DC6010197DE
:1052A000A1098C012A2F332727FD30958EA19FA1BC
:1052B000A8A5B9A5800F911FA21FB31F8EA39FA3FE
:1052C000A8A7B9A712E0C11AD108E108CF8AD88EE1
:1052D000E98E8E859F85A8890197A1098E879F8772
:1052E000A88B2E9A8C819D81AE810197A1098C8318
:1052F0009D83AE832E988E859F85A88918161906E2
:105300001A060CF490C08DE18DC02E853F8548892A
:10531000CA8CDB8CEC8C2C0D3D1D4E1D40953095C0
:1053200021953F4F4F4F7901042F112707FD10950D
:10533000E816F9060A071B0794F12F98CF88D88C36
:10534000E98CAE2DC6010197A1098C012A2F3327C4
:1053500027FD30958EA19FA1A8A5B9A5800F911F0B
:10536000A21FB31F8EA39FA3A8A7B9A712E0C11ABB
:10537000D108E108CF8AD88EE98E8E859F85A889CD
:105380000197A1098E879F87A88B2E9A8C819D817A
:10539000AE810197A1098C839D83AE832E982D9AAF
:1053A000FE01CA8CDB8CEC8CAE2DC6010197A109E5
:1053B0008C012A2F332727FD30958EA19FA1A8A508
:1053C000B9A5800F911FA21FB31F8EA39FA3A8A7EB
:1053D000B9A712E0C11AD108E108CA8EDB8EEC8EA3
:1053E00089899A89AB890197A109898B9A8BAB8BA3
:1053F0002C9A8F819885A9850197A1098F83988719
:10540000A9872C9889899A89AB89A09590958195CF
:105410009F4FAF4F2E853F854889281739074A0788
:1054200014F48EE180838D8582FF2BC08B818130C7
:1054300011F4469A01C046982D8D3E8D4F8DC8A01F
:10544000D9A0EAA08C899D89AE895527820F931F28
:10545000A41F20F453958C199D09AE098C8B9D8B4C
:10546000AE8B552371F0479A2B818A859B85AC853D
:10547000022E0594820F901DA01D8A879B87AC8702
:1054800047988E012AA53BA54CA550E0ADA5BEA529
:105490000E94D23A29893A8937FF03C03195219574
:1054A0003109F8014685578557FF03C0519541954D
:1054B0005109241735070CF49A01442737FD40950C
:1054C000542F0E94EB3A3093890020938800F80112
:1054D00023A134A145A121503109410923A334A3BB
:1054E00045A381E0232B242B09F480E0DF91CF91A9
:1054F0001F910F91FF90EF90DF90CF900895CF9282
:10550000DF92EF92CF93DF93E091FC02F091FD02E6
:10551000EF01858580FF2BC08181813011F42F9AA6
:1055200001C02F982F89388D498DC8A0D9A0EAA035
:105530008E859F85A8895527820F931FA41F20F46D
:1055400053958C199D09AE098E879F87A88B55238B
:1055500071F02E9A29818C819D81AE81022E059455
:10556000820F901DA01D8C839D83AE832E988D8508
:1055700081FF2BC08A81813011F42D9801C02D9AB2
:105580002A8D3B8D4C8DC8A0D9A0EAA089899A8923
:10559000AB895527820F931FA41F20F453958C19B4
:1055A0009D09AE09898B9A8BAB8B552371F02C9A90
:1055B0002A818F819885A985022E0594820F901DDE
:1055C000A01D8F839887A9872C988D8582FF2BC07B
:1055D0008B81813011F4469A01C046982D8D3E8D05
:1055E0004F8DC8A0D9A0EAA08C899D89AE89552786
:1055F000820F931FA41F20F453958C199D09AE09A7
:105600008C8B9D8BAE8B552371F0479A2B818A85AD
:105610009B85AC85022E0594820F901DA01D8A8764
:105620009B87AC8747988FEF9FEF9093890080937B
:1056300088008D85877069F02BA13CA14DA1215078
:10564000310941092BA33CA34DA381E0232B242B3B
:1056500009F480E0DF91CF91EF90DF90CF90089533
:10566000EF92FF920F931F93CF93DF93E091FC0291
:10567000F091FD02EF0190818585913009F06AC0BB
:1056800080FF04C0789902C08E7F8587858581FF61
:1056900004C0799902C08D7F85878585982F9B7F6F
:1056A000958780FF0EC02E9A29818C819D81AE81C5
:1056B000022E0594820F901DA01D8C839D83AE83C6
:1056C0002E988D8581FF0EC02C9A2A818F81988516
:1056D000A985022E0594820F901DA01D8F839887A7
:1056E000A9872C988D8582FF0EC0479A2B818A85C9
:1056F0009B85AC85022E0594820F901DA01D8A8784
:105700009B87AC8747988D85982F977009F5829570
:105710008F7091E1899F802D11248D8781E089838D
:105720008FEF8A831B822F9A8A81813011F42D9802
:1057300001C02D9A8B81813011F4469A01C04698A0
:1057400082E088838FEF9FEF909389008093880099
:1057500081E0C9C080FF04C0789B02C08E7F85872E
:10576000858581FF04C0799B02C08D7F85878585F3
:10577000982F9B7F958780FF0EC02E9A29818C8160
:105780009D81AE81022E0594820F901DA01D8C83F9
:105790009D83AE832E988D8581FF0EC02C9A2A8121
:1057A0008F819885A985022E0594820F901DA01DDA
:1057B0008F839887A9872C988D8582FF0EC0479A82
:1057C0002B818A859B85AC85022E0594820F901DC6
:1057D000A01D8A879B87AC874798FE012D85822F65
:1057E000877009F0B5CF22952F702D8720FF25C037
:1057F0008C819D81AE817C010A2F112707FD1095B8
:10580000E0925E06F0925F060093600610936106D8
:105810008F89988DA98D8C839D83AE83BB27A7FD2F
:10582000B0958E199F09A00BB10B80936A069093D7
:105830006B06A0936C06B0936D0621FF25C087818F
:105840009085A1857C010A2F112707FD1095E09214
:105850006206F09263060093640610936506828DDB
:10586000938DA48D87839087A187BB27A7FDB095D3
:105870008E199F09A00BB10B80936E0690936F0653
:10588000A0937006B093710622FF25C08285938590
:10589000A4858C012A2F332727FD309500936606B7
:1058A000109367062093680630936906858D968D60
:1058B000A78D82879387A487BB27A7FDB095801B00
:1058C000910BA20BB30B8093720690937306A09377
:1058D0007406B093750610828FEF9FEF9093890046
:1058E0008093880080E0DF91CF911F910F91FF900E
:1058F000EF9008951F920F920FB60F921124CF923E
:10590000DF92EF92FF920F931F932F933F934F934A
:105910005F936F937F938F939F93AF93BF93CF9337
:10592000DF93EF93FF930091FC021091FD02E801D9
:10593000809150012DB73EB78091000190910101F7
:105940002817390730F48DB79EB7909301018093E3
:105950000001D801D9968C91982F929596959770C1
:10596000869586958770981721F190FF05C081FF75
:1059700003C080E00E94611FF80181AD86FF07C06F
:1059800082FF05C060E070E0CB010E94751ED80167
:10599000D9968C918C7111F40E94611FF80181AD30
:1059A000982F969596959295990F907E8F71892B49
:1059B00081AFD8011D968C911D9783FF12C1D2969D
:1059C0002D913D914C91D4979096CD90DD90EC9097
:1059D00092979F968D919D91AC915527820F931F21
:1059E000A41F20F453958C199D09AE09F80187A7CF
:1059F00090ABA1AB552309F4F4C08E0129AD822FE1
:105A0000869586958770982F947009F4BFC08AADEB
:105A1000282F2695269526952F7030E0877090E0E8
:105A200082179307ACF10E94FB1DCAAC2BAD3CADB5
:105A3000882389F08C2D8695869586958F706901CF
:105A400002C0CC0CDD1C8A95E2F70E94261EC82AF3
:105A5000DCAECBAE0FC08C2D8695869586958F706B
:105A600002C0220F331F8A95E2F7D801DC963C93DF
:105A70002E93DB97F80192AD892F869586958695B2
:105A8000885F8F70880F880F880F9778982B92AF58
:105A90008E016AAD762F7770472F50E06695669538
:105AA00066956F709A012F5F3F4F862F90E00897A1
:105AB00097FF02C080E090E0D901A81BB90BF80164
:105AC00023AD34AD0A2E02C0220F331F0A94E2F731
:105AD0008FEF860F871B8F70880F880F880F92AD0E
