:100000004EC1000069C1000067C1000065C1000069
:1000100063C1000061C100005FC100005DC100005C
:100020005BC1000059C100000C9463390C949D39E8
:1000300053C1000051C100004FC100004DC100007C
:100040004BC100000C94972C47C1000045C1000033
:1000500043C100000C944A1C3FC100003DC1000098
:100060003BC100000C944E200C94072035C10000C9
:1000700033C1000031C100002FC100002DC10000BC
:100080000C947F1029C1000027C1000025C1000089
:1000900023C1000021C100001FC100001DC10000DC
:1000A0001BC1000019C1000017C10000C2024203B9
:1000B000DA036304EB046605F4057006F3067A07B9
:1000C000F4078108FC0884090D0AC111F4114C12CF
:1000D0008612A11243123A134B136B138F134A1259
:1000E000A9133D143D14B313B013AD13D9215E22EF
:1000F000E0226F23F6237B24FB2485250526872613
:100100000C278C27162896281B29A2294552524FC6
:10011000520A004F4B2025640A0056302E302E31F3
:100120002D312D673839316361373620287375706A
:10013000706F7274206769742076657273696F6E70
:10014000696E67290053503A25780025642025649C
:1001500020256420006C61736572204F4646004C78
:1001600041534552204F4E202564005A3A256E20B7
:10017000202020202020202020202000593A256EF9
:1001800020202020202020202020202000583A2538
:100190006E202020202020202020202020002563E9
:1001A0002051756575653A256420256E20005541FE
:1001B00052545F52585F46554C4C00303132333404
:1001C0003536373839414243444546000100008204
:1001D0000212000200003F0243000300003B020441
:1001E0000103090429021002030904FF0128030383
:1001F0000904F50108080331003300370000002826
:1002000003460072006500650043004E0043002075
:10021000004C00610073006500720063007500749B
:10022000007400650072000000100365002D00508E
:100230000075006E006B00740000000403090409DF
:10024000024300020100C032090400000102020161
:100250000005240010010524010101042402060503
:100260002406000107058203100040090401000272
:100270000A00000007050302400000070584024051
:1002800000001201000202000010C0167A040001F2
:10029000010203010001C1120180360181361124DF
:1002A0001FBECFEFDAE0DEBFCDBF11E0A0E0B1E0CE
:1002B000E2E5F9E702C005900D92A431B107D9F744
:1002C00018E0A4E1B1E001C01D92A736B107E1F743
:1002D0000E9400150C94E83A93CEEF92FF920F9390
:1002E0001F930023E9F116161706180619065CF489
:1002F00057FD22C0E1E026173707480759070CF0E1
:100300007FC0E0E07DC0121613061406150684F4C3
:100310007B018C0188279927DC018E199F09A00B8E
:10032000B10B82179307A407B507B4F4E2E068C0E5
:1003300097FD53C057FF5AC07B018C01882799272E
:10034000DC018E199F09A00BB10B281739074A074A
:100350005B0724F4E6E054C0E3E052C0E7E050C09D
:1003600016161706180619064CF457FD20C0261756
:100370003707480759075CF5E8E042C01216130634
:100380001406150684F47B018C0188279927DC016B
:100390008E199F09A00BB10B82179307A407B5070D
:1003A000C4F4EAE02DC097FD23C057FF1FC07B01B6
:1003B0008C0188279927DC018E199F09A00BB10BAE
:1003C000281739074A075B0734F4EEE019C0E9E063
:1003D00017C0EBE015C0EFE013C062177307840786
:1003E000950714F4E4E00CC0E5E00AC0EFEF08C0A4
:1003F000621773078407950714F4ECE001C0EDE081
:100400008E2F1F910F91FF90EF9008954F925F9262
:100410006F927F928F929F92AF92BF92CF92DF9214
:10042000EF92FF920F931F93CF93C0912C018C2FCB
:100430008F7090E0FC013197809128019091290103
:10044000A0912A01B0912B0100913101109132014C
:10045000209133013091340140912D0150912E01B2
:1004600060912F0170913001EF30F10520F4EA5ACC
:10047000FF4F0C94453CC0902001D0902101E090AA
:100480002201F090230146015701801A910AA20A25
:10049000B30A88169906AA06BB06A4F14090240167
:1004A0005090250160902601709027015301420170
:1004B000E1E08E1A9108A108B108880E991EAA1EC3
:1004C000BB1E8092280190922901A0922A01B0922D
:1004D0002B0182E0481A51086108710840922401FA
:1004E0005092250160922601709227010150110956
:1004F0002109310900933101109332012093330116
:10050000309334014F5F5F4F6F4F7F4F40932D010A
:1005100050932E0160932F0170933001D701C601D3
:100520000296A11DB11D8093200190932101A093FB
:100530002201B0932301C094D094E094F094809170
:10054000280190912901A0912A01B0912B018C0DD5
:100550009D1DAE1DBF1D8093280190932901A0937E
:100560002A01B0932B018091310190913201A09129
:100570003301B0913401481759076A077B070CF41F
:10058000E5C730C3C0902401D0902501E09026013A
:10059000F09027014A015B018C189D08AE08BF0846
:1005A00088169906AA06BB069CF54F5F5F4F6F4FF2
:1005B0007F4F40932D0150932E0160932F01709334
:1005C00030014091200150912101609122017091F0
:1005D00023014A015B01E2E08E0E911CA11CB11CBB
:1005E0008092200190922101A0922201B0922301D9
:1005F0004095509560957095480F591F6A1F7B1F55
:10060000409328015093290160932A0170932B0194
:10061000B701A60141505109610971098091280172
:1006200090912901A0912A01B0912B01840F951F6F
:10063000A61FB71F8093280190932901A0932A0138
:10064000B0932B0182E0C81AD108E108F108C092EA
:100650002401D0922501E0922601F0922701015059
:1006600011092109310900933101109332012093BE
:1006700033013093340110161106120613060CF4E0
:1006800065C7B0C2C0902401D0902501E09026013A
:10069000F090270146015701840E951EA61EB71E35
:1006A000B094A09490948094811C911CA11CB11CC6
:1006B00088169906AA06BB06A4F140902001509026
:1006C0002101609022017090230153014201E1E079
:1006D0008E1A9108A108B108880E991EAA1EBB1E89
:1006E0008092280190922901A0922A01B0922B01B8
:1006F00082E0481A51086108710840922001509226
:100700002101609222017092230141505109610937
:10071000710940932D0150932E0160932F01709326
:100720003001B701A6014150510961097109809159
:10073000280190912901A0912A01B0912B01840FE9
:10074000951FA61FB71F8093280190932901A0939E
:100750002A01B0932B01E2E0CE1AD108E108F1089A
:10076000C0922401D0922501E0922601F092270147
:10077000015011092109310900933101109332010F
:10078000209333013093340180912D0190912E01FB
:10079000A0912F01B0913001B095A09590958195D1
:1007A0009F4FAF4FBF4F80179107A207B3070CF4BD
:1007B000CDC618C2C0902001D0902101E090220146
:1007C000F090230146015701800E911EA21EB31E18
:1007D000B094A09490948094811C911CA11CB11C95
:1007E00088169906AA06BB06A4F5409024015090ED
:1007F0002501609026017090270153014201E1E03C
:100800008E1A9108A108B108880E991EAA1EBB1E57
:100810008092280190922901A0922A01B0922B0186
:1008200082E0481A510861087108409224015092F0
:1008300025016092260170922701015011092109BA
:100840003109009331011093320120933301309329
:100850003401970186010150110921093109809164
:10086000280190912901A0912A01B0912B01800FBC
:10087000911FA21FB31F8093280190932901A09379
:100880002A01B0932B01E2E0CE1AD108E108F10869
:10089000C0922001D0922101E0922201F092230126
:1008A000415051096109710940932D0150932E0166
:1008B00060932F0170933001141615061606170663
:1008C0000CF444C68FC1C0902001D0902101E0906B
:1008D0002201F0902301480159018C189D08AE08AF
:1008E000BF0888169906AA06BB069CF10F5F1F4F2A
:1008F0002F4F3F4F0093310110933201209333016A
:10090000309334010091240110912501209126019A
:100910003091270148015901E2E08E0E911CA11C83
:10092000B11C8092240190922501A0922601B092E0
:1009300027010095109520953095080F191F2A1F43
:100940003B1F009328011093290120932A01309323
:100950002B0197018601015011092109310980916C
:10096000280190912901A0912A01B0912B01800FBB
:10097000911FA21FB31F8093280190932901A09378
:100980002A01B0932B0182E0C81AD108E108F108CE
:10099000C0922001D0922101E0922201F092230125
:1009A000415051096109710940932D0150932E0165
:1009B00060932F0170933001809131019091320149
:1009C000A0913301B091340184179507A607B707AA
:1009D0000CF4BCC507C1C0902401D0902501E09063
:1009E0002601F090270146015701841A950AA60AAC
:1009F000B70A88169906AA06BB06A4F540902001FE
:100A00005090210160902201709023015301420116
:100A1000E1E08E1A9108A108B108880E991EAA1E5D
:100A2000BB1E8092280190922901A0922A01B092C7
:100A30002B0182E0481A5108610871084092200198
:100A4000509221016092220170922301415051097C
:100A50006109710940932D0150932E0160932F017C
:100A6000709330010F5F1F4F2F4F3F4F00933101A5
:100A7000109332012093330130933401D701C60122
:100A80000296A11DB11D8093240190932501A0938E
:100A90002601B0932701C094D094E094F094809103
:100AA000280190912901A0912A01B0912B018C0D70
:100AB0009D1DAE1DBF1D8093280190932901A09319
:100AC0002A01B0932B0137FD41C58CC0C090240191
:100AD000D0902501E0902601F090270146015701B2
:100AE000840E951EA61EB71E88169906AA06BB067A
:100AF0009CF14F5F5F4F6F4F7F4F40932D0150939D
:100B00002E0160932F01709330014091200150918C
:100B1000210160912201709123014A015B01E2E011
:100B20008E0E911CA11CB11C80922001909221017B
:100B3000A0922201B0922301409550956095709546
:100B4000480F591F6A1F7B1F4093280150932901AA
:100B500060932A0170932B010F5F1F4F2F4F3F4F60
:100B6000009331011093320120933301309334010B
:100B7000D701C6010296A11DB11D80932401909357
:100B80002501A0932601B0932701C094D094E0944E
:100B9000F0948091280190912901A0912A01B091AF
:100BA0002B018C0D9D1DAE1DBF1D809328019093C0
:100BB0002901A0932A01B0932B0180912D019091DE
:100BC0002E01A0912F01B0913001B095A095909584
:100BD00081959F4FAF4FBF4F081719072A073B0753
:100BE0000CF4B4C4CF5FB0C4C0902001D0902101F8
:100BF000E0902201F0902301480159018C0C9D1CCA
:100C0000AE1CBF1C88169906AA06BB069CF50F5F92
:100C10001F4F2F4F3F4F009331011093320120930C
:100C2000330130933401009124011091250120916A
:100C300026013091270148015901E2E08E0E911CF6
:100C4000A11CB11C8092240190922501A092260142
:100C5000B09227010095109520953095080F191F27
:100C60002A1F3B1F009328011093290120932A017A
:100C700030932B014F5F5F4F6F4F7F4F40932D019C
:100C800050932E0160932F0170933001D701C6015C
:100C90000296A11DB11D8093200190932101A09384
:100CA0002201B0932301C094D094E094F0948091F9
:100CB000280190912901A0912A01B0912B018C0D5E
:100CC0009D1DAE1DBF1D8093280190932901A09307
:100CD0002A01B0932B0177FD39C410922C0136C440
:100CE000C0902001D0902101E0902201F0902301DA
:100CF000480159018C189D08AE08BF08881699064E
:100D0000AA06BB069CF50F5F1F4F2F4F3F4F009366
:100D1000310110933201209333013093340100915B
:100D200024011091250120912601309127014801CD
:100D30005901E2E08E0E911CA11CB11C809224018D
:100D400090922501A0922601B0922701009510955E
:100D500020953095080F191F2A1F3B1F009328016B
:100D60001093290120932A0130932B0197018601CA
:100D7000015011092109310980912801909129011F
:100D8000A0912A01B0912B01800F911FA21FB31FC8
:100D90008093280190932901A0932A01B0932B01FD
:100DA00082E0C81AD108E108F108C0922001D0926F
:100DB0002101E0922201F092230141505109610981
:100DC000710940932D0150932E0160932F01709370
:100DD000300114161506160617060CF4B7C38FE07B
:100DE00080932C01B3C3C0902401D0902501E090E2
:100DF0002601F090270146015701841A950AA60A98
:100E0000B70A88169906AA06BB06A4F140902001ED
:100E10005090210160902201709023015301420102
:100E2000E1E08E1A9108A108B108880E991EAA1E49
:100E3000BB1E8092280190922901A0922A01B092B3
:100E40002B0182E0481A5108610871084092200184
:100E50005092210160922201709223014150510968
:100E60006109710940932D0150932E0160932F0168
:100E7000709330010F5F1F4F2F4F3F4F0093310191
:100E8000109332012093330130933401D701C6010E
:100E90000296A11DB11D8093240190932501A0937A
:100EA0002601B0932701C094D094E094F0948091EF
:100EB000280190912901A0912A01B0912B018C0D5C
:100EC0009D1DAE1DBF1D8093280190932901A09305
:100ED0002A01B0932B0180912D0190912E01A091B8
:100EE0002F01B091300180179107A207B3070CF0D2
:100EF0002DC329C3C0902401D0902501E090260184
:100F0000F090270146015701840E951EA61EB71EBC
:100F100088169906AA06BB069CF54F5F5F4F6F4F78
:100F20007F4F40932D0150932E0160932F017093BA
:100F30003001409120015091210160912201709176
:100F400023014A015B01E2E08E0E911CA11CB11C41
:100F50008092200190922101A0922201B09223015F
:100F60004095509560957095480F591F6A1F7B1FDB
:100F7000409328015093290160932A0170932B011B
:100F80000F5F1F4F2F4F3F4F0093310110933201DE
:100F90002093330130933401D701C6010296A11D7D
:100FA000B11D8093240190932501A0932601B09355
:100FB0002701C094D094E094F094809128019091FE
:100FC0002901A0912A01B0912B018C0D9D1DAE1D10
:100FD000BF1D8093280190932901A0932A01B0930B
:100FE0002B0137FDB3C2AFC2C0902001D0902101C8
:100FF000E0902201F090230146015701800E911EDE
:10100000A21EB31E88169906AA06BB069CF10F5FA6
:101010001F4F2F4F3F4F0093310110933201209308
:101020003301309334010091240110912501209166
:1010300026013091270148015901E2E08E0E911CF2
:10104000A11CB11C8092240190922501A09226013E
:10105000B09227010095109520953095080F191F23
:101060002A1F3B1F009328011093290120932A0176
:1010700030932B014F5F5F4F6F4F7F4F40932D0198
:1010800050932E0160932F0170933001D701C60158
:101090000296A11DB11D8093200190932101A09380
:1010A0002201B0932301C094D094E094F0948091F5
:1010B000280190912901A0912A01B0912B018C0D5A
:1010C0009D1DAE1DBF1D8093280190932901A09303
:1010D0002A01B0932B0170956095509541955F4F13
:1010E0006F4F7F4F8091310190913201A091330178
:1010F000B0913401481759076A077B070CF026C2E4
:1011000022C2C0902001D0902101E0902201F090F5
:10111000230146015701801A910AA20AB30A8816D0
:101120009906AA06BB06A4F540902401509025011B
:10113000609026017090270153014201E1E08E1A70
:101140009108A108B108880E991EAA1EBB1E8092A4
:10115000280190922901A0922A01B0922B0182E0ED
:10116000481A5108610871084092240150922501E3
:10117000609226017092270101501109210931095D
:1011800000933101109332012093330130933401E5
:101190004F5F5F4F6F4F7F4F40932D0150932E0154
:1011A00060932F0170933001D701C6010296A11DF3
:1011B000B11D8093200190932101A0932201B0934F
:1011C0002301C094D094E094F094809128019091F0
:1011D0002901A0912A01B0912B018C0D9D1DAE1DFE
:1011E000BF1D8093280190932901A0932A01B093F9
:1011F0002B0177FDABC1A7C1C0902401D090250180
:10120000E0902601F09027014A015B018C189D08AF
:10121000AE08BF0888169906AA06BB069CF14F5F68
:101220005F4F6F4F7F4F40932D0150932E0160937E
:101230002F01709330014091200150912101609164
:101240002201709123014A015B01E2E08E0E911CA4
:10125000A11CB11C8092200190922101A092220138
:10126000B09223014095509560957095480F591F95
:101270006A1F7B1F409328015093290160932A0124
:1012800070932B01B701A601415051096109710901
:101290008091280190912901A0912A01B0912B0100
:1012A000840F951FA61FB71F8093280190932901D3
:1012B000A0932A01B0932B0182E0C81AD108E1085B
:1012C000F108C0922401D0922501E0922601F0920B
:1012D00027010150110921093109009331011093AF
:1012E0003201209333013093340180912D0190918C
:1012F0002E01A0912F01B0913001081719072A077C
:101300003B070CF023C11FC1C0902401D0902501E0
:10131000E0902601F090270146015701840E951EAA
:10132000A61EB71EB094A09490948094811C911C2A
:10133000A11CB11C88169906AA06BB06A4F540900C
:1013400020015090210160902201709023015301EF
:101350004201E1E08E1A9108A108B108880E991E99
:10136000AA1EBB1E8092280190922901A0922A01F8
:10137000B0922B0182E0481A51086108710840922E
:10138000200150922101609222017092230141506C
:1013900051096109710940932D0150932E01609309
:1013A0002F0170933001B701A60141505109610925
:1013B00071098091280190912901A0912A01B09191
:1013C0002B01840F951FA61FB71F809328019093B0
:1013D0002901A0932A01B0932B01E2E0CE1AD10893
:1013E000E108F108C0922401D0922501E092260183
:1013F000F0922701015011092109310900933101AF
:1014000010933201209333013093340110161106EA
:10141000120613060CF49AC096C0C0902001D0901A
:101420002101E0902201F0902301480159018C0C28
:101430009D1CAE1CBF1CB094A09490948094811C01
:10144000911CA11CB11C88169906AA06BB06A4F122
:101450004090240150902501609026017090270152
:1014600053014201E1E08E1A9108A108B108880EEB
:10147000991EAA1EBB1E8092280190922901A0925B
:101480002A01B0922B0182E0481A510861087108C4
:10149000409224015092250160922601709227010A
:1014A00001501109210931090093310110933201D2
:1014B00020933301309334019701860101501109C3
:1014C000210931098091280190912901A0912A01D7
:1014D000B0912B01800F911FA21FB31F8093280191
:1014E00090932901A0932A01B0932B01E2E0CE1A38
:1014F000D108E108F108C0922001D0922101E092C8
:101500002201F09223014150510961097109409370
:101510002D0150932E0160932F017093300170952F
:101520006095509541955F4F6F4F7F4F809131018E
:1015300090913201A0913301B09134018417950745
:10154000A607B7071CF4C150C0932C01409131018C
:1015500050913201609133017091340180912D01DD
:1015600090912E01A0912F01B0913001FA0157FF07
:1015700004C0EE27FF27E41BF50B9C0197FF04C076
:1015800022273327281B390B2E173F07C4F500915C
:1015900018011091190120911A0130911B010817AF
:1015A00019072A073B0709F065C080911C0190913B
:1015B0001D01A0911E01B0911F0184179507A60778
:1015C000B70709F472C077FD0BC0F1E0E0E0141634
:1015D0001506160617060CF0F0E02F2F3E2F02C05E
:1015E0002FEF3FEFB7FD41C051E040E0181619065C
:1015F0001A061B060CF050E0852F942F38C000917E
:101600001C0110911D0120911E0130911F01041732
:1016100015072607370771F54091180150911901F8
:1016200060911A0170911B01481759076A077B07DF
:10163000E1F1B7FD0BC0F1E0E0E0181619061A065B
:101640001B060CF0F0E02F2F3E2F02C02FEF3FEFD4
:1016500077FD0BC0F1E0E0E014161506160617063C
:101660000CF0F0E08F2F9E2F02C08FEF9FEF281716
:101670003907E9F04091140150911501609116016C
:10168000709117014150510961097109409314018A
:1016900050931501609316017093170181E0452B5B
:1016A000462B472B29F080E003C083E001C082E095
:1016B000CF911F910F91FF90EF90DF90CF90BF904F
:1016C000AF909F908F907F906F905F904F90089514
:1016D0004F925F926F927F928F929F92AF92BF9242
:1016E000CF92DF92EF92FF920F93CF93DF9300D0D0
:1016F00000D0CDB7DEB769837A838B839C83A02F1C
:10170000C7010C2D6C01EA2EFF24E7FCF094460182
:101710005701A42FC901BB27A7FDB0952C013D019E
:10172000A7019601BC01CD010E946D0180932C019F
:101730004092310150923201609233017092340133
:10174000C0922D01D0922E01E0922F01F092300133
:10175000440C551C661C771C4092240150922501B4
:101760006092260170922701880C991CAA1CBB1C50
:101770008092200190922101A0922201B092230137
:10178000A6E0B0E029813A814B815C810E94EA3A6F
:1017900060931401709315018093160190931701C3
:1017A0000F900F900F900F90DF91CF910F91FF90BE
:1017B000EF90DF90CF90BF90AF909F908F907F90F1
:1017C0006F905F904F9008952F923F924F925F924B
:1017D0006F928F929F92AF92BF92CF92DF92EF92D1
:1017E000FF920F931F93CF93DF93CDB7DEB7699727
:1017F0000FB6F894DEBF0FBECDBF6C877D878E8796
:101800009F8729833A834B832701602EAC8ABD8A48
:10181000CE8A2DA53EA54FA52F8B388F498F18A9AD
:10182000AC2DC501BB27A7FDB095888B998BAA8BE2
:10183000BB8B80931C0190931D01A0931E01B0935C
:101840001F01A42FC901BB27A7FDB0954C015D0165
:101850008093180190931901A0931A01B0931B0172
:10186000C12E29813A814B816C857D858E859F852E
:101870002FDF89819A81AB81BB27A7FDB0958C832F
:101880009D83AE83BF83A62DC201BB27A7FDB09564
:1018900088879987AA87BB87A5019401C501B401F0
:1018A0000E94F43A4B015C01288539854A855B85A5
:1018B000CA01B9010E94F43A6B017C012C813D817F
:1018C0004E815F81CA01B9010E94F43AC60ED71E4B
:1018D000E81EF91E8C189D08AE08BF0828893989B2
:1018E0004A895B89CA01B9010E94F43A860E971EA3
:1018F000A81EB91E8092280190922901A0922A0167
:10190000B0922B010E9406028823E1F38091D00758
:101910009091D107A091D2072C893D894E89820FE1
:10192000931FA41F8093BE079093BF07A093C00787
:101930008091D3079091D407A091D5072F89388D36
:10194000498D820F931FA41F8093C1079093C207F4
:10195000A093C30720905C013BE1239E100111245A
:10196000C101875F9B4F1C0180911401909115016B
:10197000A0911601A095909581959F4FAF4FF101D1
:1019800081839283A383C12E062D720129813A811E
:101990004B816C857D858E859F859ADE809228019E
:1019A00090922901A0922A01B0922B01D1011196A7
:1019B000CD90DD90EC90BFEFCB1ADB0AEB0A809163
:1019C000140190911501A0911601C80ED91EEA1EAE
:1019D000F101C182D282E38229813A814B81248341
:1019E0003583468347825086618682869386A486A5
:1019F000B5862C853D854E8526873787408B1123FC
:101A000019F0B0E1FB2E02C0A8E1FA2E012F2885C3
:101A100039854A855B856C817D818E819F810E949D
:101A20006D018F29F101808380917B0190917C0170
:101A3000A0917D01B0917E010097A105B10521F033
:101A4000382F292F8A2F1DC020916D0130916E01F2
:101A500040916F018E2DB60190E050E00E947E3BD8
:101A6000EBE9AE2EF6E1BF2ECC24C394D12CE12CB1
:101A7000F12C00E010E00E94663B932F842F322F60
:101A8000292FD10153963C93539754962C935497F6
:101A900055968C938091700190917101A091720183
:101AA000F101868B978BA08F9091780180917901BD
:101AB000918F828F69960FB6F894DEBF0FBECDBFAF
:101AC000DF91CF911F910F91FF90EF90DF90CF901A
:101AD000BF90AF909F908F906F905F904F903F908E
:101AE0002F900C94AF20AC01222788279927469F7E
:101AF000312D479F300D811D921F569F300D811D46
:101B0000921F579F800D911D112408952F923F928F
:101B10004F925F926F927F928F929F92AF92BF92FD
:101B2000CF92DF92EF92FF920F931F93CF93DF93A9
:101B3000CDB7DEB766970FB6F894DEBF0FBECDBF48
:101B40002C833D834E835F83688779878A879B8751
:101B5000712C812C912C1E8A1B8A1C8AF0E0E0E4F7
:101B6000272D382D492D5E896B897C898F2F9E2FDB
:101B7000AC80BD80CE80DF80E884F9840A851B8537
:101B80000E947B3CA9F0A0F0272D382D492D5E89BD
:101B90006B897C898F2F9E2F02E00E944D3C722E14
:101BA000832E942E5E8B6B8B7C8BF82FE92FD8CFF6
:101BB000612C512C212C312CB0E01A821B82412C3B
:101BC000272D382D492D5E896B897C898F2F9E2F7B
:101BD000A0E00E94843C09F470C0272D382D492DC7
:101BE0005E896B897C898F2F9E2FA62CB52C610175
:101BF000EB2EFA800B81142D0E94693C2D8BA32FB4
:101C00004D875E876F87788B898B9A8B2C813D817E
:101C10004E815F81688579858A859B85AD88BA2EDE
:101C2000CD84DE84EF84F88809891A890E947B3C80
:101C3000F8F00E94723C2C833D834E835F8368875B
:101C400079878A879B87262D352DA1016B2F7A8175
:101C50008B81942D01E00E944D3CA72CB82CC92CFF
:101C6000DE88EB88FC880F2F1E2F0E94693C0AC07B
:101C7000262D352DA1016B2F7A818B81942D01E0CA
:101C80000E944D3C622E532E1A01B62F7A838B830D
:101C9000492E272D382D492D5E896B897C898F2F00
:101CA0009E2F02E00E944D3C722E832E942E5E8B5E
:101CB0006B8B7C8BF82FE92F83CF662D752DC1019F
:101CC00066960FB6F894DEBF0FBECDBFDF91CF9101
:101CD0001F910F91FF90EF90DF90CF90BF90AF904A
:101CE0009F908F907F906F905F904F903F902F903C
:101CF00008954F925F926F927F928F929F92AF92D0
:101D0000BF92CF92DF92EF92FF920F931F93CF93E8
:101D1000DF934B015C0169017A01A50194010E94E6
:101D2000713B29013A01D62FC72F4C01C701B601DB
:101D3000A70196010E94713B59016A017B018C0148
:101D40009201A3016D2F7C2FC4010E94693CDF9199
:101D5000CF911F910F91FF90EF90DF90CF90BF90A8
:101D6000AF909F908F907F906F905F904F90CECE6E
:101D7000209136019091350181E0291380E008958A
:101D8000F7DF91E0811190E0892F089520913601CD
:101D90004091350130E02F5F3F4F2F73332750E0E4
:101DA00081E02417350709F080E00895EFDF8823EC
:101DB00019F082E4C3D5FACF809136018F5F8F731B
:101DC000809336010895809135018F5F8F738093E2
:101DD00035010895CF93DF931F92CDB7DEB7C8DFEB
:101DE000882319F082E4AAD5FACFE0913501F0E01A
:101DF000E158FE4F80818983E6DF89810F90DF9172
:101E0000CF910895E0913601F0E0E158FE4F8083D4
:101E1000CDCF82B7806182BFE1ECF0E0108282E03A
:101E20008093C00098E09093C2008093C30080E448
:101E30008093C40083E08093BF008FEB8093D10038
:101E4000109272001092BF001092BE0081E0808359
:101E500008951092900088E0809391001092950070
:101E600010929400E1E7F0E0808182608083089521
:101E7000611571058105910511F488E05DC061155A
:101E800020E172078105910558F4E4E0660F771FA1
:101E9000EA95E1F7709399006093980089E04CC04F
:101EA000611520E872078105910540F4660F771FE0
:101EB00070939900609398008AE03EC061157105A7
:101EC00024E08207910578F4DC01CB0142E0B6956D
:101ED000A795979587954A95D1F790939900809308
:101EE00098008BE029C06115710520E182079105FA
:101EF00078F4DC01CB0134E0B695A79597958795EA
:101F00003A95D1F790939900809398008CE014C093
:101F10006115710520E482079105C8F4DC01CB014D
:101F200026E0B695A795979587952A95D1F7909332
:101F30009900809398008DE0809391001092370172
:101F4000109238011092390110923A01089560E020
:101F500070EA8FE090E0CDCFCF92DF92EF92FF92C8
:101F60000F931F932FB7F894C0906101D090620136
:101F7000E0906301F090640110926101109262019F
:101F800010926301109264012FBF2091650130917E
:101F90006601C20ED31EE11CF11CC60ED71EE81E40
:101FA000F91E40E050E0BA0118EEC11613E0D10668
:101FB000E104F10458F008EEC01A03E0D00AE10889
:101FC000F1084F5F5F4F6F4F7F4FEECFD0926601AA
:101FD000C092650180916701909168018A019B011F
:101FE000080F191F211D311DD901C8014091690138
:101FF00050916A0160916B0170916C018A019B01A3
:102000000F5F1F4F2F4F3F4F8036EAEE9E07A1050F
:10201000B10538F080569A4EA109B109B901A8015D
:10202000EDCF4093690150936A0160936B01709307
:102030006C0190936801809367011F910F91FF904D
:10204000EF90DF90CF9008950F931F93182F9091EA
:102050007A01882379F191110AC00E940D1C6093C6
:10206000730170937401809375019093760181E000
:1020700080937A015E9A1F3F21F48091C4008F7E85
:1020800016C0812F90E0382F22276EE777E0822B51
:10209000932B29DD803827E0920710F08FE797E037
:1020A0009093BF008093CF008091C40080618093A3
:1020B000C40022C05E988091C4008F7E8093C400CB
:1020C0009923D1F010927A010E940D1C00917301A6
:1020D000109174012091750130917601601B710B94
:1020E000820B930B39DF80919100887F8093910060
:1020F00010929500109294001F910F9108951F92D5
:102100000F920FB60F9211242F933F934F935F932B
:102110006F937F938F939F93AF93BF93EF93FF93AF
:102120002DB73EB780910001909101012817390722
:1021300030F48DB79EB79093010180930001809198
:102140007A01882379F0609137017091380180918C
:10215000390190913A01611571058105910511F0E0
:1021600087DE07C080919100887F8093910080E096
:102170006BDFFF91EF91BF91AF919F918F917F9115
:102180006F915F914F913F912F910F900FBE0F90E4
:102190001F9018955E98569A3CDE5BDEE8E7F1E00A
:1021A00084E68083218181E090E0A0E080936D014E
:1021B00090936E01A0936F0188EE93E0A0E080936E
:1021C000700190937101A093720110927A01207EA8
:1021D0002183109273011092740110927501109274
:1021E000760110927B0110927C0110927D01109279
:1021F0007E0186E59AEE909368018093670180E006
:1022000023CF883048F48770880F880F9091790128
:10221000937E982B909379010895883048F48295A5
:10222000880F807E909179019F71982B909379010E
:10223000089560936D0170936E0180936F0108950E
:102240006093700170937101809372010895893ECB
:1022500023E0920748F4809378019370809179018C
:102260008C7F892B8093790108958093770108955D
:102270009FEB980F9A31C0F09FE9980F9A3110F4B4
:102280008754089590ED980F9A3010F48C5F08955C
:102290008B3261F08D3251F08F3211F08F3511F4A5
:1022A0008FE308958FEF0895892F08958EE30895A1
:1022B000CF92DF92EF92FF92CF93DF93282F81E0AE
:1022C000203209F44CC0293009F449C080E02D3097
:1022D00009F4D3C22A3009F042C080913C0188231E
:1022E00099F00E949720882379F0C0E080913C010A
:1022F000C81740F4EC2FF0E0ED53FE4F808182DDF3
:10230000CF5FF4CF10923C01809140018A30A1F060
:1023100089D780913C01882379F0C0E080913C010D
:10232000C81740F4EC2FF0E0ED53FE4F80816ADDDA
:10233000CF5FF4CF10923C01109202021092030280
:1023400010920402109205021092BF011092C00177
:102350001092C1011092C201109240018EC230ED64
:10236000320F91E03A3008F090E04091400150E0A7
:102370004131510508F08BC0FA01EB59FF4F0C9425
:10238000453C109202021092030210920402109235
:1023900005021092BF011092C0011092C10110926B
:1023A000C20198E6E6E1F2E0DF01392F1D923A958D
:1023B000E9F7EEE7F2E0DF011D929A95E9F79FE376
:1023C000E3ECF1E0DF011D929A95E9F790E1E6E098
:1023D000F2E0DF011D929A95E9F710923B0110920D
:1023E0003C0191E0909340019FEB920F9A3118F5D8
:1023F0009093450141E050E060E070E004C0440F7C
:10240000551F661F771F9A95D2F78091020290910F
:102410000302A0910402B0910502842B952BA62BF8
:10242000B72B8093020290930302A0930402B0930F
:10243000050282E08BC1811120C22A3211F48DE0A5
:1024400085C12B3311F48CE081C1283211F48BE06B
:102450007DC1243209F479C1273211F48FE076C1AD
:10246000223211F480E172C180913B0181110FC0D1
:102470008EE08093400181E080933B01209306022F
:1024800010920702FBC19111B7C0811107C08AE009
:102490008093400180E0F2C1882321F081E08093A5
:1024A0004001ECC1911118C02B32B1F02D32A1F0D6
:1024B00080913B018111EBCF8EE0809340018091B0
:1024C00045018F5B8093060282E080933B0120935D
:1024D000070210920802D1C183E08093400110925C
:1024E0004101109242011092430110924401109256
:1024F0003E0110923D012D3221F481E080933F0195
:10250000BDC110923F012B3219F4B7C18111C6CF62
:10251000992309F4BCCF822F90E0C097AA2797FD9A
:10252000A095BA2F8093410190934201A09343015B
:10253000B093440180913E018F5F80933E0184E01F
:1025400058C0992309F435C020913E012A3008F083
:102550009ECF8091410190914201A0914301B091A1
:102560004401880F991FAA1FBB1FBF93AF939F936E
:102570008F93880F991FAA1FBB1F880F991FAA1F2F
:10258000BB1F0F90800D0F90901D0F90A01D0F90FE
:10259000B01D830F911DA11DB11D8093410190932A
:1025A0004201A0934301B09344012F5F20933E0169
:1025B000F1C02E3211F485E01CC0882311F081E0B7
:1025C00018C02A3211F48DE014C02B3311F48CE0C2
:1025D00010C0283211F48BE00CC0243211F486E0D4
:1025E00008C0273211F48FE004C0223209F04FCF27
:1025F00080E180934001CEC020913D01233008F05E
:102600003CC140913E01822F90E0840F911D0A97BA
:102610000CF033C18091410190914201A09143019E
:10262000B0914401880F991FAA1FBB1FBF93AF939E
:102630009F938F93880F991FAA1FBB1F880F991F05
:10264000AA1FBB1F0F90800D0F90901D0F90A01D13
:102650000F90B01D830F911DA11DB11D80934101ED
:1026600090934201A0934301B09344012F5F2093C4
:102670003D0190C0811112CF822FFADD803408F025
:1026800006CFE0913C01F0E0ED53FE4F880F880F3C
:10269000808387E05BC0822FEBDD803408F0F7CECB
:1026A000E0913C0191E09E0F90933C01F0E0ED53EE
:1026B000FE4F282F22952F703081232B20839F33AC
:1026C00008F0E5CEE92FF0E0ED53FE4F8295807FD4
:1026D000808388E03BC02D3301F1822FC9DD803437
:1026E00008F0D5CEE0913C0191E09E0F90933C0123
:1026F000F0E0ED53FE4F282F269526953081232BB1
:1027000020839F3308F0C3CEE92FF0E0ED53FE4F56
:102710008295880F880F807C808389E017C02D33D5
:10272000A1F0822FA5DD803408F0B1CEE0913C010C
:1027300021E02E0F20933C01F0E0ED53FE4F9081FD
:10274000982B90832F3308F0A2CE86E0809340012F
:1027500094C0293209F091C0A1CE223231F49ECE2C
:10276000273219F49BCE811199CE80913B0131E043
:10277000380FE82FF0E0EA5FFD4F2083E32FF0E011
:10278000EA5FFD4F108230933B0181E0303108F465
:1027900075C080CE609141017091420180914301EA
:1027A00090914401C0913D01C33080F46A39B9E988
:1027B0007B078B07B9E19B070CF069CEAAE0B0E07C
:1027C0009B01AC010E94EA3ACF5FEECF2AE0C22E15
:1027D000D12CE12CF12CC33061F06B5F7F4F8F4F18
:1027E0009F4FA70196010E94253BCA01B901C15024
:1027F000F2CF20913F01222339F09095809570957A
:1028000061957F4F8F4F9F4FF090450144E0F49EBC
:1028100090011124F901EA5EFD4F60837183828388
:102820009383E901C258DD4F28EE33E040E050E0E9
:102830000E94253B288339834A835B8341E050E033
:1028400060E070E004C0440F551F661F771FFA94C4
:10285000D2F78091BF019091C001A091C101B091C8
:10286000C201842B952BA62BB72B8093BF0190938D
:10287000C001A093C101B093C20181E0DF91CF916B
:10288000FF90EF90DF90CF9008951092400186E482
:102890000FDD83E30DDD80E30BDD80E309DD8AE0FE
:1028A00007DD87E405DD82E303DD88E301DD8AE0FF
:1028B000FFCCE1E6F0E080E880831082559A209A10
:1028C0005D9A289A269A2E98279A2F988098889809
:1028D000249A2C98259A2D9A819889983F9A4798FE
:1028E0003E9A4698569A5E98539A52985A9AA7D703
:1028F0000E944A3960E071EE80E090E00E94AC1FD7
:1029000049DC0E94F31E0E94DE310E946B310E945E
:102910000C1D0E940C1D7894B8CF8091610190919C
:102920006201A0916301B0916401892B8A2B8B2BEA
:1029300021F060E070E0CB010FCB0895CF93DF93DF
:102940001F92CDB7DEB74DB75EB720910001309131
:1029500001014217530730F42DB73EB73093010100
:1029600020930001A8959091E60293FF08C09091F2
:10297000E602977F9093E6028983CFDF8981909169
:10298000E60292FF0BC09091E6029B7F9093E602D5
:102990004D9A0F90DF91CF910C940E1E0F90DF9106
:1029A000CF910895CF93A8950E94F21F882329F113
:1029B0000E94E21FC82F28987BDC8823A9F0CA3028
:1029C000D9F40E94C4202FE130E0281B31093F9345
:1029D0002F9383E191E09F938F930E9427390F906B
:1029E0000F900F900F9008C08CE091E09F938F9311
:1029F0000E9427390F900F90289A8CE4CF919ECF98
:102A000058DFD0DFFECF60E082E00E94CD3189E068
:102A100091E09F938F930E943639F89480E014DB05
:102A200080E0EFDB2FEF83E294EF21508040904075
:102A3000E1F700C000000C9400000F900F90089583
:102A400059982F7061112064411120628111206119
:102A500088E05C9820FF02C0589A01C058985C9AA0
:102A600026958150B1F7599A5C9859980895CF935B
:102A7000C82FCF702C2F40E060E080E0E1DF2C2FEA
:102A800040E060E081E0DCDF2C2F40E060E080E0AF
:102A9000CF91D6CF5998519A5898509A5C98549A99
:102AA00020E040E060E080E0CBCFCF93C82F82955C
:102AB0008F70DDDF8C2FDBDF87EC90E00197F1F783
:102AC00000C00000CF910895CF93DF93C82FD82F77
:102AD000D295DF702D2F40E061E080E0B1DF2D2F37
:102AE00040E061E081E0ACDF2D2F40E061E080E07C
:102AF000A7DFCF702C2F40E061E080E0A1DF2C2F1A
:102B000040E061E081E09CDF2C2F40E061E080E06C
:102B100097DF87EC90E00197F1F700C00000DF91AC
:102B2000CF9108950F931F938091BF019091C001A1
:102B3000A091C101B091C201A7FF2DC04091F30740
:102B4000009172021091730220917402309175020B
:102B5000411104C04091F2074423A9F04091DA07E3
:102B60005091DB076091DC077091DD07400F511F2A
:102B7000621F731F4093DA075093DB076093DC07F3
:102B80007093DD0708C00093DA071093DB072093EA
:102B9000DC073093DD07B0FF2DC04091F4070091B2
:102BA00076021091770220917802309179024111DA
:102BB00004C04091F2074423A9F04091DE075091F0
:102BC000DF076091E0077091E107400F511F621F1E
:102BD000731F4093DE075093DF076093E007709305
:102BE000E10708C00093DE071093DF072093E0079A
:102BF0003093E107B1FF2DC08091F50740917A0233
:102C000050917B0260917C0270917D02811104C021
:102C10008091F2078823A9F08091E2079091E30761
:102C2000A091E407B091E507840F951FA61FB71F79
:102C30008093E2079093E307A093E407B093E5073E
:102C400008C04093E2075093E3076093E407709352
:102C5000E5076091DA077091DB078091DC079091BE
:102C6000DD0760D76093C7077093C8078093C907D3
:102C70006091DE077091DF078091E0079091E10796
:102C800077D76093CA077093CB078093CC07609186
:102C9000E2077091E3078091E4079091E5078ED7F2
:102CA0006093CD077093CE078093CF071F910F914C
:102CB00008952F923F924F925F926F927F928F92E0
:102CC0009F92AF92BF92CF92DF92EF92FF920F93BB
:102CD0001F93CF93DF93CDB7DEB761970FB6F8940C
:102CE000DEBF0FBECDBF8D878091DA079091DB07E5
:102CF000A091DC07B091DD078093E6079093E7078A
:102D0000A093E807B093E9078091DE079091DF0771
:102D1000A091E007B091E1078093EA079093EB0759
:102D2000A093EC07B093ED07FDDE8091BF01909179
:102D3000C001A091C101B091C2018C019D01002789
:102D4000137022703327011511052105310511F487
:102D500080E08CC190FF1CC04091E6075091E707CE
:102D60006091E8077091E907C0903602D090370271
:102D7000E0903802F09039024C0D5D1D6E1D7F1DF4
:102D80004093E6075093E7076093E8077093E907DD
:102D900091FF1CC08091EA079091EB07A091EC078E
:102DA000B091ED0740913A0250913B0260913C0294
:102DB00070913D02840F951FA61FB71F8093EA07ED
:102DC0009093EB07A093EC07B093ED070115110565
:102DD0002240310509F02BC180915A0290915B028B
:102DE000A0915C02B0915D028D839E83AF83B88712
:102DF0002091DA073091DB074091DC075091DD0725
:102E00008091E6079091E707A091E807B091E90764
:102E1000281B390B4A0B5B0B29833A834B835C835A
:102E20004090DE075090DF076090E0077090E10768
:102E30008091EA079091EB07A091EC07B091ED0724
:102E4000481A590A6A0A7B0AA301920169817A81A8
:102E50008B819C810E94790E69877A878B879C87FA
:102E60006D817E818F8198859B01AC010E94713BB1
:102E70002E873F871A014B01898B988B69857A854C
:102E80008B859C859B01AC010E94713B02E00E94F6
:102E90004D3C59016A017B018C012E853F85A101C2
:102EA000B401898998890E94723C0E94860D6B0149
:102EB0007C0197FD4DCFA30192010E94F43A298530
:102EC0003A854B855C850E94253B49015A01209338
:102ED000E6073093E7074093E8075093E907298115
:102EE0003A814B815C8150954095309521953F4FBB
:102EF0004F4F5F4FC701B6010E94F43A29853A85CA
:102F00004B855C850E94253B2093EA073093EB07B5
:102F10004093EC075093ED078D85882351F08D8108
:102F20009E81AF81B885181619061A061B063CF05B
:102F300025C08D819E81AF81B885B7FF1FC0B09439
:102F4000A09490948094811C911CA11CB11C80922F
:102F5000E6079092E707A092E807B092E907882772
:102F60009927DC01821B930BA40BB50B8093EA0716
:102F70009093EB07A093EC07B093ED076091DA070D
:102F80007091DB078091DC079091DD07660F771F5A
:102F9000881F991F29813A814B815C81621B730BC9
:102FA000840B950B32E0C32ED12CE12CF12CA70120
:102FB00096010E94253B8091E6079091E707A0913A
:102FC000E807B091E907820F931FA41FB51F8093F4
:102FD000E6079093E707A093E807B093E9076091AD
:102FE000DE077091DF078091E0079091E107660F9F
:102FF000771F881F991F6419750986099709A7010A
:1030000096010E94253B8091EA079091EB07A091E1
:10301000EC07B091ED07820F931FA41FB51F80939B
:10302000EA079093EB07A093EC07B093ED0760914C
:10303000E6077091E7078091E8079091E90772D55C
:103040006093D0077093D1078093D2076091EA070D
:103050007091EB078091EC079091ED0789D5609313
:10306000D3077093D4078093D50781E061960FB69C
:10307000F894DEBF0FBECDBFDF91CF911F910F91AE
:10308000FF90EF90DF90CF90BF90AF909F908F9088
:103090007F906F905F904F903F902F900895809118
:1030A000BF019091C001A091C101B091C201A2FFE6
:1030B00021C060915E0270915F02809160029091E8
:1030C000610224E630E040E050E00E94253B57FFDB
:1030D00003C020E030E0A901293E83E03807410524
:1030E000510524F028EE33E040E050E0C901AFD8AC
:1030F00081E087D88091BF019091C001A091C1016A
:10310000B091C20193FF14C06091420270914302DA
:10311000809144029091450297FF07C09095809559
:10312000709561957F4F8F4F9F4F8AD882E069D805
:103130008091BF019091C001A091C101B091C201E5
:1031400097FF0BC06091520270915302809154021C
:10315000909155026ED882E054D88091BF0182FFD1
:103160003BC080917901869586958770846049D8A7
:103170008091860290918702A0918802B091890285
:1031800083309105A105B105F1F05CF48130910522
:10319000A105B105B1F00297A105B105D9F481E00F
:1031A00013C086309105A105B10581F088309105E5
:1031B000A105B10569F00497A105B10559F483E0B3
:1031C00003C080E001C082E028D806C085E0FCCFC3
:1031D00087E0FACF80E015D88091BF0181FF03C05E
:1031E000809182020ED88091BF019091C001A09180
:1031F000C101B091C201A0FF09C08091BE029091AF
:10320000BF02A091C002B091C10203C080E090E073
:10321000DC0180937B0190937C01A0937D01B093AE
:103220007E0108958F929F92AF92BF92CF92DF92CC
:10323000EF92FF92CF93C090BF01D090C001E09079
:10324000C101F090C201C5FE2BC080912A0290916D
:103250002B02A0912C02B0912D02181619061A0605
:103260001B06F4F4BC01CD01625E7F4F8F4F9F4F70
:103270002CE330E040E050E00E94253B283883E119
:1032800038074105510524F428E833E140E050E0D7
:103290002093EE073093EF074093F0075093F10728
:1032A000C6FE0EC28091960290919702A09198025C
:1032B000B0919902AC01BD014427452B462B472B09
:1032C00009F098C2843009F44AC040F48130D1F04A
:1032D000B8F08230D1F0833041F18CC28A3509F4E4
:1032E00079C138F4873009F469C08C3109F4D7C04A
:1032F00081C28B3509F471C18C3509F472C17AC26F
:1033000011DC3CC20FDCCBDEB7C080E0D2DC88230E
:1033100009F434C2C4DE6091EE077091EF0780912A
:10332000F0079091F10740E00FC081E0C2DC8823F4
:1033300009F424C2B4DE6091EE077091EF0780912A
:10334000F0079091F10741E0CF91FF90EF90DF906F
:10335000CF90BF90AF909F908F900C94C134D7FEC8
:1033600009C08090BA029090BB02A090BC02B090BD
:10337000BD0203C0812C912C5401E2FE0CC080914F
:103380005E0290915F02A0916002B0916102880E8E
:10339000991EAA1EBB1E0E943C3136D26B017C01D5
:1033A000C80CD91CEA1CFB1C2FD2C616D706E8068F
:1033B000F90609F41FC284E4C1DAF6CF80913C011A
:1033C00081111BC08091BF019091C001A091C101EA
:1033D000B091C201A0FF2EC08091BE029091BF02A9
:1033E000A091C002B091C10280937B0190937C01B7
:1033F000A0937D01B0937E011DC0482F50E060E096
:1034000070E040937B0150937C0160937D01709349
:103410007E0190E00E943511C0E080913C01C81708
:1034200088F6EC2FF0E0ED53FE4F80810E94020FF2
:10343000CF5FF3CF2091EE073091EF074091F00777
:103440005091F10760E472E48FE090E00E94253B28
:10345000C0906D01D0906E01E0906F01F12CCA0117
:10346000B901A70196010E94253BCA01B9010E943A
:10347000201185E00E9401116091EE077091EF0725
:103480008091F0079091F107CF91FF90EF90DF903E
:10349000CF90BF90AF909F908F900C94443388E46E
:1034A0004DDA8091020290910302A0910402B09142
:1034B0000502AC01BD014427552760787370452B88
:1034C000462B472B89F0AC01BD0127E17695679526
:1034D000579547952A95D1F7242F2170B0FD22608A
:1034E000B1FF03C0246001C027E0C22FCB7F09F4E5
:1034F00081C120FF1FC04091BF015091C001609168
:10350000C1017091C20167FF09C0409172025091E0
:103510007302609174027091750204C048ED5CED15
:103520006FEF7FEF4093DA075093DB076093DC0780
:103530007093DD0721FF1FC04091BF015091C00172
:103540006091C1017091C20170FF09C04091760283
:1035500050917702609178027091790204C048E638
:103560005DEA63E070E04093DE075093DF0760930D
:10357000E0077093E1076091DA077091DB078091B3
:10358000DC079091DD07CED26093C7077093C80720
:103590008093C9076091DE077091DF078091E00793
:1035A0009091E107E5D26093CA077093CB078093AF
:1035B000CC076091E2077091E3078091E407909156
:1035C000E507FCD26093CD077093CE078093CF07B9
:1035D0008C2F6BC01092F2070DC181E08093F2072F
:1035E00009C1E7FE10C08091720290917302A09110
:1035F0007402B09175028093DA079093DB07A09371
:10360000DC07B093DD07F0FE10C080917602909148
:103610007702A0917802B09179028093DE079093AF
:10362000DF07A093E007B093E107F1FE10C080919F
:103630007A0290917B02A0917C02B0917D028093EE
:10364000E2079093E307A093E407B093E507609146
:10365000DA077091DB078091DC079091DD0762D279
:103660006093C7077093C8078093C9076091DE070E
:103670007091DF078091E0079091E10779D2609324
:10368000CA077093CB078093CC076091E2077091D3
:10369000E3078091E4079091E50790D26093CD070E
:1036A0007093CE078093CF0780E0CF91FF90EF908B
:1036B000DF90CF90BF90AF909F908F900C94D035BB
:1036C000D4FE84C08091AE029091AF02A091B0026E
:1036D000B091B102AC01BD0144275527452B462BC3
:1036E000472B09F073C08330910509F43FC028F4DB
:1036F000009771F1029761F17DC0803921E0920756
:1037000009F44FC0893822E0920709F455C00597A3
:1037100009F070C0C0917901C695C695C77080E068
:103720000E9401116091EE077091EF078091F00700
:103730009091F1070E94E6318C2FCF91FF90EF908E
:10374000DF90CF90BF90AF909F908F900C9401111D
:1037500080E00E9401116091EE077091EF07809167
:10376000F0079091F1070E94E6311BC098DC809130
:1037700079018C7119F481E00E9401116091EE07CA
:103780007091EF078091F0079091F107CF91FF9032
:10379000EF90DF90CF90BF90AF909F908F900C9460
:1037A000E631CF91FF90EF90DF90CF90BF90AF9038
:1037B0009F908F900C943C31CF91FF90EF90DF90D1
:1037C000CF90BF90AF909F908F9069CCE3FC12C0D8
:1037D0008091020290910302A0910402B09105022F
:1037E000A5FF08C08AE191E09F938F930E9427393B
:1037F0000F900F90CF91FF90EF90DF90CF90BF9000
:10380000AF909F908F90089560914D0170914E01FF
:1038100080914F019091500108953FB7F89426B5DB
:1038200026956091520170915301809154019091BD
:1038300055013FBF620F711D811D911D08951092AA
:10384000520110925301109254011092550110929E
:10385000510110924D0110924E0110924F011092A1
:10386000500182E084BD85BD99EF97BD16BC809361
:103870006E008AE080934C0180934B0180934A0153
:103880008093490196E0909348018093470190937B
:10389000460108951F920F920FB60F9211242F9395
:1038A0003F938F939F93AF93BF932DB73EB7809174
:1038B0000001909101012817390730F48DB79EB7A8
:1038C00090930101809300018091520190915301E6
:1038D000A0915401B091550183589F4FAF4FBF4FF6
:1038E0008093520190935301A0935401B0935501DA
:1038F000809151018F5F80935101883008F481C01D
:103900008091510188508093510180914D01909197
:103910004E01A0914F01B09150010196A11DB11D22
:1039200080934D0190934E01A0934F01B0935001AD
:103930008091E60281608093E60280914C01815083
:1039400080934C0181115DC08091E602826080937A
:10395000E6028AE080934C0190914B019150909344
:103960004B0191114EC09091E60294609093E60253
:1039700080934B0190914A01915090934A0191118B
:1039800040C09091E60298609093E60280934A01CD
:1039900090914901915090934901911132C09091B9
:1039A000E60290619093E60280934901909148016C
:1039B000915090934801911124C09091E602906239
:1039C0009093E60226E020934801909147019150A0
:1039D00090934701911115C09091E60290649093E5
:1039E000E602809347018091460181508093460111
:1039F000811107C08091E60280688093E6022093DF
:103A00004601BF91AF919F918F913F912F910F9060
:103A10000FBE0F901F90189528E288E190E00FB636
:103A2000F894A895809360000FBE209360000895DD
:103A3000AF92BF92CF92DF92EF92FF920F931F93BC
:103A4000992787FD909520E432E44FE050E00E94F2
:103A5000713BE4E7AE2EF5E3BF2ECC24C394D12C0A
:103A6000E12CF12C00E010E00E943B3BB901CA01BF
:103A70001F910F91FF90EF90DF90CF90BF90AF908C
:103A80000895AF92BF92CF92DF92EF92FF920F9381
:103A90001F93992787FD909520E432E44FE050E092
:103AA0000E94713BE4E7AE2EF5E3BF2ECC24C39415
:103AB000D12CE12CF12C00E010E00E943B3BB9013D
:103AC000CA011F910F91FF90EF90DF90CF90BF90B0
:103AD000AF900895AF92BF92CF92DF92EF92FF9294
:103AE0000F931F93992787FD909520E432E44FE0D0
:103AF00050E00E94713BA12CE5E3BE2EFCE0CF2EEE
:103B0000D12CE12CF12C00E010E00E943B3BB901EC
:103B1000CA011F910F91FF90EF90DF90CF90BF905F
:103B2000AF900895AF92BF92CF92DF92EF92FF9243
:103B30000F931F9324E735E341E050E00E94713B6F
:103B4000E0E4AE2EF2E4BF2EAFE0CA2ED12CE12C81
:103B5000F12C00E010E00E943B3BB901842F1F9143
:103B60000F91FF90EF90DF90CF90BF90AF900895AE
:103B7000AF92BF92CF92DF92EF92FF920F931F937B
:103B800024E735E341E050E00E94713BE0E4AE2ED3
:103B9000F2E4BF2EAFE0CA2ED12CE12CF12C00E0D4
:103BA00010E00E943B3BB901842F1F910F91FF90C1
:103BB000EF90DF90CF90BF90AF900895AF92BF92FB
:103BC000CF92DF92EF92FF920F931F9320E035E3A5
:103BD0004CE050E00E94713BE0E4AE2EF2E4BF2ED8
:103BE000AFE0CA2ED12CE12CF12C00E010E00E94B5
:103BF0003B3BB901842F1F910F91FF90EF90DF9015
:103C0000CF90BF90AF90089581E00E9455158FE549
:103C10009DE60197F1F700C0000008950F931F93F0
:103C2000CF93DF9300D01F92CDB7DEB7182F60E09F
:103C300080E00E94CD31E8DD082F69837A839B8381
:103C4000A3D29B819F930F937A817F9369816F9316
:103C50001F928F931F921F938EE991E09F938F93F2
:103C60000E94363980E00E944D31E2DE162F082F87
:103C700060E081E07A839B830E94CD319B819F939A
:103C80000F937A817F931F938DE891E09F938F9399
:103C90000E94363981E00E944D31F3DE162F082F45
:103CA00060E082E07A839B830E94CD319B819F9369
:103CB0000F937A817F931F938CE791E09F938F936B
:103CC0000E94363982E00E944D3104DF162F082F02
:103CD00060E083E07A839B830E94CD319B819F9338
:103CE0000F937A817F931F938BE691E09F938F933D
:103CF0000E9436398091BA078C710FB6F894DEBFF6
:103D00000FBECDBF6AE0A9F081E00E94CD31809165
:103D1000BA078695869587701F928F938FE591E0FD
:103D20009F938F930E9436390F900F900F900F90B2
:103D30000BC081E00E94CD3185E591E09F938F9388
:103D40000E9436390F900F906AE082E00E94CD31D8
:103D50009091B9078091BA0783708F939F93809158
:103D6000BB07877090E001969F938F938091BA076D
:103D70008695869587701F928F938BE491E09F9331
:103D80008F930E9436392DB73EB70FB6F894DEBF39
:103D90000FBECDBF80910001909101012817390716
:103DA00030F48DB79EB790930101809300016AE0D3
:103DB00083E00E94CD31809101018F9380910001B9
:103DC0008F9385E491E09F938F930E9436390F90F3
:103DD0000F900F900F900F900F900F90DF91CF9159
:103DE0001F910F9108952FEF83EC99E021508040AF
:103DF0009040E1F700C0000084E00E94983184E028
:103E00000E94983101DF89E409CF10925801109285
:103E100059010895209159019091580181E0291389
:103E200080E0089540915901209158014F5F50E082
:103E300030E081E04217530709F080E00895F2DF97
:103E400091E0811190E0892F0895ECDF882321F023
:103E500082E40E949E14F9CF809159018F5F809374
:103E600059010895809158018F5F809358010895FA
:103E70008091590190915801891B0895CF93DF9348
:103E80001F92CDB7DEB7C6DF882321F082E40E94FF
:103E90009E14F9CFE0915801F0E0E95FFC4F80817A
:103EA0008983E0DF89810F90DF91CF910895E091C0
:103EB0005901F0E0E95FFC4F8083C7CF10925601B3
:103EC000109257010895209157019091560181E079
:103ED000291380E00895209157014091560130E068
:103EE0002F5F3F4F2F71332750E081E024173507B4
:103EF00009F080E00895EFDF882321F082E40E943A
:103F00009E14F9CF809157018F5F8F718093570175
:103F10000895809156018F5F8F71809356010895A7
:103F2000E0915701F0E0E951FD4F8083E4CFCF935A
:103F3000DF93C82FD0DF882321F085E50E949E14EF
:103F4000F9CFDFB7F8948C2FEBDF88EB8093C900B3
:103F5000DFBFDF91CF9108950F931F93CF938B0114
:103F60009C01CFB7F894775F824C9F4F42E0660F79
:103F7000771F881F991F4A95D1F7A9019801E3E09F
:103F8000220F331F441F551FEA95D1F70E94033BB0
:103F9000215031093093CD002093CC0082E08093F2
:103FA000C80088E98093C90086E08093CA002DDFAD
:103FB00085DF84E080935A01CFBF81E1CF911F91CB
:103FC0000F91B5CF80915A0181FF0BC023DF882369
:103FD00041F080915A01846080935A0188EB80936C
:103FE000C9004CCFCF93CFB7F89480915A0181FF8D
:103FF0000BC010DF882341F080915A0184608093C8
:104000005A0188EB8093C900CFBFCF9131CF1F9267
:104010000F920FB60F9211242F933F934F935F93FC
:104020006F937F938F939F93AF93BF93EF93FF9380
:1040300080915A0180FF07C083E18093CE0082E027
:1040400080935A011AC080915A0182FF06C083E111
:104050008093CE0010925A0110C035DF882321F0E2
:1040600088E98093C90009C0E0915601F0E0E95168
:10407000FD4F80818093CE004CDFFF91EF91BF9187
:10408000AF919F918F917F916F915F914F913F91F0
:104090002F910F900FBE0F901F9018951F920F92A7
:1040A0000FB60F9211242F933F934F935F936F930B
:1040B0007F938F939F93AF93BF93EF93FF93D8DE3C
:1040C000813460F080915A0181FD08C080915A01CD
:1040D000816080935A0188EB8093C900B0DE811122
:1040E0000DC063E00E94CD318EEA91E09F938F93E3
:1040F0000E9436390E9403150F900F908091CE00D8
:10410000D6DEFF91EF91BF91AF919F918F917F91FB
:104110006F915F914F913F912F910F900FBE0F9034
:104120001F90189510925B0110925C0108952091E8
:104130005C0190915B0181E0291380E0089520915A
:104140005C0140915B0130E02F5F3F4F2F713327BF
:1041500050E081E02417350709F080E00895EFDF93
:10416000882321F082E40E949E14F9CF80915C01A3
:104170008F5F8F7180935C01089580915B018F5FE9
:104180008F7180935B01089580915C0190915B0138
:10419000891B8F710895CF92DF92EF92CF93DF93B7
:1041A000E0910704F0910804EF01858580FF2BC0A2
:1041B0008181813011F42F9A01C02F982F89388D79
:1041C000498DC8A0D9A0EAA08E859F85A8895527CA
:1041D000820F931FA41F20F453958C199D09AE09DB
:1041E0008E879F87A88B552371F02E9A29818C8109
:1041F0009D81AE81022E0594820F901DA01D8C839F
:104200009D83AE832E988D8581FF2BC08A8181305E
:1042100011F42D9801C02D9A2A8D3B8D4C8DC8A08C
:10422000D9A0EAA089899A89AB895527820F931F63
:10423000A41F20F453958C199D09AE09898B9A8B84
:10424000AB8B552371F02C9A2A818F819885A98593
:10425000022E0594820F901DA01D8F839887A98739
:104260002C988D8582FF2BC08B81813011F4469A6A
:1042700001C046982D8D3E8D4F8DC8A0D9A0EAA0D3
:104280008C899D89AE895527820F931FA41F20F426
:1042900053958C199D09AE098C8B9D8BAE8B552344
:1042A00071F0479A2B818A859B85AC85022E0594F7
:1042B000820F901DA01D8A879B87AC874798FE01BF
:1042C0008D85877009F44EC02BA13CA14DA188A11A
:1042D00099A1AAA10196A11D821B930BA40B2817DB
:1042E00039074A0710F4A42FC901813C52E0950711
:1042F00028F460EC72E0681B790B02C060E070E0AB
:10430000CB0156E0969587955A95E1F7582F88236B
:1043100019F060645FEF580F6F777727552341F0EE
:1043200077FD04C0660F771F5150F8CF6FEF7FEF16
:10433000603D87E0780710F460ED77E085A596A5ED
:104340008617970708F4BC01709389006093880072
:1043500021503109410923A334A345A381E0232B34
:10436000242B09F480E0DF91CF91EF90DF90CF9084
:104370000895CF92DF92EF92FF920F931F93CF9306
:10438000DF936091070470910804EB01888190E04D
:104390009C01205131092031310510F00C94302A54
:1043A0002A583F4F8EA19FA1A8A5B9A5F9010C9449
:1043B000453C2A8D3B8D4C8DCE84DF84E8882C19BA
:1043C0003D094E097901042F112707FD1095E816C4
:1043D000F9060A071B0794F12F98CF88D88CE98C2F
:1043E000AE2DC6010197A1098C012A2F332727FD85
:1043F00030958EA19FA1A8A5B9A5800F911FA21FDE
:10440000B31F8EA39FA3A8A7B9A712E0C11AD10812
:10441000E108CF8AD88EE98E8E859F85A88901977D
:10442000A1098E879F87A88B2E9A8C819D81AE8152
:104430000197A1098C839D83AE832E982D98FE0150
:1044400089899A89AB890196A11D898B9A8BAB8B3F
:104450002A8D3B8D4C8DA42FC9010296A11D8A8FF8
:104460009B8FAC8FA42FC9010196A11D7C010A2F3F
:10447000112707FD10958EA19FA1A8A5B9A58E199A
:104480009F09A00BB10B8EA39FA3A8A7B9A72C9A35
:104490008F819885A9850196A11D8F839887A9870B
:1044A0002C9829893A894B898E859F85A889281758
:1044B00039074A070CF4D4C781E1D1C729893A8961
:1044C0004B89CF88D88CE98C2C193D094E0979018C
:1044D000042F112707FD1095E816F9060A071B0798
:1044E00094F52D9889899A89AB890196A11D898BAC
:1044F0009A8BAB8B2A8D3B8D4C8DA42FC9010296D4
:10450000A11D8A8F9B8FAC8FA42FC9010196A11D7D
:104510008C012A2F332727FD30958EA19FA1A8A5B6
:10452000B9A5801B910BA20BB30B8EA39FA3A8A7C9
:10453000B9A72C9A8F819885A9850196A11D8F8393
:104540009887A9872C982F98FE01CF88D88CE98C62
:10455000AE2DC6010197A1098C012A2F332727FD13
:1045600030958EA19FA1A8A5B9A5800F911FA21F6C
:10457000B31F8EA39FA3A8A7B9A712E0C11AD108A1
:10458000E108CF8AD88EE98E8E859F85A88901970C
:10459000A1098E879F87A88B2E9A8C819D81AE81E1
:1045A0000197A1098C839D83AE832E988E859F856C
:1045B000A889181619061A060CF452C782E14FC7CB
:1045C0002F89388D498DC988DA88EB882C0D3D1DDF
:1045D0004E1D4095309521953F4F4F4F7901042F47
:1045E000112707FD1095E816F9060A071B0794F135
:1045F0002D9ACA8CDB8CEC8CAE2DC6010197A109DB
:104600008C012A2F332727FD30958EA19FA1A8A5C5
:10461000B9A5800F911FA21FB31F8EA39FA3A8A7A8
:10462000B9A712E0C11AD108E108CA8EDB8EEC8E60
:1046300089899A89AB890197A109898B9A8BAB8B60
:104640002C9A8F819885A9850197A1098F839887D6
:10465000A9872C982F98FE01CF88D88CE98CAE2D95
:10466000C6010197A1098C012A2F332727FD309518
:104670008EA19FA1A8A5B9A5800F911FA21FB31F4E
:104680008EA39FA3A8A7B9A712E0C11AD108E10879
:10469000CF8AD88EE98E8E859F85A8890197A1093A
:1046A0008E879F87A88B2E9A8C819D81AE810197E2
:1046B000A1098C839D83AE832E9889899A89AB89C1
:1046C000A095909581959F4FAF4F2E853F85488946
:1046D00082179307A4070CF4C3C683E1C0C62A8DD2
:1046E0003B8D4C8DCE84DF84E8882C0D3D1D4E1D06
:1046F0004095309521953F4F4F4F7901042F112759
:1047000007FD1095E816F9060A071B0794F52F9880
:10471000CF88D88CE98CAE2DC6010197A1098C01F8
:104720002A2F332727FD30958EA19FA1A8A5B9A5D3
:10473000800F911FA21FB31F8EA39FA3A8A7B9A785
:1047400012E0C11AD108E108CF8AD88EE98E8E8591
:104750009F85A8890197A1098E879F87A88B2E9A8C
:104760008C819D81AE810197A1098C839D83AE834D
:104770002E982D9AFE01CA8CDB8CEC8CAE2DC601D6
:104780000197A1098C012A2F332727FD30958EA18F
:104790009FA1A8A5B9A5800F911FA21FB31F8EA32B
:1047A0009FA3A8A7B9A712E0C11AD108E108CA8E31
:1047B000DB8EEC8E89899A89AB890197A109898B57
:1047C0009A8BAB8B2C9A8F819885A9850197A1092B
:1047D0008F839887A9872C9889899A89AB8918161D
:1047E00019061A060CF43CC684E139C62E853F85AD
:1047F0004889CA8CDB8CEC8C2C193D094E09790157
:10480000042F112707FD1095E816F9060A071B0764
:1048100094F12F9A8E859F85A8890196A11D8E8778
:104820009F87A88B2F89388D498DA42FC9010296A7
:10483000A11D8F8B988FA98FA42FC9010196A11D4F
:104840008C012A2F332727FD30958EA19FA1A8A583
:10485000B9A5801B910BA20BB30B8EA39FA3A8A796
:10486000B9A72E9A8C819D81AE810196A11D8C8362
:104870009D83AE832E982D9AFE01CA8CDB8CEC8C26
:10488000AE2DC6010197A1098C012A2F332727FDE0
:1048900030958EA19FA1A8A5B9A5800F911FA21F39
:1048A000B31F8EA39FA3A8A7B9A712E0C11AD1086E
:1048B000E108CA8EDB8EEC8E89899A89AB890197D3
:1048C000A109898B9A8BAB8B2C9A8F819885A985AE
:1048D0000197A1098F839887A9872C982E853F85FA
:1048E000488989899A89AB89281739074A070CF4BE
:1048F000B7C585E1B4C52F89388D498DC988DA8857
:10490000EB882C193D094E097901042F112707FD69
:104910001095E816F9060A071B0794F52D9ACA8C1C
:10492000DB8CEC8CAE2DC6010197A1098C012A2FDE
:10493000332727FD30958EA19FA1A8A5B9A5800F8B
:10494000911FA21FB31F8EA39FA3A8A7B9A712E010
:10495000C11AD108E108CA8EDB8EEC8E89899A894A
:10496000AB890197A109898B9A8BAB8B2C9A8F818C
:104970009885A9850197A1098F839887A9872C9885
:104980002F9AFE018E859F85A8890196A11D8E878D
:104990009F87A88B2F89388D498DA42FC901029636
:1049A000A11D8F8B988FA98FA42FC9010196A11DDE
:1049B0007C010A2F112707FD10958EA19FA1A8A5A4
:1049C000B9A58E199F09A00BB10B8EA39FA3A8A711
:1049D000B9A72E9A8C819D81AE810196A11D8C83F1
:1049E0009D83AE832E988E859F85A889AA230CF47B
:1049F00037C586E134C52F89388D498DC988DA8855
:104A0000EB882C0D3D1D4E1D7901042F112707FD4C
:104A10001095E816F9060A071B0794F12D98898965
:104A20009A89AB890196A11D898B9A8BAB8B2A8DB4
:104A30003B8D4C8DA42FC9010296A11D8A8F9B8F9F
:104A4000AC8FA42FC9010196A11D8C012A2F3327F9
:104A500027FD30958EA19FA1A8A5B9A5801B910B1C
:104A6000A20BB30B8EA39FA3A8A7B9A72C9A8F81E3
:104A70009885A9850196A11D8F839887A9872C9871
:104A80002F9AFE018E859F85A8890196A11D8E878C
:104A90009F87A88B2F89388D498DA42FC901029635
:104AA000A11D8F8B988FA98FA42FC9010196A11DDD
:104AB0007C010A2F112707FD10958EA19FA1A8A5A3
:104AC000B9A58E199F09A00BB10B8EA39FA3A8A710
:104AD000B9A72E9A8C819D81AE810196A11D8C83F0
:104AE0009D83AE832E9889899A89AB89A0959095EC
:104AF00081959F4FAF4F2E853F85488928173907ED
:104B00004A070CF4ADC487E1AAC42E853F854889C5
:104B1000CA8CDB8CEC8C2C0D3D1D4E1D7901042FB5
:104B2000112707FD1095E816F9060A071B0794F5EB
:104B30002F9A8E859F85A8890196A11D8E879F87B4
:104B4000A88B2F89388D498DA42FC9010296A11DEC
:104B50008F8B988FA98FA42FC9010196A11D8C015D
:104B60002A2F332727FD30958EA19FA1A8A5B9A58F
:104B7000801B910BA20BB30B8EA39FA3A8A7B9A771
:104B80002E9A8C819D81AE810196A11D8C839D837F
:104B9000AE832E982D98FE0189899A89AB8901965A
:104BA000A11D898B9A8BAB8B2A8D3B8D4C8DA42FAD
:104BB000C9010296A11D8A8F9B8FAC8FA42FC901BA
:104BC0000196A11D7C010A2F112707FD10958EA1CA
:104BD0009FA1A8A5B9A58E199F09A00BB10B8EA303
:104BE0009FA3A8A7B9A72C9A8F819885A98501961C
:104BF000A11D8F839887A9872C9889899A89AB8969
:104C0000AA230CF42DC480E12AC42E853F8548894F
:104C1000CA8CDB8CEC8C2C193D094E097901042FD0
:104C2000112707FD1095E816F9060A071B0794F5EA
:104C30002F9A8E859F85A8890196A11D8E879F87B3
:104C4000A88B2F89388D498DA42FC9010296A11DEB
:104C50008F8B988FA98FA42FC9010196A11D8C015C
:104C60002A2F332727FD30958EA19FA1A8A5B9A58E
:104C7000801B910BA20BB30B8EA39FA3A8A7B9A770
:104C80002E9A8C819D81AE810196A11D8C839D837E
:104C9000AE832E982D9AFE01CA8CDB8CEC8CAE2D47
:104CA000C6010197A1098C012A2F332727FD3095D2
:104CB0008EA19FA1A8A5B9A5800F911FA21FB31F08
:104CC0008EA39FA3A8A7B9A712E0C11AD108E10833
:104CD000CA8EDB8EEC8E89899A89AB890197A109EE
:104CE000898B9A8BAB8B2C9A8F819885A98501979C
:104CF000A1098F839887A9872C9889899A89AB897C
:104D0000181619061A060CF4ABC38FE1A8C32F8935
:104D1000388D498DC988DA88EB882C193D094E09F0
:104D20007901042F112707FD1095E816F9060A07E7
:104D30001B0794F12D9ACA8CDB8CEC8CAE2DC6012E
:104D40000197A1098C012A2F332727FD30958EA1C9
:104D50009FA1A8A5B9A5800F911FA21FB31F8EA365
:104D60009FA3A8A7B9A712E0C11AD108E108CA8E6B
:104D7000DB8EEC8E89899A89AB890197A109898B91
:104D80009A8BAB8B2C9A8F819885A9850197A10965
:104D90008F839887A9872C982F9AFE018E859F85EF
:104DA000A8890196A11D8E879F87A88B2F89388D92
:104DB000498DA42FC9010296A11D8F8B988FA98FB1
:104DC000A42FC9010196A11D7C010A2F112707FDFF
:104DD00010958EA19FA1A8A5B9A58E199F09A00B1A
:104DE000B10B8EA39FA3A8A7B9A72E9A8C819D81F2
:104DF000AE810196A11D8C839D83AE832E98298957
:104E00003A894B898E859F85A889281739074A07D3
:104E10000CF026C388E123C32F89388D498DC988BA
:104E2000DA88EB882C0D3D1D4E1D7901042F1127CA
:104E300007FD1095E816F9060A071B0794F52D984B
:104E400089899A89AB890196A11D898B9A8BAB8B35
:104E50002A8D3B8D4C8DA42FC9010296A11D8A8FEE
:104E60009B8FAC8FA42FC9010196A11D8C012A2F05
:104E7000332727FD30958EA19FA1A8A5B9A5801B3A
:104E8000910BA20BB30B8EA39FA3A8A7B9A72C9A33
:104E90008F819885A9850196A11D8F839887A98701
:104EA0002C982F9AFE018E859F85A8890196A11DB9
:104EB0008E879F87A88B2F89388D498DA42FC90194
:104EC0000296A11D8F8B988FA98FA42FC9010196DF
:104ED000A11D7C010A2F112707FD10958EA19FA10E
:104EE000A8A5B9A58E199F09A00BB10B8EA39FA3EE
:104EF000A8A7B9A72E9A8C819D81AE810196A11D8C
:104F00008C839D83AE832E988E859F85A889AA2346
:104F10000CF4A6C289E1A3C22A8D3B8D4C8DCE84B0
:104F2000DF84E8882C0D3D1D4E1D7901042F1127CB
:104F300007FD1095E816F9060A071B0794F12F9A4A
:104F40008E859F85A8890196A11D8E879F87A88B36
:104F50002F89388D498DA42FC9010296A11D8F8BF1
:104F6000988FA98FA42FC9010196A11D8C012A2F0A
:104F7000332727FD30958EA19FA1A8A5B9A5801B39
:104F8000910BA20BB30B8EA39FA3A8A7B9A72E9A30
:104F90008C819D81AE810196A11D8C839D83AE8302
:104FA0002E982D98FE0189899A89AB890196A11DB9
:104FB000898B9A8BAB8B2A8D3B8D4C8DA42FC9018D
:104FC0000296A11D8A8F9B8FAC8FA42FC9010196D9
:104FD000A11D7C010A2F112707FD10958EA19FA10D
:104FE000A8A5B9A58E199F09A00BB10B8EA39FA3ED
:104FF000A8A7B9A72C9A8F819885A9850196A11D8C
:105000008F839887A9872C9889899A89AB89A095DD
:10501000909581959F4FAF4F2E853F854889821788
:105020009307A4070CF01CC28AE119C22A8D3B8D9C
:105030004C8DCE84DF84E8882C193D094E09790116
:10504000042F112707FD1095E816F9060A071B071C
:1050500094F52F98CF88D88CE98CAE2DC601019796
:10506000A1098C012A2F332727FD30958EA19FA1FE
:10507000A8A5B9A5800F911FA21FB31F8EA39FA340
:10508000A8A7B9A712E0C11AD108E108CF8AD88E23
:10509000E98E8E859F85A8890197A1098E879F87B4
:1050A000A88B2E9A8C819D81AE810197A1098C835A
:1050B0009D83AE832E982D98FE0189899A89AB89AC
:1050C0000196A11D898B9A8BAB8B2A8D3B8D4C8DC4
:1050D000A42FC9010296A11D8A8F9B8FAC8FA42F8C
:1050E000C9010196A11D7C010A2F112707FD10950A
:1050F0008EA19FA1A8A5B9A58E199F09A00BB10BE0
:105100008EA39FA3A8A7B9A72C9A8F819885A9855C
:105110000196A11D8F839887A9872C9889899A89E0
:10512000AB89AA230CF49CC18BE199C129893A89E6
:105130004B89CF88D88CE98C2C193D094E0979010F
:10514000042F112707FD1095E816F9060A071B071B
:1051500094F12D9889899A89AB890196A11D898B33
:105160009A8BAB8B2A8D3B8D4C8DA42FC901029657
:10517000A11D8A8F9B8FAC8FA42FC9010196A11D01
:105180008C012A2F332727FD30958EA19FA1A8A53A
:10519000B9A5801B910BA20BB30B8EA39FA3A8A74D
:1051A000B9A72C9A8F819885A9850196A11D8F8317
:1051B0009887A9872C982F98FE01CF88D88CE98CE6
:1051C000AE2DC6010197A1098C012A2F332727FD97
:1051D00030958EA19FA1A8A5B9A5800F911FA21FF0
:1051E000B31F8EA39FA3A8A7B9A712E0C11AD10825
:1051F000E108CF8AD88EE98E8E859F85A889019790
:10520000A1098E879F87A88B2E9A8C819D81AE8164
:105210000197A1098C839D83AE832E982E853F85AF
:10522000488989899A89AB89281739074A070CF078
:1052300017C18CE114C12F89388D498DC988DA884E
:10524000EB882C0D3D1D4E1D4095309521953F4F0F
:105250004F4F7901042F112707FD1095E816F90625
:105260000A071B0794F52D9ACA8CDB8CEC8CAE2DAB
:10527000C6010197A1098C012A2F332727FD3095FC
:105280008EA19FA1A8A5B9A5800F911FA21FB31F32
:105290008EA39FA3A8A7B9A712E0C11AD108E1085D
:1052A000CA8EDB8EEC8E89899A89AB890197A10918
:1052B000898B9A8BAB8B2C9A8F819885A9850197C6
:1052C000A1098F839887A9872C982F98FE01CF88F2
:1052D000D88CE98CAE2DC6010197A1098C012A2F2B
:1052E000332727FD30958EA19FA1A8A5B9A5800FD2
:1052F000911FA21FB31F8EA39FA3A8A7B9A712E057
:10530000C11AD108E108CF8AD88EE98E8E859F8593
:10531000A8890197A1098E879F87A88B2E9A8C81D7
:105320009D81AE810197A1098C839D83AE832E98C8
:105330008E859F85A889181619061A060CF490C048
:105340008DE18DC02E853F854889CA8CDB8CEC8C25
:105350002C0D3D1D4E1D4095309521953F4F4F4FD3
:105360007901042F112707FD1095E816F9060A07A1
:105370001B0794F12F98CF88D88CE98CAE2DC601ED
:105380000197A1098C012A2F332727FD30958EA183
:105390009FA1A8A5B9A5800F911FA21FB31F8EA31F
:1053A0009FA3A8A7B9A712E0C11AD108E108CF8A24
:1053B000D88EE98E8E859F85A8890197A1098E8751
:1053C0009F87A88B2E9A8C819D81AE810197A10920
:1053D0008C839D83AE832E982D9AFE01CA8CDB8C24
:1053E000EC8CAE2DC6010197A1098C012A2F332721
:1053F00027FD30958EA19FA1A8A5B9A5800F911F6B
:10540000A21FB31F8EA39FA3A8A7B9A712E0C11A1A
:10541000D108E108CA8EDB8EEC8E89899A89AB8926
:105420000197A109898B9A8BAB8B2C9A8F819885D8
:10543000A9850197A1098F839887A9872C988989C5
:105440009A89AB89A095909581959F4FAF4F2E85F6
:105450003F854889281739074A0714F48EE180836D
:105460008D8582FF2BC08B81813011F4469A01C05B
:1054700046982D8D3E8D4F8DC8A0D9A0EAA08C896D
:105480009D89AE895527820F931FA41F20F4539541
:105490008C199D09AE098C8B9D8BAE8B552371F0B9
:1054A000479A2B818A859B85AC85022E0594820FB5
:1054B000901DA01D8A879B87AC8747988E012AA5DF
:1054C0003BA54CA550E0ADA5BEA50E94EA3A2989AE
:1054D0003A8937FF03C0319521953109F801468596
:1054E000578557FF03C0519541955109241735073A
:1054F0000CF49A01442737FD4095542F0E94033B3A
:105500003093890020938800F80123A134A145A19C
:1055100021503109410923A334A345A381E0232B62
:10552000242B09F480E0DF91CF911F910F91FF9020
:10553000EF90DF90CF900895CF92DF92EF92CF93CC
:10554000DF93E0910704F0910804EF01858580FF67
:105550002BC08181813011F42F9A01C02F982F899F
:10556000388D498DC8A0D9A0EAA08E859F85A889CD
:105570005527820F931FA41F20F453958C199D0962
:10558000AE098E879F87A88B552371F02E9A2981AB
:105590008C819D81AE81022E0594820F901DA01DED
:1055A0008C839D83AE832E988D8581FF2BC08A814D
:1055B000813011F42D9801C02D9A2A8D3B8D4C8D90
:1055C000C8A0D9A0EAA089899A89AB895527820FFA
:1055D000931FA41F20F453958C199D09AE09898B44
:1055E0009A8BAB8B552371F02C9A2A818F819885E9
:1055F000A985022E0594820F901DA01D8F83988788
:10560000A9872C988D8582FF2BC08B81813011F466
:10561000469A01C046982D8D3E8D4F8DC8A0D9A0C9
:10562000EAA08C899D89AE895527820F931FA41FFC
:1056300020F453958C199D09AE098C8B9D8BAE8BF4
:10564000552371F0479A2B818A859B85AC85022E64
:105650000594820F901DA01D8A879B87AC87479871
:105660008FEF9FEF90938900809388008D858770DE
:1056700069F02BA13CA14DA12150310941092BA377
:105680003CA34DA381E0232B242B09F480E0DF9180
:10569000CF91EF90DF90CF900895EF92FF920F930C
:1056A0001F93CF93DF93E0910704F0910804EF017B
:1056B00090818585913009F06AC080FF04C0789997
:1056C00002C08E7F8587858581FF04C0799902C0DD
:1056D0008D7F85878585982F9B7F958780FF0EC05E
:1056E0002E9A29818C819D81AE81022E0594820F94
:1056F000901DA01D8C839D83AE832E988D8581FF88
:105700000EC02C9A2A818F819885A985022E059436
:10571000820F901DA01D8F839887A9872C988D8557
:1057200082FF0EC0479A2B818A859B85AC85022E0D
:105730000594820F901DA01D8A879B87AC87479890
:105740008D85982F977009F582958F7091E1899FCB
:10575000802D11248D8781E089838FEF8A831B82BE
:105760002F9A8A81813011F42D9801C02D9A8B8156
:10577000813011F4469A01C0469882E088838FEF09
:105780009FEF909389008093880081E0C9C080FFDB
:1057900004C0789B02C08E7F8587858581FF04C009
:1057A000799B02C08D7F85878585982F9B7F958704
:1057B00080FF0EC02E9A29818C819D81AE81022EA0
:1057C0000594820F901DA01D8C839D83AE832E981F
:1057D0008D8581FF0EC02C9A2A818F819885A9859D
:1057E000022E0594820F901DA01D8F839887A98794
:1057F0002C988D8582FF0EC0479A2B818A859B85C8
:10580000AC85022E0594820F901DA01D8A879B8770
:10581000AC874798FE012D85822F877009F0B5CFA0
:1058200022952F702D8720FF25C08C819D81AE8110
:105830007C010A2F112707FD1095E0926907F0926D
:105840006A0700936B0710936C078F89988DA98D59
:105850008C839D83AE83BB27A7FDB0958E199F09CE
:10586000A00BB10B8093750790937607A0937707F1
:10587000B093780721FF25C087819085A1857C01A1
:105880000A2F112707FD1095E0926D07F0926E0721
:1058900000936F0710937007828D938DA48D87837B
:1058A0009087A187BB27A7FDB0958E199F09A00BF4
:1058B000B10B8093790790937A07A0937B07B093FD
:1058C0007C0722FF25C082859385A4858C012A2F21
:1058D000332727FD309500937107109372072093AB
:1058E000730730937407858D968DA78D8287938774
:1058F000A487BB27A7FDB095801B910BA20BB30B10
:1059000080937D0790937E07A0937F07B0938007D5
:1059100010828FEF9FEF909389008093880080E042
:10592000DF91CF911F910F91FF90EF9008951F92FB
:105930000F920FB60F921124CF92DF92EF92FF9247
:105940000F931F932F933F934F935F936F937F9387
:105950008F939F93AF93BF93CF93DF93EF93FF9377
:105960000091070410910804E80180915B012DB7B4
:105970003EB780910001909101012817390730F45A
:105980008DB79EB79093010180930001D801D996FD
:105990008C91982F9295969597708695869587709D
:1059A000981721F190FF05C081FF03C080E00E949D
:1059B0002410F80181AD86FF07C082FF05C060E0BA
:1059C00070E0CB010E94380FD801D9968C918C7170
:1059D00011F40E942410F80181AD982F96959695A8
:1059E0009295990F907E8F71892B81AFD8011D966A
:1059F0008C911D9783FF12C1D2962D913D914C91B0
:105A0000D4979096CD90DD90EC9092979F968D9143
:105A10009D91AC915527820F931FA41F20F453959D
:105A20008C199D09AE09F80187A790ABA1AB55234E
:105A300009F4F4C08E0129AD822F86958695877072
:105A4000982F947009F4BFC08AAD282F269526950B
:105A500026952F7030E0877090E082179307ACF1A5
:105A60000E94C00ECAAC2BAD3CAD882389F08C2DB2
:105A70008695869586958F70690102C0CC0CDD1CD9
:105A80008A95E2F70E94EA0EC82ADCAECBAE0FC0C0
:105A90008C2D8695869586958F7002C0220F331FB8
:105AA0008A95E2F7D801DC963C932E93DB97F801B8
:105AB00092AD892F869586958695885F8F70880F21
:105AC000880F880F9778982B92AF8E016AAD762F4A
:105AD0007770472F50E06695669566956F709A01CE
