:10000000EDC2000008C3000006C3000004C30000E6
:1000100002C3000000C30000FEC20000FCC20000DA
:10002000FAC20000F8C200000C94D1310C940B32DB
:10003000F2C20000F0C20000EEC20000ECC20000FC
:10004000EAC200000C940525E6C20000E4C20000EC
:10005000E2C200000C945D19DEC20000DCC20000A8
:10006000DAC200000C94551D0C940E1DD4C2000081
:10007000D2C20000D0C20000CEC20000CCC200003C
:100080000C94A80CC8C20000C6C20000C4C2000084
:10009000C2C20000C0C20000BEC20000BCC200005C
:1000A000BAC20000B8C20000B6C20000D403F00318
:1000B0000F043B045F047E049704BB04D404F304E0
:1000C000100529054D0565058405A805070E3A0E9E
:1000D000870EC20EDF0E3E0F840F970FBB0FE30F8C
:1000E0006A104110FF0FC31041102C102910261068
:1000F0000A1F371F611F981FC71FF41F1C204E20A7
:100100007620A020CD20F520282150217D21AB2173
:10011000463330300A4732380A004552524F523A7D
:10012000204E756D626572206F766572666C6F77B2
:100130002109004552524F523A20556E6B6E6F772F
:100140006E206F7220756E646566696E65642053FB
:100150007461746509004552524F523A2045585017
:100160004543545F4241534536345F343A20546F1F
:100170006F206D616E79204261736536342042795B
:1001800074657320284275666665722066756C6CAE
:100190002909004552524F523A2045585045435480
:1001A0005F4241534536345F343A20457870656389
:1001B0007465642061204241534536342063686190
:1001C00072616374657209004552524F523A20457C
:1001D00058504543545F4241534536345F333A20CB
:1001E000546F6F206D616E792042617365363420E3
:1001F000427974657320284275666665722066755B
:100200006C6C2909004552524F523A2045585045CE
:1002100043545F4241534536345F333A204578704A
:100220006563746564206120424153453634206320
:10023000686172616374657209004552524F523AA7
:10024000204558504543545F4241534536345F3250
:100250003A20546F6F206D616E792042617365366C
:100260003420427974657320284275666665722071
:1002700066756C6C2909004552524F523A20455818
:10028000504543545F4241534536345F323A20452E
:10029000787065637465642061204241534536344B
:1002A0002063686172616374657209004552524F40
:1002B000523A204558504543545F424153453634E5
:1002C0005F313A204578706563746564206120422F
:1002D0004153453634206368617261637465720905
:1002E000004552524F523A204558504543545F53AF
:1002F00055424449474954533A20457870656374E0
:100300006564205B302D395C775D09004552524FA2
:10031000523A204558504543545F414E4F5448454A
:100320005244494749543A2045787065637465647E
:10033000205B302D392E5C775D09004552524F52BB
:100340003A204558504543545F414E4F544845521A
:1003500044494749543A20546F6F206D616E7920AB
:100360006C656164696E67206469676974732109EB
:10037000004552524F523A2046495253545F444925
:100380004749543A204578706563746564205B3052
:100390002D395C775D09004552524F523A2045583D
:1003A000504543545F4E554D4245525F4F525F5347
:1003B00049474E3A2066696C656E616D6520616CD7
:1003C0007265616479207365743A20756E65787022
:1003D000656374656420636861726163746572202B
:1003E000666F756E6409004552524F523A20455867
:1003F000504543545F4C45545445523A20756E6500
:1004000078706563746564206368617261637465A4
:100410007220616E642066696C656E616D65206135
:100420006C726561647920736574210900464F52CE
:100430004D4154204552524F520A00726573656E09
:1004400064210A004F4B2025640A003A3A205630B6
:100450002E302E312D362D673962346134313620FD
:10046000287265666163746F7220617263206B65C8
:10047000726E656C2061206C6974746C6529203A19
:100480003A200053503A2578002564202564202521
:100490006420006C61736572204F4646004C4153E6
:1004A0004552204F4E202564005A3A256E202020C8
:1004B00020202020202020202000593A256E2020B6
:1004C0002020202020202020202000583A256E20A7
:1004D00020202020202020202020200025632051C3
:1004E000756575653A256420256E20005541525486
:1004F0005F52585F46554C4C0030313233343536FC
:1005000037383941424344454600010000C00512D6
:10051000000200007D05430003000079050401038B
:100520000904670510020309043D052803030904B3
:100530003305080803310033003700000028034664
:100540000072006500650043004E00430020004C2F
:100550000061007300650072006300750074007430
:1005600000650072000000100365002D005000754A
:10057000006E006B007400000004030904090243CC
:1005800000020100C032090400000102020100055E
:10059000240010010524010101042402060524069B
:1005A00000010705820310004009040100020A004F
:1005B0000000070503024000000705840240000018
:1005C0001201000202000010C0167A0400010102AC
:1005D00003010001C11201803601813611241FBEC2
:1005E000CFEFDAE0DEBFCDBF11E0A0E0B1E0EEE298
:1005F000FAE602C005900D92A431B107D9F718E0D0
:10060000A4E1B1E001C01D92AA36B107E1F70E9452
:1006100080110C945633F4CCEF92FF920F931F93FA
:100620000023E1F1161617061806190654F457FDB3
:1006300021C026173707480759070CF066C080E12C
:100640007FC0121613061406150684F47B018C0174
:1006500088279927DC018E199F09A00BB10B8217FF
:100660009307A407B507B4F482E16AC097FD55C0AB
:1006700057FF5CC07B018C0188279927DC018E190C
:100680009F09A00BB10B281739074A075B0724F411
:1006900086E156C083E154C087E152C016161706A2
:1006A000180619064CF457FD20C0261737074807CF
:1006B00059076CF588E144C0121613061406150696
:1006C00084F47B018C0188279927DC018E199F090E
:1006D000A00BB10B82179307A407B507D4F48AE1E6
:1006E0002FC097FD25C057FF21C07B018C018827B3
:1006F0009927DC018E199F09A00BB10B2817390728
:100700004A075B0744F48EE11BC081E119C089E10F
:1007100017C08BE115C08FE113C062177307840700
:10072000950714F484E10CC085E10AC08FEF08C07E
:10073000621773078407950714F48CE101C08DE1FB
:100740001F910F91FF90EF9008958F929F92AF921B
:10075000BF92CF92DF92EF92FF920F931F938091FF
:100760002C0190E0FC0170974091310150913201D1
:10077000609133017091340180912D0190912E018F
:10078000A0912F01B0913001E031F10508F00CC2C9
:10079000EA5AFF4F009128011091290120912A0166
:1007A00030912B010C94B334C0902001D0902101E2
:1007B000E0902201F0902301C41AD50AE60AF70A54
:1007C000E1E0C016D106E206F3060CF4E0E0E860D2
:1007D00084179507A607B7070CF4E7C121E1E1C12B
:1007E000C0902401D0902501E0902601F0902701CF
:1007F0004C015D018C189D08AE08BF08801691065B
:10080000A206B30614F0E0E001C0E8E0E1601416CF
:100810001506160617060CF4C8C122E1C2C1C09025
:100820002401D0902501E0902601F0902701C80E08
:10083000D91EEA1EFB1EF094E094D094C094C11C13
:10084000D11CE11CF11CC016D106E206F30614F41B
:10085000E0E001C0E4E0E160002711279801081BF7
:10086000190B2A0B3B0B04171507260737070CF447
:100870009CC123E196C1C0902001D0902101E0905D
:100880002201F0902301C40ED51EE61EF71EF0943F
:10089000E094D094C094C11CD11CE11CF11CE1E097
:1008A000C016D106E206F3060CF0E0E0E46018168C
:1008B00019061A061B060CF478C124E172C1C09017
:1008C0002001D0902101E0902201F09023014A0103
:1008D0005B018C189D08AE08BF0880169106A20621
:1008E000B30614F4E0E001C0E2E0E4604817590701
:1008F0006A077B070CF459C125E153C1C09024015C
:10090000D0902501E0902601F0902701C81AD90A5D
:10091000EA0AFB0AC016D106E206F30614F0E0E08C
:1009200001C0E4E0E26077FD40C126E13AC1C09039
:100930002401D0902501E0902601F0902701C80EF7
:10094000D91EEA1EFB1EC016D106E206F30614F4F9
:10095000E0E001C0E8E0E260002711279801081BF1
:10096000190B2A0B3B0B40175107620773070CF456
:100970001CC127E116C1C0902001D0902101E09058
:100980002201F0902301C40ED51EE61EF71EC016EC
:10099000D106E206F30614F0E0E001C0E2E0E86010
:1009A000B7FD03C120E1FDC0C0902001D09021011E
:1009B000E0902201F09023014A015B018C189D0810
:1009C000AE08BF0880169106A206B30614F0E0E058
:1009D00001C0E2E0E460181619061A061B060CF4C2
:1009E000E4C02FE1DEC0C0902401D0902501E0904A
:1009F0002601F0902701C81AD90AEA0AFB0AC01694
:100A0000D106E206F30614F4E0E001C0E4E0E2609F
:100A100084179507A607B7070CF0C7C028E1C1C027
:100A2000C0902401D0902501E0902601F09027018C
:100A3000C80ED91EEA1EFB1EC016D106E206F3063A
:100A400014F0E0E001C0E8E0E26077FDAEC029E12B
:100A5000A8C0C0902001D0902101E0902201F09028
:100A60002301C40ED51EE61EF71EC016D106E206EF
:100A7000F30614F4E0E001C0E2E0E860002711278B
:100A80009801081B190B2A0B3B0B041715072607A7
:100A900037070CF08AC02AE184C0C0902001D090B2
:100AA0002101E0902201F0902301C41AD50AE60A40
:100AB000F70AE1E0C016D106E206F3060CF0E0E02A
:100AC000E860B7FD72C02BE16CC0C0902401D090EB
:100AD0002501E0902601F09027014C015D018C1862
:100AE0009D08AE08BF0880169106A206B30614F44E
:100AF000E0E001C0E8E0E160481759076A077B07BA
:100B00000CF053C02CE14DC0C0902401D0902501C1
:100B1000E0902601F0902701C80ED91EEA1EFB1EA8
:100B2000F094E094D094C094C11CD11CE11CF11C41
:100B3000C016D106E206F30614F0E0E001C0E4E0DE
:100B4000E16014161506160617067CF12DE129C082
:100B5000C0902001D0902101E0902201F09023016B
:100B6000C40ED51EE61EF71EF094E094D094C094F7
:100B7000C11CD11CE11CF11CE1E0C016D106E2064B
:100B8000F3060CF4E0E0E460002711279801081B4D
:100B9000190B2A0B3B0B40175107620773072CF404
:100BA0002EE120932C0101C0E0E0E0FF3CC0C090AA
:100BB0002401D0902501E0902601F0902701460104
:100BC000570121E0821A9108A108B108009128017B
:100BD0001091290120912A0130912B01080D191D36
:100BE0002A1D3B1D009328011093290120932A01FF
:100BF00030932B0122E0C21AD108E108F108C0921B
:100C00002401D0922501E0922601F0922701415063
:100C10005109610971094093310150933201609388
:100C2000330170933401E1FF44C040913101509190
:100C3000320160913301709134014F5F5F4F6F4F0C
:100C40007F4F409331015093320160933301709391
:100C50003401409124015091250160912601709149
:100C600027018A019B010E5F1F4F2F4F3F4F0093BB
:100C700024011093250120932601309327018A0136
:100C80009B01009510952095309540912801509139
:100C9000290160912A0170912B01400F511F621FA1
:100CA000731F409328015093290160932A01709388
:100CB0002B01E2FF3AC00091200110912101209107
:100CC0002201309123016801790141E0C41AD10861
:100CD000E108F108409128015091290160912A0111
:100CE00070912B014C0D5D1D6E1D7F1D40932801E1
:100CF0005093290160932A0170932B01025011092E
:100D00002109310900932001109321012093220130
:100D1000309323010197A109B10980932D0190938C
:100D20002E01A0932F01B0933001E3FF43C08091C7
:100D30002D0190912E01A0912F01B09130010196CB
:100D4000A11DB11D80932D0190932E01A0932F0121
:100D5000B09330018091200190912101A091220156
:100D6000B0912301AC01BD014E5F5F4F6F4F7F4FCC
:100D7000409320015093210160932201709323013D
:100D8000AC01BD014095509560957095809128010A
:100D900090912901A0912A01B0912B01840F951FF8
:100DA000A61FB71F8093280190932901A0932A01C1
:100DB000B0932B0140913101509132016091330188
:100DC0007091340180912D0190912E01A0912F01FD
:100DD000B0913001FA0157FF04C0EE27FF27E41B52
:100DE000F50B9C0197FF04C022273327281B390BE2
:100DF0002E173F07C4F50091180110911901209199
:100E00001A0130911B01081719072A073B0709F03F
:100E100065C080911C0190911D01A0911E01B091AF
:100E20001F0184179507A607B70709F472C077FD5D
:100E30000BC0F1E0E0E014161506160617060CF0DC
:100E4000F0E02F2F3E2F02C02FEF3FEFB7FD41C044
:100E500051E040E0181619061A061B060CF050E087
:100E6000852F942F38C000911C0110911D012091F5
:100E70001E0130911F01041715072607370771F56A
:100E8000409118015091190160911A0170911B0154
:100E9000481759076A077B07E1F1B7FD0BC0F1E07E
:100EA000E0E0181619061A061B060CF0F0E02F2FCA
:100EB0003E2F02C02FEF3FEF77FD0BC0F1E0E0E0E7
:100EC00014161506160617060CF0F0E08F2F9E2F4D
:100ED00002C08FEF9FEF28173907E9F04091140106
:100EE00050911501609116017091170141505109FF
:100EF0006109710940931401509315016093160123
:100F00007093170181E0452B462B472B29F080E099
:100F100003C083E001C082E01F910F91FF90EF902A
:100F2000DF90CF90BF90AF909F908F9008954F9299
:100F30005F926F927F928F929F92AF92BF92CF9269
:100F4000DF92EF92FF920F93CF93DF9300D000D008
:100F5000CDB7DEB769837A838B839C83A02FC701CB
:100F60000C2D6C01EA2EFF24E7FCF094460157019A
:100F7000A42FC901BB27A7FDB0952C013D01A701F6
:100F80009601BC01CD0148DB80932C0140923101D8
:100F9000509232016092330170923401C0922D015F
:100FA000D0922E01E0922F01F0923001440C551C9A
:100FB000661C771C40922401509225016092260104
:100FC00070922701880C991CAA1CBB1C80922001DE
:100FD00090922101A0922201B0922301A6E0B0E0FC
:100FE00029813A814B815C810E94583360931401BE
:100FF0007093150180931601909317010F900F9035
:101000000F900F90DF91CF910F91FF90EF90DF90B5
:10101000CF90BF90AF909F908F907F906F905F9098
:101020004F9008952F923F924F925F926F928F92BE
:101030009F92AF92BF92CF92DF92EF92FF920F9367
:101040001F93CF93DF93CDB7DEB769970FB6F894B0
:10105000DEBF0FBECDBF6C877D878E879F872983BC
:101060003A834B832701602EAC8ABD8ACE8A2DA598
:101070003EA54FA52F8B388F498F18A9AC2DC501E0
:10108000BB27A7FDB095888B998BAA8BBB8B8093D0
:101090001C0190931D01A0931E01B0931F01A42F6A
:1010A000C901BB27A7FDB0954C015D0180931801D4
:1010B00090931901A0931A01B0931B01C12E2981AD
:1010C0003A814B816C857D858E859F8530DF898156
:1010D0009A81AB81BB27A7FDB0958C839D83AE839E
:1010E000BF83A62DC201BB27A7FDB095888799872E
:1010F000AA87BB87A5019401C501B4010E94623390
:101100004B015C01288539854A855B85CA01B90197
:101110000E9462336B017C012C813D814E815F8195
:10112000CA01B9010E946233C60ED71EE81EF91E1D
:101130008C189D08AE08BF08288939894A895B89BF
:10114000CA01B9010E946233860E971EA81EB91EFD
:101150008092280190922901A0922A01B0922B013D
:10116000F4DA8823E9F38091D3079091D407A09112
:10117000D5072C893D894E89820F931FA41F809328
:10118000C1079093C207A093C3078091D60790919F
:10119000D707A091D8072F89388D498D820F931FCB
:1011A000A41F8093C4079093C507A093C6072090FF
:1011B0005C013BE1239E10011124C101845F9B4F20
:1011C0001C018091140190911501A0911601A09528
:1011D000909581959F4FAF4FF10181839283A383B7
:1011E000C12E062D720129813A814B816C857D8546
:1011F0008E859F859CDE8092280190922901A09285
:101200002A01B0922B01D1011196CD90DD90EC9086
:10121000BFEFCB1ADB0AEB0A809114019091150104
:10122000A0911601C80ED91EEA1EF101C182D28218
:10123000E38229813A814B81248335834683478227
:101240005086618682869386A486B5862C853D85E8
:101250004E8526873787408B012F288539854A851B
:101260005B856C817D818E819F81D6D9F1018083E0
:1012700080917B0190917C01A0917D01B0917E01D4
:101280000097A105B10521F0382F292F8A2F1DC005
:1012900020916D0130916E0140916F018E2DB6014C
:1012A00090E050E00E94EC33EBE9AE2EF6E1BF2E69
:1012B000CC24C394D12CE12CF12C00E010E00E944E
:1012C000D433932F842F322F292FD10153963C935F
:1012D000539754962C93549755968C938091700104
:1012E00090917101A0917201F101868B978BA08F73
:1012F0009091780180917901918F828F69960FB6D4
:10130000F894DEBF0FBECDBFDF91CF911F910F913B
:10131000FF90EF90DF90CF90BF90AF909F908F9015
:101320006F905F904F903F902F900C94B61DAC0142
:10133000222788279927469F312D479F300D811DF1
:10134000921F569F300D811D921F579F800D911D3A
:10135000112408952F923F924F925F926F927F9245
:101360008F929F92AF92BF92CF92DF92EF92FF92B5
:101370000F931F93CF93DF93CDB7DEB766970FB66A
:10138000F894DEBF0FBECDBF2C833D834E835F83B9
:10139000688779878A879B87712C812C912C1E8A7C
:1013A0001B8A1C8AF0E0E0E4272D382D492D5E8948
:1013B0006B897C898F2F9E2FAC80BD80CE80DF8093
:1013C000E884F9840A851B850E94E934A9F0A0F01D
:1013D000272D382D492D5E896B897C898F2F9E2F73
:1013E00002E00E94BB34722E832E942E5E8B6B8B98
:1013F0007C8BF82FE92FD8CF612C512C212C312C4C
:10140000B0E01A821B82412C272D382D492D5E8990
:101410006B897C898F2F9E2FA0E00E94F23409F403
:1014200070C0272D382D492D5E896B897C898F2FBF
:101430009E2FA62CB52C6101EB2EFA800B81142D6A
:101440000E94D7342D8BA32F4D875E876F87788BB3
:10145000898B9A8B2C813D814E815F81688579854E
:101460008A859B85AD88BA2ECD84DE84EF84F8888A
:1014700009891A890E94E934F8F00E94E0342C832B
:101480003D834E835F83688779878A879B87262D74
:10149000352DA1016B2F7A818B81942D01E00E9463
:1014A000BB34A72CB82CC92CDE88EB88FC880F2F06
:1014B0001E2F0E94D7340AC0262D352DA1016B2F77
:1014C0007A818B81942D01E00E94BB34622E532ED1
:1014D0001A01B62F7A838B83492E272D382D492D5B
:1014E0005E896B897C898F2F9E2F02E00E94BB341E
:1014F000722E832E942E5E8B6B8B7C8BF82FE92FB4
:1015000083CF662D752DC10166960FB6F894DEBFA8
:101510000FBECDBFDF91CF911F910F91FF90EF9044
:10152000DF90CF90BF90AF909F908F907F906F9003
:101530005F904F903F902F9008954F925F926F92DF
:101540007F928F929F92AF92BF92CF92DF92EF9253
:10155000FF920F931F93CF93DF934B015C016901BF
:101560007A01A50194010E94DF3329013A01D62FA7
:10157000C72F4C01C701B601A70196010E94DF33B6
:1015800059016A017B018C019201A3016D2F7C2F0F
:10159000C4010E94D734DF91CF911F910F91FF902A
:1015A000EF90DF90CF90BF90AF909F908F907F9003
:1015B0006F905F904F90CECE109235011092360111
:1015C0000895209136019091350181E0291380E042
:1015D0000895F7DF91E0811190E0892F089520911F
:1015E00036014091350130E02F5F3F4F2F73332795
:1015F00050E081E02417350709F080E00895EFDF1F
:10160000882319F082E41AD6FACF809136018F5FD1
:101610008F73809336010895809135018F5F8F73AA
:10162000809335010895CF93DF931F92CDB7DEB736
:10163000C8DF882319F082E601D6FACFE0913501A0
:10164000F0E0E158FE4F80818983E6DF89810F90C9
:10165000DF91CF910895E0913601F0E0E158FE4F1F
:101660008083CDCF82B7806182BFE1ECF0E0108251
:1016700082E08093C00098E09093C2008093C30002
:1016800080E48093C40083E08093BF008FEB80935D
:10169000D100109272001092BF001092BE0081E043
:1016A000808308951092900088E0809391001092BA
:1016B000950010929400E1E7F0E0808182608083E1
:1016C0000895611571058105910511F488E05DC0EB
:1016D000611520E172078105910558F4E4E0660F79
:1016E000771FEA95E1F7709399006093980089E07D
:1016F0004CC0611520E872078105910540F4660F22
:10170000771F70939900609398008AE03EC061153E
:10171000710524E08207910578F4DC01CB0142E0F9
:10172000B695A795979587954A95D1F79093990087
:10173000809398008BE029C06115710520E1820734
:10174000910578F4DC01CB0134E0B695A795979527
:1017500087953A95D1F790939900809398008CE003
:1017600014C06115710520E482079105C8F4DC01FD
:10177000CB0126E0B695A795979587952A95D1F741
:1017800090939900809398008DE08093910010923F
:101790003701109238011092390110923A010895E0
:1017A00060E070EA8FE090E0CDCFCF92DF92EF92D1
:1017B000FF920F931F932FB7F894C0906101D090C0
:1017C0006201E0906301F090640110926101109257
:1017D000620110926301109264012FBF2091650194
:1017E00030916601C20ED31EE11CF11CC60ED71E3D
:1017F000E81EF91E40E050E0BA0118EEC11613E0F1
:10180000D106E104F10458F008EEC01A03E0D00A52
:10181000E108F1084F5F5F4F6F4F7F4FEECFD092DF
:101820006601C092650180916701909168018A010B
:101830009B01080F191F211D311DD901C8014091BD
:10184000690150916A0160916B0170916C018A018C
:101850009B010F5F1F4F2F4F3F4F8036EAEE9E07D1
:10186000A105B10538F080569A4EA109B109B90118
:10187000A801EDCF4093690150936A0160936B0119
:1018800070936C0190936801809367011F910F9191
:10189000FF90EF90DF90CF9008950F931F93182F34
:1018A00090917A01882379F191110AC00E94201940
:1018B0006093730170937401809375019093760126
:1018C00081E080937A015E9A1F3F21F48091C400E9
:1018D0008F7E16C0812F90E0382F22276EE777E0A9
:1018E000822B932B24DD803827E0920710F08FE7BE
:1018F00097E09093BF008093CF008091C4008061F7
:101900008093C40022C05E988091C4008F7E809333
:10191000C4009923D1F010927A010E9420190091FD
:101920007301109174012091750130917601601B53
:10193000710B820B930B39DF80919100887F80932C
:10194000910010929500109294001F910F910895AC
:101950001F920F920FB60F9211242F933F934F9324
:101960005F936F937F938F939F93AF93BF93EF9307
:10197000FF932DB73EB78091000190910101281788
:10198000390730F48DB79EB7909301018093000121
:1019900080917A01882379F0609137017091380144
:1019A0008091390190913A01611571058105910588
:1019B00011F087DE07C080919100887F80939100AD
:1019C00080E06BDFFF91EF91BF91AF919F918F917D
:1019D0007F916F915F914F913F912F910F900FBE2B
:1019E0000F901F9018955E98569A3CDE5BDEE8E7F4
:1019F000F1E084E68083218181E090E0A0E08093A3
:101A00006D0190936E01A0936F0188EE93E0A0E0CA
:101A10008093700190937101A093720110927A01EA
:101A2000207E21831092730110927401109275012F
:101A30001092760110927B0110927C0110927D0130
:101A400010927E0186E59AEE90936801809367017B
:101A500080E023CF883048F48770880F880F9091FA
:101A60007901937E982B909379010895883048F4FA
:101A70008295880F807E909179019F71982B909329
:101A80007901089560936D0170936E0180936F01E9
:101A900008956093700170937101809372010895AD
:101AA000893E23E0920748F48093780193708091F7
:101AB00079018C7F892B8093790108958093770138
:101AC00008959FEB980F9A31C0F09FE9980F9A31D3
:101AD00010F48754089590ED980F9A3010F48C5FAD
:101AE00008958B3261F08D3251F08F3211F08F35C5
:101AF00011F48FE308958FEF0895892F08958EE3F1
:101B00000895CF92DF92EF92FF92CF93DF93282F29
:101B100081E0203209F45DC0293009F45AC080E028
:101B20002D3009F430C32A3009F04AC080913C01BD
:101B3000882399F00E949E1D882379F0C0E080914F
:101B40003C01C81740F4EC2FF0E0EA53FE4F8081CF
:101B500082DDCF5FF4CF10923C01809140018A502A
:101B60008230E0F410923C011092050210920602BD
:101B700010920702109208021092C0011092C10147
:101B80001092C2011092C3011092C4011092C501BB
:101B90001092BF011092400181E0F6C2C9D7809136
:101BA0003C018823F9F2C0E080913C01C817D0F6CF
:101BB000EC2FF0E0EA53FE4F80814DDDCF5FF4CF94
:101BC0002A3239F4809140018A3011F08EE022C22D
:101BD00080E030ED320F91E03A3008F090E0409133
:101BE00040014E3009F40FC25091BF01511105C0A0
:101BF0005091C40152275093C40150E04231510525
:101C000008F03FC2FA01EA59FF4F0C94B334109226
:101C1000050210920602109207021092080210921A
:101C2000C0011092C1011092C2011092C30198E646
:101C3000E9E1F2E0DF01392F1D923A95E9F7E1E899
:101C4000F2E0DF011D929A95E9F79FE3E6ECF1E0FF
:101C5000DF011D929A95E9F790E1E9E0F2E0DF01FA
:101C60001D929A95E9F710923B0110923C0191E088
:101C7000909340019FEB920F9A3118F59093450194
:101C800041E050E060E070E004C0440F551F661F63
:101C9000771F9A95D2F78091050290910602A09144
:101CA0000702B0910802842B952BA62BB72B8093AB
:101CB000050290930602A0930702B093080282E007
:101CC000A9C1811160C22B3309F49FC1283209F4E4
:101CD000A0C1243211F486E09DC1273211F480E1C5
:101CE00099C1223211F481E195C180913B018111AA
:101CF0000BC08FE08093400181E080933B012093F3
:101D0000090210920A023FC287EE93E0DAC18823EB
:101D100011F081E07FC191111BC02B32C9F02D322F
:101D2000B9F080913B01882319F087E993E0C9C19C
:101D30008FE080934001809145018F5B8093090281
:101D400082E080933B0120930A0210920B021BC297
:101D500083E0809340011092410110924201109261
:101D600043011092440110923E0110923D012D3228
:101D700021F481E080933F0106C210923F012B3293
:101D800019F401C28111C5CF911103C081E793E01D
:101D900098C1822F90E0C097AA2797FDA095BA2FEF
:101DA0008093410190934201A0934301B093440179
:101DB00080913E018F5F80933E0184E059C099235A
:101DC00009F437C020913E012A3018F08BE393E0EC
:101DD00078C18091410190914201A0914301B0915D
:101DE0004401880F991FAA1FBB1FBF93AF939F93F6
:101DF0008F93880F991FAA1FBB1F880F991FAA1FB7
:101E0000BB1F0F90800D0F90901D0F90A01D0F9085
:101E1000B01D830F911DA11DB11D809341019093B1
:101E20004201A0934301B09344012F5F20933E01F0
:101E30002BC12E3211F485E01BC0882311F081E004
:101E400017C02A3211F48EE013C02B3311F48DE049
:101E50000FC0283211F48CE00BC0243211F486E05C
:101E600007C0273211F480E103C0223221F481E15E
:101E70008093400109C18CE093E023C1992309F4C8
:101E80003EC020913D01233008F07DC140913E01CC
:101E9000822F90E0840F911D0A970CF074C18091FD
:101EA000410190914201A0914301B0914401880FFA
:101EB000991FAA1FBB1FBF93AF939F938F93880F48
:101EC000991FAA1FBB1F880F991FAA1FBB1F0F9026
:101ED000800D0F90901D0F90A01D0F90B01D830FCF
:101EE000911DA11DB11D8093410190934201A093CA
:101EF0004301B09344012F5F20933D01C5C0811180
:101F000008CF81EE92E0DDC0811103CF822FD9DDB1
:101F1000803418F08CEA92E0D4C0E0913C01F0E00B
:101F2000EA53FE4F880F880F808387E073C0822FAB
:101F3000C8DD803418F087E792E0C3C0E0913C012F
:101F400091E09E0F90933C01F0E0EA53FE4F282F62
:101F500022952F703081232B20839F3318F08AE342
:101F600092E0AFC0E92FF0E0EA53FE4F8295807F08
:101F7000808388E04FC02D3321F1822FA2DD803491
:101F800018F085E092E09DC0E0913C0191E09E0F49
:101F900090933C01F0E0EA53FE4F282F26952695BA
:101FA0003081232B20839F3318F088EC91E089C087
:101FB000E92FF0E0EA53FE4F8295880F880F807C6E
:101FC000808389E027C02D3309F485CE822F79DD07
:101FD000803418F083E991E074C0E0913C0121E085
:101FE0002E0F20933C01F0E0EA53FE4F9081982B96
:101FF00090832F3308F46FCE86E591E062C02932DA
:1020000009F0C1C086CE2B3311F48DE003C0283215
:1020100021F48CE080934001B6C0992321F0909187
:10202000C5019A3120F08AE08093400153C080912D
:10203000BF018F5F8093BF01990F892F880F880F91
:10204000890F8053820F8093C5019DC0223231F4E5
:1020500060CE273219F45DCE81115BCE80913B01B9
:1020600031E0380FE82FF0E0E75FFD4F2083E32FEA
:10207000F0E0E75FFD4F108230933B01303150F5C7
:1020800082C083E391E01DC06091410170914201E3
:102090008091430190914401C0913D0107C0AAE0A5
:1020A000B0E09B01AC010E945833CF5FC330A0F475
:1020B0006A39B9E97B078B07B9E19B0784F38AE1A9
:1020C00091E09F938F930E9495318AE08093400125
:1020D0000F900F9083E058C02AE0C22ED12CE12C43
:1020E000F12CC33061F06B5F7F4F8F4F9F4FA70183
:1020F00096010E949333CA01B901C150F2CF2091D9
:102100003F01222339F090958095709561957F4F1E
:102110008F4F9F4FF090450144E0F49E90011124B1
:10212000F901E75EFD4F6083718382839383E90148
:10213000CF57DD4F28EE33E040E050E00E9493336C
:10214000288339834A835B8341E050E060E070E09C
:1021500004C0440F551F661F771FFA94D2F7809171
:10216000C0019091C101A091C201B091C301842B23
:10217000952BA62BB72B8093C0019093C101A09300
:10218000C201B093C30180E0DF91CF91FF90EF9047
:10219000DF90CF900895CF93DF9310924001E0E15C
:1021A000F1E08491EF012196882319F0AADCFE0169
:1021B000F8CFDF91CF910895E1E6F0E080E88083E9
:1021C0001082559A209A5D9A289A269A2E98279AD4
:1021D0002F9880988898249A2C98259A2D9A8198DF
:1021E00089983F9A47983E9A4698569A5E98539A8D
:1021F00052985A9A0E9432190E94B83160E071EEEA
:1022000080E090E00E94B31CEEDB0E94FA1B0E946B
:102210004C2A0E94D9297894BECF80916101909177
:102220006201A0916301B0916401892B8A2B8B2BF1
:1022300021F060E070E0CB01B8CA0895CF93DF933E
:102240001F92CDB7DEB74DB75EB720910001309138
:1022500001014217530730F42DB73EB73093010107
:10226000209300019091E90293FF08C09091E90248
:10227000977F9093E9028983D0DF89819091E90269
:1022800092FF0BC09091E9029B7F9093E9024D9AD7
:102290000F90DF91CF910C94151B0F90DF91CF9190
:1022A00008950E94F91C882349F10E94E91C28988E
:1022B00028DC8230B9F08330C1F08130F1F40E9423
:1022C000CB1D2FE130E0281B31093F932F9384E48D
:1022D00094E09F938F930E9495310F900F900F90F1
:1022E0000F900BC08BE394E002C08DE294E09F93CB
:1022F0008F930E9495310F900F90289A8CE49ECF77
:102300005BDFCFDFFECF60E082E00E943B2A89E006
:1023100091E09F938F930E94A431F89480E0BDDAFE
:1023200080E098DB2FEF83E294EF215080409040D3
:10233000E1F700C000000C9400000F900F9008958A
:1023400059982F7061112064411120628111206120
:1023500088E05C9820FF02C0589A01C058985C9AA7
:1023600026958150B1F7599A5C9859980895CF9362
:10237000C82FCF702C2F40E060E080E0E1DF2C2FF1
:1023800040E060E081E0DCDF2C2F40E060E080E0B6
:10239000CF91D6CF5998519A5898509A5C98549AA0
:1023A00020E040E060E080E0CBCFCF93C82F829563
:1023B0008F70DDDF8C2FDBDF87EC90E00197F1F78A
:1023C00000C00000CF910895CF93DF93C82FD82F7E
:1023D000D295DF702D2F40E061E080E0B1DF2D2F3E
:1023E00040E061E081E0ACDF2D2F40E061E080E083
:1023F000A7DFCF702C2F40E061E080E0A1DF2C2F21
:1024000040E061E081E09CDF2C2F40E061E080E073
:1024100097DF87EC90E00197F1F700C00000DF91B3
:10242000CF9108950F931F938091C0019091C101A6
:10243000A091C201B091C301A7FF2DC04091F60742
:102440000091750210917602209177023091780206
:10245000411104C04091F5074423A9F04091DD07E4
:102460005091DE076091DF077091E007400F511F28
:10247000621F731F4093DD075093DE076093DF07F1
:102480007093E00708C00093DD071093DE072093E8
:10249000DF073093E007B0FF2DC04091F7070091B0
:1024A000790210917A0220917B0230917C024111D5
:1024B00004C04091F5074423A9F04091E1075091F1
:1024C000E2076091E3077091E407400F511F621F1C
:1024D000731F4093E1075093E2076093E307709303
:1024E000E40708C00093E1071093E2072093E30795
:1024F0003093E407B1FF2DC08091F80740917D0231
:1025000050917E0260917F0270918002811104C01F
:102510008091F5078823A9F08091E5079091E6075F
:10252000A091E707B091E807840F951FA61FB71F7A
:102530008093E5079093E607A093E707B093E80739
:1025400008C04093E5075093E6076093E707709350
:10255000E8076091DD077091DE078091DF079091B9
:10256000E007E7D76093CA077093CB078093CC0747
:102570006091E1077091E2078091E3079091E40791
:10258000FED76093CD077093CE078093CF076091FD
:10259000E5077091E6078091E7079091E8070E94B0
:1025A000E51A6093D0077093D1078093D2071F91EB
:1025B0000F9108952F923F924F925F926F927F9268
:1025C0008F929F92AF92BF92CF92DF92EF92FF9243
:1025D0000F931F93CF93DF93CDB7DEB761970FB6FD
:1025E000F894DEBF0FBECDBF8D878091DD0790913F
:1025F000DE07A091DF07B091E0078093E907909391
:10260000EA07A093EB07B093EC078091E107909164
:10261000E207A091E307B091E4078093ED07909360
:10262000EE07A093EF07B093F007FCDE8091C001A6
:102630009091C101A091C201B091C3018C019D0193
:10264000002713702270332701151105210531056C
:1026500011F480E08CC190FF1CC04091E9075091BB
:10266000EA076091EB077091EC07C0903902D090B7
:102670003A02E0903B02F0903C024C0D5D1D6E1D55
:102680007F1D4093E9075093EA076093EB0770932F
:10269000EC0791FF1CC08091ED079091EE07A0918F
:1026A000EF07B091F00740913D0250913E026091DA
:1026B0003F0270914002840F951FA61FB71F8093A1
:1026C000ED079093EE07A093EF07B093F007011585
:1026D00011052240310509F02BC180915D029091D6
:1026E0005E02A0915F02B09160028D839E83AF83F2
:1026F000B8872091DD073091DE074091DF075091C8
:10270000E0078091E9079091EA07A091EB07B0916B
:10271000EC07281B390B4A0B5B0B29833A834B834D
:102720005C834090E1075090E2076090E30770906F
:10273000E4078091ED079091EE07A091EF07B0912B
:10274000F007481A590A6A0A7B0AA30192016981B3
:102750007A818B819C810E949D0A69877A878B8709
:102760009C876D817E818F8198859B01AC010E9441
:10277000DF332E873F871A014B01898B988B698540
:102780007A858B859C859B01AC010E94DF3302E03A
:102790000E94BB3459016A017B018C012E853F8563
:1027A000A101B401898998890E94E0340E94AA0994
:1027B0006B017C0197FD4DCFA30192010E94623312
:1027C00029853A854B855C850E94933349015A01DE
:1027D0002093E9073093EA074093EB075093EC0707
:1027E00029813A814B815C815095409530952195A6
:1027F0003F4F4F4F5F4FC701B6010E94623329859B
:102800003A854B855C850E9493332093ED07309386
:10281000EE074093EF075093F0078D85882351F022
:102820008D819E81AF81B885181619061A061B0680
:102830003CF025C08D819E81AF81B885B7FF1FC058
:10284000B094A09490948094811C911CA11CB11C04
:102850008092E9079092EA07A092EB07B092EC070A
:1028600088279927DC01821B930BA40BB50B80935F
:10287000ED079093EE07A093EF07B093F0076091F8
:10288000DD077091DE078091DF079091E007660F0A
:10289000771F881F991F29813A814B815C81621BB8
:1028A000730B840B950B32E0C32ED12CE12CF12C51
:1028B000A70196010E9493338091E9079091EA075E
:1028C000A091EB07B091EC07820F931FA41FB51FD7
:1028D0008093E9079093EA07A093EB07B093EC0786
:1028E0006091E1077091E2078091E3079091E4071E
:1028F000660F771F881F991F641975098609970944
:10290000A70196010E9493338091ED079091EE0705
:10291000A091EF07B091F007820F931FA41FB51F7E
:102920008093ED079093EE07A093EF07B093F00725
:102930006091E9077091EA078091EB079091EC07AD
:10294000F8D56093D3077093D4078093D50760912F
:10295000ED077091EE078091EF079091F0070FD689
:102960006093D6077093D7078093D80781E061966C
:102970000FB6F894DEBF0FBECDBFDF91CF911F9190
:102980000F91FF90EF90DF90CF90BF90AF909F900E
:102990008F907F906F905F904F903F902F90089511
:1029A0008091C0019091C101A091C201B091C30179
:1029B000A2FF21C060916102709162028091630266
:1029C0009091640224E630E040E050E00E949333AE
:1029D00057FF03C020E030E0A901293E83E038071B
:1029E0004105510524F028EE33E040E050E0C901F4
:1029F00057D881E02FD88091C0019091C101A0915A
:102A0000C201B091C30193FF14C06091450270915F
:102A10004602809147029091480297FF07C0909527
:102A20008095709561957F4F8F4F9F4F32D882E090
:102A300011D88091C0019091C101A091C201B091C3
:102A4000C30197FF0CC060915502709156028091AE
:102A500057029091580216D882E00E942A0D809168
:102A6000C00182FF3EC0809179018695869587706E
:102A700084600E942A0D8091890290918A02A0911F
:102A80008B02B0918C0283309105A105B105F1F064
:102A90005CF481309105A105B105B1F00297A10563
:102AA000B105E1F481E013C086309105A105B105BF
:102AB00089F088309105A105B10571F00497A10551
:102AC000B10561F483E003C080E001C082E00E94B0
:102AD000360D07C085E0FBCF87E0F9CF80E00E948C
:102AE0002A0D8091C00181FF04C0809185020E945F
:102AF0002A0D8091C0019091C101A091C201B091B5
:102B0000C301A0FF09C08091C1029091C202A091AF
:102B1000C302B091C40203C080E090E0DC01809366
:102B20007B0190937C01A0937D01B0937E01089579
:102B30008F929F92AF92BF92CF92DF92EF92FF92CD
:102B4000CF93DF93C090C001D090C101E090C2014B
:102B5000F090C301C5FE4EC080912D0290912E02CF
:102B6000A0912F02B0913002181619061A061B0602
:102B70000CF040C0BC01CD01625E7F4F8F4F9F4F74
:102B80002CE330E040E050E00E949333DA01C901C9
:102B9000883823E19207A105B10524F488E893E180
:102BA000A0E0B0E0D82FC92FFA2FEB2F4C015D0128
:102BB000BB0C8808982C54019C01AD01682D782D20
:102BC000882D982D28373A484140510561057105F7
:102BD0008105910529F024F0D8E7CAE8F1E0E0E0AA
:102BE0009E01CF013093F107C093F2079093F30752
:102BF000E093F407C6FE4DC28091990290919A022B
:102C0000A0919B02B0919C02AC01BD014427452BD1
:102C1000462B472B09F000C3843009F44BC040F425
:102C20008130D1F0B8F08230D1F0833041F1F4C27C
:102C30008A3509F4B7C138F4873009F4A3C08C3160
:102C400009F412C1E9C28B3509F4AFC18C3509F41E
:102C5000B0C1E2C2E7DB7CC2E5DBA2DEF1C080E00E
:102C6000A9DC882309F474C29BDE6091F10770919E
:102C7000F2078091F3079091F40740E00FC081E0E4
:102C800099DC882309F464C28BDE6091F1077091AE
:102C9000F2078091F3079091F40741E0DF91CF9123
:102CA000FF90EF90DF90CF90BF90AF909F908F906C
:102CB0000C942F2DD7FE10C08091BD029091BE02C2
:102CC000A091BF02B091C0028093F9079093FA07D8
:102CD000A093FB07B093FC07E2FE1CC08091F907AC
:102CE0009091FA07A091FB07B091FC074091610217
:102CF000509162026091630270916402840F951F8B
:102D0000A61FB71F8093F9079093FA07A093FB07BC
:102D1000B093FC070E94A9290E94E90A882319F0B0
:102D20000E940C0BF9CF83D26B017C018091F907D3
:102D30009091FA07A091FB07B091FC07892B8A2B91
:102D40008B2B09F469C284E479DA71D2C616D706EE
:102D5000E806F90659F36BD26B017C018091F90703
:102D60009091FA07A091FB07B091FC070197A10988
:102D7000B1098093F9079093FA07A093FB07B093EA
:102D8000FC07D4CF80913C0181111BC08091C00110
:102D90009091C101A091C201B091C301A0FF2EC0CA
:102DA0008091C1029091C202A091C302B091C4026D
:102DB00080937B0190937C01A0937D01B0937E0171
:102DC0001DC0482F50E060E070E040937B015093BD
:102DD0007C0160937D0170937E0190E00E945E0D06
:102DE000C0E080913C01C81788F6EC2FF0E0EA5370
:102DF000FE4F80810E942B0BCF5FF3CF2091F10714
:102E00003091F2074091F3075091F40760E472E4C7
:102E10008FE090E00E949333C0906D01D0906E01DE
:102E2000E0906F01F12CCA01B901A70196010E943F
:102E30009333CA01B9010E94490D85E00E942A0D11
:102E40006091F1077091F2078091F3079091F40778
:102E5000DF91CF91FF90EF90DF90CF90BF90AF9038
:102E60009F908F900C94B22B88E4E8D98091050252
:102E700090910602A0910702B0910802AC01BD0139
:102E80004427552760787370452B462B472B89F0D4
:102E9000AC01BD0127E176956795579547952A9531
:102EA000D1F7242F2170B0FD2260B1FF03C0246050
:102EB00001C027E0C22FCB7F09F472C020FF1FC0E2
:102EC0004091C0015091C1016091C2017091C30154
:102ED00067FF09C0409175025091760260917702B8
:102EE0007091780204C048ED5CED6FEF7FEF409386
:102EF000DD075093DE076093DF077093E00721FF43
:102F00001FC04091C0015091C1016091C2017091F8
:102F1000C30170FF09C04091790250917A0260911B
:102F20007B0270917C0204C048E65DEA63E070E0D9
:102F30004093E1075093E2076093E3077093E4073F
:102F40006091DD077091DE078091DF079091E007C7
:102F5000F0D26093CA077093CB078093CC0760913F
:102F6000E1077091E2078091E3079091E40707D3AE
:102F70006093CD077093CE078093CF076091E507EC
:102F80007091E6078091E7079091E8071ED3609360
:102F9000D0077093D1078093D2078C2F0E943E2ECA
:102FA0000E94A9291092F50737C181E08093F507A7
:102FB00033C1E7FE10C08091750290917602A09116
:102FC0007702B09178028093DD079093DE07A0939B
:102FD000DF07B093E007F0FE10C080917902909176
:102FE0007A02A0917B02B0917C028093E1079093DA
:102FF000E207A093E307B093E407F1FE10C08091CD
:103000007D0290917E02A0917F02B0918002809318
:10301000E5079093E607A093E707B093E807609170
:10302000DD077091DE078091DF079091E00781D284
:103030006093CA077093CB078093CC076091E10738
:103040007091E2078091E3079091E40798D2609332
:10305000CD077093CE078093CF076091E5077091FD
:10306000E6078091E7079091E807AFD26093D00719
:103070007093D1078093D20780E0DF91CF91FF90CA
:10308000EF90DF90CF90BF90AF909F908F900C9477
:103090003E2ED4FE88C08091B1029091B202A091E0
:1030A000B302B091B402AC01BD0144275527452BB2
:1030B000462B472B09F077C08330910509F440C0B7
:1030C00028F4009779F1029769F1A6C0803921E0D0
:1030D000920709F451C0893822E0920709F458C0D8
:1030E000059709F099C0C0917901C695C695C7703A
:1030F00080E00E942A0D6091F1077091F2078091A3
:10310000F3079091F4070E94542A8C2FDF91CF91FE
:10311000FF90EF90DF90CF90BF90AF909F908F90F7
:103120000C942A0D80E00E942A0D6091F1077091A5
:10313000F2078091F3079091F4070E94542A1CC073
:103140002FDC809179018C7119F481E00E942A0DA5
:103150006091F1077091F2078091F3079091F40765
:10316000DF91CF91FF90EF90DF90CF90BF90AF9025
:103170009F908F900C94542ADF91CF91FF90EF9005
:10318000DF90CF90BF90AF909F908F900C94A92923
:10319000DF91CF91FF90EF90DF90CF90BF90AF90F5
:1031A0009F908F90FDCBE3FC37C0809105029091FA
:1031B0000602A0910702B0910802009720E2A20740
:1031C000B10569F4CD28CE28CF2831F58BE494E001
:1031D0009F938F930E9495310F900F901DC0811582
:1031E0009048A105B105C1F4CD28CE28CF28A1F47F
:1031F0000E94A9298FEF0E944D0C8091700190913F
:103200007101A0917201BC018A2F90E00E94610BB4
:1032100080917A018111FFCFDF91CF91FF90EF90E4
:10322000DF90CF90BF90AF909F908F900895609166
:103230004D0170914E0180914F0190915001089580
:103240003FB7F89426B526956091520170915301CD
:1032500080915401909155013FBF620F711D811DF6
:10326000911D089510925201109253011092540131
:10327000109255011092510110924D0110924E0181
:1032800010924F011092500182E084BD85BD99EFEC
:1032900097BD16BC80936E008AE080934C018093AA
:1032A0004B0180934A018093490196E09093480135
:1032B000809347019093460108951F920F920FB695
:1032C0000F9211242F933F938F939F93AF93BF93AC
:1032D0002DB73EB780910001909101012817390761
:1032E00030F48DB79EB790930101809300018091D7
:1032F000520190915301A0915401B091550183580E
:103300009F4FAF4FBF4F8093520190935301A093B3
:103310005401B0935501809151018F5F8093510109
:10332000883008F481C08091510188508093510108
:1033300080914D0190914E01A0914F01B0915001AB
:103340000196A11DB11D80934D0190934E01A09354
:103350004F01B09350018091E90281608093E902AE
:1033600080914C01815080934C0181115DC080910E
:10337000E90282608093E9028AE080934C01909197
:103380004B01915090934B0191114EC09091E902E5
:1033900094609093E90280934B0190914A0191507F
:1033A00090934A01911140C09091E90298609093E6
:1033B000E90280934A01909149019150909349010B
:1033C000911132C09091E90290619093E90280934B
:1033D000490190914801915090934801911124C066
:1033E0009091E90290629093E90226E020934801CF
:1033F00090914701915090934701911115C0909180
:10340000E90290649093E90280934701809146011C
:10341000815080934601811107C08091E902806844
:103420008093E90220934601BF91AF919F918F91C4
:103430003F912F910F900FBE0F901F901895AF9254
:10344000BF92CF92DF92EF92FF920F931F93992733
:1034500087FD909520E432E44FE050E00E94DF3396
:10346000E4E7AE2EF5E3BF2ECC24C394D12CE12C9F
:10347000F12C00E010E00E94A933B901CA011F91AC
:103480000F91FF90EF90DF90CF90BF90AF90089595
:10349000AF92BF92CF92DF92EF92FF920F931F9362
:1034A000992787FD909520E432E44FE050E00E9498
:1034B000DF33E4E7AE2EF5E3BF2ECC24C394D12C4A
:1034C000E12CF12C00E010E00E94A933B901CA01FF
:1034D0001F910F91FF90EF90DF90CF90BF90AF9032
:1034E0000895AF92BF92CF92DF92EF92FF920F9327
:1034F0001F93992787FD909520E432E44FE050E038
:103500000E94DF33A12CE5E3BE2EFCE0CF2ED12CB0
:10351000E12CF12C00E010E00E94A933B901CA01AE
:103520001F910F91FF90EF90DF90CF90BF90AF90E1
:103530000895AF92BF92CF92DF92EF92FF920F93D6
:103540001F9324E735E341E050E00E94DF33E0E4DD
:10355000AE2EF2E4BF2EAFE0CA2ED12CE12CF12C1E
:1035600000E010E00E94A933B901842F1F910F9150
:10357000FF90EF90DF90CF90BF90AF900895AF9203
:10358000BF92CF92DF92EF92FF920F931F9324E7A7
:1035900035E341E050E00E94DF33E0E4AE2EF2E498
:1035A000BF2EAFE0CA2ED12CE12CF12C00E010E0B0
:1035B0000E94A933B901842F1F910F91FF90EF90C2
:1035C000DF90CF90BF90AF900895AF92BF92CF920F
:1035D000DF92EF92FF920F931F9320E035E34CE0D0
:1035E00050E00E94DF33E0E4AE2EF2E4BF2EAFE005
:1035F000CA2ED12CE12CF12C00E010E00E94A9335E
:10360000B901842F1F910F91FF90EF90DF90CF9021
:10361000BF90AF90089581E00E94D5118FE59DE69F
:103620000197F1F700C0000008950F931F93CF9307
:10363000DF9300D01F92CDB7DEB7182F60E080E097
:103640000E943B2AF4DD082F69837A839B83A3D2EF
:103650009B819F930F937A817F9369816F931F92D0
:103660008F931F921F938CED94E09F938F930E94F2
:10367000A43180E00E94BB29E2DE162F082F60E013
:1036800081E07A839B830E943B2A9B819F930F93C7
:103690007A817F931F938BEC94E09F938F930E948A
:1036A000A43181E00E94BB29F3DE162F082F60E0D1
:1036B00082E07A839B830E943B2A9B819F930F9396
:1036C0007A817F931F938AEB94E09F938F930E945C
:1036D000A43182E00E94BB2904DF162F082F60E08E
:1036E00083E07A839B830E943B2A9B819F930F9365
:1036F0007A817F931F9389EA94E09F938F930E942E
:10370000A4318091BD078C710FB6F894DEBF0FBE57
:10371000CDBF6AE0A9F081E00E943B2A8091BD07FD
:103720008695869587701F928F938DE994E09F937D
:103730008F930E94A4310F900F900F900F900BC0A9
:1037400081E00E943B2A83E994E09F938F930E943B
:10375000A4310F900F906AE082E00E943B2A909182
:10376000BC078091BD0783708F939F938091BE07A4
:10377000877090E001969F938F938091BD07869507
:10378000869587701F928F9389E894E09F938F931B
:103790000E94A4312DB73EB70FB6F894DEBF0FBE1E
:1037A000CDBF80910001909101012817390730F4B5
:1037B0008DB79EB790930101809300016AE083E08A
:1037C0000E943B2A809101018F93809100018F9389
:1037D00083E894E09F938F930E94A4310F900F9001
:1037E0000F900F900F900F900F90DF91CF911F913E
:1037F0000F9108952FEF83EC99E021508040904085
:10380000E1F700C0000084E00E94062A84E00E94E4
:10381000062A01DF89E409CF10925801109259015C
:103820000895209159019091580181E0291380E079
:10383000089540915901209158014F5F50E030E0C8
:1038400081E04217530709F080E00895F2DF91E02C
:10385000811190E0892F0895ECDF882321F082E424
:103860000E941E11F9CF809159018F5F80935901F9
:103870000895809158018F5F809358010895809139
:10388000590190915801891B0895CF93DF931F929E
:10389000CDB7DEB7C6DF882321F082E60E941E1175
:1038A000F9CFE0915801F0E0E65FFC4F8081898319
:1038B000E0DF89810F90DF91CF910895E091590168
:1038C000F0E0E65FFC4F8083C7CF10925601109264
:1038D00057010895209157019091560181E02913D5
:1038E00080E00895209157014091560130E02F5F0C
:1038F0003F4F2F71332750E081E02417350709F03F
:1039000080E00895EFDF882321F082E40E941E11F9
:10391000F9CF809157018F5F8F7180935701089580
:10392000809156018F5F8F71809356010895E091C9
:103930005701F0E0E651FD4F8083E4CFCF93DF9352
:10394000C82FD0DF882321F085E50E941E11F9CF12
:10395000DFB7F8948C2FEBDF88EB8093C900DFBFD3
:10396000DF91CF9108950F931F93CF938B019C010B
:10397000CFB7F894775F824C9F4F42E0660F771F76
:10398000881F991F4A95D1F7A9019801E3E0220FFA
:10399000331F441F551FEA95D1F70E947133215000
:1039A00031093093CD002093CC0082E08093C80091
:1039B00088E98093C90086E08093CA002DDF85DF07
:1039C00084E080935A01CFBF81E1CF911F910F9185
:1039D000B5CF80915A0181FF0BC023DF882341F0CE
:1039E00080915A01846080935A0188EB8093C900CA
:1039F0004CCFCF93CFB7F89480915A0181FF0BC081
:103A000010DF882341F080915A01846080935A012D
:103A100088EB8093C900CFBFCF9131CF1F920F9217
:103A20000FB60F9211242F933F934F935F936F9391
:103A30007F938F939F93AF93BF93EF93FF93809167
:103A40005A0180FF07C083E18093CE0082E080931B
:103A50005A011AC080915A0182FF06C083E1809307
:103A6000CE0010925A0110C035DF882321F088E97A
:103A70008093C90009C0E0915601F0E0E651FD4F86
:103A800080818093CE004CDFFF91EF91BF91AF9189
:103A90009F918F917F916F915F914F913F912F9166
:103AA0000F900FBE0F901F9018951F920F920FB698
:103AB0000F9211242F933F934F935F936F937F93B4
:103AC0008F939F93AF93BF93EF93FF93D8DE81348F
:103AD00060F080915A0181FD08C080915A01816097
:103AE00080935A0188EB8093C900B0DE81110DC02C
:103AF00063E00E943B2A8CEE94E09F938F930E9498
:103B0000A4310E9483110F900F908091CE00D6DED9
:103B1000FF91EF91BF91AF919F918F917F916F91A5
:103B20005F914F913F912F910F900FBE0F901F907B
:103B3000189510925B0110925C01089520915C0130
:103B400090915B0181E0291380E0089520915C0150
:103B500040915B0130E02F5F3F4F2F71332750E0E2
:103B600081E02417350709F080E00895EFDF88230E
:103B700021F082E40E941E11F9CF80915C018F5FD9
:103B80008F7180935C01089580915B018F5F8F71CD
:103B900080935B01089580915C0190915B01891B8A
:103BA0008F710895CF92DF92EF92FF920F931F9340
:103BB000CF93DF93E0910A04F0910B04EF01858528
:103BC00080FF2BC08181813011F42F9A01C02F9882
:103BD0002F89388D498DC8A0D9A0EAA08E859F85F0
:103BE000A8895527820F931FA41F20F453958C1981
:103BF0009D09AE098E879F87A88B552371F02E9A59
:103C000029818C819D81AE81022E0594820F901DA9
:103C1000A01D8C839D83AE832E988D8581FF2BC044
:103C20008A81813011F42D9801C02D9A2A8D3B8D07
:103C30004C8DC8A0D9A0EAA089899A89AB8955275B
:103C4000820F931FA41F20F453958C199D09AE0970
:103C5000898B9A8BAB8B552371F02C9A2A818F819B
:103C60009885A985022E0594820F901DA01D8F8333
:103C70009887A9872C988D8582FF2BC08B818130F6
:103C800011F4469A01C046982D8D3E8D4F8DC8A0E7
:103C9000D9A0EAA08C899D89AE895527820F931FF0
:103CA000A41F20F453958C199D09AE098C8B9D8B14
:103CB000AE8B552371F0479A2B818A859B85AC8505
:103CC000022E0594820F901DA01D8A879B87AC87CA
:103CD0004798FE018D85877009F463C06DA57EA5A8
:103CE0006034710590F09B0101E02038310520F02F
:103CF0000F5F36952795F9CF2F73332750E4059F33
:103D000080011124022B132B01C08B01C3A0D4A06E
:103D1000E5A04E2D960121503109410980A191A1C4
:103D2000A2A18C199D09AE09281739074A0710F47A
:103D3000A42FC9010817190728F07801E81AF90A11
:103D4000C70102C080E090E0DC01C6E0B695A7950F
:103D5000CA95E1F75A2FAA2319F080645FEF5A0F32
:103D60008F779927552341F097FD04C0880F991F3D
:103D70005150F8CF8FEF9FEF6817790708F4CB0108
:103D8000803D57E0950710F480ED97E0909389000F
:103D90008093880023A334A345A381E0232B242B05
:103DA00009F480E0DF91CF911F910F91FF90EF9088
:103DB000DF90CF9008952F923F924F925F926F9233
:103DC0007F928F929F92AF92BF92CF92DF92EF92AB
:103DD000FF920F931F93CF93DF9300910A041091EA
:103DE0000B04E801888190E09C01205131092031C9
:103DF000310508F0E8C228583F4F6E847F848888D8
:103E00008EA19FA1A8A5B9A5C988DA88EB88F90178
:103E10000C94B3342A8D3B8D4C8D261937094809F3
:103E20001901442E552447FC5094281639064A0699
:103E30005B064CF021E0621A710881086E867F866D
:103E4000888A21E001C020E0FFEFCF1ADF0AEF0AE5
:103E5000F801C18AD28AE38A286086859785A0897D
:103E6000C816D906EA060CF4AFC281E1AAC22F89AE
:103E7000388D498D16014E2C221A330A440A5524D6
:103E800047FC5094281639064A065B064CF42FEF7F
:103E9000C21AD20AE20AC98ADA8AEB8A28E001C089
:103EA00020E0F1E06F1A71088108F80166867786D4
:103EB000808A21601614170418040CF485C282E16C
:103EC00080C22F89388D498D2C0D3D1D4E1D40958A
:103ED000309521953F4F4F4F1901442E552447FCF3
:103EE0005094281639064A065B064CF021E0C21AA7
:103EF000D108E108C98ADA8AEB8A24E001C020E00F
:103F0000F1E06F1A71088108F80166867786808A69
:103F1000216081899289A389A095909581959F4F71
:103F2000AF4F86159705A8050CF44EC283E149C230
:103F30002A8D3B8D4C8D260D371D481D40953095A3
:103F400021953F4F4F4F1901442E552447FC509463
:103F5000281639064A065B064CF421E0621A7108FD
:103F600081086E867F86888A21E001C020E0F1E02A
:103F7000CF1AD108E108F801C18AD28AE38A246005
:103F80001C141D041E040CF41FC284E11AC22A8DE5
:103F90003B8D4C8D1301482C221A330A440A5524B8
:103FA00047FC5094281639064A065B064CF02FEF62
:103FB000621A720A820A6E867F86888A22E001C0AF
:103FC00020E0F1E0CF1AD108E108F801C18AD28AD5
:103FD000E38A246086859785A0898C159D05AE05AA
:103FE0000CF4F2C185E1EDC12F89388D498D2C1972
:103FF0003D094E091901442E552447FC50942816BA
:1040000039064A065B064CF421E0C21AD108E108E1
:10401000C98ADA8AEB8A24E001C020E0FFEF6F1A38
:104020007F0A8F0AF80166867786808A2260882058
:104030000CF4CAC186E1C5C12F89388D498D2C0D7C
:104040003D1D4E1D1901442E552447FC5094281641
:1040500039064A065B064CF02FEFC21AD20AE20A72
:10406000C98ADA8AEB8A28E001C020E0FFEF6F1AE4
:104070007F0A8F0AF80166867786808A22608189A6
:104080009289A389A095909581959F4FAF4F68160F
:1040900079068A060CF498C187E193C12A8D3B8D7D
:1040A0004C8D260D371D481D1901442E552447FC03
:1040B0005094281639064A065B064CF42FEF621A14
:1040C000720A820A6E867F86888A22E001C020E01A
:1040D000FFEFCF1ADF0AEF0AF801C18AD28AE38A1A
:1040E0002860EE200CF470C180E16BC12A8D3B8DFD
:1040F0004C8D1301482C221A330A440A552447FCDC
:104100005094281639064A065B064CF42FEF621AC3
:10411000720A820A6E867F86888A22E001C020E0C9
:10412000F1E0CF1AD108E108F801C18AD28AE38A06
:1041300024601C141D041E040CF446C18FE141C10F
:104140002F89388D498D2C193D094E091901442EAE
:10415000552447FC5094281639064A065B064CF055
:1041600021E0C21AD108E108C98ADA8AEB8A24E080
:1041700001C020E0FFEF6F1A7F0A8F0AF801668600
:104180007786808A226081899289A389861597051E
:10419000A8050CF019C188E114C12F89388D498D0B
:1041A0002C0D3D1D4E1D1901442E552447FC5094E5
:1041B000281639064A065B064CF42FEFC21AD20ABB
:1041C000E20AC98ADA8AEB8A28E001C020E0FFEF20
:1041D0006F1A7F0A8F0AF80166867786808A2260C6
:1041E00088200CF4F1C089E1ECC02A8D3B8D4C8D08
:1041F000260D371D481D1901442E552447FC5094A7
:10420000281639064A065B064CF02FEF621A720A2E
:10421000820A6E867F86888A22E001C020E0FFEF56
:10422000CF1ADF0AEF0AF801C18AD28AE38A28602E
:10423000E094D094C094C11CD11CE11C8685978564
:10424000A089C816D906EA060CF0BEC08AE1B9C03A
:104250002A8D3B8D4C8D2619370948091901442EAA
:10426000552447FC5094281639064A065B064CF440
:1042700021E0621A710881086E867F86888A21E0B3
:1042800001C020E0FFEFCF1ADF0AEF0AF801C18A70
:10429000D28AE38A2860EE200CF496C08BE191C0AC
:1042A0002F89388D498D16014E2C221A330A440A63
:1042B000552447FC5094281639064A065B064CF0F4
:1042C0002FEFC21AD20AE20AC98ADA8AEB8A28E0F8
:1042D00001C020E0F1E06F1A71088108F8016686DC
:1042E0007786808A216081899289A38968167906F8
:1042F0008A060CF069C08CE164C02F89388D498D25
:104300002C0D3D1D4E1D4095309521953F4F4F4F33
:104310001901442E552447FC5094281639064A06A4
:104320005B064CF421E0C21AD108E108C98ADA8A96
:10433000EB8A24E001C020E0F1E06F1A71088108E7
:10434000F80166867786808A21601614170418049F
:10435000DCF18DE136C02A8D3B8D4C8D260D371D4D
:10436000481D4095309521953F4F4F4F1901442EE0
:10437000552447FC5094281639064A065B064CF033
:1043800021E0621A710881086E867F86888A21E0A2
:1043900001C020E0F1E0CF1AD108E108F801C18A9C
:1043A000D28AE38A2460E094D094C094C11CD11CCA
:1043B000E11C86859785A0898C159D05AE0524F4A2
:1043C0008EE1808301C020E020FF2AC02F98CF8893
:1043D000D88CE98CAE2DC6010197A1091C014A2E8B
:1043E000552447FC50948EA19FA1A8A5B9A5820D84
:1043F000931DA41DB51D8EA39FA3A8A7B9A702E076
:10440000C01AD108E108CF8AD88EE98E2E9A8C8105
:104410009D81AE810197A1098C839D83AE832E98E7
:1044200021FF2AC02F9ACF88D88CE98CAE2DC601E7
:104430000296A11D8F8B988FA98FAE2DC601019674
:10444000A11D1C014A2E552447FC50948EA19FA10A
:10445000A8A5B9A582199309A409B5098EA39FA39C
:10446000A8A7B9A72E9A8C819D81AE810196A11D26
:104470008C839D83AE832E9822FF2AC02D9ACA8CEE
:10448000DB8CEC8CAE2DC6010197A1094C01AA2E44
:10449000BB24A7FCB0948EA19FA1A8A5B9A5880DA7
:1044A000991DAA1DBB1D8EA39FA3A8A7B9A702E0B3
:1044B000C01AD108E108CA8EDB8EEC8E2C9A8F814F
:1044C0009885A9850197A1098F839887A9872C983A
:1044D00023FF2AC02D982A8D3B8D4C8DA42FC90116
:1044E0000296A11D8A8F9B8FAC8FA42FC9010196C4
:1044F000A11D1C014A2E552447FC50948EA19FA15A
:10450000A8A5B9A582199309A409B5098EA39FA3EB
:10451000A8A7B9A72C9A8F819885A9850196A11D76
:104520008F839887A9872C988D8582FF2BC08B81DC
:10453000813011F4469A01C046982D8D3E8D4F8DE5
:10454000C8A0D9A0EAA08C899D89AE895527820F81
:10455000931FA41F20F453958C199D09AE098C8BD1
:104560009D8BAE8B552371F0479A2B818A859B8555
:10457000AC85022E0594820F901DA01D8A879B8713
:10458000AC8747988E012AA53BA54CA550E0ADA568
:10459000BEA50E94583329893A8937FF03C0319557
:1045A00021953109F8014685578557FF03C051957C
:1045B00041955109241735070CF49A01442737FD1A
:1045C0004095542F0E9471333093890020938800C6
:1045D000F80123A134A145A121503109410923A3A8
:1045E00034A345A381E0232B242B09F480E0DF9141
:1045F000CF911F910F91FF90EF90DF90CF90BF90E0
:10460000AF909F908F907F906F905F904F903F9072
:104610002F900895CF92DF92EF92CF93DF93E091A6
:104620000A04F0910B04EF01858580FF2BC0818186
:10463000813011F42F9A01C02F982F89388D498D20
:10464000C8A0D9A0EAA08E859F85A8895527820F8A
:10465000931FA41F20F453958C199D09AE098E87D2
:104660009F87A88B552371F02E9A29818C819D817B
:10467000AE81022E0594820F901DA01D8C839D8318
:10468000AE832E988D8581FF2BC08A81813011F4F5
:104690002D9801C02D9A2A8D3B8D4C8DC8A0D9A094
:1046A000EAA089899A89AB895527820F931FA41F95
:1046B00020F453958C199D09AE09898B9A8BAB8B8D
:1046C000552371F02C9A2A818F819885A985022E15
:1046D0000594820F901DA01D8F839887A9872C9821
:1046E0008D8582FF2BC08B81813011F4469A01C0E9
:1046F00046982D8D3E8D4F8DC8A0D9A0EAA08C89FB
:104700009D89AE895527820F931FA41F20F45395CE
:104710008C199D09AE098C8B9D8BAE8B552371F046
:10472000479A2B818A859B85AC85022E0594820F42
:10473000901DA01D8A879B87AC8747988DA59EA555
:1047400090938900809388008D85877069F02BA1F4
:104750003CA14DA12150310941092BA33CA34DA3FC
:1047600081E0232B242B09F480E0DF91CF91EF909F
:10477000DF90CF900895EF92FF920F931F93CF9306
:10478000DF93E0910A04F0910B04EF01908185859D
:10479000913009F06AC080FF04C0789902C08E7F12
:1047A0008587858581FF04C0799902C08D7F8587C3
:1047B0008585982F9B7F958780FF0EC02E9A298133
:1047C0008C819D81AE81022E0594820F901DA01DCB
:1047D0008C839D83AE832E988D8581FF0EC02C9A8D
:1047E0002A818F819885A985022E0594820F901DBC
:1047F000A01D8F839887A9872C988D8582FF0EC076
:10480000479A2B818A859B85AC85022E0594820F61
:10481000901DA01D8A879B87AC8747988D85982F10
:10482000977009F582958F7091E1899F802D1124F1
:104830008D8781E089838FEF8A831B822F9A8A81FB
:10484000813011F42D9801C02D9A8B81813011F4A3
:10485000469A01C0469882E088838FEF9FEF90933D
:1048600089008093880081E0C9C080FF04C0789BE4
:1048700002C08E7F8587858581FF04C0799B02C039
:104880008D7F85878585982F9B7F958780FF0EC0BC
:104890002E9A29818C819D81AE81022E0594820FF2
:1048A000901DA01D8C839D83AE832E988D8581FFE6
:1048B0000EC02C9A2A818F819885A985022E059495
:1048C000820F901DA01D8F839887A9872C988D85B6
:1048D00082FF0EC0479A2B818A859B85AC85022E6C
:1048E0000594820F901DA01D8A879B87AC874798EF
:1048F000FE012D85822F877009F0B5CF22952F708C
:104900002D8720FF25C08C819D81AE817C010A2FDF
:10491000112707FD1095E0926C07F0926D07009348
:104920006E0710936F078F89988DA98D8C839D8357
:10493000AE83BB27A7FDB0958E199F09A00BB10BC5
:104940008093780790937907A0937A07B0937B07B9
:1049500021FF25C087819085A1857C010A2F112721
:1049600007FD1095E0927007F092710700937207AF
:1049700010937307828D938DA48D87839087A18771
:10498000BB27A7FDB0958E199F09A00BB10B809393
:104990007C0790937D07A0937E07B0937F0722FF4B
:1049A00025C082859385A4858C012A2F332727FD76
:1049B0003095009374071093750720937607309312
:1049C0007707858D968DA78D82879387A487BB27D0
:1049D000A7FDB095801B910BA20BB30B80938007B2
:1049E00090938107A0938207B093830710828FEF83
:1049F0009FEF909389008093880080E0DF91CF91B2
:104A00001F910F91FF90EF9008951F920F920FB694
:104A10000F921124CF92DF92EF92FF920F931F9388
:104A20002F933F934F935F936F937F938F939F93B6
:104A3000AF93BF93CF93DF93EF93FF9300910A045B
:104A400010910B04E80180915B012DB73EB7809176
:104A50000001909101012817390730F48DB79EB7F6
:104A60009093010180930001D801D9968C91982FE1
:104A7000929596959770869586958770981721F1EF
:104A800090FF05C081FF03C080E00E944D0CF8013B
:104A900081AD86FF07C082FF05C060E070E0CB01FA
:104AA0000E94610BD801D9968C918C7111F40E94EF
:104AB0004D0CF80181AD982F969596959295990F8A
:104AC000907E8F71892B81AFD8011D968C911D9797
:104AD00083FF12C1D2962D913D914C91D49790961F
:104AE000CD90DD90EC9092979F968D919D91AC9199
:104AF0005527820F931FA41F20F453958C199D09ED
:104B0000AE09F80187A790ABA1AB552309F4F4C017
:104B10008E0129AD822F869586958770982F947087
:104B200009F4BFC08AAD282F2695269526952F70AB
:104B300030E0877090E082179307ACF10E94E90A99
:104B4000CAAC2BAD3CAD882389F08C2D869586951B
:104B500086958F70690102C0CC0CDD1C8A95E2F746
:104B60000E94130BC82ADCAECBAE0FC08C2D8695ED
:104B7000869586958F7002C0220F331F8A95E2F7C3
:104B8000D801DC963C932E93DB97F80192AD892FE8
:104B9000869586958695885F8F70880F880F880F19
:104BA0009778982B92AF8E016AAD762F7770472F4A
:104BB00050E06695669566956F709A012F5F3F4F3E
:104BC000862F90E0089797FF02C080E090E0D9011F
:104BD000A81BB90BF80123AD34AD0A2E02C0220F79
:104BE000331F0A94E2F78FEF860F871B8F70880FB1
:104BF000880F880F92AD9778982B92AFE32EB9016A
:104C0000772774AF63AF42305105B9F044F44115D2
:104C1000510561F04130510509F585E51CC043306F
:104C20005105C1F04530510561F018C081E03111E6
:104C300001C080E0E82EE19411C089E0839FE02C60
:104C40001124F4E0EF9E90011124E2945FE0E5224C
:104C5000E22A04C081E1839FE02C1124D801D99677
:104C60008C9182FF03C08E2D0E944D0CF80181AD06
:104C700083FF42C0EE2009F43FC08FEF0E944D0C2D
:104C8000D801D5962D913D914C9150E0AE2DB0E0DC
:104C90000E945833672F782F892F99270E94610B24
:104CA0002BC081FF13C0F80180AD922F93709595B2
:104CB0008795959587950E944D0CF80185A996A931
:104CC000A7A9BC018A2F90E00E94610BD801D99658
:104CD0002C91D99722FF0AC0D8968C91922F93706D
:104CE00095958795959587950E944D0CF80181AD16
:104CF0008C7111F40E944D0C8E018881833071F00B
:104D000020F4813078F037DD0BC0843029F08051F9
:104D1000803140F450D804C07DDC02C00E94D21D16
:104D20008111FEC2D8011C92D9968C91D997837EAD
:104D3000D9968C930E949E1D8111F2C2E0915B0175
:104D4000BBE1EB9FF0011124E45FFB4F8081D801B0
:104D50009C91981731F0DA969C91DA979778DA96C9
:104D60009C93D801D9966C91D997562F5695569504
:104D70005770952F9295990F907E6F71692BD996E8
:104D80006C93D9978C93833009F4A0C060F4607E53
:104D9000813009F430C208F46EC28285D8011D96B4
:104DA0008C931D973CC2843009F433C1805180310B
:104DB00008F07CC2218132814381D80190962D93E5
:104DC0003D934C93929793962D933D934C93959747
:104DD000C480D580E6801E96CD92DD92EC925097ED
:104DE000CC0CDD1CEE1C5796CD92DD92EC925997BF
:104DF000C780D084E1845196CD92DD92EC92539796
:104E0000CC0CDD1CEE1C5A96CD92DD92EC925C9798
:104E1000C284D384E484F5849696CD92DD92ED929B
:104E2000FC929997C684D784E0889A96CD92DD92B9
:104E3000EC929C97818992899E969C938E939D97E4
:104E4000828D8C7171F4F80117A610AA11AAD2965E
:104E50001D921D921C9215AA16AA17AA10AE607E6A
:104E600008C2D8011D968C911D9788601D968C9361
:104E7000557049F44695379527954095309521957D
:104E80003F4F4F4F03C02FEF3FEF4FEFD8019F969B
:104E90002D933D934C93D197238934894589D2969C
:104EA0002D933D934C93D49726893789408DD59681
:104EB0002D933D934C93D797818D928D9370D89677
:104EC0008C93D897D9968C91D9977DC1D8011D968E
:104ED0001C921D9721813281438157962D933D93DA
:104EE0004C935997232B242B19F081E01D968C931A
:104EF000248135814681D8015A962D933D934C9358
:104F00005C97232B242B31F01D968C911D9782608A
:104F10001D968C93278130854185D8015D962D9310
:104F20003D934C935F97232B242B31F01D968C914E
:104F30001D9784601D968C932181328143818481E9
:104F40009581A68182179307A40710F4A42FC901A5
:104F50002781308541856C01EA2E82179307A407CB
:104F600010F46901E42ED8019096CD92DD92EC9276
:104F700092979396CD92DD92EC92AE2DC601A695B6
:104F800097958795222733274427281B390B4A0BEF
:104F9000D8011E962D933D934C93509751962D9387
:104FA0003D934C93539754962D933D934C93828508
:104FB00080FF02C08FEF01C081E0D80111968C9371
:104FC000828581FF02C08FEF01C081E0D801129677
:104FD0008C93828582FF02C08FEF01C081E0D801EF
:104FE00013968C931397818992899E969C938E93A6
:104FF0009D97F80117A610AA11AAD2961D921D928C
:105000001C9215AA16AA17AA10AE81AD807E81AF98
:105010004DC1D8011D961C921D972181328143817B
:1050200057962D933D934C935997232B242B19F08E
:1050300081E01D968C93248135814681D8015A9652
:105040002D933D934C935C97232B242B31F01D968D
:105050008C911D9782601D968C93278130854185A8
:10506000D8015D962D933D934C935F97232B242B72
:1050700031F01D968C911D9784601D968C93218133
:105080003281438184819581A68182179307A40789
:1050900010F4A42FC9012781308541856C01EA2EC7
:1050A00082179307A40710F46901E42ED8019096A3
:1050B000CD92DD92EC9292979396CD92DD92EC9206
:1050C000AE2DC601A69597958795CC24DD24EE24B8
:1050D000C81AD90AEA0AD8011E96CD92DD92EC923E
:1050E00050975196CD92DD92EC9253975496CD9273
:1050F000DD92EC92228520FF02C02FEF01C021E05B
:10510000D80111962C93228521FF02C02FEF01C0F8
:1051100021E0D80112962C93228522FF02C02FEFA6
:1051200001C021E0D80113962C931397218932896D
:105130009E963C932E939D97228D2C71D9963C91EF
:10514000D99721110FC0F80117A610AA11AAD2965B
:105150001D921D921C9215AA16AA17AA10AE307E97
:1051600031AFA4C0D8011D962C911D9728601D96C3
:105170002C93557021F44C2D2D2D8E2D03C04FEF07
:105180002FEF8FEFD8019F964C939F97D0962C933B
:10519000D097D1968C93D197C388D488E588D2963E
:1051A000CD92DD92EC92D497C688D788E08CD596C4
:1051B000CD92DD92EC92D797818D928D9370D89697
:1051C0008C93D897832F8C7F892BD9968C93D997E2
:1051D000928D9C71837E892BD9968C93D997928DD1
:1051E000929596959770DA968C91DA97887F892BAD
:1051F000DA968C935BC0228591E1299F902D112432
:105200009777D8011D969C931D979FEF11969C93BD
:10521000119712968C93129713961C9213972181D3
:105220003281438157962D933D934C935997248116
:10523000358146815A962D933D934C935C972781F7
:10524000308541855D962D933D934C935F97818981
:1052500092899E969C938E939D97F80117A610AA0B
:1052600011AAD2961D921D921C9215AA16AA17AACF
:1052700010AE61AF1BC0D8019F961D921D921C926B
:10528000D197F80112AA13AA14AAD5961D921D92BD
:105290001C92D797D8961C92D897D9966C93D99789
:1052A0008FEF9FEF9E969C938E939D970E94C41DB7
:1052B000F8018181813011F42F9A01C02F988A81E1
:1052C000813011F42D9801C02D9A8B81813011F419
:1052D000469A01C046988E0129AD23FF0CC088A1D3
:1052E00099A1AAA1A69597958795A0959095819546
:1052F0009F4FAF4F03C08FEF9FEFAFEFF80187A72E
:1053000090ABA1AB2C7119F480E00E944D0CD80138
:105310009D968D919C919E97909389008093880093
:10532000FF91EF91DF91CF91BF91AF919F918F91BD
:105330007F916F915F914F913F912F911F910F91AD
:10534000FF90EF90DF90CF900F900FBE0F901F90C7
:1053500018950E949E1D811104C083E50E941E11B4
:10536000F8CF80918407882321F083E70E941E11E3
:10537000F8CF0C94DC0AEF92FF920F931F932FB794
:10538000F89490E0FC01EE0FFF1FE80FF91FEC57B7
:10539000F84F84819581A6817C010A2F112707FD92
:1053A0001095C801B7012FBF1F910F91FF90EF908B
:1053B00008950E94991D269A2E98279A2F988098D2
:1053C0008898249A2C98259A2D9A819889983F9AA2
:1053D00047983E9A469884E897E090930B04809310
:1053E0000A041092800089E0809381008FEF9FEF84
:1053F0009093890080938800109285001092840019
:10540000EFE6F0E080818260808308950E94CA11F7
:105410002FEF8FEC97E0215080409040E1F700C0E3
:10542000000083E00E94B7112FEF8CEC90E0215038
:1054300080409040E1F700C0000083E00E94B71177
:105440008FE396E00197F1F700C0000082E30E942D
:10545000D51188E20E94D5118CE00E94D51181E01F
:105460000E94D5118FE393E80197F1F700C0000087
:1054700086E00C94D511823031F0833031F08130E8
:1054800039F480E403C084E101C084E5860F01C0E3
:10549000862F80680C94D5118CE1E1ECF7E0DF01F8
:1054A0001D928A95E9F708952F923F924F925F924D
:1054B0006F927F928F929F92AF92BF92CF92DF9224
:1054C000EF92FF920F931F93CF93DF93CDB7DEB789
:1054D0006C970FB6F894DEBF0FBECDBF6B017C0199
:1054E0008091C4079091C507A091C6072091CD0770
:1054F0003091CE074091CF07821B930BA40BBC01C8
:105500008A2F0E94481A9B01AC018091C10790919B
:10551000C207A091C3076090CA077090CB07809024
:10552000CC0786199709A809BC018A2F298B3A8BC9
:105530004B8B5C8B0E941F1A29893A894B895C89A5
:105540000E949D0A30915C010BE1309F50011124B3
:105550009501245F3B4F3E8B2D8BA70196012F5F5A
:105560003F4F4F4F5F4F2D873E874F87588B20907F
:10557000CA073090CB074090CC07A090C107B090ED
:10558000C207C090C30791012A193B0937FF03C026
:10559000319521953109442737FD4095AD89BE8964
:1055A00011962D933D934C93E090CD07F090CE074C
:1055B0000091CF07EC82FD820E83E090C407F0904B
:1055C000C5070091C607EF82F88609876C807D8049
:1055D0006E187F0877FE03C0719461947108882467
:1055E00077FC8094AD89BE8914966D927D928C92E1
:1055F000E090D007F090D1070091D207EF8AF88EA3
:10560000098FE090C707F090C8070091C907EA86A4
:10561000FB860C87EF89F88DEE19FF09F7FF03C0B1
:10562000F195E195F1097F010027F7FC0095AD891F
:10563000BE891796ED92FD920C9351E02A143B041B
:105640004C040CF050E0AF80B884C984EC80FD803D
:105650000E81EA14FB040C0514F4E2E001C0E0E062
:10566000E52BAA84BB84CC84EF88F88C098DEA14DE
:10567000FB040C0514F454E001C050E05E2BAD892E
:10568000BE891A965C93A82C430182169306A40641
:1056900010F44901A42E20E034E244EF50E00E94CF
:1056A000EC3319012A013B0189839C834A2D940123
:1056B00050E06D857E858F8598890E94DF33590182
:1056C0006A017B018C019101A201B30189819C8156
:1056D0000E94D433ED89FE89218B328B83E0808355
:1056E000828D837E828F0E94B61D8091CA07909121
:1056F000CB07A091CC078093C1079093C207A093DA
:10570000C3078091CD079091CE07A091CF078093DA
:10571000C4079093C507A093C6078091D0079091C6
:10572000D107A091D2078093C7079093C807A09391
:10573000C9076C960FB6F894DEBF0FBECDBFDF91E0
:10574000CF911F910F91FF90EF90DF90CF90BF907E
:10575000AF909F908F907F906F905F904F903F9011
:105760002F9008952F923F924F925F926F927F9267
:105770008F929F92AF92BF92CF92DF92EF92FF9261
:105780000F931F93CF93DF93CDB7DEB766970FB616
:10579000F894DEBF0FBECDBF6B877C878D879E8759
:1057A0008091C4079091C507A091C6072091CD07AD
:1057B0003091CE074091CF07821B930BA40BBC0105
:1057C0008A2F0E94481A9B01AC018091C1079091D9
:1057D000C207A091C3076090CA077090CB07809062
:1057E000CC0786199709A809BC018A2F2F87388B07
:1057F000498B5A8B0E941F1A2F85388949895A89EB
:105800000E949D0A6F83788789879A8780915C01BF
:105810000BE1809F100111249101245F3B4F19017E
:105820008091CA079091CB07A091CC078B8B9C8B62
:10583000AD8B8090C1079090C207A090C3078B8961
:105840009C898819990997FF03C0919581959109C1
:10585000AA2797FDA095F10181839283A3830091EC
:10586000CD071091CE072091CF0709831A832B8390
:105870002091C4073091C5074091C6072C833D8312
:105880004E83A801421B530B57FF03C0519541950E
:105890005109662757FD6095F1014483558366835E
:1058A000C090D007D090D107E090D2074090C707B2
:1058B0005090C8076090C90796012419350937FF31
:1058C00003C03195219531098901222717FD2095C3
:1058D000F10107831087218771E00B891C892D89CD
:1058E000081519052A050CF070E08C809D80AE80AB
:1058F00009811A812B81081519052A0514F432E053
:1059000001C030E0372BC414D504E60414F424E0BD
:1059100001C020E0232BF10122874A01A62E48175F
:1059200059076A0710F44C01AA2E6F817885898582
:105930009A8520E034E244EF50E04ED729013A0145
:105940006E8B7B8B89839C834A2D940150E06B8501
:105950007C858D859E8533D759016A017B018C0139
:105960009201A3016E897B8989819C811DD7F101F8
:10597000218B328B84E0808380917B0190917C012C
:10598000A0917D01B0917E010097A105B105A9F418
:1059900080916D0190916E01A0916F01BC018A2FE1
:1059A00090E02F81388549855A858CD620E432E4F1
:1059B0004FE050E096D6A42FC901F101838B948B60
:1059C000A58B8091700190917101A0917201868BDD
:1059D000978BA08F9091780180917901918F828F20
:1059E0000E94B61D8091CA079091CB07A091CC0769
:1059F0008093C1079093C207A093C3078091CD07FE
:105A00009091CE07A091CF078093C4079093C507CC
:105A1000A093C6078091D0079091D107A091D2079B
:105A20008093C7079093C807A093C90766960FB6DF
:105A3000F894DEBF0FBECDBFDF91CF911F910F91C4
:105A4000FF90EF90DF90CF90BF90AF909F908F909E
:105A50007F906F905F904F903F902F9008952F927E
:105A60003F924F925F926F927F928F929F92AF92EE
:105A7000BF92CF92DF92EF92FF920F931F93CF933B
:105A8000DF93CDB7DEB763970FB6F894DEBF0FBED6
:105A9000CDBF6B877C878D879E87542ED0905C010D
:105AA0008091D3079091D407A091D5076090C1074A
:105AB0007090C2078090C307681A790A8A0AE0903A
:105AC000CA07F090CB070091CC07E81AF90A0A0B35
:105AD000EC82FD820E838091D6079091D707A0912A
